:0400000002006D325B
:01000B0032C2
:0100130032BA
:01001B0032B2
:0100230032AA
:01002B0032A2
:0300330002067E44
:01003B003292
:03004300023F0079
:01004B003282
:03005300023F0069
:01005B003272
:0300630002068210
:0300E400020066B1
:050066001200E780FE1E
:0900E700788176007880760090A3
:0E00F000E60B7403F000000000000090E60034
:0E00FE007410F075800175B28175900075B3B5
:0E010C00FF75B00075B58090E67AE0FA440108
:0B011A00F090E60174E0F012023A9051
:0E012500E6097403F000000075890100000077
:06013300788276000876D8
:04013900E17884766F
:05013D00120876E178D4
:0501420086761C087622
:04014700E17888765D
:0A014B004A0876E1D2E843D820907C
:0E015500E668E0FA4409F090E65CE0FA443D0A
:0E016300F0D2AF90E680E0FA54F7F0538EF839
:080171001201B67898E6600760
:070179001201927898760054
:050180007881E6600734
:070185007881760012308A38
:05018C0012068280E074
:01019100224B
:0A01920090E680E0FA440AF07A00DB
:02019C00DAFE89
:0E019E0090E65D74FFF090E65F74FFF0539101
:0901AC00EF90E680E0FA54F7F050
:0101B5002227
:0501B6007880E6605FA7
:0601BB007890A60B08A6D7
:0601C1000C08A60D08A6C3
:0401C7000E7894A674
:0601CB000F08A61008A6B3
:0501D1001108A6121246
:0601D60002BCE582700886
:0801DC0090E6A0E0FA4401F0F6
:0C01E400789086020886030886040886CE
:0601F000058A0B8B0C8C4C
:0401F6000D8D0E78E5
:0C01FA0094860208860308860408860527
:050206008A0F8B108C33
:04020B00118D1290AF
:0B020F00E6A0E0FA4480F07880760062
:01021A0022C1
:0E021B0090E6837401F07421F07411F07431D8
:0E022900F090E6837402F07422F07416F07404
:0202370036F09F
:0102390022A2
:0E023A0090E610E4F000000090E611E4F00001
:0E024800000090E612E4F000000090E613E4DF
:0D025600F000000090E614E4F000000090BD
:0E026300E615E4F000000090E618E4F000005C
:0E0271000090E619E4F000000090E61AE4F0B8
:0E027F0000000090E61BE4F000000090E61086
:0E028D0074A0F000000090E61174A0F00000D4
:0E029B000090E61274A0F000000090E61474CB
:0E02A900E0F000000090E68DE4F0000000128E
:0502B70008FC0208C470
:0C02BC0090E6B9E0FA24F4500302056B50
:0702C800EA2A2A9002CF731D
:0702CF000203B60204400225
:0602D600056B0204EA02C0
:0602DC00056B02056B0238
:0602E20002F302056B02AD
:0602E80003A102038F02D6
:0502EE00036802037D1E
:0A02F30090E6BBE0FABA0102800FAA
:0502FD00BA0202803688
:05030200BA0602801B99
:05030700BA075A804214
:09030C00788290E6B308E6F0786F
:0B0315008286027B0090E6B4EAF00252
:02032000056E68
:09032200788490E6B308E6F07857
:0B032B008486027B0090E6B4EAF0023A
:02033600056E52
:09033800788A90E6B308E6F0783B
:0B0341008A86027B0090E6B4EAF0021E
:02034C00056E3C
:09034E00788C90E6B308E6F07823
:0B0357008C86027B0090E6B4EAF00206
:02036200056E26
:04036400758200227C
:0803680090E740788FE6F09069
:0B037000E68AE4F090E68B7401F002D6
:02037B00056E0D
:0A037D0090E6BAE0FA788FA60212AB
:06038700023A12021B0203
:02038D00056EFB
:0A038F0090E6BAE0FA788EA602129A
:06039900023A12021B02F1
:02039F00056EE9
:0803A10090E740788EE6F09031
:0B03A900E68AE4F090E68B7401F0029D
:0203B400056ED4
:0A03B60090E6B8E0FABA8002800A6F
:0503C000BA8102801B60
:0503C500BA8274802CD7
:0A03CA0090E740E4F090E741F09066
:0A03D400E68AF090E68B7402F00256
:0203DE00056EAA
:0A03E00090E740E4F090E741F09050
:0A03EA00E68AF090E68B7402F00240
:0203F400056E94
:0E03F60090E6BCE0FA53027E90E6BCE0FBC34A
:0E04040074809BE433FB4A9030CD93FA33951D
:0E041200E0FB74A12AFA74E63BFB8A828B831E
:0E042000E0FA53020190E740EAF090E741E471
:0C042E00F090E68AF090E68B7402F00279
:02043A00056E4D
:04043C0075820022A3
:0704400090E6B8E0FA600845
:05044700BA0202801260
:03044C0002056E38
:0B044F0090E6BAE0FABA010302056E65
:04045A007582002285
:09045E0090E6BAE060030204E636
:0E04670090E6BCE0FA53027E90E6BCE0FBC3D8
:0E04750074809BE433FB4A9030CD93FA3395AC
:0E048300E0FB74A12AFA74E63BFB90E6BCE0B5
:0E049100FC53047E90E6BCE0FDC374809DE445
:0E049F0033FD4C9030CD93FC3395E0FD74A1FD
:0E04AD002CFC74E63DFD8C828D83E0FC530434
:0E04BB00FE8A828B83ECF090E6BCE05480FA5F
:0E04C900C423541FFA90E6BCE0FB740F5B9056
:0D04D700E6832AF090E683E0FA4420F0026C
:0204E400056EA3
:0404E60075820022F9
:0704EA0090E6B8E0FA60059E
:0504F100BA027A801838
:0A04F60090E6BAE0FABA0102806E47
:0A05000090E6BAE0FABA0202806445
:04050A0075820022D4
:0E050E0090E6BCE0FA53027E90E6BCE0FBC330
:0E051C0074809BE433FB4A9030CD93FA339504
:0E052A00E0FB74A12AFA74E63BFB90E6BCE00D
:0E053800FC53047E90E6BCE0FDC374809DE49D
:0E05460033FD4C9030CD93FC3395E0FD74A155
:0E0554002CFC74E63DFD8C828D83E0FC43049C
:09056200018A828B83ECF0800316
:03056B00020AB3CE
:03056E0075820192
:010571002267
:0C057200C0E0C082C083C0007880760129
:09057E005391EF90E65D7401F069
:09058700D000D083D082D0E03214
:0E059000C0E0C082C0835391EF90E65D74041A
:01059E00F06C
:07059F00D083D082D0E032CE
:0E05A600C0E0C082C0835391EF90E65D740206
:0105B400F056
:0705B500D083D082D0E032B8
:0D05BC00C0E0C082C083C002C003C0007850
:0A05C900888602088603788AA602DD
:0C05D30008A6038A828B83A37402F078D0
:0A05DF00868602088603788CA602C7
:0E05E90008A6038A828B83A37407F05391EF58
:0605F70090E65D7410F0B7
:0D05FD00D000D003D002D083D082D0E032F5
:0C060A00C0E0C082C083C000788176018F
:090616005391EF90E65D7408F0C9
:09061F00D000D083D082D0E0327B
:0D062800C0E0C082C083C002C003C00090CB
:07063500E680E0FA30E72C3B
:0A063C0078868602088603788AA6F5
:0D0646000208A6038A828B83A37402F07859
:0A065300888602088603788CA60250
:0B065D0008A6038A828B83A37407F0B9
:090668005391EF90E65D7420F05F
:0D067100D000D003D002D083D082D0E03280
:03067E0053D8EF5F
:010681003246
:0530BE0001020000808A
:0530C300010000008087
:0530C800010000008082
:0A30CD0000010202030304040505DC
:0A00C600789876007899E4F608F6C1
:0C00D00008F608F6789DE4F608F608F63D
:0800DC0008F678A1E4F608F62D
:070682001206D4E5826014AA
:0706890012069EE582700DD0
:0B0690001207C878A6760175820002F0
:02069B0007D185
:01069D00223A
:07069E0078A3E624FA402BCB
:0A06A50078A3E625E0269006AF7367
:0706AF000206C10206C402AD
:0606B60006C70206D00297
:0506BC0006CA0206CD94
:0306C10002095CCF
:0306C4000209C068
:0306C70002160513
:0306CA0002225DAC
:0306CD00022ACB33
:0306D00075820030
:0106D3002204
:0506D400E5BA30E1046D
:0406D9007582002204
:0706DD0078A676007A807B0D
:0606E400E78B9A7A807B8F
:0C06EA00E77B008A9B90E67BE0FA7B0037
:0506F6000ABA00010B2F
:0E06FB0090E68DE0FC7D00EAB50406EBB50547
:030709000280115A
:0B070C001207C878A676017582001263
:0607170007D175820022EB
:0A071D0090E67BE0FA78A3A60290B4
:09072700E67BE0FA78A4A602903A
:0B073000E67BE0FA78A5A602758201C6
:01073B00229B
:08073C001201B6E5BA30E10438
:04074400750A002210
:0C07480090E780E0FA7B000ABA00010B89
:0E07540090E68DE0FC7D00EAB50406EBB505ED
:0307620002801101
:0B0765001207C878A67601758200120A
:0607700007D1750AFF220B
:0B07760090E781E0FA78A3E6B50213DB
:0C07810090E782E0FA78A4748046FBEA5E
:03078D00B50304AD
:04079000750A0122C3
:0607940090E781E0700C0B
:08079A0090E782E0FABA0204C4
:0407A200750A0222B0
:0307A600750AFFD2
:0107A900222D
:0807AA00AA827B0B7C007D405C
:0E07B20090E67BE0FE8B828C838DF01230038C
:0707C000A3AB82AC83DAEB6E
:0107C700220F
:0807C80090E68DE4F000000052
:0107D0002206
:0707D100AA82E5BA30E20143
:0107D80022FE
:0707D9007BC07CE78C9D7BD7
:0807E000C07CE77C008B9E90B9
:0807E800E67CEA04F078A6901B
:0707F000E67CE6F07B0B7CC8
:0507F700007D408A06B0
:0307FC00EE601795
:0E07FF008B828C838DF012309EFFA3AB82ACF8
:09080D008390E67CEFF01E80E60A
:0A08160090E68F74022AF000000043
:0108200022B5
:07082100AA82E5BA30E201F2
:0108280022AD
:070829007BC07CE78C9D7B86
:08083000C07CE77C008B9E9068
:08083800E67CEA04F078A690CA
:04084000E67CE6F07C
:010844002291
:05084500E5BA30E201FC
:01084A00228B
:08084B0090E7C178A6E6F090E9
:0C085300E7C0E0FA90E68F04F00000001F
:01085F002276
:0E086000AA82AB83ACF090E67BE0FDC002C044
:0E086E0003C004C0051207C8D005D004D00393
:07087C00D002E5BA30E201F1
:010883002252
:070884007EC07FE78F9D7E1F
:08088B00C07FE77F008E9E9004
:0C089300E67CED04F090E67CE4F08D06BD
:03089F00EE6017F1
:0E08A2008A828B838CF012309EFFA3AA82AB59
:0908B0008390E67CEFF01E80E667
:0A08B90090E68F74022DF00000009D
:0108C3002212
:0E08C40090E618E4F000000090E6047480F066
:0E08D20000000090E6047402F00000007A04BA
:0B08E00090E6497482F0000000DAF599
:0E08EB0090E604E4F000000090E6A3E4F000C4
:0208F9000000FD
:0108FB0022DA
:0E08FC0090E61AE4F000000090E6047480F02C
:0D090A0000000090E6047406F0000000906C
:0E091700E604E4F000000090E6A5E4F0000025
:0109250000D1
:0109260022AE
:0809270090E680E0FA30E706DB
:06092F007A007B02800447
:040935007A407B0089
:0E09390090E624EBF000000090E680E0FA303B
:02094700E706C1
:060949007A007B0280042D
:04094F007A407B006F
:0809530090E625EAF000000027
:01095B002279
:07095C0078A4B60202800737
:0709630078A4B603508005E3
:05096A001207C8804DDA
:0A096F007582041207AA1207C8E5FA
:080979000BF4FAE50CF4FBE5B8
:0A0981000DF4FCE50EF4FD747B2A72
:0C098B00FAE43BFBE43CFCE43DFD8A0B7D
:050997008B0C8C0D8D9E
:05099C000E1217727835
:0C09A10099E4F608F608F608F61208FCC7
:0B09AD001208C47582041207D18004F8
:0409B8007582002222
:0309BC0075820140
:0109BF002215
:0709C00078A4B602028023B7
:0709C70078A4B6030280339F
:0709CE0078A4B60402803991
:0709D50078A4B60902803F7F
:0709DC0078A4B60A02804F67
:0709E30078A4B60B54804D0F
:0709EA001207C8750B11751F
:0609F1000C00750D0075FD
:0A09F7000E007582041207D1803F44
:0D0A01001207C8D2B77582001207D18032EB
:0D0A0E001207C8C2B77582001207D18025FB
:070A1B001207C8750B0075FE
:060A22000C20750D0075AB
:0A0A28000E007582041207D1800E43
:050A32001214408009D0
:050A37001211F2800421
:040A3C00758200229D
:030A4000758201BB
:010A43002290
:0A0A4400AA82AB83E50845097001A2
:010A4E002285
:070A4F00AC14BCE6028005B7
:050A56008B05BDE63137
:080A5B008A068B07AC13AD14F1
:0E0A63008E028F038C828D83E0F88A828B8353
:060A7100F00EBE00010FB3
:050A77000CBC00010DA4
:080A7C00150874FFB50802150E
:010A84000968
:060A8500E508450970D8E8
:010A8B002248
:0C0A8C008C9AAC137E008C9B8D9D7B002F
:050A98008A9E020A9E87
:010A9D002236
:080A9E00A90890E67B05869093
:040AA600E67C05865F
:080AAA00E00586F00586D9F88D
:010AB2002221
:0A0AB30090E6B9E0FABAA202804A08
:050ABD00BAA302804510
:060AC200BAE103020D88F9
:060AC800BAE203020D6812
:060ACE00BAE303020D680B
:060AD400BAE403020D4824
:060ADA00BAE503020D481D
:060AE000BAE603020C530C
:060AE600BAE703020C80D8
:060AEC00BAE803020CC889
:060AF200BAE903020D2821
:060AF800BAEA03020CF74C
:060AFE00BAEB03020DA893
:030B0400020DC817
:0B0B070090E6BAE0FAA3E0FB8A0B8B3B
:0A0B12000C90E6BEE0FAA3E0FB90B1
:090B1C00E6B8E0FCBCC002800355
:030B2500020BB808
:070B2800EA4B7003020DCC43
:080B2F0090E6A0E0FC20E1F8D3
:080B370090E6B9E0FCBCA2113C
:0A0B3F00750D00750E00C002C00322
:070B4900121066D003D00278
:090B5000C3EA9440EB9400500646
:060B59008A0D8B0E8006E0
:060B5F00750D40750E004B
:080B650090E6B9E0FCBCA20D12
:0D0B6D00C002C003120FB9D003D002801ADD
:040B7A00850D088558
:030B7E000E0990CD
:040B8100E740850BB9
:030B850013850CC9
:0C0B880014C002C003120A44D003D002C3
:080B940090E68AE4F0AC0DAD1F
:080B9C000E90E68BECF0EC2555
:070BA4000BFEED350CFF8E86
:0A0BAB000B8F0CEAC39CFAEB9DFBD4
:030BB500020B2808
:0A0BB80078A1E608467003020C4F16
:0C0BC20090E6BCE0FCA3E0FD78A1E6B5E5
:090BCE00040708E6B505028002E7
:020BD700807626
:080BD90090E6B8E0FCBC406EA0
:070BE100EA4B7003020DCC8A
:090BE80090E68AE4F090E68BF03F
:080BF10090E6A0E0FC20E1F811
:0A0BF90090E68BE0FC7D008C0D8D72
:090C03000E90E6B9E0FCBCA31F51
:040C0C00850D0885C5
:030C10000E098545
:060C13000B82850C8375C5
:030C190013407510
:070C1C0014E7C002C003123F
:080C23000A44D003D002800B4B
:0B0C2B00C002C003121066D003D0020C
:060C3600AC0DAD0EEC2533
:070C3C000BFEED350CFF8EED
:0A0C43000B8F0CEAC39CFAEB9DFB3B
:020C4D00809293
:040C4F007582002288
:0A0C530090E6B8E0FABAC002800390
:030C5D00020DCCB9
:080C600090E6A0E0FA20E1F8A3
:0E0C680090E7407405F0A37403F090E68AE470
:0A0C7600F090E68B7402F0020DCC42
:0A0C800090E6B8E0FABAC002800363
:030C8A00020DCC8C
:080C8D0090E6A0E0FA20E1F876
:0E0C950090E740E4F0A3F0A3F0A3F090E74452
:0E0CA30075F000740D123003A3E4123003A3A9
:0A0CB100E4123003A3E412300390B4
:0B0CBB00E68AE4F090E68B7408F0027B
:020CC6000DCC53
:080CC80090E6B8E0FABA4023FF
:090CD00090E68AE4F090E68BF056
:080CD90090E6A0E0FA20E1F82A
:0C0CE10090E740E0FAA3E0FB78A1A60237
:060CED0008A603020DCC75
:040CF30075820022E4
:080CF70090E6B8E0FABA4025CE
:070CFF0078A1E60846601E23
:0C0D060090E6BCE0FAA3E0FB78A1E6B5A3
:090D1200020708E6B503028002A5
:020D1B0080074F
:070D1D0078987601020DCC6D
:040D240075820022B2
:070D2800750BF0750C3F751F
:060D2F000D04750E0075B5
:060D35000FCD7510AB901C
:070D3B00E6B8E0FABAC003BC
:030D4200020DD0CF
:030D4500020EE9B2
:070D4800750BE0750C3F750F
:060D4F000D0C750E00758D
:060D55000F7875105690A6
:070D5B00E6B9E0FABAE40377
:030D6200020DD0AF
:030D6500020EE992
:070D6800750BC0750C3F750F
:060D6F000D10750E007569
:060D75000FCD7510AB90DC
:070D7B00E6B9E0FABAE20359
:030D8200020DD08F
:030D8500020EE972
:070D8800750BA0750C3F750F
:060D8F000D1C750E00753D
:060D95000FCD7510AB90BC
:070D9B00E6B8E0FABAC0035C
:030DA200020DD06F
:030DA500020EE952
:070DA800750BF8750C3F7597
:060DAF000D02750E007537
:060DB5000FCD7510AB909C
:070DBB00E6B8E0FABAC0033C
:030DC200020DD04F
:030DC500020EE932
:040DC800758200220E
:030DCC007582012C
:010DCF002201
:0C0DD0007AFF90E6B8E0FBBBC002800494
:040DDC0075820022FA
:050DE000AB0DAC0E7527
:0A0DE5000D00750E00C002C003C02F
:0E0DEF0004121066D004D003D00274032BFB54
:0A0DFD00E43CFC8B0D8C0EC00212CA
:0A0E07000FB9D002E50D24FDFBE554
:070E11000E34FFFC8B0D8C79
:0B0E18000E90E740E0FBA3E0FCEBB510
:060E23000F48ECB510447D
:040E29007A007B00D0
:0A0E2D007403250DFCE4350EFD8B67
:0A0E3700067F00C3EE9CEF9D502CD7
:0A0E4100EB2440F582E434E7F5836A
:0A0E4B00E0FC2AFAEB2440FCE4343A
:0A0E5500E7FD74022B2440F582E44F
:0C0E5F0034E7F583E0FE8C828D83F00BFD
:020E6B0080C045
:030E6D00EA6064D4
:040E7000850D08855F
:030E74000E0990D4
:090E7700E6B9E0FABAE1028034A8
:050E8000BAE202803D12
:050E8500BAE402800543
:050E8A00BAE9438017E6
:020E8F007A00E7
:030E9100BA0C0098
:020E9400503ECE
:0A0E9600EA2440F582E434E7F58316
:060EA0007430F00A80EB43
:050EA60090E740751308
:030EAB00E67514D5
:060EAE0030120A4480200E
:050EB40090E7407513FA
:030EB900EA7514C3
:060EBC0030120A4480120E
:050EC20090E7407513EC
:030EC70006751499
:060ECA0031120A4480040D
:040ED0007582002205
:0C0ED40090E68AE4F000000090E68BE558
:080EE0000DF000000075820115
:010EE80022E7
:080EE90090E6B8E0FABA401CE3
:070EF10078A1E60846601538
:0C0EF80090E6BCE0FAA3E0FB78A1E6B5B0
:090F0400020708E6B503028004AF
:040F0D0075820022C7
:090F110090E68AE4F090E68BF012
:080F1A0090E6A0E0FA20E1F8E6
:070F220090E68AE0FA70146A
:050F2900AA0DAB0E90C3
:0E0F2E00E68BE0FC7D00B50206EDB503028007
:010F3C0004B0
:040F3D007582002297
:060F41008A15AD158D06B6
:060F47008E071EEF60257D
:0C0F4D00C002C00374022E2440FFE434F4
:090F5900E7FCEE2440F582E434CB
:0C0F6200E7F583E0FA8F828C83F0D00367
:040F6E00D00280D558
:080F720090E740E50FF0A3E554
:050F7A0010F07C407E38
:0A0F7F00E78E9A759B407C00740217
:030F89002515FD2E
:090F8C0090E67BE0FE2CFCDDF791
:0A0F9500740225152440F582E434AF
:0C0F9F00E7F583C3E49CFCF074032AFA1D
:080FAB00E43BFB8A0D8B0E12E2
:050FB3001066758201CB
:010FB8002216
:050FB900E50DFA7004D3
:040FBE007582012215
:080FC20090E678E0FB20E6F860
:0C0FCA0090E6787480F090E67974A3F053
:080FD60090E678E0FB30E0F842
:080FDE0090E678E0FB20E274CC
:080FE60090E678E0FB30E16CBD
:030FEE00BA01083D
:080FF10090E678E0FB4420F0DB
:070FF90090E679E07B407CEB
:06100000E78C9A7B407CA6
:05100600E77C008B9B5C
:04100B00DA0280265F
:08100F0090E678E0FB30E0F808
:0810170090E678E0FB20E23BCB
:03101F00BA01080B
:0810220090E678E0FB4420F0A9
:0B102A0090E679E0FB90E67BF080D6BA
:0810350090E678E0FA30E0F8E3
:08103D0090E678E0FA20E215CC
:0E10450090E678E0FA4440F090E679E0FA9008
:07105300E67BF0758201222B
:0B105A0090E678E0FA4440F075820058
:011065002268
:02106600AA0DD1
:0810680090E678E0FB20E6F8B9
:0C10700090E6787480F090E67974A2F0AD
:08107C0090E678E0FB30E0F89B
:0810840090E678E0FB20E26B2E
:08108C0090E678E0FB30E1631F
:03109400EA600E01
:071097007B407CE78C9A7B93
:07109E00407CE77C008B9B06
:0210A5007B02CC
:0310A700EA7003E9
:0310AA00EB603BBD
:0310AD00EB6014E1
:0310B000BB020878
:0810B30090E679E50CF08006DF
:0610BB0090E679E50BF060
:0310C1001B800A87
:0A10C40090E67BE0FC90E679F01A5C
:0810CE0090E678E0FC30E0F848
:0810D60090E678E0FC20E2192D
:0810DE0090E678E0FC20E1C17E
:0210E600800F79
:0E10E80090E678E0FA4440F0121103758201A0
:0110F60022D7
:0B10F70090E678E0FA4440F0758200BB
:0111020022CA
:0811030090E678E0FA20E6F81E
:0E110B0090E678E0FA4480F090E67974A2F065
:0811190090E678E0FA30E0F8FE
:0811210090E678E0FA4440F08A
:0811290090E678E0FA20E6F8F8
:0811310090E678E0FA30E1D20B
:011139002293
:08113A0090E678E0FA4440F071
:0811420090E678E0FA20E6F8DF
:01114A002282
:07114B00AA8290E679EAF0A8
:0811520090E678E0FA30E0F8C5
:08115A0090E678E0FA20E208BB
:0811620090E678E0FA20E107B5
:07116A0012113A78A676236A
:0611710078A6E6B40100BF
:04117700E433F582E6
:01117B002251
:0C117C00AA8290E6787480F0EA2AFAE576
:0B118800164AF58212114BE58270043C
:0411930078A67622A2
:0611970078A6E6B4010099
:04119D00E433F582C0
:0111A100222B
:0911A20075160175825102117CE1
:0C11AB00AA82AB83751600758251C00249
:0D11B700C00312117CE582D003D00260114C
:0E11C4008B82C002C00312114BE582D003D013
:0311D200027004A4
:0411D5007C00800218
:0211D9007C0197
:0311DB00EC600BBA
:0B11DE007B008A8212114BE582700436
:0411E9007A00800206
:0211ED007A0185
:0211EF008A82F2
:0111F10022DB
:0611F200E4F517F518F505
:0711F80008F50975820812D9
:0611FF0007AA1207C8ACAC
:041205000FAD10AE6B
:0A12090011AF12C3E49C74209DE4B1
:051213009EE49F40284D
:04121800850B1985A4
:03121C000C1A8524
:03121F000D1B851F
:041222000E1CEC258D
:0812260019FCED351AFDEE354F
:0A122E001BFEEF351CFFC3E49C74A7
:08123800209DE49EE49F500A92
:0A12400078A676097582000207D136
:09124A00AC19741C251AFDE435F1
:071253001BFEE4351CFF8CBB
:04125A000B8D0C8E5E
:04125E000D8F0E855D
:061262000B82850C8312D3
:0612680011ABE5827005E8
:05126E00F5820207D12A
:0A12730012113A7582001207D1E54E
:04127D000F451045C4
:05128100114512602878
:0A1286001211A27401B50F0EE4B5B9
:08129000100AE4B51106E4B5F3
:0412980012028002BC
:02129C008008C8
:08129E0090E678E0FC4420F02A
:0812A60090E679E0F50A8003EF
:0312AE00751801AF
:0412B100E5186007D5
:0712B500E51760030214328B
:0912BC0012073CE4B50A02803F70
:0512C5007401B50A0CE4
:0412CA00E5177008AC
:0812CE007517011207C8802EFC
:0512D6007402B50A1CC2
:0712DB001207C8E51870229C
:0C12E20090E6A57401F0000000751801F2
:0912EE0078A6760212113A800D77
:0412F700E518700383
:0312FB0012113A93
:0612FE0075170002143216
:04130400E51870A9CF
:05130800E5AA20E5A4A8
:07130D007C007DF88D9D7C42
:08131400007DF87D008C9E8530
:03131C000F1D851D
:03131F00101E8518
:03132200111F8513
:0313250012209003
:07132800E680E0FA30E70661
:06132F007A007B0280043D
:041335007A407B007F
:0C133900EB3395E0FCFDC3EA951DEB953D
:061345001EEC951FED9562
:03134B002050141B
:08134E0090E680E0FA30E706AA
:061356007A007B02800416
:04135C007A407B0058
:02136000800407
:04136200AA0FAB1013
:041366008A088B095D
:07136A00E5084509700302CC
:02137100141D49
:07137300E518600302141DE0
:08137A0090E678E0FC30E0F899
:0813820090E678E0FC30E2186F
:08138A0078A676237518019086
:0C139200E6A57401F0EAC39508FAEB959B
:04139E0009FB80C8FF
:0A13A2007402B50F0EE4B5100AE462
:0913AC00B51106E4B5120280023D
:0213B5008008AE
:0813B70090E678E0FC4420F010
:0A13BF007401B50F0EE4B5100AE446
:0913C900B51106E4B51202800220
:0213D200800B8E
:0B13D400C002C00312113AD003D00287
:0A13DF0090E679E0FC90E67CF01542
:0713E9000874FFB5080215AE
:0113F00009F3
:0513F100AC0FAD10AED1
:0A13F60011AF121CBCFF091DBDFF62
:06140000051EBEFF011FE6
:051406008C0F8D108E1B
:0A140B00118F12EC4D4E4F600302EA
:02141500136A58
:0614170075180102136AC2
:0E141D0090E698EBF00000007B0090E699EA64
:07142B00F00000000212B105
:071432001208FCE51760063B
:061439007582000207D1DC
:01143F00228A
:071440007521007522007503
:061447002301E4F508F5A5
:08144D00097582081207AA12BA
:0514550007C8AD0FAE59
:04145A0010AF11AC12
:0C145E0012C3E49D74209EE49FE49C40B7
:01146A001C65
:0A146B00ED250BFDEE350CFEEF350C
:0A1475000DFFEC350EFCC3E49D747E
:08147F00209EE49FE49C500A4A
:0A14870078A676097582000207D1ED
:0B1491007582001207D1AC0B741C2503
:08149C000CFDE4350DFEE43502
:0514A4000EFF8C0B8D12
:0414A9000C8E0D8F09
:0414AD000EE50F45F4
:0414B100104511458C
:0314B500127003AF
:0314B80075220199
:0414BB00E5226007BF
:0714BF00E52160030215EDB9
:0914C60012073CE4B50A0280356E
:0514CF007401B50A0CD8
:0414D400E521700896
:0814D8007521011207C88024F0
:0514E0007402B50A19B9
:0714E5001207C8E522701890
:0C14EC0090E6A37401F0000000752201DE
:0614F80078A676028006D2
:0614FE007521000215ED4E
:04150400E52270B3B9
:05150800E5AA20E0AEA1
:07150D007C007DF08D9A7C4B
:08151400007DF07D008C9B902E
:0E151C00E690E0FC8C057C0090E691E0FE7FFE
:08152A00002CF508EF3DF50966
:06153200E5084509608395
:07153800E52260030214BB71
:04153F00E523600C34
:07154300850B82850C831269
:05154A0011AB75230048
:05154F0078A6E6700E15
:0E15540090E67BE0FCF58212114BE582700BF5
:0B15620075220190E6A37401F080C523
:08156D00150874FFB508021512
:01157500096C
:05157600AC0FAD10AE4A
:07157B0011AF12EC24FFF593
:0A15820024ED34FFF525EE34FFF5EB
:07158C0026EF34FFF527856F
:03159300240F859D
:0315960025108598
:0315990026118593
:03159C002712AA69
:04159F000BAB0CACDA
:0A15A3000DAD0E0ABA00090BBB00E3
:0615AD00050CBC00010D5D
:0515B3008A0B8B0C8C7B
:0415B8000D8D0EE5A2
:0415BC002445254558
:0515C000264527700321
:0315C5007522018B
:0615C800E508450970066C
:0615CE0090E6497482F072
:0415D400E522700993
:0615D800E50B543F600327
:0315DE00021532C1
:0715E10012113A121103750B
:0515E800230102153291
:0415ED00E52370067C
:0615F10012113A12110371
:0715F7001208C4E5216006A3
:0615FE007582000207D116
:0116040022C3
:0530D700010200008071
:0530DC0001000000806E
:0530E100010000008069
:0430E6000B0010408B
:0E30EA00454578706C6F726572000000FDFD48
:0E30F800FDFD6F03F45264711608C03AD60055
:0E310600454578706C6F726572000000FDFD2B
:02311400FDFDBF
:0716050078A4B60202806028
:07160C0078A5B60002801171
:0B1613001207C878A6760C7582001242
:06161E0007D175820122D4
:0516240078A4E6701F30
:061629007899E630E011A3
:0B162F001207C878A67603758200122F
:06163A0007D175820122B8
:081640007899E64401F68024CC
:0516480078A4B60108C2
:08164D007899E654FEF68017BF
:061655007899E620E01187
:0B165B001207C878A676047582001202
:0616660007D1758201228C
:0A166C0078A4E624F4500302175C92
:0A16760078A4E625E02690168073A4
:071680000216A40216B402D9
:0616870016C402175C020C
:06168D0016D10216EA026C
:06169300171E02175502AC
:061699001747021747028B
:05169F00174E02174781
:0A16A4001217601207C875820012C9
:0616AE0007D17582012244
:0A16B4001217721207C875820012A7
:0616BE0007D17582012234
:0D16C40090311675F08012086075820122C9
:0716D1001207C8750B00753C
:0616D8000C6A750D187587
:0C16DE000E007582041207D175820122F3
:0716EA0090E67BE0FA6004CA
:0416F100D2B38002EE
:0216F500C2B37E
:0716F70090E67BE0FA6004BD
:0416FE00D2B28002E2
:02170200C2B271
:0717040090E67BE0FA6004AF
:04170B00D2B48002D2
:02170F00C2B462
:0D1711001207C87582001207D175820122EF
:0C171E001207C8A2B3E433FA8A0BA2B28F
:0B172A00E433FA8A0CA2B0E433FA8A20
:0A1735000DA2B4E433FA8A0E7582A7
:08173F00041207D1758201229A
:07174700121AF9758201225C
:07174E00121F007582012249
:0717550012177E75820122CC
:03175C0075820093
:01175F002267
:0E17600043B50443B50843B510D2B5C2B2D2AA
:03176E00B3C2B44F
:011771002255
:0B177200C2B553B5E3C2B2D2B3C2B49B
:01177D002249
:05311600010200008031
:05311B0001000000802E
:05312000010000008029
:0B177E007A007B0090E67BE0FC60043A
:04178900D2B3800255
:02178D00C2B3E5
:07178F0090E67BE0FC600422
:04179600D2B2800249
:02179A00C2B2D9
:0E179C00C2B4758204C002C0031207AAD003B3
:0E17AA0000C0031207C87582001207D1D003D9
:0717B800D002AC0BAD0CAE3A
:0417BF000DAF0E8CD0
:0417C3000F8D108EE8
:0917C700118F12EC4D4E4F70021F
:0217D0007B019B
:0317D200EB6006C3
:0617D500EA600302188522
:0D17DB00C002C00312073CD003D002E4B5E9
:0417E8000A02803041
:0517EC007401B50A0FB5
:0E17F1007A01C002C0031207C8D003D00280E4
:0117FF001CCD
:051800007402B50A139B
:0B1805007B0178A67602C002C003122F
:0818100007C8D003D0028004D8
:041818007A00806969
:03181C00EB70B3BB
:05181F00AC0BAD0CAEA6
:0A1824000DAF0EC3ED9404EE940026
:05182E00EF94005006DC
:061833008C088D098006FF
:06183900750800750904AA
:08183F00AC08AD09E4FEFFE571
:091847000BC39CFCE50C9DFDE5C2
:081850000D9EFEE50E9FFF8CCA
:041858000B8D0C8E5A
:03185C000D8F0EDF
:0A185F00D2B400C2B4150874FFB53E
:041869000802150953
:06186D00E508450970ECDE
:05187300E50B450C45EA
:061878000D450E600302A5
:02187E0017D27F
:051880007B010217D2FC
:03188500EA6029ED
:07188800E50FC3950BFAE523
:05188F0010950CFBE5C3
:0518940011950DFCE5BB
:0518990012950EFD8A0E
:04189E000B8B0C8C18
:0418A2000D8D0E7822
:0B18A600A6E64480F67582040207D11C
:0118B1002214
:0818B200A908AA09E960010A76
:0318BA0090E67B3A
:0E18BD00E01392B2D2B4C2B41392B2D2B4C24B
:0E18CB00B41392B2D2B4C2B41392B2D2B4C269
:0E18D900B41392B2D2B4C2B41392B2D2B4C25B
:0E18E700B41392B2D2B4C2B41392B2D2B4C24D
:0518F500B4D9C5DAC3FF
:0118FA0022CB
:0818FB00A908AA09E960010A2D
:0A19030090E67B058690E67C0586E1
:0E190D00E01392B2A2B013D2B4C2B492B2A24E
:0E191B00B013D2B4C2B492B2A2B013D2B4C20E
:0E192900B492B2A2B013D2B4C2B492B2A2B0C1
:0E19370013D2B4C2B492B2A2B013D2B4C2B4EE
:0E19450092B2A2B013D2B4C2B492B2A2B01346
:0D195300D2B4C2B40586F00586D9AFDAAD76
:011960002264
:08196100A908AA09E960010AC6
:0319690090E67C89
:0E196C00A2B0D2B4C2B413A2B0D2B4C2B413AB
:0E197A00A2B0D2B4C2B413A2B0D2B4C2B4139D
:0E198800A2B0D2B4C2B413A2B0D2B4C2B4138F
:0E199600A2B0D2B4C2B413A2B0D2B4C2B41381
:0519A400F0D9C2DAC019
:0119A900221B
:0819AA00A908AA09E960010A7D
:0319B20090E67B41
:0E19B500E01392B3D2B4C2B41392B3D2B4C250
:0E19C300B41392B3D2B4C2B41392B3D2B4C26E
:0E19D100B41392B3D2B4C2B41392B3D2B4C260
:0E19DF00B41392B3D2B4C2B41392B3D2B4C252
:0519ED00B4D9C5DAC306
:0119F20022D2
:0819F300A908AA09E960010A34
:0A19FB0090E67B058690E67C0586E9
:0E1A0500E01392B3A2B013D2B4C2B492B3A253
:0E1A1300B013D2B4C2B492B3A2B013D2B4C214
:0E1A2100B492B3A2B013D2B4C2B492B3A2B0C6
:0E1A2F0013D2B4C2B492B3A2B013D2B4C2B4F4
:0E1A3D0092B3A2B013D2B4C2B492B3A2B0134B
:0D1A4B00D2B4C2B40586F00586D9AFDAAD7D
:011A5800226B
:081A5900A908AA09E960010ACD
:031A610090E67B91
:0E1A6400E01392B21392B3D2B4C2B41392B292
:0E1A72001392B3D2B4C2B41392B21392B3D291
:0E1A8000B4C2B41392B21392B3D2B4C2B4D9AA
:031A8E00D5DAD3D3
:011A91002232
:081A9200A908AA09E960010A94
:0A1A9A0090E67B058690E67C058649
:021AA4007C02C2
:0E1AA600E01392B21392B3FBE8A2B013F8EB78
:0E1AB400D2B4C2B41392B21392B3FBE8A2B044
:0E1AC20013F8EBD2B4C2B41392B21392B3FB7A
:0E1AD000E8A2B013F8EBD2B4C2B41392B21372
:0E1ADE0092B3FBE8A2B013F8EBD2B4C2B4DCB2
:0C1AEC00B9E80586F0058619D9AEDAAC21
:011AF80022CB
:071AF900752900752B007533
:071B00002C0078A4B6082AAE
:081B070075290190E67BE0F571
:081B0F002890E67BE0FE600473
:041B1700D2B38002C3
:021B1B00C2B353
:041B1D00E52860084F
:041B2100752DFB75AE
:041B25002E18805A9C
:041B2900752DB275EF
:041B2D002E1880529C
:051B310078A4B60925AF
:0A1B360075280190E67BE0FC6004D6
:041B4000D2B380029A
:021B4400C2B32A
:071B460090E67BE0FC600467
:041B4D00D2B280028E
:021B5100C2B21E
:041B5300752D617516
:041B57002E1980289B
:081B5B0075290190E67BE0F51D
:081B63002890E67BE0FC600421
:041B6B00D2B2800270
:021B6F00C2B200
:041B7100E5286008FB
:041B7500752DF37562
:041B79002E1980069B
:041B7D00752DAA75A3
:021B81002E191B
:0D1B83007582041207AA1207C875820012AD
:041B900007D1850BE9
:031B94002F850C8E
:031B970030850D89
:031B9A0031850E84
:031B9D0032852F5F
:031BA0000F85307E
:031BA30010853179
:031BA60011853274
:0A1BA900127407552FFD7A007B002F
:071BB3007C008D2AAA2FE53A
:0C1BBA0030C423CAC423541F6ACA541F3D
:0C1BC600CA6ACAFBE531C42354E04BFBA3
:0A1BD200AC31E532C423CCC4235427
:0C1BDC001F6CCC541FCC6CCCFE8A0B8B11
:041BE8000C8C0D8EC6
:051BEC000EE52A601D5A
:051BF100AA0BAB0CACD7
:0A1BF6000DAE0E0ABA00090BBB0089
:061C0000050CBC00010E02
:051C06008A0B8B0C8C21
:031C0B000D8E0E2D
:051C0E00E50F45104543
:051C13001145127003F1
:031C1800752B0128
:021C1B00C2B451
:041C1D00E52B60074C
:071C2100E52C6003021E1315
:071C280012073CE50A602CE5
:051C2F007401B50A0C70
:041C3400E52C700823
:081C3800752C011207C8801B86
:051C40007402B50A105A
:071C45001207C8E52B700F28
:091C4C0078A67602752B018006D2
:061C5500752C00021E13B5
:041C5B00E529600512
:051C5F00E5AA20E0B938
:041C6400E52860050A
:051C6800E5AA20E5B033
:041C6D00E52B70AC47
:041C7100E529600EF3
:071C75007A007BF08B9A7AE4
:071C7C00007BF07B008A9B56
:041C8300E528600EE2
:071C87007A007BF88B9D7AC7
:071C8E00007BF87B008A9E39
:041C9500E5296019C4
:0E1C990090E690E0FA8A037A0090E691E0FC73
:0A1CA7007E004AF508EE4BF50980B7
:011CB10054DE
:041CB200850B3385E6
:031CB6000C348566
:031CB9000D358561
:031CBC000E369051
:071CBF00E680E0FF30E706BC
:061CC6007A007B0280049D
:041CCC007A407B00DF
:0C1CD0008A07EBFD3395E0FAFBC3EF95AB
:061CDC0033ED9534EA959A
:061CE20035EB95365018A9
:081CE80090E680E0FA30E70607
:061CF0007A007B02800473
:041CF6007A407B00B5
:061CFA008A088B09800638
:041D0000853308859A
:021D04003409A0
:081D0600AA08AB09E4FCFDE5AD
:091D0E000BC39AFAE50C9BFBE5FE
:081D17000D9CFCE50E9DFD8A08
:041D1F000B8B0C8C92
:041D23000D8D0EE52F
:031D27002A60131C
:051D2A00E50B450C452E
:051D2F000D450E7009D6
:081D3400150874FFB508021543
:011D3C00099D
:061D3D00E50845096009FC
:071D4300852D82852E83121D
:021D4A00006B2C
:071D4C00E52A7003021DDD12
:051D5300E50B450C4505
:061D58000D450E600302C0
:021D5E001DDD89
:061D6000AA2AE529700B20
:031D660030B20494
:041D69007BFF80027A
:021D6D007B00F9
:021D6F008005ED
:051D710090E67BE0FBA1
:051D760078A4B60B1D6E
:021D7B008A04D8
:0B1D7D00EBA2E092B3C313FB30B005F3
:051D880043038080030D
:031D8D0053037F7E
:061D9000D2B4C2B4DCE78E
:021D96008019B2
:0B1D9800EBA2E092B2C313FB30B005D9
:051DA3004303808003F2
:031DA80053037F63
:061DAB00D2B4C2B4DAE775
:041DB100E528601DA4
:0C1DB500AD2A7A007408C39DFDE49AFA80
:071DC1008DF005F0EB80023C
:021DC800C31343
:081DCA00D5F0FBFB90E67CF074
:071DD200752A000508E4B5C5
:041DD90008020509EE
:041DDD00E52960098B
:091DE10090E6497482F000000054
:041DEA00E528601276
:0A1DEE0090E698E509F0000000906F
:081DF800E699E508F000000087
:051E0000E50B450C4557
:061E05000D450E60030212
:021E0B001C1D9C
:061E0D00752B01021C1DF3
:071E13001208C41208FCE5EF
:041E1A002C70012205
:041E1E00E52A601D34
:051E2200AA0BAB0CACA3
:0A1E27000DAD0E1ABAFF091BBBFF38
:061E3100051CBCFF011DB1
:051E37008A0B8B0C8CEE
:031E3C000D8D0EFB
:041E3F00850D35E5F3
:0A1E43000EC40354F8C535C403C5EE
:041E4D00356535C5FD
:061E51003554F8C53565AB
:041E570035F536E542
:081E5B000CC40354074535F5E2
:031E630035850BB7
:081E660033E50CC40354F8C578
:061E6E0033C403C5336517
:061E740033C53354F8C52C
:041E7A00336533F5A4
:031E7E0034853375
:031E81000B85349A
:031E84000C853595
:031E87000D853690
:091E8A000EAE2AE4FFFAFBEE257E
:081E930033FEEF3534FFEA35A0
:071E9B0035FAEB3536FB8E32
:041EA2000B8F0C8A0C
:041EA6000D8B0EE5AD
:091EAA000FC39EFEE5109FFFE549
:081EB300119AFAE5129BFB8E67
:041EBB000F8F108AEB
:041EBF00118B128EE3
:041EC3000B8F0C8AEB
:041EC7000D8B0EE58C
:031ECB0029600487
:041ECE007A80800294
:021ED2007A0094
:041ED400E528600499
:041ED8007B408002C9
:021EDC007B0089
:0A1EDE00EB4A78A646F6E5296004F9
:041EE8007A048002F6
:021EEC007A007A
:041EEE00E52860047F
:041EF2007B048002EB
:021EF6007B006F
:071EF800EB2AF5820207D17D
:011EFF0022C0
:071F0000753800753900750A
:071F07003A0090E67BE0F5D3
:081F0E00377582041207AA12C4
:091F160007C87582001207D1858D
:031F1F000B3D85F2
:031F22000C3E85ED
:031F25000D3F85E8
:031F28000E4085E3
:031F2B003D0F85E2
:031F2E003E1085DD
:031F31003F1185D8
:031F34004012E573
:041F37003D453E45A1
:051F3B003F454070036A
:031F4000753901EF
:0C1F43007407553DFAE4FDFBFC74032517
:081F4F003DFBE4353EFCE435E6
:071F57003FFDE43540FE8B65
:041F5E000B8C0C8D4F
:0A1F62000DEEF50EC313FEED13FDA6
:0E1F6C00EC13FCEB13FBEEC313FEED13FDECC8
:0A1F7A0013FCEB13FB8B0B8C0C8D9A
:041F84000D8E0EE5CB
:031F8800376008B7
:041F8B00753B92759B
:041F8F003C1A800672
:041F9300753B5975CC
:021F97003C1AF2
:021F9900C2B4D0
:041F9B00E5396007BD
:071F9F00E53A600302219CFA
:0B1FA600C00212073CD002E50A6034C4
:051FB1007401B50A10E7
:041FB600E53A700C8C
:0C1FBA00753A01C0021207C8D002801F57
:051FC6007402B50A14CD
:0B1FCB00C0021207C8D002E539700FF9
:091FD60078A67602753901800637
:061FDF00753A0002219C8E
:051FE500E5AA20E0B1B7
:041FEA00E537600572
:051FEE00E5AA20E5A8B2
:041FF300E53970A4B8
:071FF7007D007EF08E9A7D53
:081FFE00007EF07E008D9BE5E2
:032006003760122E
:04200900E538700E38
:07200D007D007EF88E9D7D31
:07201400007EF87E008D9EA6
:0E201B0090E690E0FD8D067D0090E691E0FFDE
:0A2029007B002DF508EB3EF509AB36
:0720330008AC09E4FDFEE525
:09203A000BC39BFBE50C9CFCE5CB
:082043000D9DFDE50E9EFE8BD4
:04204B000B8C0C8D61
:06204F000D8E0EEA602C6C
:05205500E50B450C4500
:05205A000D450E70228F
:0E205F008A03FC74032BFBE43CFCA2E713CBCA
:0C206D0013CBA2E713CB13CBFCE508C398
:072079009BF508E5099CF549
:012080000956
:06208100E5084509600DB1
:09208700C002853B82853C8312F6
:04209000006BD0020F
:06209400EA7003022119AD
:05209A00E50B450C45BB
:05209F000D450E7075F7
:0920A4007B0090E67BE0FC7D006E
:0520AD00C3ED9A502371
:0320B200BD040565
:0520B50090E67BE0FC59
:0E20BA00ECA2E092B2C313FCA2E092B3C313F7
:0620C800FCEBA2B013FBCB
:0720CE00D2B4C2B40D80D8AA
:0420D500E537601C6F
:0E20D9008A047D007408C39CFCE49DFD8CF01D
:0520E70005F0EB800292
:0220EC00C3131C
:0720EE00D5F0FB90E67CF049
:0E20F5008A037C0074032BFBE43CFCA2E7137F
:0C210300CB13CBA2E713CB13CBFCEB25D6
:05210F0008F508EC35A5
:0521140009F5097A0045
:04211900E5376063E3
:05211D00E50B450C4537
:052122000D450E6004F4
:04212700E5386052E5
:07212B000508E4B5080205F8
:0121320009A3
:08213300E509C313C50813C53B
:04213B0008F509E5B5
:03213F00386024E1
:0821420090E680E0FB30E706A7
:06214A007B007C02800412
:042150007B407C0054
:0C215400ECA2E713CB13CBFCEB2508F545
:0521600008EC3509F553
:012165000970
:0A21660090E698E509F000000090F3
:09217000E699E508F00000007595
:0421790038008003A7
:03217D00753801B1
:0C21800090E6497482F0000000E50B4579
:04218C000C450D45AC
:062190000E6003021F9B1C
:06219600753901021F9BD8
:0C219C00C0021208C4001208FCD002E5CA
:0421A8003A70012266
:0A21AC00E50B25E0FBE50C33FCE534
:0A21B6000D33FDE50E33FEEB2BFBAD
:0C21C000EC33FCED33FDEE33FE8B0B8C9A
:0421CC000C8D0D8EDB
:0421D0000EEA603D76
:0421D400EA30E21DEE
:0521D800AB0BAC0CADE7
:0A21DD000DAE0E1BBBFF091CBCFF7A
:0621E700051DBDFF011EF5
:0521ED008B0B8C0C8D32
:0321F2000D8E0E41
:0A21F500E4FBFCFDEA250BFAEB35D4
:0821FF000CFBEC350DFCED3585
:052207000EFD8A0B8BA7
:04220C000C8C0D8D9C
:012210000EBF
:07221100E50FC3950BFAE590
:0522180010950CFBE530
:05221D0011950DFCE528
:0522220012950EFD8A7B
:042227000F8B108C7D
:04222B00118D128A75
:04222F000B8B0C8C7D
:042233000D8D0EE51A
:03223700377008F5
:05223A00F50FF510F5A1
:03223F0011F51284
:0C22420078A6E644C0F67582080207D1B9
:01224E00226D
:05312500010200008022
:05312A0001000000801F
:05312F0001000000801A
:0A224F00C28CC28D78A7868A78A79A
:0322590008868C68
:01225C00225F
:07225D0078A4B602028060C4
:0722640078A5B6000280110D
:0B226B001207C878A6760C75820012DE
:0622760007D17582012270
:05227C0078A4E6701FCC
:062281007899E630E2113D
:0B2287001207C878A6760375820012CB
:0622920007D17582012254
:082298007899E64404F6802465
:0522A00078A4B601085E
:0822A5007899E654FBF680175E
:0622AD007899E620E21121
:0B22B3001207C878A67604758200129E
:0622BE0007D17582012228
:0A22C40078A4E624F850030223AECC
:0A22CE0078A4E625E0269022D873DC
:0722D8000222F00222F002D5
:0622DF00230202230F029E
:0622E500239402239C0279
:0522EB0023A40223A959
:0C22F0001207C878A7E4F608F675820013
:0622FC001207D10223B21B
:0D23020090313975F080120860758201225B
:0A230F007582041207AA1207C875B0
:0623190053FAE4F554F54F
:04231F0055F5568595
:062323000B82850C83858E
:052329000DF0E50E12AD
:0C232E002F9EAA82AB83ACF0FD8A0B8BC3
:04233A000C8C0D8D6D
:07233E000EEC7003ED600CD2
:07234500750BFF750CFF751D
:05234C000D00750E00FC
:09235100E50BF4FAE50CF4FBE5E0
:08235A000DF4FCE50EF4FD7822
:08236200A7A60208A603850BE3
:03236A0053850C8C
:03236D0054850D87
:0323700055850E82
:0C237300569000FAE4F5F012301CAA822B
:0A237F00AB83ACF0FD8A0B8B0C8CD5
:072389000D8D0E7582041298
:0423900007D1801ED3
:0823940075820112276A801610
:08239C0075820012276A800E11
:0523A40012242680094F
:0523A9001225A58004CF
:0423AE007582002212
:0323B20075820130
:0123B5002205
:0E23B60090E6F3E0FA4480F000000090E67B31
:0C23C400E0FA90E6F1F0000000022406B0
:0E23D00090E6F3E0FA547FF000000090E67B08
:0C23DE00E0FA90E6F1F000000002240696
:0B23EA0090E6F1E0122406E582600D91
:0D23F50090E6F2E0FA90E67CF0758201229D
:03240200758200E0
:0124050022B4
:0524060012224FD28CF0
:05240B00E5BB20E70322
:03241000308DF814
:05241300E5BB30E70409
:0424180075820122A6
:09241C0090E6F574FFF0758200F2
:012425002294
:0A242600E4FAFBF508F509758204DD
:0D243000C002C0031207AAD00300C00312AF
:0D243D0007C87582001207D1D003D002AC91
:04244A000BAD0CAE1C
:04244E000DAF0E8C34
:042452000F8D108E4C
:09245600118F12EC4D4E4F700283
:02245F007B01FF
:03246100EB600627
:06246400EA60030225718D
:0D246A00C002C00312073CD003D002E4B54D
:042477000A02804095
:05247B007401B50A1216
:03248000EA700FF0
:0E2483007A01C002C0031207C8D003D0028045
:012491002921
:052492007402B50A1FF1
:0E249700C002C0031207C8D003D002EB7016BB
:0C24A50090E6A37401F00000007B0178B9
:0524B100A67602800583
:0524B6007A000225710F
:0324BB00EB70A320
:0624BE00E5084509702A43
:0524C400E5AA20E0255F
:0724C9007C007DF08D9A7C80
:0824D000007DF07D008C9B9063
:0E24D800E690E0FC8C057C0090E691E0FE7F33
:0824E600002CF508EF3DF5099B
:0724EE00E508450970030237
:0224F500246160
:0E24F700C002C0031223B6E582D003D00270EB
:0125050006CF
:0625060078A67605805264
:0E250C00C002C0031223D0E582D003D00270BB
:01251A0006BA
:06251B0078A67606803D63
:07252100E50824FEF508E5C2
:062528000934FFF509ACC7
:04252E000BAD0CAE37
:0A2532000DAF0E1CBCFF091DBDFF1C
:06253C00051EBEFF011F99
:052542008C0B8D0C8ED6
:092547000D8F0EEC4D4E4F700299
:022550007B010D
:06255200E50845097006D2
:0625580090E6497482F0D8
:08255E0078A6B6000302246117
:0B2566007B0190E6A37401F0022461E9
:0A257100C0021208C4D002EA60297B
:07257B00E50FC3950BFAE523
:0525820010950CFBE5C3
:0525870011950DFCE5BB
:05258C0012950EFD8A0E
:042591000B8B0C8C18
:042595000D8D0E7822
:0B259900A6E64480F67582040207D11C
:0125A4002214
:0A25A500E4FAFBF508F5097582045D
:0D25AF00C002C0031207AAD00300C003122F
:0D25BC0007C87582001207D1D003D002AC11
:0425C9000BAD0CAE9C
:0425CD000DAF0E8CB4
:0425D1000F8D108ECC
:0925D500118F12EC4D4E4F700203
:0225DE007B017F
:0325E000EB6006A7
:0625E300EA600302272A52
:0D25E900C002C00312073CD003D002E4B5CD
:0425F6000A0280460F
:0525FA007401B50A1296
:0325FF00EA700F70
:0E2602007A01C002C0031207C8D003D00280C4
:012610002F9A
:052611007402B50A256A
:0E261600C002C0031207C8D003D002EB701C34
:0E26240090E6A37401F000000090E6A574019A
:09263200F07B0178A67602800518
:05263B007A0002272ACD
:03264000EB709D9F
:06264300E5084509703DA9
:05264900E5AA20E038C5
:05264E00E5AA20E533C0
:072653007C007DF08D9A7CF4
:08265A00007DF07D008C9B7CEB
:06266200007DF88D9D7C57
:08266800007DF87D008C9E90BE
:0E267000E690E0FC8C057C0090E691E0FE7F99
:08267E00002CF508EF3DF50901
:07268600E50845097003029D
:02268D0025E046
:0E268F00C002C0031223B6E582D003D0027051
:01269D000636
:06269E0078A67605806AB3
:0E26A400C002C0031223EAE582D003D0027008
:0126B2000621
:0626B30078A676068055B2
:0826B900150874FFB5080215B5
:0126C100090F
:0526C200AC0BAD0CAEF5
:0A26C7000DAF0E1CBCFF091DBDFF86
:0626D100051EBEFF011F03
:0526D7008C0B8D0C8E40
:0926DC000D8F0EEC4D4E4F700203
:0226E5007B0177
:0626E700E5084509702121
:0D26ED0090E690E0FC90E698F00000009070
:0C26FA00E691E0FC90E699F000000090F2
:08270600E6497482F0000000B6
:08270E0078A6B600030225E0E5
:0E27160090E6A37401F000000090E6A57401A7
:06272400F07B010225E03C
:0E272A00C0021208C4001208FCD002EA60319E
:07273800E50FC3950BFAE564
:05273F0010950CFBE504
:0527440011950DFCE5FC
:0527490012950EFD8A4F
:04274E000F8B108C51
:04275200118D128A49
:042756000B8B0C8C51
:04275A000D8D0E785B
:0B275E00A6E644C0F67582080207D111
:01276900224D
:0C276A008582417B007C00C003C004128B
:0A27760023B6E582D004D003700DF5
:0B2780001207C878A6760575820002DB
:02278B0007D174
:0E278D00758204C003C0041207AAD00400C065
:0B279B00041207C8D004D003E50B4572
:0427A6000C450D458C
:0327AA000E7002AC
:0227AD007C01AD
:0A27AF0090E6F574FFF090E6CEE529
:0927B9000EF000000090E6CFE5EF
:0927C2000DF000000090E6D0E5E6
:0927CB000CF000000090E6D1E5DD
:0C27D4000BF0C003C00412224FD004D050
:0A27E0000390E6D1E0FDE541601C26
:0E27EA0090E6187410F000000090E6D2740122
:0727F800F0000000EC70315D
:0727FF00F5BB000000802A79
:0E280600C003C004C005120927D005D004D0BD
:0E2814000390E61A7408F000000090E6E274EB
:0828220002F0000000EC70065A
:06282A0075BB0600000072
:0E283000758200C003C004C0051207D1D00598
:04283E00D004D003EF
:03284200EC600641
:06284500EB6003022940D4
:0E284B00C003C004C00512073CD005D004D065
:0728590003E4B50A028066EA
:052860007401B50A1629
:03286500EB701302
:0E2868007B01C003C004C0051207C8D005D014
:0528760004D003804BBB
:05287B007402B50A42E1
:0E288000C003C004C0051207C8D005D004D0A4
:04288E0003EC7034B3
:0528920078A6E67004C9
:0428970078A67602A7
:04289B00E5416008AB
:08289F0090E6A37401F080062D
:0628A70090E6A57401F0AB
:0828AD00000000E5BB20E70973
:0928B50000000090E6F574FFF04C
:0428BE007C01800415
:0428C2007B00807A9D
:0528C600E5BB20E75D09
:0A28CB0090E6D1E0FEB50502801290
:0E28D500C003C00412224FD004D00390E6D1FD
:0428E300E0FD802470
:0328E700308D2110
:0828EA0078A67606E5416008BE
:0828F20090E6A37401F08006DA
:0628FA0090E6A57401F058
:0B2900007C0100000090E6F574FFF081
:04290B00E54160053D
:05290F00E5AA30E00F15
:07291400E5416003022842C7
:08291B00E5AA30E503022842A1
:05292300D28C022842E5
:06292800EC6003022842EE
:04292E00E541700906
:0929320090E6487406F000000074
:05293B007C01022842AE
:0E294000C0031208C4001208FCD003EB7001A3
:01294E002266
:0C294F0090E6CEE0FB7C007D007E008B5B
:05295B00457542007506
:06296000430075440090E5
:0E296600E6CFE0FF7A007B008A048F03E4FADC
:08297400FF4242EA4243EB423C
:05297C0044EC4245900F
:0E298100E6D0E0FD7E007A008A038E028D060D
:09298F00E4FD4242EE4243EA423B
:0529980044EB424590F4
:0C299D00E6D1E0FCE4FFFAFBE542420456
:0929A900E5434207E5444202E562
:0929B200454203E50BC39CFCE562
:0829BB000C9FFFE50D9AFAE5FF
:0629C3000E9BFB8C0B8F44
:0429C9000C8A0D8BDC
:0529CD000EE54160046D
:0429D2007A80800285
:0229D6007A4045
:0B29D80078A6EA46F67582040207D1DB
:0129E30022D1
:05313400010200008013
:05313900010000008010
:05313E0001000000800B
:0D29E40090E60174FAF090E6F574FFF090B3
:0A29F10031E7E493FA90E6F3F0906A
:0A29FB0031E8E493FA90E6C3F0908F
:0A2A050031E9E493FA90E6C1F09085
:0A2A0F0031EAE493FA90E6C2F09079
:0A2A190031ECE493FA90E6C0F0906F
:0D2A230031EDE493FA90E6F4F075AF077A18
:062A3000437B318B9A7A12
:0A2A3600437B317B008A9B759DE411
:052A4000759E007A0004
:032A4500BA800054
:022A4800500C30
:0C2A4A0090E67BE0FB90E67CF00A80EF59
:0E2A560090E67174FFF075B4FF90E672E0FA3E
:0E2A64004480F043B68000000090E6C4E4F029
:0E2A720000000090E6C5E4F09031C3E493FA52
:0B2A800090E6C6F09031C4E493FA9099
:0A2A8B00E6C7F09031C5E493FA901D
:0A2A9500E6C8F09031C6E493FA9011
:0A2A9F00E6C9F09031C7E493FA9005
:0A2AA900E6CAF09031C8E493FA90F9
:0A2AB300E6CBF09031C9E493FA90ED
:0A2ABD00E6CCF09031CAE493FA90E1
:032AC700E6CDF069
:012ACA0022E9
:0E31430081B90101010101072303020202020A
:0E3151000200F7F5F5F5F5F5F5F700000000C2
:0E315F000000003F0C8A9A3FA5B53F072103F0
:0E316D00030103030500F3F3F2F3F3F1F3F7AC
:0E317B003F0000000000003F8191380101017B
:0E31890001070101070202020200F7F5F7F745
:0E319700F7F7F7F7000075000000003F819188
:0E31A5003801010101070303050000000000CE
:0E31B300F3F1F3F3F3F3F3F700006E00000006
:0231C100003FCD
:0E31C3000000000000000000000000000000FE
:0E31D1000000000000000000000000000000F0
:0831DF000000000000000000E8
:0731E700E08000F7FA4E0042
:072ACB0078A4B6020280604E
:072AD20078A5B60002801197
:0B2AD9001207C878A6760C7582001268
:062AE40007D175820122FA
:052AEA0078A4E6701F56
:062AEF007899E630E311C6
:0B2AF5001207C878A676037582001255
:062B000007D175820122DD
:082B06007899E64408F68024EA
:052B0E0078A4B60108E7
:082B13007899E654F7F68017EB
:062B1B007899E620E311A9
:0B2B21001207C878A676047582001227
:062B2C0007D175820122B1
:072B320078A4E624FB403B00
:0A2B390078A4E625E026902B4373F4
:072B4300022B52022B52028B
:062B4A002B5D022B6A0264
:022B50002B6FE9
:0B2B52001207C87582001207D1801B1B
:0D2B5D009031F875F0801208607582012239
:052B6A00122B7C800924
:052B6F00122E95800408
:042B74007582002244
:032B780075820162
:012B7B002237
:072B7C007546007547007566
:092B830048007582081207AA122D
:0B2B8C0007C87582001207D1C28090BC
:0E2B9700E618E4F000000090E61AE4F00000FA
:0E2BA5000090E6027468F000000090E630E454
:0E2BB300F000000090E631E4F090E680E0FDD6
:032BC10030E706F4
:062BC4007D007E0280048A
:042BCA007D407E00CC
:052BCE008D498E4AAFA5
:042BD3000FAB10AA8A
:042BD70011AC1285A6
:032BDB00494B85DE
:032BDE004A4C75E9
:082BE1004D00754E00C3EF9595
:062BE9004BEB954CEA9550
:062BEF004DEC954E502C48
:052BF5008F498B4AAD81
:0C2BFA004A90E63474C04DF000000090DA
:072C0600E635E549F0E4F5B5
:042C0D0008F5097548
:062C11004701750F00757C
:062C1700100075110075AC
:042C1D0012008072AF
:082C210090E680E0FD30E713AE
:0E2C290090E63474C8F000000090E635E4F048
:052C3700000000801206
:0E2C3C0090E63474C0F000000090E63574405D
:042C4A00F000000096
:0A2C4E00EFC3954BFFEB954CFBEA3A
:082C5800954DFAEC954EFC8F3E
:042C60000F8B108A3C
:042C6400118C128538
:032C68000F4F8586
:032C6B0010508581
:032C6E001151857C
:052C71001252C3EF95B3
:062C76004BEB954CEA95C2
:062C7C004DEC954E500BDB
:042C8200854F0885ED
:032C86005009757D
:042C89004701800679
:042C8D0085490885E8
:022C91004A09EE
:0A2C930090E601E0FA4403F0D28756
:042C9D00E54860079F
:072CA100E5466003022E135B
:072CA80012073CE50A602E53
:052CAF007401B50A0CE0
:042CB400E546700879
:082CB8001207C8754601801DDA
:052CC0007402B50A12C8
:072CC5001207C8E548701179
:0A2CCC00C28778A6760275480180E1
:012CD60006F7
:062CD700754600022E13F9
:042CDD00E54870BC9A
:052CE100E5AA20E05807
:0E2CE60090E690E0FA8A037A00EB3395E0FC6A
:082CF400FDE50BC39AF54FE565
:052CFC000C9BF550E502
:052D01000D9CF551E5F9
:052D06000E9DF5528551
:032D0B004F0B85E6
:032D0E00500C85E1
:032D1100510D85DC
:032D1400520E90CC
:0C2D1700E691E0FEE4FFFAFBE54FC39EEE
:0A2D2300FEE5509FFFE5519AFAE526
:062D2D00529BFB8E0B8F90
:042D33000C8A0D8B6E
:072D37000E90E6497402F062
:0B2D3E0090E6A9E0FA20E203022DEA73
:0E2D490090E6A5E0FA530270BA3003022DEABC
:042D5700E5476015D7
:0C2D5B00AA0990E63474C04AF0000000A1
:092D670090E635E508F0000000DB
:0A2D700090E698E54AF0000000909C
:092D7A00E699E549F0000000852E
:032D830008498577
:032D8600094AE512
:052D8900084509605C33
:082D8E00AA08AB09E4FCFDE515
:092D96000FC39AFAE5109BFBE55E
:082D9F00119CFCE5129DFD8A68
:042DA7000F8B108CF2
:042DAB00118D1285EF
:032DAF000F4F853E
:032DB20010508539
:032DB50011518534
:032DB80012529024
:072DBB00E680E0FE30E706B0
:062DC2007E007F02800488
:042DC8007E407F00CA
:0B2DCC00EF3395E0FAFBC3E54F9EE5F6
:062DD700509FE5519AE552
:042DDD00529B5009AC
:042DE100850F0885CD
:032DE5001009755D
:022DE8004701A1
:072DEA00E549454A600302C0
:022DF1002C9D17
:0B2DF30090E6A7E0FA20E203022C9D0E
:052DFE00E50B450C454A
:062E03000D450E60030204
:022E09002C9DFE
:082E0B00754801C287022C9DED
:0E2E1300C28790E601E054FEF0E0FA4402F0BF
:072E21001208C41208FCE5D1
:032E28004660679A
:052E2B0078A6E6705CD2
:072E300090E6ACE0FA70111E
:072E370090E6ABE0FA700A1F
:052E3E00E50B450C4509
:052E43000D450E6026A4
:062E4800E549454A600661
:062E4E0078A6760A803828
:072E540090E6B0E0FA700700
:072E5B0090E6AFE0FA60060B
:062E620078A6760B802427
:062E680078A67607801E2B
:062E6E00E549454A60063B
:062E740078A6760880122A
:072E7A0090E6AFE0FA7007DB
:072E810090E6B0E0FA6004E6
:042E880078A67609A9
:062E8C007582001207D15F
:022E9200D280EC
:012E9400221B
:0D2E95007A007B007C00C002C003C0041264
:0E2EA20007C87582001207D1D004D003D002F9
:0E2EB000C28090E6187410F000000090E61A40
:0D2EBE007408F0000000C002C003C0041240
:0E2ECB000927D004D003D00290E60274E8F08C
:0E2ED90000000090E601E0FD4403F0D2879077
:0C2EE700E630E4F000000090E631E4F07A
:032EF300EA60038F
:032EF600EB70631B
:0E2EF900C002C003C00412073CD004D003D0B6
:052F070002E50A603C38
:052F0C007401B50A1676
:032F1100EA701350
:0E2F14007A01C002C003C0041207C8D004D066
:052F220003D002802134
:052F27007402B50A1858
:0E2F2C00C002C003C0041207C8D004D003D0F6
:042F3A0002EB700A2C
:062F3E007C017B01800410
:042F44007A0080147B
:032F4800EB70A883
:032F4B00EA60A594
:082F4E0090E6A7E0FD30E29DD2
:062F56007B01C287809799
:0E2F5C00C28790E601E054FEF0E0FB4402F074
:0D2F6A00C002C0041208C4D00400C004124C
:092F770008FCD004D002EA601B42
:032F8000EC7012E0
:072F830090E6ABE0FA7007D5
:072F8A0090E6ACE0FA6004E0
:042F910078A67607A1
:062F95007582001207D155
:022F9B00D280E2
:012F9D002211
:0531EE00010200008059
:0531F300010000008056
:0531F800010000008051
:0EE1000012010002000000404314070000005E
:04E10E000102000109
:0AE112000A060002000000400100B0
:0EE11C0009022E0001010080FA09040000042F
:0EE12A00FF000000070501024000000705810C
:0EE138000240000007050202000200070586F3
:04E1460002000200D1
:0EE14A0009022E0001010080FA090400000401
:0EE15800FF00000007050102400000070581DE
:0EE16600024000000705020240000007058687
:04E174000240000065
:093F0000020572000205A6000290
:083F090005900002060A000207
:083F110005BC000206280002B5
:083F190006820002068200028C
:083F2100068200020682000284
:083F290006820002068200027C
:083F3100068200020682000274
:083F390006820002068200026C
:083F4100068200020682000264
:083F490006820002068200025C
:083F5100068200020682000254
:083F590006820002068200024C
:083F6100068200020682000244
:083F690006820002068200023C
:083F7100068200020682000234
:083F790006820002068200022C
:083F8100068200020682000224
:083F890006820002068200021C
:083F9100068200020682000214
:083F990006820002068200020C
:083FA100068200020682000204
:083FA9000682000206820002FC
:073FB10006820002068200F7
:082F9E00FB7A20E4FCFDFEFFBC
:0E2FA600E5822582F582E58333F583E5F0337D
:0B2FB400F5F0EB33FB4017DAE9804238
:0E2FBF00E5822582F582E58333F583E5F03364
:052FCD00F5F0EB33FB01
:0E2FD200EC33FCED33FDEE33FEEF33FFEC95F8
:062FE00053ED9554EE953F
:082FE60055EF95564013EC95E0
:082FEE0053FCED9554FDEE9536
:092FF60055FEEF9556FF438201E0
:022FFF00DABE38
:02300100EB22C0
:06009C00E478FFF6D8FD38
:08007A007900E94400601B7AE3
:05008200009031FD7843
:030087000075A061
:0A008A00E0E493F2A308B8000205B9
:08009400A0D9F4DAF275A0FF17
:0E30030020F71030F6118883A88220F507F61A
:05301100A88375830097
:013016002297
:03301700F280F74D
:02301A00F022A2
:0C301C00AAF0FBE5828553F0A4FCADF0A7
:0C302800E5838553F0A42DFDE435F0FE97
:0C303400E5828554F0A42DFDE5F03EFE81
:0C304000E433FFEA8553F0A42EFEE5F017
:0C304C003FFFE5838554F0A42EFEE5F064
:0C3058003FFFE5828555F0A42EFEE5F058
:0B3064003FFFEB8553F0A42FFFEA852F
:0A306F0054F0A42FFFE5838555F00F
:0C307900A42FFFE5828556F0A42F8EF0F6
:053085008D838C822206
:0400A20075A00078CD
:0700A60000E8440060077947
:0600AD0000E4F309D8FC99
:0800B3007800E84400600C79BC
:0B00BB000090E000E4F0A3D8FCD9FAAC
:02006B00E4733C
:0E308A0090E682E044C0F090E681F0438701BA
:0630980000000000002210
:03006D0075815644
:0A0070001230BAE582600302006658
:0E309E0020F71430F6148883A88220F507E688
:0630AC00A88375830022D9
:0330B200E280F7C2
:0330B500E493227F
:0230B800E02214
:0430BA0075820022F9
:00000001FF
