:0400000002006D325B
:01000B0032C2
:0100130032BA
:01001B0032B2
:0100230032AA
:01002B0032A2
:0300330002068141
:01003B003292
:03004300023F0079
:01004B003282
:03005300023F0069
:01005B003272
:030063000206850D
:0300E400020066B1
:050066001200E780FE1E
:0900E700788176007880760090A3
:0E00F000E60B7403F000000000000090E60034
:0E00FE007410F075800175B28175900075B3B5
:0E010C00FF75B00075B50090E67AE0FA440188
:0B011A00F0122A1F90E60174E2F012C0
:0E012500023D90E6097403F0000000758901A8
:09013300000000788276000876D5
:04013C00E17884766C
:05014000120876E178D1
:0501450086761C08761F
:04014A00E17888765A
:0A014E004A0876E1D2E843D8209079
:0E015800E668E0FA4409F090E65CE0FA443D07
:0E016600F0D2AF90E680E0FA54F7F0538EF836
:080174001201B97898E660075A
:07017C00120195789876004E
:050183007881E6600731
:070188007881760012319F1F
:05018F0012068580E06E
:010194002248
:0A01950090E680E0FA440AF07A00D8
:02019F00DAFE86
:0E01A10090E65D74FFF090E65F74FFF05391FE
:0901AF00EF90E680E0FA54F7F04D
:0101B8002224
:0501B9007880E6605FA4
:0601BE007890A60B08A6D4
:0601C4000C08A60D08A6C0
:0401CA000E7894A671
:0601CE000F08A61008A6B0
:0501D4001108A6121243
:0601D90002BFE582700880
:0801DF0090E6A0E0FA4401F0F3
:0C01E700789086020886030886040886CB
:0601F300058A0B8B0C8C49
:0401F9000D8D0E78E2
:0C01FD0094860208860308860408860524
:050209008A0F8B108C30
:04020E00118D1290AC
:0B021200E6A0E0FA4480F0788076005F
:01021D0022BE
:0E021E0090E6837401F07421F07411F07431D5
:0E022C00F090E6837402F07422F07416F07401
:02023A0036F09C
:01023C00229F
:0E023D0090E610E4F000000090E611E4F000FE
:0E024B00000090E612E4F000000090E613E4DC
:0D025900F000000090E614E4F000000090BA
:0E026600E615E4F000000090E618E4F0000059
:0E0274000090E619E4F000000090E61AE4F0B5
:0E02820000000090E61BE4F000000090E61083
:0E02900074A0F000000090E61174A0F00000D1
:0E029E000090E61274A0F000000090E61474C8
:0E02AC00E0F000000090E68DE4F0000000128B
:0502BA0008FF0208C767
:0C02BF0090E6B9E0FA24F4500302056E4A
:0702CB00EA2A2A9002D27317
:0702D2000203B9020443021C
:0602D900056E0204ED02B7
:0602DF00056E02056E022F
:0602E50002F602056E02A4
:0602EB0003A402039202CD
:0502F100036B02038015
:0A02F60090E6BBE0FABA0102800FA7
:05030000BA0202803684
:05030500BA0602801B96
:05030A00BA075A804211
:09030F00788290E6B308E6F0786C
:0B0318008286027B0090E6B4EAF0024F
:02032300057162
:09032500788490E6B308E6F07854
:0B032E008486027B0090E6B4EAF00237
:0203390005714C
:09033B00788A90E6B308E6F07838
:0B0344008A86027B0090E6B4EAF0021B
:02034F00057136
:09035100788C90E6B308E6F07820
:0B035A008C86027B0090E6B4EAF00203
:02036500057120
:040367007582002279
:08036B0090E740788FE6F09066
:0B037300E68AE4F090E68B7401F002D3
:02037E00057107
:0A03800090E6BAE0FA788FA60212A8
:06038A00023D12021E02FA
:020390000571F5
:0A03920090E6BAE0FA788EA6021297
:06039C00023D12021E02E8
:0203A2000571E3
:0803A40090E740788EE6F0902E
:0B03AC00E68AE4F090E68B7401F0029A
:0203B7000571CE
:0A03B90090E6B8E0FABA8002800A6C
:0503C300BA8102801B5D
:0503C800BA8274802CD4
:0A03CD0090E740E4F090E741F09063
:0A03D700E68AF090E68B7402F00253
:0203E1000571A4
:0A03E30090E740E4F090E741F0904D
:0A03ED00E68AF090E68B7402F0023D
:0203F70005718E
:0E03F90090E6BCE0FA53027E90E6BCE0FBC347
:0E04070074809BE433FB4A9031E293FA339504
:0E041500E0FB74A12AFA74E63BFB8A828B831B
:0E042300E0FA53020190E740EAF090E741E46E
:0C043100F090E68AF090E68B7402F00276
:02043D00057147
:04043F0075820022A0
:0704430090E6B8E0FA600842
:05044A00BA020280125D
:03044F0002057132
:0B04520090E6BAE0FABA01030205715F
:04045D007582002282
:0904610090E6BAE060030204E930
:0E046A0090E6BCE0FA53027E90E6BCE0FBC3D5
:0E04780074809BE433FB4A9031E293FA339593
:0E048600E0FB74A12AFA74E63BFB90E6BCE0B2
:0E049400FC53047E90E6BCE0FDC374809DE442
:0E04A20033FD4C9031E293FC3395E0FD74A1E4
:0E04B0002CFC74E63DFD8C828D83E0FC530431
:0E04BE00FE8A828B83ECF090E6BCE05480FA5C
:0E04CC00C423541FFA90E6BCE0FB740F5B9053
:0D04DA00E6832AF090E683E0FA4420F00269
:0204E70005719D
:0404E90075820022F6
:0704ED0090E6B8E0FA60059B
:0504F400BA027A801835
:0A04F90090E6BAE0FABA0102806E44
:0A05030090E6BAE0FABA0202806442
:04050D0075820022D1
:0E05110090E6BCE0FA53027E90E6BCE0FBC32D
:0E051F0074809BE433FB4A9031E293FA3395EB
:0E052D00E0FB74A12AFA74E63BFB90E6BCE00A
:0E053B00FC53047E90E6BCE0FDC374809DE49A
:0E05490033FD4C9031E293FC3395E0FD74A13C
:0E0557002CFC74E63DFD8C828D83E0FC430499
:09056500018A828B83ECF0800313
:03056E00020AF28C
:030571007582018F
:010574002264
:0C057500C0E0C082C083C0007880760126
:090581005391EF90E65D7401F066
:09058A00D000D083D082D0E03211
:0E059300C0E0C082C0835391EF90E65D740417
:0105A100F069
:0705A200D083D082D0E032CB
:0E05A900C0E0C082C0835391EF90E65D740203
:0105B700F053
:0705B800D083D082D0E032B5
:0D05BF00C0E0C082C083C002C003C000784D
:0A05CC00888602088603788AA602DA
:0C05D60008A6038A828B83A37402F078CD
:0A05E200868602088603788CA602C4
:0E05EC0008A6038A828B83A37407F05391EF55
:0605FA0090E65D7410F0B4
:0D060000D000D003D002D083D082D0E032F1
:0C060D00C0E0C082C083C000788176018C
:090619005391EF90E65D7408F0C6
:09062200D000D083D082D0E03278
:0D062B00C0E0C082C083C002C003C00090C8
:07063800E680E0FA30E72C38
:0A063F0078868602088603788AA6F2
:0D0649000208A6038A828B83A37402F07856
:0A065600888602088603788CA6024D
:0B06600008A6038A828B83A37407F0B6
:09066B005391EF90E65D7420F05C
:0D067400D000D003D002D083D082D0E0327D
:0306810053D8EF5C
:010684003243
:0531D3000102000000F4
:0531D8000100000000F1
:0531DD000100000000EC
:0A31E20000010202030304040505C6
:0A00C600789876007899E4F608F6C1
:0C00D00008F608F6789DE4F608F608F63D
:0800DC0008F678A1E4F608F62D
:070685001206D7E5826014A4
:07068C001206A1E582700DCA
:0B0693001207CB78A6760175820002EA
:02069E0007D47F
:0106A0002237
:0706A10078A3E624FA402BC8
:0A06A80078A3E625E0269006B27361
:0706B2000206C40206C702A4
:0606B90006CA0206D3028E
:0506BF0006CD0206D08B
:0306C40002095FC9
:0306C7000209C362
:0306CA00021644D1
:0306CD000222986E
:0306D000022B06F4
:0306D3007582002D
:0106D6002201
:0506D700E5BA30E1046A
:0406DC007582002201
:0706E00078A676007A807B0A
:0606E700E78B9A7A807B8C
:0C06ED00E77B008A9B90E67BE0FA7B0034
:0506F9000ABA00010B2C
:0E06FE0090E68DE0FC7D00EAB50406EBB50544
:03070C0002801157
:0B070F001207CB78A67601758200125D
:06071A0007D475820022E5
:0A07200090E67BE0FA78A3A60290B1
:09072A00E67BE0FA78A4A6029037
:0B073300E67BE0FA78A5A602758201C3
:01073E002298
:08073F001201B9E5BA30E10432
:04074700750A00220D
:0C074B0090E780E0FA7B000ABA00010B86
:0E07570090E68DE0FC7D00EAB50406EBB505EA
:03076500028011FE
:0B0768001207CB78A676017582001204
:0607730007D4750AFF2205
:0B07790090E781E0FA78A3E6B50213D8
:0C07840090E782E0FA78A4748046FBEA5B
:03079000B50304AA
:04079300750A0122C0
:0607970090E781E0700C08
:08079D0090E782E0FABA0204C1
:0407A500750A0222AD
:0307A900750AFFCF
:0107AC00222A
:0807AD00AA827B0B7C007D4059
:0E07B50090E67BE0FE8B828C838DF012311873
:0707C300A3AB82AC83DAEB6B
:0107CA00220C
:0807CB0090E68DE4F00000004F
:0107D3002203
:0707D400AA82E5BA30E20140
:0107DB0022FB
:0707DC007BC07CE78C9D7BD4
:0807E300C07CE77C008B9E90B6
:0807EB00E67CEA04F078A69018
:0707F300E67CE6F07B0B7CC5
:0507FA00007D408A06AD
:0307FF00EE601792
:0E0802008B828C838DF01231B3FFA3AB82ACDE
:090810008390E67CEFF01E80E607
:0A08190090E68F74022AF000000040
:0108230022B2
:07082400AA82E5BA30E201EF
:01082B0022AA
:07082C007BC07CE78C9D7B83
:08083300C07CE77C008B9E9065
:08083B00E67CEA04F078A690C7
:04084300E67CE6F079
:01084700228E
:05084800E5BA30E201F9
:01084D002288
:08084E0090E7C178A6E6F090E6
:0C085600E7C0E0FA90E68F04F00000001C
:010862002273
:0E086300AA82AB83ACF090E67BE0FDC002C041
:0E08710003C004C0051207CBD005D004D0038D
:07087F00D002E5BA30E201EE
:01088600224F
:070887007EC07FE78F9D7E1C
:08088E00C07FE77F008E9E9001
:0C089600E67CED04F090E67CE4F08D06BA
:0308A200EE6017EE
:0E08A5008A828B838CF01231B3FFA3AA82AB40
:0908B3008390E67CEFF01E80E664
:0A08BC0090E68F74022DF00000009A
:0108C600220F
:0E08C70090E618E4F000000090E6047480F063
:0E08D50000000090E6047402F00000007A04B7
:0B08E30090E6497482F0000000DAF596
:0E08EE0090E604E4F000000090E6A3E4F000C1
:0208FC000000FA
:0108FE0022D7
:0E08FF0090E61AE4F000000090E6047480F029
:0D090D0000000090E6047406F00000009069
:0E091A00E604E4F000000090E6A5E4F0000022
:0109280000CE
:0109290022AB
:08092A0090E680E0FA30E706D8
:060932007A007B02800444
:040938007A407B0086
:0E093C0090E624EBF000000090E680E0FA3038
:02094A00E706BE
:06094C007A007B0280042A
:040952007A407B006C
:0809560090E625EAF000000024
:01095E002276
:07095F0078A4B60202800734
:0709660078A4B603508005E0
:05096D001207CB804DD4
:0A0972007582041207AD1207CBE5F1
:08097C000BF4FAE50CF4FBE5B5
:0A0984000DF4FCE50EF4FD747B2A6F
:0C098E00FAE43BFBE43CFCE43DFD8A0B7A
:05099A008B0C8C0D8D9B
:05099F000E1217AF78F5
:0C09A40099E4F608F608F608F61208FFC1
:0B09B0001208C77582041207D48004EF
:0409BB00758200221F
:0309BF007582013D
:0109C2002212
:0A09C30078A4E624EF5003020A7B3B
:0C09CD0078A4E6240983C0E0E62414832B
:0309D900C0E02259
:0209DC007B7B23
:0209DE00FE7B9E
:0209E0007B7B1F
:0209E200157B83
:0209E400693474
:0209E6004B5074
:0209E8007B553D
:0209EA005F5A52
:0109EC0064A6
:0209ED000A0AF4
:0209EF00090AF3
:0209F1000A0AF0
:0209F3000A0AEE
:0209F5000A0AEC
:0209F7000A0AEA
:0209F9000A0AE8
:0209FB000A0AE6
:0109FD000AEF
:0709FE001207CB750B7A759F
:060A05000C00750D0075E8
:0A0A0B000E007582041207D4806A01
:0A0A15007582011207AD1207CBE550
:030A1F000B600762
:070A220043B502C2B18003DD
:030A290053B5FDC5
:080A2C007582001207D4804B13
:070A34001207CB750B0075E2
:060A3B000C20750D007592
:0A0A41000E007582041207D4803401
:050A4B0012147F802F52
:050A5000121231802AA2
:050A5500122FD98025DD
:050A5A00122FEE8020C8
:050A5F00123061801B54
:050A640012302880168D
:0C0A69001207CBA2B7E433FA8A0B7582A7
:060A7500011207D4800409
:040A7B00758200225E
:030A7F007582017C
:010A82002251
:0A0A8300AA82AB83E5084509700163
:010A8D002246
:070A8E00AC14BCE602800578
:050A95008B05BDE631F8
:080A9A008A068B07AC13AD14B2
:0E0AA2008E028F038C828D83E0F88A828B8314
:060AB000F00EBE00010F74
:050AB6000CBC00010D65
:080ABB00150874FFB5080215CF
:010AC3000929
:060AC400E508450970D8A9
:010ACA002209
:0C0ACB008C9AAC137E008C9B8D9D7B00F0
:050AD7008A9E020ADD09
:010ADC0022F7
:080ADD00A90890E67B05869054
:040AE500E67C058620
:080AE900E00586F00586D9F84E
:010AF10022E2
:0A0AF20090E6B9E0FABAA202804AC9
:050AFC00BAA3028045D1
:060B0100BAE103020DC77A
:060B0700BAE203020DA793
:060B0D00BAE303020DA78C
:060B1300BAE403020D87A5
:060B1900BAE503020D879E
:060B1F00BAE603020C928D
:060B2500BAE703020CBF59
:060B2B00BAE803020D0709
:060B3100BAE903020D67A2
:060B3700BAEA03020D36CC
:060B3D00BAEB03020DE714
:030B4300020E0798
:0B0B460090E6BAE0FAA3E0FB8A0B8BFC
:0A0B51000C90E6BEE0FAA3E0FB9072
:090B5B00E6B8E0FCBCC002800316
:030B6400020BF78A
:070B6700EA4B7003020E0BC4
:080B6E0090E6A0E0FC20E1F894
:080B760090E6B9E0FCBCA211FD
:0A0B7E00750D00750E00C002C003E3
:070B88001210A5D003D002FA
:090B8F00C3EA9440EB9400500607
:060B98008A0D8B0E8006A1
:060B9E00750D40750E000C
:080BA40090E6B9E0FCBCA20DD3
:0D0BAC00C002C003120FF8D003D002801A5F
:040BB900850D088519
:030BBD000E09908E
:040BC000E740850B7A
:030BC40013850C8A
:0C0BC70014C002C003120A83D003D00245
:080BD30090E68AE4F0AC0DADE0
:080BDB000E90E68BECF0EC2516
:070BE3000BFEED350CFF8E47
:0A0BEA000B8F0CEAC39CFAEB9DFB95
:030BF400020B678A
:0A0BF70078A1E608467003020C8E98
:0C0C010090E6BCE0FCA3E0FD78A1E6B5A5
:090C0D00040708E6B505028002A7
:020C16008076E6
:080C180090E6B8E0FCBC406E60
:070C2000EA4B7003020E0B0A
:090C270090E68AE4F090E68BF0FF
:080C300090E6A0E0FC20E1F8D1
:0A0C380090E68BE0FC7D008C0D8D32
:090C42000E90E6B9E0FCBCA31F12
:040C4B00850D088586
:030C4F000E098506
:060C52000B82850C837586
:030C5800134075D1
:070C5B0014E7C002C0031200
:080C62000A83D003D002800BCD
:0B0C6A00C002C0031210A5D003D0028E
:060C7500AC0DAD0EEC25F4
:070C7B000BFEED350CFF8EAE
:0A0C82000B8F0CEAC39CFAEB9DFBFC
:020C8C00809254
:040C8E007582002249
:0A0C920090E6B8E0FABAC002800351
:030C9C00020E0B3A
:080C9F0090E6A0E0FA20E1F864
:0E0CA70090E7407406F0A37403F090E68AE430
:0A0CB500F090E68B7402F0020E0BC3
:0A0CBF0090E6B8E0FABAC002800324
:030CC900020E0B0D
:080CCC0090E6A0E0FA20E1F837
:0E0CD40090E740740DF0A3E4F0A3F0A3F090BD
:0B0CE200E744E4F5F0123118A3E4121F
:0A0CED003118A3E4123118A3E41239
:080CF700311890E68AE4F09048
:080CFF00E68B7408F0020E0BF5
:080D070090E6B8E0FABA4023BF
:090D0F0090E68AE4F090E68BF016
:080D180090E6A0E0FA20E1F8EA
:0C0D200090E740E0FAA3E0FB78A1A602F7
:060D2C0008A603020E0BF5
:040D320075820022A4
:080D360090E6B8E0FABA40258E
:070D3E0078A1E60846601EE3
:0C0D450090E6BCE0FAA3E0FB78A1E6B564
:090D5100020708E6B50302800266
:020D5A00800710
:070D5C0078987601020E0BEE
:040D63007582002273
:070D6700750BF0750C3F75E0
:060D6E000D04750E007576
:060D74000FCD7510AB90DD
:070D7A00E6B8E0FABAC0037D
:030D8100020E0F50
:030D8400020F2833
:070D8700750BE0750C3F75D0
:060D8E000D0C750E00754E
:060D94000F787510569067
:070D9A00E6B9E0FABAE40338
:030DA100020E0F30
:030DA400020F2813
:070DA700750BC0750C3F75D0
:060DAE000D10750E00752A
:060DB4000FCD7510AB909D
:070DBA00E6B9E0FABAE2031A
:030DC100020E0F10
:030DC400020F28F3
:070DC700750BA0750C3F75D0
:060DCE000D1C750E0075FE
:060DD4000FCD7510AB907D
:070DDA00E6B8E0FABAC0031D
:030DE100020E0FF0
:030DE400020F28D3
:070DE700750BF8750C3F7558
:060DEE000D02750E0075F8
:060DF4000FCD7510AB905D
:070DFA00E6B8E0FABAC003FD
:030E0100020E0FCF
:030E0400020F28B2
:040E070075820022CE
:030E0B00758201EC
:010E0E0022C1
:0C0E0F007AFF90E6B8E0FBBBC002800454
:040E1B0075820022BA
:050E1F00AB0DAC0E75E7
:0A0E24000D00750E00C002C003C0EF
:0E0E2E00041210A5D004D003D00274032BFBD5
:0A0E3C00E43CFC8B0D8C0EC002128A
:0A0E46000FF8D002E50D24FDFBE5D6
:070E50000E34FFFC8B0D8C3A
:0B0E57000E90E740E0FBA3E0FCEBB5D1
:060E62000F48ECB510443E
:040E68007A007B0091
:0A0E6C007403250DFCE4350EFD8B28
:0A0E7600067F00C3EE9CEF9D502C98
:0A0E8000EB2440F582E434E7F5832B
:0A0E8A00E0FC2AFAEB2440FCE434FB
:0A0E9400E7FD74022B2440F582E410
:0C0E9E0034E7F583E0FE8C828D83F00BBE
:020EAA0080C006
:030EAC00EA606495
:040EAF00850D088520
:030EB3000E099095
:090EB600E6B9E0FABAE102803469
:050EBF00BAE202803DD3
:050EC400BAE402800504
:050EC900BAE9438017A7
:020ECE007A00A8
:030ED000BA0C0059
:020ED300503E8F
:0A0ED500EA2440F582E434E7F583D7
:060EDF007430F00A80EB04
:050EE50090E7407513C9
:030EEA00FB751481
:060EED0031120A8380208F
:050EF30090E7407513BB
:030EF800FF75146F
:060EFB0031120A8380128F
:050F010090E7407513AC
:030F06001B751444
:060F090032120A8380048D
:040F0F0075820022C5
:0C0F130090E68AE4F000000090E68BE518
:080F1F000DF0000000758201D5
:010F270022A7
:080F280090E6B8E0FABA401CA3
:070F300078A1E608466015F8
:0C0F370090E6BCE0FAA3E0FB78A1E6B570
:090F4300020708E6B50302800470
:040F4C007582002288
:090F500090E68AE4F090E68BF0D3
:080F590090E6A0E0FA20E1F8A7
:070F610090E68AE0FA70142B
:050F6800AA0DAB0E9084
:0E0F6D00E68BE0FC7D00B50206EDB5030280C8
:010F7B000471
:040F7C007582002258
:060F80008A15AD158D0677
:060F86008E071EEF60253E
:0C0F8C00C002C00374022E2440FFE434B5
:090F9800E7FCEE2440F582E4348C
:0C0FA100E7F583E0FA8F828C83F0D00328
:040FAD00D00280D519
:080FB10090E740E50FF0A3E515
:050FB90010F07C407EF9
:0A0FBE00E78E9A759B407C007402D8
:030FC8002515FDEF
:090FCB0090E67BE0FE2CFCDDF752
:0A0FD400740225152440F582E43470
:0C0FDE00E7F583C3E49CFCF074032AFADE
:080FEA00E43BFB8A0D8B0E12A3
:050FF20010A57582014D
:010FF70022D7
:050FF800E50DFA700494
:040FFD0075820122D6
:0810010090E678E0FB20E6F820
:0C10090090E6787480F090E67974A3F013
:0810150090E678E0FB30E0F802
:08101D0090E678E0FB20E2748C
:0810250090E678E0FB30E16C7D
:03102D00BA0108FD
:0810300090E678E0FB4420F09B
:0710380090E679E07B407CAB
:06103F00E78C9A7B407C67
:05104500E77C008B9B1D
:04104A00DA02802620
:08104E0090E678E0FB30E0F8C9
:0810560090E678E0FB20E23B8C
:03105E00BA0108CC
:0810610090E678E0FB4420F06A
:0B10690090E679E0FB90E67BF080D67B
:0810740090E678E0FA30E0F8A4
:08107C0090E678E0FA20E2158D
:0E10840090E678E0FA4440F090E679E0FA90C9
:07109200E67BF075820122EC
:0B10990090E678E0FA4440F075820019
:0110A4002229
:0210A500AA0D92
:0810A70090E678E0FB20E6F87A
:0C10AF0090E6787480F090E67974A2F06E
:0810BB0090E678E0FB30E0F85C
:0810C30090E678E0FB20E26BEF
:0810CB0090E678E0FB30E163E0
:0310D300EA600EC2
:0710D6007B407CE78C9A7B54
:0710DD00407CE77C008B9BC7
:0210E4007B028D
:0310E600EA7003AA
:0310E900EB603B7E
:0310EC00EB6014A2
:0310EF00BB020839
:0810F20090E679E50CF08006A0
:0610FA0090E679E50BF021
:031100001B800A47
:0A11030090E67BE0FC90E679F01A1C
:08110D0090E678E0FC30E0F808
:0811150090E678E0FC20E219ED
:08111D0090E678E0FC20E1C13E
:02112500800F39
:0E11270090E678E0FA4440F012114275820121
:011135002297
:0B11360090E678E0FA4440F07582007B
:01114100228B
:0811420090E678E0FA20E6F8DF
:0E114A0090E678E0FA4480F090E67974A2F026
:0811580090E678E0FA30E0F8BF
:0811600090E678E0FA4440F04B
:0811680090E678E0FA20E6F8B9
:0811700090E678E0FA30E1D2CC
:011178002254
:0811790090E678E0FA4440F032
:0811810090E678E0FA20E6F8A0
:011189002243
:07118A00AA8290E679EAF069
:0811910090E678E0FA30E0F886
:0811990090E678E0FA20E2087C
:0811A10090E678E0FA20E10776
:0711A90012117978A67623EC
:0611B00078A6E6B4010080
:0411B600E433F582A7
:0111BA002212
:0C11BB00AA8290E6787480F0EA2AFAE537
:0B11C700164AF58212118AE5827004BE
:0411D20078A6762263
:0611D60078A6E6B401005A
:0411DC00E433F58281
:0111E00022EC
:0911E1007516017582510211BB63
:0C11EA00AA82AB83751600758251C0020A
:0D11F600C0031211BBE582D003D0026011CE
:0E1203008B82C002C00312118AE582D003D094
:0312110002700464
:041214007C008002D8
:021218007C0157
:03121A00EC600B7A
:0B121D007B008A8212118AE5827004B7
:041228007A008002C6
:02122C007A0145
:02122E008A82B2
:01123000229B
:06123100E4F517F518F5C5
:0712370008F5097582081299
:06123E0007AD1207CBAC66
:041244000FAD10AE2C
:0A12480011AF12C3E49C74209DE472
:051252009EE49F40280E
:04125700850B198565
:03125B000C1A85E5
:03125E000D1B85E0
:041261000E1CEC254E
:0812650019FCED351AFDEE3510
:0A126D001BFEEF351CFFC3E49C7468
:08127700209DE49EE49F500A53
:0A127F0078A676097582000207D4F4
:09128900AC19741C251AFDE435B2
:071292001BFEE4351CFF8C7C
:041299000B8D0C8E1F
:04129D000D8F0E851E
:0612A1000B82850C831294
:0612A70011EAE58270056A
:0512AD00F5820207D4E8
:0A12B2001211797582001207D4E5CD
:0412BC000F45104585
:0512C000114512602839
:0A12C5001211E17401B50F0EE4B53B
:0812CF00100AE4B51106E4B5B4
:0412D700120280027D
:0212DB00800889
:0812DD0090E678E0FC4420F0EB
:0812E50090E679E0F50A8003B0
:0312ED0075180170
:0412F000E518600796
:0712F400E51760030214710D
:0912FB0012073FE4B50A02803F2E
:051304007401B50A0CA4
:04130900E51770086C
:08130D007517011207CB802EB9
:051315007402B50A1C82
:07131A001207CBE518702259
:0C13210090E6A57401F0000000751801B2
:09132D0078A67602121179800DF8
:04133600E518700343
:03133A0012117914
:06133D0075170002147197
:04134300E51870A990
:05134700E5AA20E5A469
:07134C007C007DF88D9D7C03
:08135300007DF87D008C9E85F1
:03135B000F1D85DE
:03135E00101E85D9
:03136100111F85D4
:03136400122090C4
:07136700E680E0FA30E70622
:06136E007A007B028004FE
:041374007A407B0040
:0C137800EB3395E0FCFDC3EA951DEB95FE
:061384001EEC951FED9523
:03138A00205014DC
:08138D0090E680E0FA30E7066B
:061395007A007B028004D7
:04139B007A407B0019
:02139F008004C8
:0413A100AA0FAB10D4
:0413A5008A088B091E
:0713A900E50845097003028D
:0213B000145CCB
:0713B200E518600302145C62
:0813B90090E678E0FC30E0F85A
:0813C10090E678E0FC30E21830
:0813C90078A676237518019047
:0C13D100E6A57401F0EAC39508FAEB955C
:0413DD0009FB80C8C0
:0A13E1007402B50F0EE4B5100AE423
:0913EB00B51106E4B512028002FE
:0213F40080086F
:0813F60090E678E0FC4420F0D1
:0A13FE007401B50F0EE4B5100AE407
:09140800B51106E4B512028002E0
:02141100800B4E
:0B141300C002C003121179D003D00208
:0A141E0090E679E0FC90E67CF01502
:071428000874FFB50802156E
:01142F0009B3
:05143000AC0FAD10AE91
:0A14350011AF121CBCFF091DBDFF22
:06143F00051EBEFF011FA7
:051445008C0F8D108EDC
:0A144A00118F12EC4D4E4F600302AB
:0214540013A9DA
:061456007518010213A944
:0E145C0090E698EBF00000007B0090E699EA25
:07146A00F00000000212F087
:071471001208FFE5176006F9
:061478007582000207D49A
:01147E00224B
:07147F0075210075220075C4
:061486002301E4F508F566
:08148C00097582081207AD1278
:0514940007CBAD0FAE17
:0414990010AF11ACD3
:0C149D0012C3E49D74209EE49FE49C4078
:0114A9001C26
:0A14AA00ED250BFDEE350CFEEF35CD
:0A14B4000DFFEC350EFCC3E49D743F
:0814BE00209EE49FE49C500A0B
:0A14C60078A676097582000207D4AB
:0B14D0007582001207D4AC0B741C25C1
:0814DB000CFDE4350DFEE435C3
:0514E3000EFF8C0B8DD3
:0414E8000C8E0D8FCA
:0414EC000EE50F45B5
:0414F000104511454D
:0314F40012700370
:0314F7007522015A
:0414FA00E522600780
:0714FE00E521600302162C3A
:0915050012073FE4B50A0280352B
:05150E007401B50A0C98
:04151300E521700856
:081517007521011207CB8024AD
:05151F007402B50A1979
:071524001207CBE52270184D
:0C152B0090E6A37401F00000007522019E
:0615370078A67602800692
:06153D0075210002162CCE
:04154300E52270B37A
:05154700E5AA20E0AE62
:07154C007C007DF08D9A7C0C
:08155300007DF07D008C9B90EF
:0E155B00E690E0FC8C057C0090E691E0FE7FBF
:08156900002CF508EF3DF50927
:06157100E5084509608356
:07157700E52260030214FAF3
:04157E00E523600CF5
:07158200850B82850C83122A
:0515890011EA752300CA
:05158E0078A6E6700ED6
:0E15930090E67BE0FCF58212118AE582700B77
:0B15A10075220190E6A37401F080C5E4
:0815AC00150874FFB5080215D3
:0115B400092D
:0515B500AC0FAD10AE0B
:0715BA0011AF12EC24FFF554
:0A15C10024ED34FFF525EE34FFF5AC
:0715CB0026EF34FFF5278530
:0315D200240F855E
:0315D50025108559
:0315D80026118554
:0315DB002712AA2A
:0415DE000BAB0CAC9B
:0A15E2000DAD0E0ABA00090BBB00A4
:0615EC00050CBC00010D1E
:0515F2008A0B8B0C8C3C
:0415F7000D8D0EE563
:0415FB002445254519
:0515FF002645277003E2
:031604007522014B
:06160700E508450970062C
:06160D0090E6497482F032
:04161300E522700953
:06161700E50B543F6003E7
:03161D0002157142
:07162000121179121142754D
:05162700230102157112
:04162C00E52370063C
:06163000121179121142B3
:071636001208C7E521600660
:06163D007582000207D4D3
:011643002284
:0531EC000102000000DB
:0531F1000100000000D8
:0531F6000100000000D3
:0431FB000D000000C3
:0E31FF004F6E626F61726420555342000000F3
:0E320D00FDFDFDFD00000000000053B75C3C1D
:0E321B00444F6E62557362000000FDFDFDFD24
:023229000000A3
:0716440078A4B602028060E9
:07164B0078A5B60002801132
:0B1652001207CB78A6760C7582001200
:06165D0007D47582012292
:0516630078A4E6701FF1
:061668007899E630E01164
:0B166E001207CB78A6760375820012ED
:0616790007D47582012276
:08167F007899E64401F680248D
:0516870078A4B6010883
:08168C007899E654FEF6801780
:061694007899E620E01148
:0B169A001207CB78A6760475820012C0
:0616A50007D4758201224A
:0A16AB0078A4E624F4500302179B14
:0A16B50078A4E625E0269016BF7326
:0716BF000216E30216F3021C
:0616C600170302179B024E
:0616CC00171002172902AD
:0616D200175D02179402EF
:0616D800178602178602CE
:0516DE00178D021786C4
:0A16E30012179F1207CB7582001248
:0616ED0007D47582012202
:0A16F3001217AF1207CB7582001228
:0616FD0007D475820122F2
:0D17030090322B75F0801208637582012270
:071710001207CB750B0075F9
:061717000C6A750D187547
:0C171D000E007582041207D475820122B0
:0717290090E67BE0FA60048A
:04173000D2B38002AE
:02173400C2B33E
:0717360090E67BE0FA60047D
:04173D00D2B28002A2
:02174100C2B232
:0717430090E67BE0FA600470
:04174A00D2B4800293
:02174E00C2B423
:0D1750001207CB7582001207D475820122AA
:0C175D001207CBA2B3E433FA8A0BA2B24D
:0B176900E433FA8A0CA2B0E433FA8AE1
:0A1774000DA2B4E433FA8A0E758268
:08177E00041207D47582012258
:07178600121B3475820122E1
:07178D00121F3B75820122CF
:071794001217B97582012252
:03179B0075820054
:01179E002228
:0E179F0043B50443B50843B510C2B2D2B3C27D
:0117AD00B487
:0117AE002218
:0917AF0053B5E3C2B2D2B3C2B4D7
:0117B800220E
:05322B0001020000009B
:05323000010000000098
:05323500010000000093
:0B17B9007A007B0090E67BE0FC6004FF
:0417C400D2B380021A
:0217C800C2B3AA
:0717CA0090E67BE0FC6004E7
:0417D100D2B280020E
:0217D500C2B29E
:0E17D700C2B4758204C002C0031207ADD00375
:0E17E50000C0031207CB7582001207D4D00398
:0717F300D002AC0BAD0CAEFF
:0417FA000DAF0E8C95
:0417FE000F8D108EAD
:09180200118F12EC4D4E4F7002E3
:02180B007B015F
:03180D00EB600687
:06181000EA60030218C0AB
:0D181600C002C00312073FD003D002E4B5AA
:041823000A02803005
:051827007401B50A0F79
:0E182C007A01C002C0031207CBD003D00280A5
:01183A001C91
:05183B007402B50A1360
:0B1840007B0178A67602C002C00312F4
:08184B0007CBD003D00280049A
:041853007A0080692E
:03185700EB70B380
:05185A00AC0BAD0CAE6B
:0A185F000DAF0EC3ED9404EE9400EB
:05186900EF94005006A1
:06186E008C088D098006C4
:061874007508007509046F
:08187A00AC08AD09E4FEFFE536
:091882000BC39CFCE50C9DFDE587
:08188B000D9EFEE50E9FFF8C8F
:041893000B8D0C8E1F
:031897000D8F0EA4
:0A189A00D2B400C2B4150874FFB503
:0418A4000802150918
:0618A800E508450970ECA3
:0518AE00E50B450C45AF
:0618B3000D450E6003026A
:0218B900180D08
:0518BB007B0102180D85
:0318C000EA6029B2
:0718C300E50FC3950BFAE5E8
:0518CA0010950CFBE588
:0518CF0011950DFCE580
:0518D40012950EFD8AD3
:0418D9000B8B0C8CDD
:0418DD000D8D0E78E7
:0B18E100A6E64480F67582040207D4DE
:0118EC0022D9
:0818ED00A908AA09E960010A3B
:0318F50090E67BFF
:0E18F800E01392B2D2B4C2B41392B2D2B4C210
:0E190600B41392B2D2B4C2B41392B2D2B4C22D
:0E191400B41392B2D2B4C2B41392B2D2B4C21F
:0E192200B41392B2D2B4C2B41392B2D2B4C211
:05193000B4D9C5DAC3C3
:01193500228F
:08193600A908AA09E960010AF1
:0A193E0090E67B058690E67C0586A6
:0E194800E01392B2A2B013D2B4C2B492B2A213
:0E195600B013D2B4C2B492B2A2B013D2B4C2D3
:0E196400B492B2A2B013D2B4C2B492B2A2B086
:0E19720013D2B4C2B492B2A2B013D2B4C2B4B3
:0E19800092B2A2B013D2B4C2B492B2A2B0130B
:0D198E00D2B4C2B40586F00586D9AFDAAD3B
:01199B002229
:08199C00A908AA09E960010A8B
:0319A40090E67C4E
:0E19A700A2B0D2B4C2B413A2B0D2B4C2B41370
:0E19B500A2B0D2B4C2B413A2B0D2B4C2B41362
:0E19C300A2B0D2B4C2B413A2B0D2B4C2B41354
:0E19D100A2B0D2B4C2B413A2B0D2B4C2B41346
:0519DF00F0D9C2DAC0DE
:0119E40022E0
:0819E500A908AA09E960010A42
:0319ED0090E67B06
:0E19F000E01392B3D2B4C2B41392B3D2B4C215
:0E19FE00B41392B3D2B4C2B41392B3D2B4C233
:0E1A0C00B41392B3D2B4C2B41392B3D2B4C224
:0E1A1A00B41392B3D2B4C2B41392B3D2B4C216
:051A2800B4D9C5DAC3CA
:011A2D002296
:081A2E00A908AA09E960010AF8
:0A1A360090E67B058690E67C0586AD
:0E1A4000E01392B3A2B013D2B4C2B492B3A218
:0E1A4E00B013D2B4C2B492B3A2B013D2B4C2D9
:0E1A5C00B492B3A2B013D2B4C2B492B3A2B08B
:0E1A6A0013D2B4C2B492B3A2B013D2B4C2B4B9
:0E1A780092B3A2B013D2B4C2B492B3A2B01310
:0D1A8600D2B4C2B40586F00586D9AFDAAD42
:011A93002230
:081A9400A908AA09E960010A92
:031A9C0090E67B56
:0E1A9F00E01392B21392B3D2B4C2B41392B257
:0E1AAD001392B3D2B4C2B41392B21392B3D256
:0E1ABB00B4C2B41392B21392B3D2B4C2B4D96F
:031AC900D5DAD398
:011ACC0022F7
:081ACD00A908AA09E960010A59
:0A1AD50090E67B058690E67C05860E
:021ADF007C0287
:0E1AE100E01392B21392B3FBE8A2B013F8EB3D
:0E1AEF00D2B4C2B41392B21392B3FBE8A2B009
:0E1AFD0013F8EBD2B4C2B41392B21392B3FB3F
:0E1B0B00E8A2B013F8EBD2B4C2B41392B21336
:0E1B190092B3FBE8A2B013F8EBD2B4C2B4DC76
:0C1B2700B9E80586F0058619D9AEDAACE5
:011B3300228F
:071B3400752900752B0075F7
:071B3B002C0078A4B6082A73
:081B420075290190E67BE0F536
:081B4A002890E67BE0FE600438
:041B5200D2B3800288
:021B5600C2B318
:041B5800E528600814
:041B5C00752D367538
:041B60002E19805A60
:041B6400752DED7579
:041B68002E18805261
:051B6C0078A4B6092574
:0A1B710075280190E67BE0FC60049B
:041B7B00D2B380025F
:021B7F00C2B3EF
:071B810090E67BE0FC60042C
:041B8800D2B2800253
:021B8C00C2B2E3
:041B8E00752D9C75A0
:041B92002E19802860
:081B960075290190E67BE0F5E2
:081B9E002890E67BE0FC6004E6
:041BA600D2B2800235
:021BAA00C2B2C5
:041BAC00E5286008C0
:041BB000752D2E75EC
:041BB4002E1A80065F
:041BB800752DE5752D
:021BBC002E19E0
:0D1BBE007582041207AD1207CB758200126C
:041BCB0007D4850BAB
:031BCF002F850C53
:031BD20030850D4E
:031BD50031850E49
:031BD80032852F24
:031BDB000F853043
:031BDE001085313E
:031BE10011853239
:0A1BE400127407552FFD7A007B00F4
:071BEE007C008D2AAA2FE5FF
:0C1BF50030C423CAC423541F6ACA541F02
:0C1C0100CA6ACAFBE531C42354E04BFB67
:0A1C0D00AC31E532C423CCC42354EB
:0C1C17001F6CCC541FCC6CCCFE8A0B8BD5
:041C23000C8C0D8E8A
:051C27000EE52A601D1E
:051C2C00AA0BAB0CAC9B
:0A1C31000DAE0E0ABA00090BBB004D
:061C3B00050CBC00010EC7
:051C41008A0B8B0C8CE6
:031C46000D8E0EF2
:051C4900E50F45104508
:051C4E001145127003B6
:031C5300752B01ED
:021C5600C2B416
:041C5800E52B600711
:071C5C00E52C6003021E4E9F
:071C630012073FE50A602CA7
:051C6A007401B50A0C35
:041C6F00E52C7008E8
:081C7300752C011207CB801B48
:051C7B007402B50A101F
:071C80001207CBE52B700FEA
:091C870078A67602752B01800697
:061C9000752C00021E4E3F
:041C9600E5296005D7
:051C9A00E5AA20E0B9FD
:041C9F00E5286005CF
:051CA300E5AA20E5B0F8
:041CA800E52B70AC0C
:041CAC00E529600EB8
:071CB0007A007BF08B9A7AA9
:071CB700007BF07B008A9B1B
:041CBE00E528600EA7
:071CC2007A007BF88B9D7A8C
:071CC900007BF87B008A9EFE
:041CD000E529601989
:0E1CD40090E690E0FA8A037A0090E691E0FC38
:0A1CE2007E004AF508EE4BF509807C
:011CEC0054A3
:041CED00850B3385AB
:031CF1000C34852B
:031CF4000D358526
:031CF7000E369016
:071CFA00E680E0FF30E70681
:061D01007A007B02800461
:041D07007A407B00A3
:0C1D0B008A07EBFD3395E0FAFBC3EF956F
:061D170033ED9534EA955E
:061D1D0035EB953650186D
:081D230090E680E0FA30E706CB
:061D2B007A007B02800437
:041D31007A407B0079
:061D35008A088B098006FC
:041D3B00853308855F
:021D3F00340965
:081D4100AA08AB09E4FCFDE572
:091D49000BC39AFAE50C9BFBE5C3
:081D52000D9CFCE50E9DFD8ACD
:041D5A000B8B0C8C57
:041D5E000D8D0EE5F4
:031D62002A6013E1
:051D6500E50B450C45F3
:051D6A000D450E70099B
:081D6F00150874FFB508021508
:011D77000962
:061D7800E50845096009C1
:071D7E00852D82852E8312E2
:021D8500006BF1
:071D8700E52A7003021E189B
:051D8E00E50B450C45CA
:061D93000D450E60030285
:021D99001E1812
:061D9B00AA2AE529700BE5
:031DA10030B20459
:041DA4007BFF80023F
:021DA8007B00BE
:021DAA008005B2
:051DAC0090E67BE0FB66
:051DB10078A4B60B1D33
:021DB6008A049D
:0B1DB800EBA2E092B3C313FB30B005B8
:051DC3004303808003D2
:031DC80053037F43
:061DCB00D2B4C2B4DCE753
:021DD100801977
:0B1DD300EBA2E092B2C313FB30B0059E
:051DDE004303808003B7
:031DE30053037F28
:061DE600D2B4C2B4DAE73A
:041DEC00E528601D69
:0C1DF000AD2A7A007408C39DFDE49AFA45
:071DFC008DF005F0EB800201
:021E0300C31307
:081E0500D5F0FBFB90E67CF038
:071E0D00752A000508E4B589
:041E140008020509B2
:041E1800E52960094F
:091E1C0090E6497482F000000018
:041E2500E52860123A
:0A1E290090E698E509F00000009033
:081E3300E699E508F00000004B
:051E3B00E50B450C451C
:061E40000D450E600302D7
:021E46001C5826
:061E4800752B01021C587D
:071E4E001208C71208FFE5AE
:041E55002C700122CA
:041E5900E52A601DF9
:051E5D00AA0BAB0CAC68
:0A1E62000DAD0E1ABAFF091BBBFFFD
:061E6C00051CBCFF011D76
:051E72008A0B8B0C8CB3
:031E77000D8D0EC0
:041E7A00850D35E5B8
:0A1E7E000EC40354F8C535C403C5B3
:041E8800356535C5C2
:061E8C003554F8C5356570
:041E920035F536E507
:081E96000CC40354074535F5A7
:031E9E0035850B7C
:081EA10033E50CC40354F8C53D
:061EA90033C403C53365DC
:061EAF0033C53354F8C5F1
:041EB500336533F569
:031EB9003485333A
:031EBC000B85345F
:031EBF000C85355A
:031EC2000D853655
:091EC5000EAE2AE4FFFAFBEE2543
:081ECE0033FEEF3534FFEA3565
:071ED60035FAEB3536FB8EF7
:041EDD000B8F0C8AD1
:041EE1000D8B0EE572
:091EE5000FC39EFEE5109FFFE50E
:081EEE00119AFAE5129BFB8E2C
:041EF6000F8F108AB0
:041EFA00118B128EA8
:041EFE000B8F0C8AB0
:041F02000D8B0EE550
:031F06002960044B
:041F09007A80800258
:021F0D007A0058
:041F0F00E52860045D
:041F13007B4080028D
:021F17007B004D
:0A1F1900EB4A78A646F6E5296004BD
:041F23007A048002BA
:021F27007A003E
:041F2900E528600443
:041F2D007B048002AF
:021F31007B0033
:071F3300EB2AF5820207D43E
:011F3A002284
:071F3B0075380075390075CF
:071F42003A0090E67BE0F598
:081F4900377582041207AD1286
:091F510007CB7582001207D4854C
:031F5A000B3D85B7
:031F5D000C3E85B2
:031F60000D3F85AD
:031F63000E4085A8
:031F66003D0F85A7
:031F69003E1085A2
:031F6C003F11859D
:031F6F004012E538
:041F72003D453E4566
:051F76003F454070032F
:031F7B00753901B4
:0C1F7E007407553DFAE4FDFBFC740325DC
:081F8A003DFBE4353EFCE435AB
:071F92003FFDE43540FE8B2A
:041F99000B8C0C8D14
:0A1F9D000DEEF50EC313FEED13FD6B
:0E1FA700EC13FCEB13FBEEC313FEED13FDEC8D
:0A1FB50013FCEB13FB8B0B8C0C8D5F
:041FBF000D8E0EE590
:031FC3003760087C
:041FC600753BCD7525
:041FCA003C1A800637
:041FCE00753B947556
:021FD2003C1AB7
:021FD400C2B495
:041FD600E539600782
:071FDA00E53A60030221D784
:0B1FE100C00212073FD002E50A603486
:051FEC007401B50A10AC
:041FF100E53A700C51
:0C1FF500753A01C0021207CBD002801F19
:052001007402B50A1491
:0B200600C0021207CBD002E539700FBA
:0920110078A676027539018006FB
:06201A00753A000221D717
:05202000E5AA20E0B17B
:04202500E537600536
:05202900E5AA20E5A876
:04202E00E53970A47C
:072032007D007EF08E9A7D17
:08203900007EF07E008D9BE5A6
:03204100376012F3
:04204400E538700EFD
:072048007D007EF88E9D7DF6
:07204F00007EF87E008D9E6B
:0E20560090E690E0FD8D067D0090E691E0FFA3
:0A2064007B002DF508EB3EF509ABFB
:07206E0008AC09E4FDFEE5EA
:092075000BC39BFBE50C9CFCE590
:08207E000D9DFDE50E9EFE8B99
:042086000B8C0C8D26
:06208A000D8E0EEA602C31
:05209000E50B450C45C5
:052095000D450E702254
:0E209A008A03FC74032BFBE43CFCA2E713CB8F
:0C20A80013CBA2E713CB13CBFCE508C35D
:0720B4009BF508E5099CF50E
:0120BB00091B
:0620BC00E5084509600D76
:0920C200C002853B82853C8312BB
:0420CB00006BD002D4
:0620CF00EA700302215437
:0520D500E50B450C4580
:0520DA000D450E7075BC
:0920DF007B0090E67BE0FC7D0033
:0520E800C3ED9A502336
:0320ED00BD04052A
:0520F00090E67BE0FC1E
:0E20F500ECA2E092B2C313FCA2E092B3C313BC
:06210300FCEBA2B013FB8F
:07210900D2B4C2B40D80D86E
:04211000E537601C33
:0E2114008A047D007408C39CFCE49DFD8CF0E1
:0521220005F0EB800256
:02212700C313E0
:07212900D5F0FB90E67CF00D
:0E2130008A037C0074032BFBE43CFCA2E71343
:0C213E00CB13CBA2E713CB13CBFCEB259B
:05214A0008F508EC356A
:05214F0009F5097A000A
:04215400E5376063A8
:05215800E50B450C45FC
:05215D000D450E6004B9
:04216200E5386052AA
:072166000508E4B5080205BD
:01216D000968
:08216E00E509C313C50813C500
:0421760008F509E57A
:03217A00386024A6
:08217D0090E680E0FB30E7066C
:062185007B007C028004D7
:04218B007B407C0019
:0C218F00ECA2E713CB13CBFCEB2508F50A
:05219B0008EC3509F518
:0121A0000935
:0A21A10090E698E509F000000090B8
:0921AB00E699E508F0000000755A
:0421B400380080036C
:0321B80075380176
:0C21BB0090E6497482F0000000E50B453E
:0421C7000C450D4571
:0621CB000E6003021FD6A6
:0621D100753901021FD662
:0C21D700C0021208C7001208FFD002E589
:0421E3003A7001222B
:0A21E700E50B25E0FBE50C33FCE5F9
:0A21F1000D33FDE50E33FEEB2BFB72
:0C21FB00EC33FCED33FDEE33FE8B0B8C5F
:042207000C8D0D8E9F
:04220B000EEA603D3A
:04220F00EA30E21DB2
:05221300AB0BAC0CADAB
:0A2218000DAE0E1BBBFF091CBCFF3E
:06222200051DBDFF011EB9
:052228008B0B8C0C8DF6
:03222D000D8E0E05
:0A223000E4FBFCFDEA250BFAEB3598
:08223A000CFBEC350DFCED3549
:052242000EFD8A0B8B6C
:042247000C8C0D8D61
:01224B000E84
:07224C00E50FC3950BFAE555
:0522530010950CFBE5F5
:0522580011950DFCE5ED
:05225D0012950EFD8A40
:042262000F8B108C42
:04226600118D128A3A
:04226A000B8B0C8C42
:04226E000D8D0EE5DF
:03227200377008BA
:05227500F50FF510F566
:03227A0011F51249
:0C227D0078A6E644C0F67582080207D47B
:012289002232
:05323A0001020000008C
:05323F00010000000089
:05324400010000000084
:0A228A00C28CC28D78A7868A78A75F
:0322940008868C2D
:012297002224
:0722980078A4B60202806089
:07229F0078A5B600028011D2
:0B22A6001207CB78A6760C75820012A0
:0622B10007D47582012232
:0522B70078A4E6701F91
:0622BC007899E630E21102
:0B22C2001207CB78A67603758200128D
:0622CD0007D47582012216
:0822D3007899E64404F680242A
:0522DB0078A4B6010823
:0822E0007899E654FBF6801723
:0622E8007899E620E211E6
:0B22EE001207CB78A676047582001260
:0622F90007D475820122EA
:0A22FF0078A4E624F850030223E956
:0A23090078A4E625E0269023137364
:0723130002232B02232B0221
:06231A00233D02234A02EC
:0623200023CF0223D702C7
:0523260023DF0223E4A7
:0C232B001207CB78A7E4F608F6758200D4
:062337001207D40223EDA1
:0D233D0090324E75F0801208637582012207
:0A234A007582041207AD1207CB756F
:0623540053FAE4F554F514
:04235A0055F556855A
:06235E000B82850C838553
:052364000DF0E50E1272
:0C23690030B3AA82AB83ACF0FD8A0B8B72
:042375000C8C0D8D32
:072379000EEC7003ED600C97
:07238000750BFF750CFF75E2
:052387000D00750E00C1
:09238C00E50BF4FAE50CF4FBE5A5
:082395000DF4FCE50EF4FD78E7
:08239D00A7A60208A603850BA8
:0323A50053850C51
:0323A80054850D4C
:0323AB0055850E47
:0C23AE00569000FAE4F5F0123131AA82DA
:0A23BA00AB83ACF0FD8A0B8B0C8C9A
:0723C4000D8D0E758204125D
:0423CB0007D4801E95
:0823CF007582011227A580169A
:0823D7007582001227A5800E9B
:0523DF001224618009D9
:0523E4001225E0800459
:0423E90075820022D7
:0323ED00758201F5
:0123F00022CA
:0E23F10090E6F3E0FA4480F000000090E67BF6
:0C23FF00E0FA90E6F1F00000000224413A
:0E240B0090E6F3E0FA547FF000000090E67BCC
:0C241900E0FA90E6F1F00000000224411F
:0B24250090E6F1E0122441E582600D1A
:0D24300090E6F2E0FA90E67CF07582012261
:03243D00758200A5
:012440002279
:0524410012228AD28C7A
:05244600E5BB20E703E7
:03244B00308DF8D9
:05244E00E5BB30E704CE
:04245300758201226B
:0924570090E6F574FFF0758200B7
:012460002259
:0A246100E4FAFBF508F509758204A2
:0D246B00C002C0031207ADD00300C0031271
:0D24780007CB7582001207D4D003D002AC50
:042485000BAD0CAEE1
:042489000DAF0E8CF9
:04248D000F8D108E11
:09249100118F12EC4D4E4F700248
:02249A007B01C4
:03249C00EB6006EC
:06249F00EA60030225AC17
:0D24A500C002C00312073FD003D002E4B50F
:0424B2000A0280405A
:0524B6007401B50A12DB
:0324BB00EA700FB5
:0E24BE007A01C002C0031207CBD003D0028007
:0124CC0029E6
:0524CD007402B50A1FB6
:0E24D200C002C0031207CBD003D002EB70167D
:0C24E00090E6A37401F00000007B01787E
:0524EC00A67602800548
:0524F1007A000225AC99
:0324F600EB70A3E5
:0624F900E5084509702A08
:0524FF00E5AA20E02524
:072504007C007DF08D9A7C44
:08250B00007DF07D008C9B9027
:0E251300E690E0FC8C057C0090E691E0FE7FF7
:08252100002CF508EF3DF5095F
:07252900E5084509700302FB
:02253000249CE9
:0E253200C002C0031223F1E582D003D0027074
:012540000694
:0625410078A67605805229
:0E254700C002C00312240BE582D003D0027044
:01255500067F
:0625560078A67606803D28
:07255C00E50824FEF508E587
:062563000934FFF509AC8C
:042569000BAD0CAEFC
:0A256D000DAF0E1CBCFF091DBDFFE1
:06257700051EBEFF011F5E
:05257D008C0B8D0C8E9B
:092582000D8F0EEC4D4E4F70025E
:02258B007B01D2
:06258D00E5084509700697
:0625930090E6497482F09D
:0825990078A6B6000302249CA1
:0B25A1007B0190E6A37401F002249C73
:0A25AC00C0021208C7D002EA60293D
:0725B600E50FC3950BFAE5E8
:0525BD0010950CFBE588
:0525C20011950DFCE580
:0525C70012950EFD8AD3
:0425CC000B8B0C8CDD
:0425D0000D8D0E78E7
:0B25D400A6E64480F67582040207D4DE
:0125DF0022D9
:0A25E000E4FAFBF508F50975820422
:0D25EA00C002C0031207ADD00300C00312F1
:0D25F70007CB7582001207D4D003D002ACD0
:042604000BAD0CAE60
:042608000DAF0E8C78
:04260C000F8D108E90
:09261000118F12EC4D4E4F7002C7
:022619007B0143
:03261B00EB60066B
:06261E00EA6003022765DB
:0D262400C002C00312073FD003D002E4B58E
:042631000A028046D3
:052635007401B50A125A
:03263A00EA700F34
:0E263D007A01C002C0031207CBD003D0028086
:01264B002F5F
:05264C007402B50A252F
:0E265100C002C0031207CBD003D002EB701CF6
:0E265F0090E6A37401F000000090E6A574015F
:09266D00F07B0178A676028005DD
:052676007A0002276557
:03267B00EB709D64
:06267E00E5084509703D6E
:05268400E5AA20E0388A
:05268900E5AA20E53385
:07268E007C007DF08D9A7CB9
:08269500007DF07D008C9B7CB0
:06269D00007DF88D9D7C1C
:0826A300007DF87D008C9E9083
:0E26AB00E690E0FC8C057C0090E691E0FE7F5E
:0826B900002CF508EF3DF509C6
:0726C100E508450970030262
:0226C800261BCF
:0E26CA00C002C0031223F1E582D003D00270DB
:0126D80006FB
:0626D90078A67605806A78
:0E26DF00C002C003122425E582D003D0027091
:0126ED0006E6
:0626EE0078A67606805577
:0826F400150874FFB50802157A
:0126FC0009D4
:0526FD00AC0BAD0CAEBA
:0A2702000DAF0E1CBCFF091DBDFF4A
:06270C00051EBEFF011FC7
:052712008C0B8D0C8E04
:092717000D8F0EEC4D4E4F7002C7
:022720007B013B
:06272200E50845097021E5
:0D27280090E690E0FC90E698F00000009034
:0C273500E691E0FC90E699F000000090B6
:08274100E6497482F00000007B
:0827490078A6B6000302261B6E
:0E27510090E6A37401F000000090E6A574016C
:06275F00F07B0102261BC5
:0E276500C0021208C7001208FFD002EA60315D
:07277300E50FC3950BFAE529
:05277A0010950CFBE5C9
:05277F0011950DFCE5C1
:0527840012950EFD8A14
:042789000F8B108C16
:04278D00118D128A0E
:042791000B8B0C8C16
:042795000D8D0E7820
:0B279900A6E644C0F67582080207D4D3
:0127A4002212
:0C27A5008582417B007C00C003C0041250
:0A27B10023F1E582D004D003700D7F
:0B27BB001207CB78A67605758200029D
:0227C60007D436
:0E27C800758204C003C0041207ADD00400C027
:0B27D600041207CBD004D003E50B4534
:0427E1000C450D4551
:0327E5000E700271
:0227E8007C0172
:0A27EA0090E6F574FFF090E6CEE5EE
:0927F4000EF000000090E6CFE5B4
:0927FD000DF000000090E6D0E5AB
:092806000CF000000090E6D1E5A1
:0C280F000BF0C003C00412228AD004D0D9
:0A281B000390E6D1E0FDE541601CEA
:0E28250090E6187410F000000090E6D27401E6
:07283300F0000000EC703121
:07283A00F5BB000000802A3D
:0E284100C003C004C00512092AD005D004D07F
:0E284F000390E61A7408F000000090E6E274B0
:08285D0002F0000000EC70061F
:0628650075BB0600000037
:0E286B00758200C003C004C0051207D4D0055A
:04287900D004D003B4
:03287D00EC600606
:06288000EB600302297B5E
:0E288600C003C004C00512073FD005D004D027
:0728940003E4B50A028066AF
:05289B007401B50A16EE
:0328A000EB7013C7
:0E28A3007B01C003C004C0051207CBD005D0D6
:0528B10004D003804B80
:0528B6007402B50A42A6
:0E28BB00C003C004C0051207CBD005D004D066
:0428C90003EC703478
:0528CD0078A6E670048E
:0428D20078A676026C
:0428D600E541600870
:0828DA0090E6A37401F08006F2
:0628E20090E6A57401F070
:0828E800000000E5BB20E70938
:0928F00000000090E6F574FFF011
:0428F9007C018004DA
:0428FD007B00807A62
:05290100E5BB20E75DCD
:0A29060090E6D1E0FEB50502801254
:0E291000C003C00412228AD004D00390E6D186
:04291E00E0FD802434
:03292200308D21D4
:0829250078A67606E541600882
:08292D0090E6A37401F080069E
:0629350090E6A57401F01C
:0B293B007C0100000090E6F574FFF046
:04294600E541600502
:05294A00E5AA30E00FDA
:07294F00E541600302287D51
:08295600E5AA30E50302287D2B
:05295E00D28C02287D6F
:06296300EC600302287D78
:04296900E5417009CB
:09296D0090E6487406F000000039
:052976007C0102287D38
:0E297B00C0031208C7001208FFD003EB700162
:01298900222B
:0C298A0090E6CEE0FB7C007D007E008B20
:052996004575420075CB
:06299B00430075440090AA
:0E29A100E6CFE0FF7A007B008A048F03E4FAA1
:0829AF00FF4242EA4243EB4201
:0529B70044EC424590D4
:0E29BC00E6D0E0FD7E007A008A038E028D06D2
:0929CA00E4FD4242EE4243EA4200
:0529D30044EB424590B9
:0C29D800E6D1E0FCE4FFFAFBE54242041B
:0929E400E5434207E5444202E527
:0929ED00454203E50BC39CFCE527
:0829F6000C9FFFE50D9AFAE5C4
:0629FE000E9BFB8C0B8F09
:042A04000C8A0D8BA0
:052A08000EE541600431
:042A0D007A80800249
:022A11007A4009
:0B2A130078A6EA46F67582040207D49C
:012A1E002295
:0532490001020000007D
:05324E0001000000007A
:05325300010000000075
:0D2A1F0090E60174FAF090E6F574FFF09077
:0A2A2C0032FCE493FA90E6F3F09018
:0A2A360032FDE493FA90E6C3F0903D
:0A2A400032FEE493FA90E6C1F09034
:0A2A4A0032FFE493FA90E6C2F09028
:0A2A54003301E493FA90E6C0F0901D
:0D2A5E003302E493FA90E6F4F075AF077AC6
:062A6B00587B328B9A7AC1
:0A2A7100587B327B008A9B759DE4C0
:052A7B00759E007A00C9
:032A8000BA800019
:022A8300500CF5
:0C2A850090E67BE0FB90E67CF00A80EF1E
:0E2A910090E67174FFF075B4FF90E672E0FA03
:0E2A9F004480F043B68000000090E6C4E4F0EE
:0E2AAD0000000090E6C5E4F09032D8E493FA01
:0B2ABB0090E6C6F09032D9E493FA9048
:0A2AC600E6C7F09032DAE493FA90CC
:0A2AD000E6C8F09032DBE493FA90C0
:0A2ADA00E6C9F09032DCE493FA90B4
:0A2AE400E6CAF09032DDE493FA90A8
:0A2AEE00E6CBF09032DEE493FA909C
:0A2AF800E6CCF09032DFE493FA9090
:032B0200E6CDF02D
:012B050022AD
:0E32580081B9010101010107230302020202F4
:0E3266000200F7F5F5F5F5F5F5F700000000AC
:0E3274000000003F0C8A9A3FA5B53F072103DA
:0E328200030103030500F3F3F2F3F3F1F3F796
:0E3290003F0000000000003F81913801010165
:0E329E0001070101070202020200F7F5F7F72F
:0E32AC00F7F7F7F7000075000000003F819172
:0E32BA003801010101070303050000000000B8
:0E32C800F3F1F3F3F3F3F3F700006E000000F0
:0232D600003FB7
:0E32D8000000000000000000000000000000E8
:0E32E6000000000000000000000000000000DA
:0832F4000000000000000000D2
:0732FC00E08000F7FA4E002C
:072B060078A4B60202806012
:072B0D0078A5B6000280115B
:0B2B14001207CB78A6760C7582001229
:062B1F0007D475820122BB
:052B250078A4E6701F1A
:062B2A007899E630E3118A
:0B2B30001207CB78A676037582001216
:062B3B0007D4758201229F
:082B41007899E64408F68024AF
:052B490078A4B60108AC
:082B4E007899E654F7F68017B0
:062B56007899E620E3116E
:0B2B5C001207CB78A6760475820012E9
:062B670007D47582012273
:072B6D0078A4E624FB403BC5
:0A2B740078A4E625E026902B7E737E
:072B7E00022B8D022B8D02DA
:062B85002B98022BA502B3
:022B8B002BAA73
:0B2B8D001207CB7582001207D4801BDA
:0D2B980090330D75F08012086375820122E4
:052BA500122BB78009AE
:052BAA00122ED0800492
:042BAF007582002209
:032BB30075820127
:012BB60022FC
:072BB700754600754700752B
:092BBE0048007582081207AD12EF
:0B2BC70007CB7582001207D4C280907B
:0E2BD200E618E4F000000090E61AE4F00000BF
:0E2BE0000090E6027468F000000090E630E419
:0E2BEE00F000000090E631E4F090E680E0FD9B
:032BFC0030E706B9
:062BFF007D007E0280044F
:042C05007D407E0090
:052C09008D498E4AAF69
:042C0E000FAB10AA4E
:042C120011AC12856A
:032C1600494B85A2
:032C19004A4C75AD
:082C1C004D00754E00C3EF9559
:062C24004BEB954CEA9514
:062C2A004DEC954E502C0C
:052C30008F498B4AAD45
:0C2C35004A90E63474C04DF0000000909E
:072C4100E635E549F0E4F57A
:042C480008F509750D
:062C4C004701750F007541
:062C520010007511007571
:042C58001200807274
:082C5C0090E680E0FD30E71373
:0E2C640090E63474C8F000000090E635E4F00D
:052C72000000008012CB
:0E2C770090E63474C0F000000090E635744022
:042C8500F00000005B
:0A2C8900EFC3954BFFEB954CFBEAFF
:082C9300954DFAEC954EFC8F03
:042C9B000F8B108A01
:042C9F00118C1285FD
:032CA3000F4F854B
:032CA60010508546
:032CA90011518541
:052CAC001252C3EF9578
:062CB1004BEB954CEA9587
:062CB7004DEC954E500BA0
:042CBD00854F0885B2
:032CC10050097542
:042CC400470180063E
:042CC80085490885AD
:022CCC004A09B3
:0A2CCE0090E601E0FA4403F0D2871B
:042CD800E548600764
:072CDC00E5466003022E4EE5
:072CE30012073FE50A602E15
:052CEA007401B50A0CA5
:042CEF00E54670083E
:082CF3001207CB754601801D9C
:052CFB007402B50A128D
:072D00001207CBE54870113A
:0A2D0700C28778A6760275480180A5
:012D110006BB
:062D1200754600022E4E82
:042D1800E54870BC5E
:052D1C00E5AA20E058CB
:0E2D210090E690E0FA8A037A00EB3395E0FC2E
:082D2F00FDE50BC39AF54FE529
:052D37000C9BF550E5C6
:052D3C000D9CF551E5BE
:052D41000E9DF5528516
:032D46004F0B85AB
:032D4900500C85A6
:032D4C00510D85A1
:032D4F00520E9091
:0C2D5200E691E0FEE4FFFAFBE54FC39EB3
:0A2D5E00FEE5509FFFE5519AFAE5EB
:062D6800529BFB8E0B8F55
:042D6E000C8A0D8B33
:072D72000E90E6497402F027
:0B2D790090E6A9E0FA20E203022E25FC
:0E2D840090E6A5E0FA530270BA3003022E2545
:042D9200E54760159C
:0C2D9600AA0990E63474C04AF000000066
:092DA20090E635E508F0000000A0
:0A2DAB0090E698E54AF00000009061
:092DB500E699E549F000000085F3
:032DBE000849853C
:032DC100094AE5D7
:052DC400084509605CF8
:082DC900AA08AB09E4FCFDE5DA
:092DD1000FC39AFAE5109BFBE523
:082DDA00119CFCE5129DFD8A2D
:042DE2000F8B108CB7
:042DE600118D1285B4
:032DEA000F4F8503
:032DED00105085FE
:032DF000115185F9
:032DF300125290E9
:072DF600E680E0FE30E70675
:062DFD007E007F0280044D
:042E03007E407F008E
:0B2E0700EF3395E0FAFBC3E54F9EE5BA
:062E1200509FE5519AE516
:042E1800529B500970
:042E1C00850F088591
:032E200010097521
:022E2300470165
:072E2500E549454A60030284
:022E2C002CD8A0
:0B2E2E0090E6A7E0FA20E203022CD897
:052E3900E50B450C450E
:062E3E000D450E600302C9
:022E44002CD888
:082E4600754801C287022CD877
:0E2E4E00C28790E601E054FEF0E0FA4402F084
:072E5C001208C71208FFE590
:032E63004660675F
:052E660078A6E6705C97
:072E6B0090E6ACE0FA7011E3
:072E720090E6ABE0FA700AE4
:052E7900E50B450C45CE
:052E7E000D450E602669
:062E8300E549454A600626
:062E890078A6760A8038ED
:072E8F0090E6B0E0FA7007C5
:072E960090E6AFE0FA6006D0
:062E9D0078A6760B8024EC
:062EA30078A67607801EF0
:062EA900E549454A600600
:062EAF0078A676088012EF
:072EB50090E6AFE0FA7007A0
:072EBC0090E6B0E0FA6004AB
:042EC30078A676096E
:062EC7007582001207D421
:022ECD00D280B1
:012ECF0022E0
:0D2ED0007A007B007C00C002C003C0041229
:0E2EDD0007CB7582001207D4D004D003D002B8
:0E2EEB00C28090E6187410F000000090E61A05
:0D2EF9007408F0000000C002C003C0041205
:0E2F0600092AD004D003D00290E60274E8F04D
:0E2F140000000090E601E0FD4403F0D287903B
:0C2F2200E630E4F000000090E631E4F03E
:032F2E00EA600353
:032F3100EB7063DF
:0E2F3400C002C003C00412073FD004D003D077
:052F420002E50A603CFD
:052F47007401B50A163B
:032F4C00EA701315
:0E2F4F007A01C002C003C0041207CBD004D028
:052F5D0003D0028021F9
:052F62007402B50A181D
:0E2F6700C002C003C0041207CBD004D003D0B8
:042F750002EB700AF1
:062F79007C017B018004D5
:042F7F007A00801440
:032F8300EB70A848
:032F8600EA60A559
:082F890090E6A7E0FD30E29D97
:062F91007B01C28780975E
:0E2F9700C28790E601E054FEF0E0FB4402F039
:0D2FA500C002C0041208C7D00400C004120E
:092FB20008FFD004D002EA601B04
:032FBB00EC7012A5
:072FBE0090E6ABE0FA70079A
:072FC50090E6ACE0FA6004A5
:042FCC0078A6760766
:062FD0007582001207D417
:022FD600D280A7
:012FD80022D6
:053303000102000000C2
:053308000100000000BF
:05330D000100000000BA
:072FD9001207CB750B017517
:062FE0000C00750D0075E8
:082FE6000E007582040207D4FD
:0A2FEE007582011207AD1207CBE552
:032FF8000B600A61
:0A2FFB0078A6760C7582000207D458
:0B300500758210120824750810E4F515
:0130100009B6
:0A30110090E67CE4F0150874FFB5AA
:04301B000802150989
:06301F00E508450970EC14
:0330250002084856
:0A3028007582011207AD1207CBE517
:033032000B600A26
:0A30350078A6760C7582000207D41D
:0B303F00758220120824750810E4F5CB
:04304A00097AC07BC4
:09304E00E78A828B83A3A37513AA
:03305700217514CC
:05305A0033120A83029D
:02305F0008481F
:0A3061007582011207AD1207CBE5DE
:03306B000B600AED
:0A306E0078A6760C7582000207D4E4
:0B307800758214120824750810E4F59E
:013083000943
:0A30840090E67CE4F0150874FFB537
:04308E000802150916
:06309200E508450970ECA1
:06309800750B0120B506D6
:06309E007402450BF50B66
:0C30A40090E67CE50BF0E4F0E4F0E4F0D2
:0330B000020848CB
:053312000102000000B3
:053317000100000000B0
:05331C000100000000AB
:0E332100504F57455220474F4F4400000000C8
:02332F0000FD9F
:0EE1000012010002000000404314070000005E
:04E10E000102000109
:0AE112000A060002000000400100B0
:0EE11C0009022E0001010080FA09040000042F
:0EE12A00FF000000070501024000000705810C
:0EE138000240000007050202000200070586F3
:04E1460002000200D1
:0EE14A0009022E0001010080FA090400000401
:0EE15800FF00000007050102400000070581DE
:0EE16600024000000705020240000007058687
:04E174000240000065
:093F0000020575000205A900028A
:083F090005930002060D000201
:083F110005BF0002062B0002AF
:083F1900068500020685000286
:083F210006850002068500027E
:083F2900068500020685000276
:083F310006850002068500026E
:083F3900068500020685000266
:083F410006850002068500025E
:083F4900068500020685000256
:083F510006850002068500024E
:083F5900068500020685000246
:083F610006850002068500023E
:083F6900068500020685000236
:083F710006850002068500022E
:083F7900068500020685000226
:083F810006850002068500021E
:083F8900068500020685000216
:083F910006850002068500020E
:083F9900068500020685000206
:083FA1000685000206850002FE
:083FA9000685000206850002F6
:073FB10006850002068500F1
:0830B300FB7A20E4FCFDFEFFA6
:0E30BB00E5822582F582E58333F583E5F03367
:0B30C900F5F0EB33FB4017DAE9804222
:0E30D400E5822582F582E58333F583E5F0334E
:0530E200F5F0EB33FBEB
:0E30E700EC33FCED33FDEE33FEEF33FFEC95E2
:0630F50053ED9554EE9529
:0830FB0055EF95564013EC95CA
:0831030053FCED9554FDEE951F
:09310B0055FEEF9556FF438201C9
:02311400DABE21
:02311600EB22AA
:06009C00E478FFF6D8FD38
:08007A007900E94400601B7AE3
:0500820000903331780D
:030087000075A061
:0A008A00E0E493F2A308B8000205B9
:08009400A0D9F4DAF275A0FF17
:0E31180020F71030F6118883A88220F507F604
:05312600A88375830081
:01312B002281
:03312C00F280F737
:02312F00F0228C
:0C313100AAF0FBE5828553F0A4FCADF091
:0C313D00E5838553F0A42DFDE435F0FE81
:0C314900E5828554F0A42DFDE5F03EFE6B
:0C315500E433FFEA8553F0A42EFEE5F001
:0C3161003FFFE5838554F0A42EFEE5F04E
:0C316D003FFFE5828555F0A42EFEE5F042
:0B3179003FFFEB8553F0A42FFFEA8519
:0A31840054F0A42FFFE5838555F0F9
:0C318E00A42FFFE5828556F0A42F8EF0E0
:05319A008D838C8222F0
:0400A20075A00078CD
:0700A60000E8440060077947
:0600AD0000E4F309D8FC99
:0800B3007800E84400600C79BC
:0B00BB000090E000E4F0A3D8FCD9FAAC
:02006B00E4733C
:0E319F0090E682E044C0F090E681F0438701A4
:0631AD00000000000022FA
:03006D0075815644
:0A0070001231CFE582600302006642
:0E31B30020F71430F6148883A88220F507E672
:0631C100A88375830022C3
:0331C700E280F7AC
:0331CA00E4932269
:0231CD00E022FE
:0431CF0075820022E3
:00000001FF
