:0400000002006D325B
:01000B0032C2
:0100130032BA
:01001B0032B2
:0100230032AA
:01002B0032A2
:0300330002068141
:01003B003292
:03004300023F0079
:01004B003282
:03005300023F0069
:01005B003272
:030063000206850D
:0300E400020066B1
:050066001200E780FE1E
:0900E700788176007880760090A3
:0E00F000E60B7403F000000000000090E60034
:0E00FE007410F075800175B28175900075B3B5
:0E010C00FF75B00075B50090E67AE0FA440188
:0B011A00F0122A2C90E60174E2F012B3
:0E012500023D90E6097403F0000000758901A8
:09013300000000788276000876D5
:04013C00E17884766C
:05014000120876E178D1
:0501450086761C08761F
:04014A00E17888765A
:0A014E004A0876E1D2E843D8209079
:0E015800E668E0FA4409F090E65CE0FA443D07
:0E016600F0D2AF90E680E0FA54F7F0538EF836
:080174001201B97898E660075A
:07017C00120195789876004E
:050183007881E6600731
:070188007881760012338735
:05018F0012068580E06E
:010194002248
:0A01950090E680E0FA440AF07A00D8
:02019F00DAFE86
:0E01A10090E65D74FFF090E65F74FFF05391FE
:0901AF00EF90E680E0FA54F7F04D
:0101B8002224
:0501B9007880E6605FA4
:0601BE007890A60B08A6D4
:0601C4000C08A60D08A6C0
:0401CA000E7894A671
:0601CE000F08A61008A6B0
:0501D4001108A6121243
:0601D90002BFE582700880
:0801DF0090E6A0E0FA4401F0F3
:0C01E700789086020886030886040886CB
:0601F300058A0B8B0C8C49
:0401F9000D8D0E78E2
:0C01FD0094860208860308860408860524
:050209008A0F8B108C30
:04020E00118D1290AC
:0B021200E6A0E0FA4480F0788076005F
:01021D0022BE
:0E021E0090E6837401F07421F07411F07431D5
:0E022C00F090E6837402F07422F07416F07401
:02023A0036F09C
:01023C00229F
:0E023D0090E610E4F000000090E611E4F000FE
:0E024B00000090E612E4F000000090E613E4DC
:0D025900F000000090E614E4F000000090BA
:0E026600E615E4F000000090E618E4F0000059
:0E0274000090E619E4F000000090E61AE4F0B5
:0E02820000000090E61BE4F000000090E61083
:0E02900074A0F000000090E61174A0F00000D1
:0E029E000090E61274A0F000000090E61474C8
:0E02AC00E0F000000090E68DE4F0000000128B
:0502BA0008FF0208C767
:0C02BF0090E6B9E0FA24F4500302056E4A
:0702CB00EA2A2A9002D27317
:0702D2000203B9020443021C
:0602D900056E0204ED02B7
:0602DF00056E02056E022F
:0602E50002F602056E02A4
:0602EB0003A402039202CD
:0502F100036B02038015
:0A02F60090E6BBE0FABA0102800FA7
:05030000BA0202803684
:05030500BA0602801B96
:05030A00BA075A804211
:09030F00788290E6B308E6F0786C
:0B0318008286027B0090E6B4EAF0024F
:02032300057162
:09032500788490E6B308E6F07854
:0B032E008486027B0090E6B4EAF00237
:0203390005714C
:09033B00788A90E6B308E6F07838
:0B0344008A86027B0090E6B4EAF0021B
:02034F00057136
:09035100788C90E6B308E6F07820
:0B035A008C86027B0090E6B4EAF00203
:02036500057120
:040367007582002279
:08036B0090E740788FE6F09066
:0B037300E68AE4F090E68B7401F002D3
:02037E00057107
:0A03800090E6BAE0FA788FA60212A8
:06038A00023D12021E02FA
:020390000571F5
:0A03920090E6BAE0FA788EA6021297
:06039C00023D12021E02E8
:0203A2000571E3
:0803A40090E740788EE6F0902E
:0B03AC00E68AE4F090E68B7401F0029A
:0203B7000571CE
:0A03B90090E6B8E0FABA8002800A6C
:0503C300BA8102801B5D
:0503C800BA8274802CD4
:0A03CD0090E740E4F090E741F09063
:0A03D700E68AF090E68B7402F00253
:0203E1000571A4
:0A03E30090E740E4F090E741F0904D
:0A03ED00E68AF090E68B7402F0023D
:0203F70005718E
:0E03F90090E6BCE0FA53027E90E6BCE0FBC347
:0E04070074809BE433FB4A9033CA93FA33951A
:0E041500E0FB74A12AFA74E63BFB8A828B831B
:0E042300E0FA53020190E740EAF090E741E46E
:0C043100F090E68AF090E68B7402F00276
:02043D00057147
:04043F0075820022A0
:0704430090E6B8E0FA600842
:05044A00BA020280125D
:03044F0002057132
:0B04520090E6BAE0FABA01030205715F
:04045D007582002282
:0904610090E6BAE060030204E930
:0E046A0090E6BCE0FA53027E90E6BCE0FBC3D5
:0E04780074809BE433FB4A9033CA93FA3395A9
:0E048600E0FB74A12AFA74E63BFB90E6BCE0B2
:0E049400FC53047E90E6BCE0FDC374809DE442
:0E04A20033FD4C9033CA93FC3395E0FD74A1FA
:0E04B0002CFC74E63DFD8C828D83E0FC530431
:0E04BE00FE8A828B83ECF090E6BCE05480FA5C
:0E04CC00C423541FFA90E6BCE0FB740F5B9053
:0D04DA00E6832AF090E683E0FA4420F00269
:0204E70005719D
:0404E90075820022F6
:0704ED0090E6B8E0FA60059B
:0504F400BA027A801835
:0A04F90090E6BAE0FABA0102806E44
:0A05030090E6BAE0FABA0202806442
:04050D0075820022D1
:0E05110090E6BCE0FA53027E90E6BCE0FBC32D
:0E051F0074809BE433FB4A9033CA93FA339501
:0E052D00E0FB74A12AFA74E63BFB90E6BCE00A
:0E053B00FC53047E90E6BCE0FDC374809DE49A
:0E05490033FD4C9033CA93FC3395E0FD74A152
:0E0557002CFC74E63DFD8C828D83E0FC430499
:09056500018A828B83ECF0800313
:03056E00020AFF7F
:030571007582018F
:010574002264
:0C057500C0E0C082C083C0007880760126
:090581005391EF90E65D7401F066
:09058A00D000D083D082D0E03211
:0E059300C0E0C082C0835391EF90E65D740417
:0105A100F069
:0705A200D083D082D0E032CB
:0E05A900C0E0C082C0835391EF90E65D740203
:0105B700F053
:0705B800D083D082D0E032B5
:0D05BF00C0E0C082C083C002C003C000784D
:0A05CC00888602088603788AA602DA
:0C05D60008A6038A828B83A37402F078CD
:0A05E200868602088603788CA602C4
:0E05EC0008A6038A828B83A37407F05391EF55
:0605FA0090E65D7410F0B4
:0D060000D000D003D002D083D082D0E032F1
:0C060D00C0E0C082C083C000788176018C
:090619005391EF90E65D7408F0C6
:09062200D000D083D082D0E03278
:0D062B00C0E0C082C083C002C003C00090C8
:07063800E680E0FA30E72C38
:0A063F0078868602088603788AA6F2
:0D0649000208A6038A828B83A37402F07856
:0A065600888602088603788CA6024D
:0B06600008A6038A828B83A37407F0B6
:09066B005391EF90E65D7420F05C
:0D067400D000D003D002D083D082D0E0327D
:0306810053D8EF5C
:010684003243
:0533BB0001020000000A
:0533C000010000000007
:0533C500010000000002
:0A33CA0000010202030304040505DC
:0A00C600789876007899E4F608F6C1
:0C00D00008F608F6789DE4F608F608F63D
:0800DC0008F678A1E4F608F62D
:070685001206D7E5826014A4
:07068C001206A1E582700DCA
:0B0693001207CB78A6760175820002EA
:02069E0007D47F
:0106A0002237
:0706A10078A3E624FA402BC8
:0A06A80078A3E625E0269006B27361
:0706B2000206C40206C702A4
:0606B90006CA0206D3028E
:0506BF0006CD0206D08B
:0306C40002095FC9
:0306C7000209C362
:0306CA00021651C4
:0306CD000222A561
:0306D000022B13E7
:0306D3007582002D
:0106D6002201
:0506D700E5BA30E1046A
:0406DC007582002201
:0706E00078A676007A807B0A
:0606E700E78B9A7A807B8C
:0C06ED00E77B008A9B90E67BE0FA7B0034
:0506F9000ABA00010B2C
:0E06FE0090E68DE0FC7D00EAB50406EBB50544
:03070C0002801157
:0B070F001207CB78A67601758200125D
:06071A0007D475820022E5
:0A07200090E67BE0FA78A3A60290B1
:09072A00E67BE0FA78A4A6029037
:0B073300E67BE0FA78A5A602758201C3
:01073E002298
:08073F001201B9E5BA30E10432
:04074700750A00220D
:0C074B0090E780E0FA7B000ABA00010B86
:0E07570090E68DE0FC7D00EAB50406EBB505EA
:03076500028011FE
:0B0768001207CB78A676017582001204
:0607730007D4750AFF2205
:0B07790090E781E0FA78A3E6B50213D8
:0C07840090E782E0FA78A4748046FBEA5B
:03079000B50304AA
:04079300750A0122C0
:0607970090E781E0700C08
:08079D0090E782E0FABA0204C1
:0407A500750A0222AD
:0307A900750AFFCF
:0107AC00222A
:0807AD00AA827B0B7C007D4059
:0E07B50090E67BE0FE8B828C838DF012330089
:0707C300A3AB82AC83DAEB6B
:0107CA00220C
:0807CB0090E68DE4F00000004F
:0107D3002203
:0707D400AA82E5BA30E20140
:0107DB0022FB
:0707DC007BC07CE78C9D7BD4
:0807E300C07CE77C008B9E90B6
:0807EB00E67CEA04F078A69018
:0707F300E67CE6F07B0B7CC5
:0507FA00007D408A06AD
:0307FF00EE601792
:0E0802008B828C838DF012339BFFA3AB82ACF4
:090810008390E67CEFF01E80E607
:0A08190090E68F74022AF000000040
:0108230022B2
:07082400AA82E5BA30E201EF
:01082B0022AA
:07082C007BC07CE78C9D7B83
:08083300C07CE77C008B9E9065
:08083B00E67CEA04F078A690C7
:04084300E67CE6F079
:01084700228E
:05084800E5BA30E201F9
:01084D002288
:08084E0090E7C178A6E6F090E6
:0C085600E7C0E0FA90E68F04F00000001C
:010862002273
:0E086300AA82AB83ACF090E67BE0FDC002C041
:0E08710003C004C0051207CBD005D004D0038D
:07087F00D002E5BA30E201EE
:01088600224F
:070887007EC07FE78F9D7E1C
:08088E00C07FE77F008E9E9001
:0C089600E67CED04F090E67CE4F08D06BA
:0308A200EE6017EE
:0E08A5008A828B838CF012339BFFA3AA82AB56
:0908B3008390E67CEFF01E80E664
:0A08BC0090E68F74022DF00000009A
:0108C600220F
:0E08C70090E618E4F000000090E6047480F063
:0E08D50000000090E6047402F00000007A04B7
:0B08E30090E6497482F0000000DAF596
:0E08EE0090E604E4F000000090E6A3E4F000C1
:0208FC000000FA
:0108FE0022D7
:0E08FF0090E61AE4F000000090E6047480F029
:0D090D0000000090E6047406F00000009069
:0E091A00E604E4F000000090E6A5E4F0000022
:0109280000CE
:0109290022AB
:08092A0090E680E0FA30E706D8
:060932007A007B02800444
:040938007A407B0086
:0E093C0090E624EBF000000090E680E0FA3038
:02094A00E706BE
:06094C007A007B0280042A
:040952007A407B006C
:0809560090E625EAF000000024
:01095E002276
:07095F0078A4B60202800734
:0709660078A4B603508005E0
:05096D001207CB804DD4
:0A0972007582041207AD1207CBE5F1
:08097C000BF4FAE50CF4FBE5B5
:0A0984000DF4FCE50EF4FD747B2A6F
:0C098E00FAE43BFBE43CFCE43DFD8A0B7A
:05099A008B0C8C0D8D9B
:05099F000E1217BC78E8
:0C09A40099E4F608F608F608F61208FFC1
:0B09B0001208C77582041207D48004EF
:0409BB00758200221F
:0309BF007582013D
:0109C2002212
:0A09C30078A4E624EF5003020A882E
:0C09CD0078A4E6240983C0E0E62414832B
:0309D900C0E02259
:0209DC00888809
:0209DE00FE8891
:0209E000888805
:0209E2001534CA
:0209E400885336
:0209E6006A6F36
:0209E800887411
:0209EA007E7914
:0109EC008387
:0209ED000A0AF4
:0209EF00090AF3
:0209F1000A0AF0
:0209F3000A0AEE
:0209F5000A0AEC
:0209F7000A0AEA
:0209F9000A0AE8
:0209FB000A0AE6
:0109FD000AEF
:0709FE001207CB750B5675C3
:060A05000C00750D0075E8
:0A0A0B000E007582041207D48077F4
:0A0A15007582011207AD1207CBE550
:030A1F000B600762
:070A220043B502C2B18003DD
:030A290053B5FDC5
:080A2C007582001207D4805806
:0A0A34007582011207AD1207CBE531
:030A3E000B600743
:070A410043B540C2B680037B
:030A480053B5BFE4
:080A4B007582001207D4803906
:070A53001207CB750B0075C3
:060A5A000C20750D007573
:0A0A60000E007582041207D48022F4
:050A6A0012148C801D38
:050A6F0012123E801888
:050A7400122FE68013C3
:050A7900122FFB800EAE
:050A7E001230F28009B6
:050A83001230A6800402
:040A88007582002251
:030A8C007582016F
:010A8F002244
:0A0A9000AA82AB83E5084509700156
:010A9A002239
:070A9B00AC14BCE60280056B
:050AA2008B05BDE631EB
:080AA7008A068B07AC13AD14A5
:0E0AAF008E028F038C828D83E0F88A828B8307
:060ABD00F00EBE00010F67
:050AC3000CBC00010D58
:080AC800150874FFB5080215C2
:010AD000091C
:060AD100E508450970D89C
:010AD70022FC
:0C0AD8008C9AAC137E008C9B8D9D7B00E3
:050AE4008A9E020AEAEF
:010AE90022EA
:080AEA00A90890E67B05869047
:040AF200E67C058613
:080AF600E00586F00586D9F841
:010AFE0022D5
:0A0AFF0090E6B9E0FABAA202804ABC
:050B0900BAA3028045C3
:060B0E00BAE103020DD460
:060B1400BAE203020DB479
:060B1A00BAE303020DB472
:060B2000BAE403020D948B
:060B2600BAE503020D9484
:060B2C00BAE603020C9F73
:060B3200BAE703020CCC3F
:060B3800BAE803020D14EF
:060B3E00BAE903020D7488
:060B4400BAEA03020D43B2
:060B4A00BAEB03020DF4FA
:030B5000020E147E
:0B0B530090E6BAE0FAA3E0FB8A0B8BEF
:0A0B5E000C90E6BEE0FAA3E0FB9065
:090B6800E6B8E0FCBCC002800309
:030B7100020C046F
:070B7400EA4B7003020E18AA
:080B7B0090E6A0E0FC20E1F887
:080B830090E6B9E0FCBCA211F0
:0A0B8B00750D00750E00C002C003D6
:070B95001210B2D003D002E0
:090B9C00C3EA9440EB94005006FA
:060BA5008A0D8B0E800694
:060BAB00750D40750E00FF
:080BB10090E6B9E0FCBCA20DC6
:0D0BB900C002C003121005D003D002801A44
:040BC600850D08850C
:030BCA000E099081
:040BCD00E740850B6D
:030BD10013850C7D
:0C0BD40014C002C003120A90D003D0022B
:080BE00090E68AE4F0AC0DADD3
:080BE8000E90E68BECF0EC2509
:070BF0000BFEED350CFF8E3A
:0A0BF7000B8F0CEAC39CFAEB9DFB88
:030C0100020B746F
:0A0C040078A1E608467003020C9B7D
:0C0C0E0090E6BCE0FCA3E0FD78A1E6B598
:090C1A00040708E6B5050280029A
:020C23008076D9
:080C250090E6B8E0FCBC406E53
:070C2D00EA4B7003020E18F0
:090C340090E68AE4F090E68BF0F2
:080C3D0090E6A0E0FC20E1F8C4
:0A0C450090E68BE0FC7D008C0D8D25
:090C4F000E90E6B9E0FCBCA31F05
:040C5800850D088579
:030C5C000E0985F9
:060C5F000B82850C837579
:030C6500134075C4
:070C680014E7C002C00312F3
:080C6F000A90D003D002800BB3
:0B0C7700C002C0031210B2D003D00274
:060C8200AC0DAD0EEC25E7
:070C88000BFEED350CFF8EA1
:0A0C8F000B8F0CEAC39CFAEB9DFBEF
:020C9900809247
:040C9B00758200223C
:0A0C9F0090E6B8E0FABAC002800344
:030CA900020E1820
:080CAC0090E6A0E0FA20E1F857
:0E0CB40090E7407405F0A37403F090E68AE424
:0A0CC200F090E68B7402F0020E18A9
:0A0CCC0090E6B8E0FABAC002800317
:030CD600020E18F3
:080CD90090E6A0E0FA20E1F82A
:0E0CE10090E740740DF0A3E4F0A3F0A3F090B0
:0B0CEF00E744E4F5F0123300A3E41228
:0A0CFA003300A3E4123300A3E41258
:080D0400330090E68AE4F09050
:080D0C00E68B7408F0020E18DA
:080D140090E6B8E0FABA4023B2
:090D1C0090E68AE4F090E68BF009
:080D250090E6A0E0FA20E1F8DD
:0C0D2D0090E740E0FAA3E0FB78A1A602EA
:060D390008A603020E18DB
:040D3F007582002297
:080D430090E6B8E0FABA402581
:070D4B0078A1E60846601ED6
:0C0D520090E6BCE0FAA3E0FB78A1E6B557
:090D5E00020708E6B50302800259
:020D6700800703
:070D690078987601020E18D4
:040D70007582002266
:070D7400750BF0750C3F75D3
:060D7B000D04750E007569
:060D81000FCD7510AB90D0
:070D8700E6B8E0FABAC00370
:030D8E00020E1C36
:030D9100020F3519
:070D9400750BE0750C3F75C3
:060D9B000D0C750E007541
:060DA1000F78751056905A
:070DA700E6B9E0FABAE4032B
:030DAE00020E1C16
:030DB100020F35F9
:070DB400750BC0750C3F75C3
:060DBB000D10750E00751D
:060DC1000FCD7510AB9090
:070DC700E6B9E0FABAE2030D
:030DCE00020E1CF6
:030DD100020F35D9
:070DD400750BA0750C3F75C3
:060DDB000D1C750E0075F1
:060DE1000FCD7510AB9070
:070DE700E6B8E0FABAC00310
:030DEE00020E1CD6
:030DF100020F35B9
:070DF400750BF8750C3F754B
:060DFB000D02750E0075EB
:060E01000FCD7510AB904F
:070E0700E6B8E0FABAC003EF
:030E0E00020E1CB5
:030E1100020F3598
:040E140075820022C1
:030E1800758201DF
:010E1B0022B4
:0C0E1C007AFF90E6B8E0FBBBC002800447
:040E280075820022AD
:050E2C00AB0DAC0E75DA
:0A0E31000D00750E00C002C003C0E2
:0E0E3B00041210B2D004D003D00274032BFBBB
:0A0E4900E43CFC8B0D8C0EC002127D
:0A0E53001005D002E50D24FDFBE5BB
:070E5D000E34FFFC8B0D8C2D
:0B0E64000E90E740E0FBA3E0FCEBB5C4
:060E6F000F48ECB5104431
:040E75007A007B0084
:0A0E79007403250DFCE4350EFD8B1B
:0A0E8300067F00C3EE9CEF9D502C8B
:0A0E8D00EB2440F582E434E7F5831E
:0A0E9700E0FC2AFAEB2440FCE434EE
:0A0EA100E7FD74022B2440F582E403
:0C0EAB0034E7F583E0FE8C828D83F00BB1
:020EB70080C0F9
:030EB900EA606488
:040EBC00850D088513
:030EC0000E099088
:090EC300E6B9E0FABAE10280345C
:050ECC00BAE202803DC6
:050ED100BAE4028005F7
:050ED600BAE94380179A
:020EDB007A009B
:030EDD00BA0C004C
:020EE000503E82
:0A0EE200EA2440F582E434E7F583CA
:060EEC007430F00A80EBF7
:050EF20090E7407513BC
:030EF700E375148C
:060EFA0033120A90802073
:050F000090E7407513AD
:030F0500E7751479
:060F080033120A90801272
:050F0E0090E74075139F
:030F13000375144F
:060F160034120A90800471
:040F1C0075820022B8
:0C0F200090E68AE4F000000090E68BE50B
:080F2C000DF0000000758201C8
:010F3400229A
:080F350090E6B8E0FABA401C96
:070F3D0078A1E608466015EB
:0C0F440090E6BCE0FAA3E0FB78A1E6B563
:090F5000020708E6B50302800463
:040F5900758200227B
:090F5D0090E68AE4F090E68BF0C6
:080F660090E6A0E0FA20E1F89A
:070F6E0090E68AE0FA70141E
:050F7500AA0DAB0E9077
:0E0F7A00E68BE0FC7D00B50206EDB5030280BB
:010F88000464
:040F8900758200224B
:060F8D008A15AD158D066A
:060F93008E071EEF602531
:0C0F9900C002C00374022E2440FFE434A8
:090FA500E7FCEE2440F582E4347F
:0C0FAE00E7F583E0FA8F828C83F0D0031B
:040FBA00D00280D50C
:080FBE0090E740E50FF0A3E508
:050FC60010F07C407EEC
:0A0FCB00E78E9A759B407C007402CB
:030FD5002515FDE2
:090FD80090E67BE0FE2CFCDDF745
:0A0FE100740225152440F582E43463
:0C0FEB00E7F583C3E49CFCF074032AFAD1
:080FF700E43BFB8A0D8B0E1296
:050FFF0010B275820133
:0110040022C9
:05100500E50DFA700486
:04100A0075820122C8
:08100E0090E678E0FB20E6F813
:0C10160090E6787480F090E67974A3F006
:0810220090E678E0FB30E0F8F5
:08102A0090E678E0FB20E2747F
:0810320090E678E0FB30E16C70
:03103A00BA0108F0
:08103D0090E678E0FB4420F08E
:0710450090E679E07B407C9E
:06104C00E78C9A7B407C5A
:05105200E77C008B9B10
:04105700DA02802613
:08105B0090E678E0FB30E0F8BC
:0810630090E678E0FB20E23B7F
:03106B00BA0108BF
:08106E0090E678E0FB4420F05D
:0B10760090E679E0FB90E67BF080D66E
:0810810090E678E0FA30E0F897
:0810890090E678E0FA20E21580
:0E10910090E678E0FA4440F090E679E0FA90BC
:07109F00E67BF075820122DF
:0B10A60090E678E0FA4440F07582000C
:0110B100221C
:0210B200AA0D85
:0810B40090E678E0FB20E6F86D
:0C10BC0090E6787480F090E67974A2F061
:0810C80090E678E0FB30E0F84F
:0810D00090E678E0FB20E26BE2
:0810D80090E678E0FB30E163D3
:0310E000EA600EB5
:0710E3007B407CE78C9A7B47
:0710EA00407CE77C008B9BBA
:0210F1007B0280
:0310F300EA70039D
:0310F600EB603B71
:0310F900EB601495
:0310FC00BB02082C
:0810FF0090E679E50CF0800693
:0611070090E679E50BF013
:03110D001B800A3A
:0A11100090E67BE0FC90E679F01A0F
:08111A0090E678E0FC30E0F8FB
:0811220090E678E0FC20E219E0
:08112A0090E678E0FC20E1C131
:02113200800F2C
:0E11340090E678E0FA4440F012114F75820107
:01114200228A
:0B11430090E678E0FA4440F07582006E
:01114E00227E
:08114F0090E678E0FA20E6F8D2
:0E11570090E678E0FA4480F090E67974A2F019
:0811650090E678E0FA30E0F8B2
:08116D0090E678E0FA4440F03E
:0811750090E678E0FA20E6F8AC
:08117D0090E678E0FA30E1D2BF
:011185002247
:0811860090E678E0FA4440F025
:08118E0090E678E0FA20E6F893
:011196002236
:07119700AA8290E679EAF05C
:08119E0090E678E0FA30E0F879
:0811A60090E678E0FA20E2086F
:0811AE0090E678E0FA20E10769
:0711B60012118678A67623D2
:0611BD0078A6E6B4010073
:0411C300E433F5829A
:0111C7002205
:0C11C800AA8290E6787480F0EA2AFAE52A
:0B11D400164AF582121197E5827004A4
:0411DF0078A6762256
:0611E30078A6E6B401004D
:0411E900E433F58274
:0111ED0022DF
:0911EE007516017582510211C849
:0C11F700AA82AB83751600758251C002FD
:0D120300C0031211C8E582D003D0026011B3
:0E1210008B82C002C003121197E582D003D07A
:03121E0002700457
:041221007C008002CB
:021225007C014A
:03122700EC600B6D
:0B122A007B008A82121197E58270049D
:041235007A008002B9
:021239007A0138
:02123B008A82A5
:01123D00228E
:06123E00E4F517F518F5B8
:0712440008F509758208128C
:06124B0007AD1207CBAC59
:041251000FAD10AE1F
:0A12550011AF12C3E49C74209DE465
:05125F009EE49F402801
:04126400850B198558
:031268000C1A85D8
:03126B000D1B85D3
:04126E000E1CEC2541
:0812720019FCED351AFDEE3503
:0A127A001BFEEF351CFFC3E49C745B
:08128400209DE49EE49F500A46
:0A128C0078A676097582000207D4E7
:09129600AC19741C251AFDE435A5
:07129F001BFEE4351CFF8C6F
:0412A6000B8D0C8E12
:0412AA000D8F0E8511
:0612AE000B82850C831287
:0612B40011F7E582700550
:0512BA00F5820207D4DB
:0A12BF001211867582001207D4E5B3
:0412C9000F45104578
:0512CD0011451260282C
:0A12D2001211EE7401B50F0EE4B521
:0812DC00100AE4B51106E4B5A7
:0412E4001202800270
:0212E80080087C
:0812EA0090E678E0FC4420F0DE
:0812F20090E679E0F50A8003A3
:0312FA0075180163
:0412FD00E518600789
:07130100E517600302147EF2
:0913080012073FE4B50A02803F20
:051311007401B50A0C97
:04131600E51770085F
:08131A007517011207CB802EAC
:051322007402B50A1C75
:071327001207CBE51870224C
:0C132E0090E6A57401F0000000751801A5
:09133A0078A67602121186800DDE
:04134300E518700336
:03134700121186FA
:06134A0075170002147E7D
:04135000E51870A983
:05135400E5AA20E5A45C
:071359007C007DF88D9D7CF6
:08136000007DF87D008C9E85E4
:031368000F1D85D1
:03136B00101E85CC
:03136E00111F85C7
:03137100122090B7
:07137400E680E0FA30E70615
:06137B007A007B028004F1
:041381007A407B0033
:0C138500EB3395E0FCFDC3EA951DEB95F1
:061391001EEC951FED9516
:03139700205014CF
:08139A0090E680E0FA30E7065E
:0613A2007A007B028004CA
:0413A8007A407B000C
:0213AC008004BB
:0413AE00AA0FAB10C7
:0413B2008A088B0911
:0713B600E508450970030280
:0213BD001469B1
:0713BF00E518600302146948
:0813C60090E678E0FC30E0F84D
:0813CE0090E678E0FC30E21823
:0813D60078A67623751801903A
:0C13DE00E6A57401F0EAC39508FAEB954F
:0413EA0009FB80C8B3
:0A13EE007402B50F0EE4B5100AE416
:0913F800B51106E4B512028002F1
:02140100800861
:0814030090E678E0FC4420F0C3
:0A140B007401B50F0EE4B5100AE4F9
:09141500B51106E4B512028002D3
:02141E00800B41
:0B142000C002C003121186D003D002EE
:0A142B0090E679E0FC90E67CF015F5
:071435000874FFB508021561
:01143C0009A6
:05143D00AC0FAD10AE84
:0A14420011AF121CBCFF091DBDFF15
:06144C00051EBEFF011F9A
:051452008C0F8D108ECF
:0A145700118F12EC4D4E4F6003029E
:0214610013B6C0
:061463007518010213B62A
:0E14690090E698EBF00000007B0090E699EA18
:07147700F00000000212FD6D
:07147E001208FFE5176006EC
:061485007582000207D48D
:01148B00223E
:07148C0075210075220075B7
:061493002301E4F508F559
:08149900097582081207AD126B
:0514A10007CBAD0FAE0A
:0414A60010AF11ACC6
:0C14AA0012C3E49D74209EE49FE49C406B
:0114B6001C19
:0A14B700ED250BFDEE350CFEEF35C0
:0A14C1000DFFEC350EFCC3E49D7432
:0814CB00209EE49FE49C500AFE
:0A14D30078A676097582000207D49E
:0B14DD007582001207D4AC0B741C25B4
:0814E8000CFDE4350DFEE435B6
:0514F0000EFF8C0B8DC6
:0414F5000C8E0D8FBD
:0414F9000EE50F45A8
:0414FD001045114540
:0315010012700362
:031504007522014C
:04150700E522600772
:07150B00E52160030216391F
:0915120012073FE4B50A0280351E
:05151B007401B50A0C8B
:04152000E521700849
:081524007521011207CB8024A0
:05152C007402B50A196C
:071531001207CBE522701840
:0C15380090E6A37401F000000075220191
:0615440078A67602800685
:06154A00752100021639B4
:04155000E52270B36D
:05155400E5AA20E0AE55
:071559007C007DF08D9A7CFF
:08156000007DF07D008C9B90E2
:0E156800E690E0FC8C057C0090E691E0FE7FB2
:08157600002CF508EF3DF5091A
:06157E00E5084509608349
:07158400E5226003021507D8
:04158B00E523600CE8
:07158F00850B82850C83121D
:0515960011F7752300B0
:05159B0078A6E6700EC9
:0E15A00090E67BE0FCF582121197E582700B5D
:0B15AE0075220190E6A37401F080C5D7
:0815B900150874FFB5080215C6
:0115C1000920
:0515C200AC0FAD10AEFE
:0715C70011AF12EC24FFF547
:0A15CE0024ED34FFF525EE34FFF59F
:0715D80026EF34FFF5278523
:0315DF00240F8551
:0315E2002510854C
:0315E50026118547
:0315E8002712AA1D
:0415EB000BAB0CAC8E
:0A15EF000DAD0E0ABA00090BBB0097
:0615F900050CBC00010D11
:0515FF008A0B8B0C8C2F
:041604000D8D0EE555
:04160800244525450B
:05160C002645277003D4
:031611007522013E
:06161400E508450970061F
:06161A0090E6497482F025
:04162000E522700946
:06162400E50B543F6003DA
:03162A0002157E28
:07162D0012118612114F7526
:05163400230102157EF8
:04163900E52370062F
:06163D0012118612114F8C
:071643001208C7E521600653
:06164A007582000207D4C6
:011650002277
:0533D4000102000000F1
:0533D9000100000000EE
:0533DE000100000000E9
:0433E30008000000DE
:0E33E7004F6E626F61726420555342203800B1
:0E33F5000000FDFDFDFD00000000E441D418C5
:0E340300444F6E62557362000000FDFDFDFD3A
:023411000000B9
:0716510078A4B602028060DC
:0716580078A5B60002801125
:0B165F001207CB78A6760C75820012F3
:06166A0007D47582012285
:0516700078A4E6701FE4
:061675007899E630E01157
:0B167B001207CB78A6760375820012E0
:0616860007D47582012269
:08168C007899E64401F6802480
:0516940078A4B6010876
:081699007899E654FEF6801773
:0616A1007899E620E0113B
:0B16A7001207CB78A6760475820012B3
:0616B20007D4758201223D
:0A16B80078A4E624F450030217A8FA
:0A16C20078A4E625E0269016CC730C
:0716CC000216F002170002F4
:0616D30017100217A80227
:0616D900171D0217360286
:0616DF00176A0217A102C8
:0616E500179302179302A7
:0516EB00179A0217939D
:0A16F0001217AC1207CB758200122E
:0616FA0007D475820122F5
:0A1700001217BC1207CB758200120D
:06170A0007D475820122E4
:0D17100090341375F0801208637582012279
:07171D001207CB750B0075EC
:061724000C6A750D18753A
:0C172A000E007582041207D475820122A3
:0717360090E67BE0FA60047D
:04173D00D2B38002A1
:02174100C2B331
:0717430090E67BE0FA600470
:04174A00D2B2800295
:02174E00C2B225
:0717500090E67BE0FA600463
:04175700D2B4800286
:02175B00C2B416
:0D175D001207CB7582001207D4758201229D
:0C176A001207CBA2B3E433FA8A0BA2B240
:0B177600E433FA8A0CA2B0E433FA8AD4
:0A1781000DA2B4E433FA8A0E75825B
:08178B00041207D4758201224B
:07179300121B4175820122C7
:07179A00121F4875820122B5
:0717A1001217C67582012238
:0317A80075820047
:0117AB00221B
:0E17AC0043B50443B50843B510C2B2D2B3C270
:0117BA00B47A
:0117BB00220B
:0917BC0053B5E3C2B2D2B3C2B4CA
:0117C5002201
:053413000102000000B1
:053418000100000000AE
:05341D000100000000A9
:0B17C6007A007B0090E67BE0FC6004F2
:0417D100D2B380020D
:0217D500C2B39D
:0717D70090E67BE0FC6004DA
:0417DE00D2B2800201
:0217E200C2B291
:0E17E400C2B4758204C002C0031207ADD00368
:0E17F20000C0031207CB7582001207D4D0038B
:07180000D002AC0BAD0CAEF1
:041807000DAF0E8C87
:04180B000F8D108E9F
:09180F00118F12EC4D4E4F7002D6
:021818007B0152
:03181A00EB60067A
:06181D00EA60030218CD91
:0D182300C002C00312073FD003D002E4B59D
:041830000A028030F8
:051834007401B50A0F6C
:0E1839007A01C002C0031207CBD003D0028098
:011847001C84
:051848007402B50A1353
:0B184D007B0178A67602C002C00312E7
:0818580007CBD003D00280048D
:041860007A00806921
:03186400EB70B373
:05186700AC0BAD0CAE5E
:0A186C000DAF0EC3ED9404EE9400DE
:05187600EF9400500694
:06187B008C088D098006B7
:0618810075080075090462
:08188700AC08AD09E4FEFFE529
:09188F000BC39CFCE50C9DFDE57A
:081898000D9EFEE50E9FFF8C82
:0418A0000B8D0C8E12
:0318A4000D8F0E97
:0A18A700D2B400C2B4150874FFB5F6
:0418B100080215090B
:0618B500E508450970EC96
:0518BB00E50B450C45A2
:0618C0000D450E6003025D
:0218C600181AEE
:0518C8007B0102181A6B
:0318CD00EA6029A5
:0718D000E50FC3950BFAE5DB
:0518D70010950CFBE57B
:0518DC0011950DFCE573
:0518E10012950EFD8AC6
:0418E6000B8B0C8CD0
:0418EA000D8D0E78DA
:0B18EE00A6E64480F67582040207D4D1
:0118F90022CC
:0818FA00A908AA09E960010A2E
:0319020090E67BF1
:0E190500E01392B2D2B4C2B41392B2D2B4C202
:0E191300B41392B2D2B4C2B41392B2D2B4C220
:0E192100B41392B2D2B4C2B41392B2D2B4C212
:0E192F00B41392B2D2B4C2B41392B2D2B4C204
:05193D00B4D9C5DAC3B6
:011942002282
:08194300A908AA09E960010AE4
:0A194B0090E67B058690E67C058699
:0E195500E01392B2A2B013D2B4C2B492B2A206
:0E196300B013D2B4C2B492B2A2B013D2B4C2C6
:0E197100B492B2A2B013D2B4C2B492B2A2B079
:0E197F0013D2B4C2B492B2A2B013D2B4C2B4A6
:0E198D0092B2A2B013D2B4C2B492B2A2B013FE
:0D199B00D2B4C2B40586F00586D9AFDAAD2E
:0119A800221C
:0819A900A908AA09E960010A7E
:0319B10090E67C41
:0E19B400A2B0D2B4C2B413A2B0D2B4C2B41363
:0E19C200A2B0D2B4C2B413A2B0D2B4C2B41355
:0E19D000A2B0D2B4C2B413A2B0D2B4C2B41347
:0E19DE00A2B0D2B4C2B413A2B0D2B4C2B41339
:0519EC00F0D9C2DAC0D1
:0119F10022D3
:0819F200A908AA09E960010A35
:0319FA0090E67BF9
:0E19FD00E01392B3D2B4C2B41392B3D2B4C208
:0E1A0B00B41392B3D2B4C2B41392B3D2B4C225
:0E1A1900B41392B3D2B4C2B41392B3D2B4C217
:0E1A2700B41392B3D2B4C2B41392B3D2B4C209
:051A3500B4D9C5DAC3BD
:011A3A002289
:081A3B00A908AA09E960010AEB
:0A1A430090E67B058690E67C0586A0
:0E1A4D00E01392B3A2B013D2B4C2B492B3A20B
:0E1A5B00B013D2B4C2B492B3A2B013D2B4C2CC
:0E1A6900B492B3A2B013D2B4C2B492B3A2B07E
:0E1A770013D2B4C2B492B3A2B013D2B4C2B4AC
:0E1A850092B3A2B013D2B4C2B492B3A2B01303
:0D1A9300D2B4C2B40586F00586D9AFDAAD35
:011AA0002223
:081AA100A908AA09E960010A85
:031AA90090E67B49
:0E1AAC00E01392B21392B3D2B4C2B41392B24A
:0E1ABA001392B3D2B4C2B41392B21392B3D249
:0E1AC800B4C2B41392B21392B3D2B4C2B4D962
:031AD600D5DAD38B
:011AD90022EA
:081ADA00A908AA09E960010A4C
:0A1AE20090E67B058690E67C058601
:021AEC007C027A
:0E1AEE00E01392B21392B3FBE8A2B013F8EB30
:0E1AFC00D2B4C2B41392B21392B3FBE8A2B0FC
:0E1B0A0013F8EBD2B4C2B41392B21392B3FB31
:0E1B1800E8A2B013F8EBD2B4C2B41392B21329
:0E1B260092B3FBE8A2B013F8EBD2B4C2B4DC69
:0C1B3400B9E80586F0058619D9AEDAACD8
:011B40002282
:071B4100752900752B0075EA
:071B48002C0078A4B6082A66
:081B4F0075290190E67BE0F529
:081B57002890E67BE0FE60042B
:041B5F00D2B380027B
:021B6300C2B30B
:041B6500E528600807
:041B6900752D43751E
:041B6D002E19805A53
:041B7100752DFA755F
:041B75002E18805254
:051B790078A4B6092567
:0A1B7E0075280190E67BE0FC60048E
:041B8800D2B3800252
:021B8C00C2B3E2
:071B8E0090E67BE0FC60041F
:041B9500D2B2800246
:021B9900C2B2D6
:041B9B00752DA97586
:041B9F002E19802853
:081BA30075290190E67BE0F5D5
:081BAB002890E67BE0FC6004D9
:041BB300D2B2800228
:021BB700C2B2B8
:041BB900E5286008B3
:041BBD00752D3B75D2
:041BC1002E1A800652
:041BC500752DF27513
:021BC9002E19D3
:0D1BCB007582041207AD1207CB758200125F
:041BD80007D4850B9E
:031BDC002F850C46
:031BDF0030850D41
:031BE20031850E3C
:031BE50032852F17
:031BE8000F853036
:031BEB0010853131
:031BEE001185322C
:0A1BF100127407552FFD7A007B00E7
:071BFB007C008D2AAA2FE5F2
:0C1C020030C423CAC423541F6ACA541FF4
:0C1C0E00CA6ACAFBE531C42354E04BFB5A
:0A1C1A00AC31E532C423CCC42354DE
:0C1C24001F6CCC541FCC6CCCFE8A0B8BC8
:041C30000C8C0D8E7D
:051C34000EE52A601D11
:051C3900AA0BAB0CAC8E
:0A1C3E000DAE0E0ABA00090BBB0040
:061C4800050CBC00010EBA
:051C4E008A0B8B0C8CD9
:031C53000D8E0EE5
:051C5600E50F451045FB
:051C5B001145127003A9
:031C6000752B01E0
:021C6300C2B409
:041C6500E52B600704
:071C6900E52C6003021E5B85
:071C700012073FE50A602C9A
:051C77007401B50A0C28
:041C7C00E52C7008DB
:081C8000752C011207CB801B3B
:051C88007402B50A1012
:071C8D001207CBE52B700FDD
:091C940078A67602752B0180068A
:061C9D00752C00021E5B25
:041CA300E5296005CA
:051CA700E5AA20E0B9F0
:041CAC00E5286005C2
:051CB000E5AA20E5B0EB
:041CB500E52B70ACFF
:041CB900E529600EAB
:071CBD007A007BF08B9A7A9C
:071CC400007BF07B008A9B0E
:041CCB00E528600E9A
:071CCF007A007BF88B9D7A7F
:071CD600007BF87B008A9EF1
:041CDD00E52960197C
:0E1CE10090E690E0FA8A037A0090E691E0FC2B
:0A1CEF007E004AF508EE4BF509806F
:011CF9005496
:041CFA00850B33859E
:031CFE000C34851E
:031D01000D358518
:031D04000E369008
:071D0700E680E0FF30E70673
:061D0E007A007B02800454
:041D14007A407B0096
:0C1D18008A07EBFD3395E0FAFBC3EF9562
:061D240033ED9534EA9551
:061D2A0035EB9536501860
:081D300090E680E0FA30E706BE
:061D38007A007B0280042A
:041D3E007A407B006C
:061D42008A088B098006EF
:041D48008533088552
:021D4C00340958
:081D4E00AA08AB09E4FCFDE565
:091D56000BC39AFAE50C9BFBE5B6
:081D5F000D9CFCE50E9DFD8AC0
:041D67000B8B0C8C4A
:041D6B000D8D0EE5E7
:031D6F002A6013D4
:051D7200E50B450C45E6
:051D77000D450E70098E
:081D7C00150874FFB5080215FB
:011D84000955
:061D8500E50845096009B4
:071D8B00852D82852E8312D5
:021D9200006BE4
:071D9400E52A7003021E2581
:051D9B00E50B450C45BD
:061DA0000D450E60030278
:021DA6001E25F8
:061DA800AA2AE529700BD8
:031DAE0030B2044C
:041DB1007BFF800232
:021DB5007B00B1
:021DB7008005A5
:051DB90090E67BE0FB59
:051DBE0078A4B60B1D26
:021DC3008A0490
:0B1DC500EBA2E092B3C313FB30B005AB
:051DD0004303808003C5
:031DD50053037F36
:061DD800D2B4C2B4DCE746
:021DDE0080196A
:0B1DE000EBA2E092B2C313FB30B00591
:051DEB004303808003AA
:031DF00053037F1B
:061DF300D2B4C2B4DAE72D
:041DF900E528601D5C
:0C1DFD00AD2A7A007408C39DFDE49AFA38
:071E09008DF005F0EB8002F3
:021E1000C313FA
:081E1200D5F0FBFB90E67CF02B
:071E1A00752A000508E4B57C
:041E210008020509A5
:041E2500E529600942
:091E290090E6497482F00000000B
:041E3200E52860122D
:0A1E360090E698E509F00000009026
:081E4000E699E508F00000003E
:051E4800E50B450C450F
:061E4D000D450E600302CA
:021E53001C650C
:061E5500752B01021C6563
:071E5B001208C71208FFE5A1
:041E62002C700122BD
:041E6600E52A601DEC
:051E6A00AA0BAB0CAC5B
:0A1E6F000DAD0E1ABAFF091BBBFFF0
:061E7900051CBCFF011D69
:051E7F008A0B8B0C8CA6
:031E84000D8D0EB3
:041E8700850D35E5AB
:0A1E8B000EC40354F8C535C403C5A6
:041E9500356535C5B5
:061E99003554F8C5356563
:041E9F0035F536E5FA
:081EA3000CC40354074535F59A
:031EAB0035850B6F
:081EAE0033E50CC40354F8C530
:061EB60033C403C53365CF
:061EBC0033C53354F8C5E4
:041EC200336533F55C
:031EC6003485332D
:031EC9000B853452
:031ECC000C85354D
:031ECF000D853648
:091ED2000EAE2AE4FFFAFBEE2536
:081EDB0033FEEF3534FFEA3558
:071EE30035FAEB3536FB8EEA
:041EEA000B8F0C8AC4
:041EEE000D8B0EE565
:091EF2000FC39EFEE5109FFFE501
:081EFB00119AFAE5129BFB8E1F
:041F03000F8F108AA2
:041F0700118B128E9A
:041F0B000B8F0C8AA2
:041F0F000D8B0EE543
:031F13002960043E
:041F16007A8080024B
:021F1A007A004B
:041F1C00E528600450
:041F20007B40800280
:021F24007B0040
:0A1F2600EB4A78A646F6E5296004B0
:041F30007A048002AD
:021F34007A0031
:041F3600E528600436
:041F3A007B048002A2
:021F3E007B0026
:071F4000EB2AF5820207D431
:011F47002277
:071F480075380075390075C2
:071F4F003A0090E67BE0F58B
:081F5600377582041207AD1279
:091F5E0007CB7582001207D4853F
:031F67000B3D85AA
:031F6A000C3E85A5
:031F6D000D3F85A0
:031F70000E40859B
:031F73003D0F859A
:031F76003E108595
:031F79003F118590
:031F7C004012E52B
:041F7F003D453E4559
:051F83003F4540700322
:031F8800753901A7
:0C1F8B007407553DFAE4FDFBFC740325CF
:081F97003DFBE4353EFCE4359E
:071F9F003FFDE43540FE8B1D
:041FA6000B8C0C8D07
:0A1FAA000DEEF50EC313FEED13FD5E
:0E1FB400EC13FCEB13FBEEC313FEED13FDEC80
:0A1FC20013FCEB13FB8B0B8C0C8D52
:041FCC000D8E0EE583
:031FD0003760086F
:041FD300753BDA750B
:041FD7003C1A80062A
:041FDB00753BA1753C
:021FDF003C1AAA
:021FE100C2B488
:041FE300E539600775
:071FE700E53A60030221E46A
:0B1FEE00C00212073FD002E50A603479
:051FF9007401B50A109F
:041FFE00E53A700C44
:0C200200753A01C0021207CBD002801F0B
:05200E007402B50A1484
:0B201300C0021207CBD002E539700FAD
:09201E0078A676027539018006EE
:06202700753A000221E4FD
:05202D00E5AA20E0B16E
:04203200E537600529
:05203600E5AA20E5A869
:04203B00E53970A46F
:07203F007D007EF08E9A7D0A
:08204600007EF07E008D9BE599
:03204E00376012E6
:04205100E538700EF0
:072055007D007EF88E9D7DE9
:07205C00007EF87E008D9E5E
:0E20630090E690E0FD8D067D0090E691E0FF96
:0A2071007B002DF508EB3EF509ABEE
:07207B0008AC09E4FDFEE5DD
:092082000BC39BFBE50C9CFCE583
:08208B000D9DFDE50E9EFE8B8C
:042093000B8C0C8D19
:062097000D8E0EEA602C24
:05209D00E50B450C45B8
:0520A2000D450E702247
:0E20A7008A03FC74032BFBE43CFCA2E713CB82
:0C20B50013CBA2E713CB13CBFCE508C350
:0720C1009BF508E5099CF501
:0120C800090E
:0620C900E5084509600D69
:0920CF00C002853B82853C8312AE
:0420D800006BD002C7
:0620DC00EA70030221611D
:0520E200E50B450C4573
:0520E7000D450E7075AF
:0920EC007B0090E67BE0FC7D0026
:0520F500C3ED9A502329
:0320FA00BD04051D
:0520FD0090E67BE0FC11
:0E210200ECA2E092B2C313FCA2E092B3C313AE
:06211000FCEBA2B013FB82
:07211600D2B4C2B40D80D861
:04211D00E537601C26
:0E2121008A047D007408C39CFCE49DFD8CF0D4
:05212F0005F0EB800249
:02213400C313D3
:07213600D5F0FB90E67CF000
:0E213D008A037C0074032BFBE43CFCA2E71336
:0C214B00CB13CBA2E713CB13CBFCEB258E
:0521570008F508EC355D
:05215C0009F5097A00FD
:04216100E53760639B
:05216500E50B450C45EF
:05216A000D450E6004AC
:04216F00E53860529D
:072173000508E4B5080205B0
:01217A00095B
:08217B00E509C313C50813C5F3
:0421830008F509E56D
:0321870038602499
:08218A0090E680E0FB30E7065F
:062192007B007C028004CA
:042198007B407C000C
:0C219C00ECA2E713CB13CBFCEB2508F5FD
:0521A80008EC3509F50B
:0121AD000928
:0A21AE0090E698E509F000000090AB
:0921B800E699E508F0000000754D
:0421C100380080035F
:0321C50075380169
:0C21C80090E6497482F0000000E50B4531
:0421D4000C450D4564
:0621D8000E6003021FE38C
:0621DE00753901021FE348
:0C21E400C0021208C7001208FFD002E57C
:0421F0003A7001221E
:0A21F400E50B25E0FBE50C33FCE5EC
:0A21FE000D33FDE50E33FEEB2BFB65
:0C220800EC33FCED33FDEE33FE8B0B8C51
:042214000C8D0D8E92
:042218000EEA603D2D
:04221C00EA30E21DA5
:05222000AB0BAC0CAD9E
:0A2225000DAE0E1BBBFF091CBCFF31
:06222F00051DBDFF011EAC
:052235008B0B8C0C8DE9
:03223A000D8E0EF8
:0A223D00E4FBFCFDEA250BFAEB358B
:082247000CFBEC350DFCED353C
:05224F000EFD8A0B8B5F
:042254000C8C0D8D54
:012258000E77
:07225900E50FC3950BFAE548
:0522600010950CFBE5E8
:0522650011950DFCE5E0
:05226A0012950EFD8A33
:04226F000F8B108C35
:04227300118D128A2D
:042277000B8B0C8C35
:04227B000D8D0EE5D2
:03227F00377008AD
:05228200F50FF510F559
:0322870011F5123C
:0C228A0078A6E644C0F67582080207D46E
:012296002225
:053422000102000000A2
:0534270001000000009F
:05342C0001000000009A
:0A229700C28CC28D78A7868A78A752
:0322A10008868C20
:0122A4002217
:0722A50078A4B6020280607C
:0722AC0078A5B600028011C5
:0B22B3001207CB78A6760C7582001293
:0622BE0007D47582012225
:0522C40078A4E6701F84
:0622C9007899E630E211F5
:0B22CF001207CB78A676037582001280
:0622DA0007D47582012209
:0822E0007899E64404F680241D
:0522E80078A4B6010816
:0822ED007899E654FBF6801716
:0622F5007899E620E211D9
:0B22FB001207CB78A676047582001253
:0623060007D475820122DC
:0A230C0078A4E624F850030223F63B
:0A23160078A4E625E026902320734A
:0723200002233802233802FA
:06232700234A02235702C5
:06232D0023DC0223E402A0
:0523330023EC0223F180
:0C2338001207CB78A7E4F608F6758200C7
:062344001207D40223FA87
:0D234A0090343675F0801208637582012210
:0A2357007582041207AD1207CB7562
:0623610053FAE4F554F507
:0423670055F556854D
:06236B000B82850C838546
:052371000DF0E50E1265
:0C237600329BAA82AB83ACF0FD8A0B8B7B
:042382000C8C0D8D25
:072386000EEC7003ED600C8A
:07238D00750BFF750CFF75D5
:052394000D00750E00B4
:09239900E50BF4FAE50CF4FBE598
:0823A2000DF4FCE50EF4FD78DA
:0823AA00A7A60208A603850B9B
:0323B20053850C44
:0323B50054850D3F
:0323B80055850E3A
:0C23BB00569000FAE4F5F0123319AA82E3
:0A23C700AB83ACF0FD8A0B8B0C8C8D
:0723D1000D8D0E7582041250
:0423D80007D4801E88
:0823DC007582011227B2801680
:0823E4007582001227B2800E81
:0523EC0012246E8009BF
:0523F1001225ED80043F
:0423F60075820022CA
:0323FA00758201E8
:0123FD0022BD
:0E23FE0090E6F3E0FA4480F000000090E67BE9
:0C240C00E0FA90E6F1F000000002244E1F
:0E24180090E6F3E0FA547FF000000090E67BBF
:0C242600E0FA90E6F1F000000002244E05
:0B24320090E6F1E012244EE582600D00
:0D243D0090E6F2E0FA90E67CF07582012254
:03244A0075820098
:01244D00226C
:05244E00122297D28C60
:05245300E5BB20E703DA
:03245800308DF8CC
:05245B00E5BB30E704C1
:04246000758201225E
:0924640090E6F574FFF0758200AA
:01246D00224C
:0A246E00E4FAFBF508F50975820495
:0D247800C002C0031207ADD00300C0031264
:0D24850007CB7582001207D4D003D002AC43
:042492000BAD0CAED4
:042496000DAF0E8CEC
:04249A000F8D108E04
:09249E00118F12EC4D4E4F70023B
:0224A7007B01B7
:0324A900EB6006DF
:0624AC00EA60030225B9FD
:0D24B200C002C00312073FD003D002E4B502
:0424BF000A0280404D
:0524C3007401B50A12CE
:0324C800EA700FA8
:0E24CB007A01C002C0031207CBD003D00280FA
:0124D90029D9
:0524DA007402B50A1FA9
:0E24DF00C002C0031207CBD003D002EB701670
:0C24ED0090E6A37401F00000007B017871
:0524F900A6760280053B
:0524FE007A000225B97F
:03250300EB70A3D7
:06250600E5084509702AFA
:05250C00E5AA20E02516
:072511007C007DF08D9A7C37
:08251800007DF07D008C9B901A
:0E252000E690E0FC8C057C0090E691E0FE7FEA
:08252E00002CF508EF3DF50952
:07253600E5084509700302EE
:02253D0024A9CF
:0E253F00C002C0031223FEE582D003D002705A
:01254D000687
:06254E0078A6760580521C
:0E255400C002C003122418E582D003D002702A
:012562000672
:0625630078A67606803D1B
:07256900E50824FEF508E57A
:062570000934FFF509AC7F
:042576000BAD0CAEEF
:0A257A000DAF0E1CBCFF091DBDFFD4
:06258400051EBEFF011F51
:05258A008C0B8D0C8E8E
:09258F000D8F0EEC4D4E4F700251
:022598007B01C5
:06259A00E508450970068A
:0625A00090E6497482F090
:0825A60078A6B600030224A987
:0B25AE007B0190E6A37401F00224A959
:0A25B900C0021208C7D002EA602930
:0725C300E50FC3950BFAE5DB
:0525CA0010950CFBE57B
:0525CF0011950DFCE573
:0525D40012950EFD8AC6
:0425D9000B8B0C8CD0
:0425DD000D8D0E78DA
:0B25E100A6E64480F67582040207D4D1
:0125EC0022CC
:0A25ED00E4FAFBF508F50975820415
:0D25F700C002C0031207ADD00300C00312E4
:0D26040007CB7582001207D4D003D002ACC2
:042611000BAD0CAE53
:042615000DAF0E8C6B
:042619000F8D108E83
:09261D00118F12EC4D4E4F7002BA
:022626007B0136
:03262800EB60065E
:06262B00EA6003022772C1
:0D263100C002C00312073FD003D002E4B581
:04263E000A028046C6
:052642007401B50A124D
:03264700EA700F27
:0E264A007A01C002C0031207CBD003D0028079
:012658002F52
:052659007402B50A2522
:0E265E00C002C0031207CBD003D002EB701CE9
:0E266C0090E6A37401F000000090E6A5740152
:09267A00F07B0178A676028005D0
:052683007A000227723D
:03268800EB709D57
:06268B00E5084509703D61
:05269100E5AA20E0387D
:05269600E5AA20E53378
:07269B007C007DF08D9A7CAC
:0826A200007DF07D008C9B7CA3
:0626AA00007DF88D9D7C0F
:0826B000007DF87D008C9E9076
:0E26B800E690E0FC8C057C0090E691E0FE7F51
:0826C600002CF508EF3DF509B9
:0726CE00E508450970030255
:0226D5002628B5
:0E26D700C002C0031223FEE582D003D00270C1
:0126E50006EE
:0626E60078A67605806A6B
:0E26EC00C002C003122432E582D003D0027077
:0126FA0006D9
:0626FB0078A6760680556A
:08270100150874FFB50802156C
:0127090009C6
:05270A00AC0BAD0CAEAC
:0A270F000DAF0E1CBCFF091DBDFF3D
:06271900051EBEFF011FBA
:05271F008C0B8D0C8EF7
:092724000D8F0EEC4D4E4F7002BA
:02272D007B012E
:06272F00E50845097021D8
:0D27350090E690E0FC90E698F00000009027
:0C274200E691E0FC90E699F000000090A9
:08274E00E6497482F00000006E
:0827560078A6B6000302262854
:0E275E0090E6A37401F000000090E6A574015F
:06276C00F07B01022628AB
:0E277200C0021208C7001208FFD002EA603150
:07278000E50FC3950BFAE51C
:0527870010950CFBE5BC
:05278C0011950DFCE5B4
:0527910012950EFD8A07
:042796000F8B108C09
:04279A00118D128A01
:04279E000B8B0C8C09
:0427A2000D8D0E7813
:0B27A600A6E644C0F67582080207D4C6
:0127B1002205
:0C27B2008582417B007C00C003C0041243
:0A27BE0023FEE582D004D003700D65
:0B27C8001207CB78A676057582000290
:0227D30007D429
:0E27D500758204C003C0041207ADD00400C01A
:0B27E300041207CBD004D003E50B4527
:0427EE000C450D4544
:0327F2000E700264
:0227F5007C0165
:0A27F70090E6F574FFF090E6CEE5E1
:092801000EF000000090E6CFE5A6
:09280A000DF000000090E6D0E59D
:092813000CF000000090E6D1E594
:0C281C000BF0C003C004122297D004D0BF
:0A2828000390E6D1E0FDE541601CDD
:0E28320090E6187410F000000090E6D27401D9
:07284000F0000000EC703114
:07284700F5BB000000802A30
:0E284E00C003C004C00512092AD005D004D072
:0E285C000390E61A7408F000000090E6E274A3
:08286A0002F0000000EC700612
:0628720075BB060000002A
:0E287800758200C003C004C0051207D4D0054D
:04288600D004D003A7
:03288A00EC6006F9
:06288D00EB600302298844
:0E289300C003C004C00512073FD005D004D01A
:0728A10003E4B50A028066A2
:0528A8007401B50A16E1
:0328AD00EB7013BA
:0E28B0007B01C003C004C0051207CBD005D0C9
:0528BE0004D003804B73
:0528C3007402B50A4299
:0E28C800C003C004C0051207CBD005D004D059
:0428D60003EC70346B
:0528DA0078A6E6700481
:0428DF0078A676025F
:0428E300E541600863
:0828E70090E6A37401F08006E5
:0628EF0090E6A57401F063
:0828F500000000E5BB20E7092B
:0928FD0000000090E6F574FFF004
:042906007C018004CC
:04290A007B00807A54
:05290E00E5BB20E75DC0
:0A29130090E6D1E0FEB50502801247
:0E291D00C003C004122297D004D00390E6D16C
:04292B00E0FD802427
:03292F00308D21C7
:0829320078A67606E541600875
:08293A0090E6A37401F0800691
:0629420090E6A57401F00F
:0B2948007C0100000090E6F574FFF039
:04295300E5416005F5
:05295700E5AA30E00FCD
:07295C00E541600302288A37
:08296300E5AA30E50302288A11
:05296B00D28C02288A55
:06297000EC600302288A5E
:04297600E5417009BE
:09297A0090E6487406F00000002C
:052983007C0102288A1E
:0E298800C0031208C7001208FFD003EB700155
:01299600221E
:0C29970090E6CEE0FB7C007D007E008B13
:0529A3004575420075BE
:0629A8004300754400909D
:0E29AE00E6CFE0FF7A007B008A048F03E4FA94
:0829BC00FF4242EA4243EB42F4
:0529C40044EC424590C7
:0E29C900E6D0E0FD7E007A008A038E028D06C5
:0929D700E4FD4242EE4243EA42F3
:0529E00044EB424590AC
:0C29E500E6D1E0FCE4FFFAFBE54242040E
:0929F100E5434207E5444202E51A
:0929FA00454203E50BC39CFCE51A
:082A03000C9FFFE50D9AFAE5B6
:062A0B000E9BFB8C0B8FFB
:042A11000C8A0D8B93
:052A15000EE541600424
:042A1A007A8080023C
:022A1E007A40FC
:0B2A200078A6EA46F67582040207D48F
:012A2B002288
:05343100010200000093
:05343600010000000090
:05343B0001000000008B
:0D2A2C0090E60174FAF090E6F574FFF0906A
:0A2A390034E4E493FA90E6F3F09021
:0A2A430034E5E493FA90E6C3F09046
:0A2A4D0034E6E493FA90E6C1F0903D
:0A2A570034E7E493FA90E6C2F09031
:0A2A610034E9E493FA90E6C0F09027
:0D2A6B0034EAE493FA90E6F4F075AF077AD0
:062A7800407B348B9A7ACA
:0A2A7E00407B347B008A9B759DE4C9
:052A8800759E007A00BC
:032A8D00BA80000C
:022A9000500CE8
:0C2A920090E67BE0FB90E67CF00A80EF11
:0E2A9E0090E67174FFF075B4FF90E672E0FAF6
:0E2AAC004480F043B68000000090E6C4E4F0E1
:0E2ABA0000000090E6C5E4F09034C0E493FA0A
:0B2AC80090E6C6F09034C1E493FA9051
:0A2AD300E6C7F09034C2E493FA90D5
:0A2ADD00E6C8F09034C3E493FA90C9
:0A2AE700E6C9F09034C4E493FA90BD
:0A2AF100E6CAF09034C5E493FA90B1
:0A2AFB00E6CBF09034C6E493FA90A5
:0A2B0500E6CCF09034C7E493FA9098
:032B0F00E6CDF020
:012B120022A0
:0E34400081B90101010101072303020202020A
:0E344E000200F7F5F5F5F5F5F5F700000000C2
:0E345C000000003F0C8A9A3FA5B53F072103F0
:0E346A00030103030500F3F3F2F3F3F1F3F7AC
:0E3478003F0000000000003F8191380101017B
:0E34860001070101070202020200F7F5F7F745
:0E349400F7F7F7F7000075000000003F819188
:0E34A2003801010101070303050000000000CE
:0E34B000F3F1F3F3F3F3F3F700006E00000006
:0234BE00003FCD
:0E34C0000000000000000000000000000000FE
:0E34CE000000000000000000000000000000F0
:0834DC000000000000000000E8
:0734E400E08000F7FA4E0042
:072B130078A4B60202806005
:072B1A0078A5B6000280114E
:0B2B21001207CB78A6760C758200121C
:062B2C0007D475820122AE
:052B320078A4E6701F0D
:062B37007899E630E3117D
:0B2B3D001207CB78A676037582001209
:062B480007D47582012292
:082B4E007899E64408F68024A2
:052B560078A4B601089F
:082B5B007899E654F7F68017A3
:062B63007899E620E31161
:0B2B69001207CB78A6760475820012DC
:062B740007D47582012266
:072B7A0078A4E624FB403BB8
:0A2B810078A4E625E026902B8B7364
:072B8B00022B9A022B9A02B3
:062B92002BA5022BB2028C
:022B98002BB759
:0B2B9A001207CB7582001207D4801BCD
:0D2BA5009034F575F08012086375820122EE
:052BB200122BC4800994
:052BB700122EDD800478
:042BBC0075820022FC
:032BC0007582011A
:012BC30022EF
:072BC400754600754700751E
:092BCB0048007582081207AD12E2
:0B2BD40007CB7582001207D4C280906E
:0E2BDF00E618E4F000000090E61AE4F00000B2
:0E2BED000090E6027468F000000090E630E40C
:0E2BFB00F000000090E631E4F090E680E0FD8E
:032C090030E706AB
:062C0C007D007E02800441
:042C12007D407E0083
:052C16008D498E4AAF5C
:042C1B000FAB10AA41
:042C1F0011AC12855D
:032C2300494B8595
:032C26004A4C75A0
:082C29004D00754E00C3EF954C
:062C31004BEB954CEA9507
:062C37004DEC954E502CFF
:052C3D008F498B4AAD38
:0C2C42004A90E63474C04DF00000009091
:072C4E00E635E549F0E4F56D
:042C550008F5097500
:062C59004701750F007534
:062C5F0010007511007564
:042C65001200807267
:082C690090E680E0FD30E71366
:0E2C710090E63474C8F000000090E635E4F000
:052C7F000000008012BE
:0E2C840090E63474C0F000000090E635744015
:042C9200F00000004E
:0A2C9600EFC3954BFFEB954CFBEAF2
:082CA000954DFAEC954EFC8FF6
:042CA8000F8B108AF4
:042CAC00118C1285F0
:032CB0000F4F853E
:032CB30010508539
:032CB60011518534
:052CB9001252C3EF956B
:062CBE004BEB954CEA957A
:062CC4004DEC954E500B93
:042CCA00854F0885A5
:032CCE0050097535
:042CD1004701800631
:042CD50085490885A0
:022CD9004A09A6
:0A2CDB0090E601E0FA4403F0D2870E
:042CE500E548600757
:072CE900E5466003022E5BCB
:072CF00012073FE50A602E08
:052CF7007401B50A0C98
:042CFC00E546700831
:082D00001207CB754601801D8E
:052D08007402B50A127F
:072D0D001207CBE54870112D
:0A2D1400C28778A676027548018098
:012D1E0006AE
:062D1F00754600022E5B68
:042D2500E54870BC51
:052D2900E5AA20E058BE
:0E2D2E0090E690E0FA8A037A00EB3395E0FC21
:082D3C00FDE50BC39AF54FE51C
:052D44000C9BF550E5B9
:052D49000D9CF551E5B1
:052D4E000E9DF5528509
:032D53004F0B859E
:032D5600500C8599
:032D5900510D8594
:032D5C00520E9084
:0C2D5F00E691E0FEE4FFFAFBE54FC39EA6
:0A2D6B00FEE5509FFFE5519AFAE5DE
:062D7500529BFB8E0B8F48
:042D7B000C8A0D8B26
:072D7F000E90E6497402F01A
:0B2D860090E6A9E0FA20E203022E32E2
:0E2D910090E6A5E0FA530270BA3003022E322B
:042D9F00E54760158F
:0C2DA300AA0990E63474C04AF000000059
:092DAF0090E635E508F000000093
:0A2DB80090E698E54AF00000009054
:092DC200E699E549F000000085E6
:032DCB000849852F
:032DCE00094AE5CA
:052DD100084509605CEB
:082DD600AA08AB09E4FCFDE5CD
:092DDE000FC39AFAE5109BFBE516
:082DE700119CFCE5129DFD8A20
:042DEF000F8B108CAA
:042DF300118D1285A7
:032DF7000F4F85F6
:032DFA00105085F1
:032DFD00115185EC
:032E0000125290DB
:072E0300E680E0FE30E70667
:062E0A007E007F0280043F
:042E10007E407F0081
:0B2E1400EF3395E0FAFBC3E54F9EE5AD
:062E1F00509FE5519AE509
:042E2500529B500963
:042E2900850F088584
:032E2D0010097514
:022E3000470158
:072E3200E549454A60030277
:022E39002CE586
:0B2E3B0090E6A7E0FA20E203022CE57D
:052E4600E50B450C4501
:062E4B000D450E600302BC
:022E51002CE56E
:082E5300754801C287022CE55D
:0E2E5B00C28790E601E054FEF0E0FA4402F077
:072E69001208C71208FFE583
:032E700046606752
:052E730078A6E6705C8A
:072E780090E6ACE0FA7011D6
:072E7F0090E6ABE0FA700AD7
:052E8600E50B450C45C1
:052E8B000D450E60265C
:062E9000E549454A600619
:062E960078A6760A8038E0
:072E9C0090E6B0E0FA7007B8
:072EA30090E6AFE0FA6006C3
:062EAA0078A6760B8024DF
:062EB00078A67607801EE3
:062EB600E549454A6006F3
:062EBC0078A676088012E2
:072EC20090E6AFE0FA700793
:072EC90090E6B0E0FA60049E
:042ED00078A6760961
:062ED4007582001207D414
:022EDA00D280A4
:012EDC0022D3
:0D2EDD007A007B007C00C002C003C004121C
:0E2EEA0007CB7582001207D4D004D003D002AB
:0E2EF800C28090E6187410F000000090E61AF8
:0D2F06007408F0000000C002C003C00412F7
:0E2F1300092AD004D003D00290E60274E8F040
:0E2F210000000090E601E0FD4403F0D287902E
:0C2F2F00E630E4F000000090E631E4F031
:032F3B00EA600346
:032F3E00EB7063D2
:0E2F4100C002C003C00412073FD004D003D06A
:052F4F0002E50A603CF0
:052F54007401B50A162E
:032F5900EA701308
:0E2F5C007A01C002C003C0041207CBD004D01B
:052F6A0003D0028021EC
:052F6F007402B50A1810
:0E2F7400C002C003C0041207CBD004D003D0AB
:042F820002EB700AE4
:062F86007C017B018004C8
:042F8C007A00801433
:032F9000EB70A83B
:032F9300EA60A54C
:082F960090E6A7E0FD30E29D8A
:062F9E007B01C287809751
:0E2FA400C28790E601E054FEF0E0FB4402F02C
:0D2FB200C002C0041208C7D00400C0041201
:092FBF0008FFD004D002EA601BF7
:032FC800EC701298
:072FCB0090E6ABE0FA70078D
:072FD20090E6ACE0FA600498
:042FD90078A6760759
:062FDD007582001207D40A
:022FE300D2809A
:012FE50022C9
:0534EB000102000000D9
:0534F0000100000000D6
:0534F5000100000000D1
:072FE6001207CB750B047507
:062FED000C00750D0075DB
:082FF3000E007582040207D4F0
:0A2FFB007582011207AD1207CBAA80
:0C3005000B8A037C00EB54FC7003EC60B1
:0130110007B7
:0730120078A6760C0230A045
:0830190090E678E0FB20E6F8E8
:0B30210090E6787480F078A6E6700A54
:0A302C00430240EA2AF58212324FF7
:0530360078A6E670051C
:05303B00F58212324F86
:0530400078A6E6700611
:0630450075823F12324FBC
:05304B0078A6E6700606
:063050007582FF12324FF1
:0C30560090E678E0FA4440F078A6E670BE
:013062003D30
:0E30630075821012082490E67C74A0F0740FA1
:0E307100F0E4F0E4F090E67C74D0F07407F028
:0A307F00E4F0E4F0750808E4F50938
:0A30890090E67CE4F0150874FFB532
:043093000802150911
:06309700E508450970EC9C
:03309D00020848DE
:0630A0007582000207D456
:0A30A6007582011207AD1207CBAAD4
:0B30B0000B7B00EA54FC7003EB600A8D
:0A30BB0078A676027582000207D4A1
:0B30C500758220120824750820E4F535
:0430D000097AC07B3E
:0A30D400E78A828B83A3A3E50BC4F7
:0A30DE000354F82409FAE43435FB2A
:0530E8008A138B141295
:0530ED000A90020848F2
:0A30F2007582011207AD1207CBAA88
:0B30FC000B7B00EA54FC7003EB600A41
:0A31070078A6760C7582000207D44A
:0C3111007582141208247440450B25E060
:07311D00FA8A0F750B007523
:063124000C00750D0075A2
:06312A000E007510027892
:04313000A6E670039C
:033134001231B79E
:0A313700AA0BE50CC423CAC42354FC
:0C3141001F6ACA541FCA6ACAFB8A0B8BA3
:05314D000C90E67CE59A
:063152000BF0E50CF0E5B6
:063158000DF0E50EF0751C
:06315E000B00750C00756A
:063164000D00750E007560
:07316A00100178A6E67003D6
:033171001231B761
:05317400E50C30E70648
:06317900750DFF750EFF4D
:07317F0090E67CE50BF0E592
:063186000CF0E50DF0E580
:07318C000EF0750808E4F5E0
:013193000932
:0A31940090E67CE4F0150874FFB526
:04319E000802150905
:0631A200E508450970EC90
:0D31A80090E67C7401F0E4F0E4F0E4F00245
:0231B5000848C8
:0831B70090E678E0FA20E6F84A
:0B31BF0090E6787480F078A6E67006B9
:0631CA00850F8212324F56
:0531D00078A6E6700680
:0631D50085108212324F4A
:0531DB0078A6E6700873
:0831E00090E678E0FA4440F0AB
:0831E80000000078A6E6700863
:0831F00090E678E0FA20E6F811
:0531F80078A6E6700658
:0631FD0090E6787480F0FA
:0532030078A6E6700949
:093208007401450FF58212324FEA
:0532110078A6E670093B
:0932160090000C75F040123272B8
:05321F0078A6E670082E
:0832240090E678E0FA4420F086
:05322C0078A6E6700920
:0932310090000C75F0401232729D
:0C323A0090E678E0FA4440F078A6E670D8
:013246000780
:0732470090E679E0FA8A0B22
:01324E00225D
:06324F00E58290E679F033
:0832550090E678E0FA30E0F8A1
:08325D0090E678E0FA20E20897
:0832650090E678E0FA20E10494
:04326D0078A67623A6
:01327100223A
:0E327200AA82AB83ACF090E679E0FD8A828BF5
:06328000838CF012330004
:0832860090E678E0FA30E0F870
:08328E0090E678E0FA30E2045A
:0432960078A676237D
:01329A002211
:0534FA000102000000CA
:0534FF000100000000C7
:053504000100000000C1
:0E350900332E335600000000312E38560000DD
:0E3517000000312E305600000000322E3556D6
:0435250000000000A2
:0EE1000012010002000000404314070000005E
:04E10E000102000109
:0AE112000A060002000000400100B0
:0EE11C0009022E0001010080FA09040000042F
:0EE12A00FF000000070501024000000705810C
:0EE138000240000007050202000200070586F3
:04E1460002000200D1
:0EE14A0009022E0001010080FA090400000401
:0EE15800FF00000007050102400000070581DE
:0EE16600024000000705020240000007058687
:04E174000240000065
:093F0000020575000205A900028A
:083F090005930002060D000201
:083F110005BF0002062B0002AF
:083F1900068500020685000286
:083F210006850002068500027E
:083F2900068500020685000276
:083F310006850002068500026E
:083F3900068500020685000266
:083F410006850002068500025E
:083F4900068500020685000256
:083F510006850002068500024E
:083F5900068500020685000246
:083F610006850002068500023E
:083F6900068500020685000236
:083F710006850002068500022E
:083F7900068500020685000226
:083F810006850002068500021E
:083F8900068500020685000216
:083F910006850002068500020E
:083F9900068500020685000206
:083FA1000685000206850002FE
:083FA9000685000206850002F6
:073FB10006850002068500F1
:08329B00FB7A20E4FCFDFEFFBC
:0E32A300E5822582F582E58333F583E5F0337D
:0B32B100F5F0EB33FB4017DAE9804238
:0E32BC00E5822582F582E58333F583E5F03364
:0532CA00F5F0EB33FB01
:0E32CF00EC33FCED33FDEE33FEEF33FFEC95F8
:0632DD0053ED9554EE953F
:0832E30055EF95564013EC95E0
:0832EB0053FCED9554FDEE9536
:0932F30055FEEF9556FF438201E0
:0232FC00DABE38
:0232FE00EB22C1
:06009C00E478FFF6D8FD38
:08007A007900E94400601B7AE3
:05008200009035297813
:030087000075A061
:0A008A00E0E493F2A308B8000205B9
:08009400A0D9F4DAF275A0FF17
:0E33000020F71030F6118883A88220F507F61A
:05330E00A88375830097
:013313002297
:03331400F280F74D
:02331700F022A2
:0C331900AAF0FBE5828553F0A4FCADF0A7
:0C332500E5838553F0A42DFDE435F0FE97
:0C333100E5828554F0A42DFDE5F03EFE81
:0C333D00E433FFEA8553F0A42EFEE5F017
:0C3349003FFFE5838554F0A42EFEE5F064
:0C3355003FFFE5828555F0A42EFEE5F058
:0B3361003FFFEB8553F0A42FFFEA852F
:0A336C0054F0A42FFFE5838555F00F
:0C337600A42FFFE5828556F0A42F8EF0F6
:053382008D838C822206
:0400A20075A00078CD
:0700A60000E8440060077947
:0600AD0000E4F309D8FC99
:0800B3007800E84400600C79BC
:0B00BB000090E000E4F0A3D8FCD9FAAC
:02006B00E4733C
:0E33870090E682E044C0F090E681F0438701BA
:0633950000000000002210
:03006D0075815644
:0A0070001233B7E582600302006658
:0E339B0020F71430F6148883A88220F507E688
:0633A900A88375830022D9
:0333AF00E280F7C2
:0333B200E493227F
:0233B500E02214
:0433B70075820022F9
:00000001FF
