:0400000002006D325B
:01000B0032C2
:0100130032BA
:01001B0032B2
:0100230032AA
:01002B0032A2
:0300330002068141
:01003B003292
:03004300023F0079
:01004B003282
:03005300023F0069
:01005B003272
:030063000206850D
:0300E400020066B1
:050066001200E780FE1E
:0900E700788176007880760090A3
:0E00F000E60B7403F000000000000090E60034
:0E00FE007410F075800175B28175900075B3B5
:0E010C00FF75B08075B5A090E67AE0FA440168
:0B011A00F012250790E60174E2F012DD
:0E012500023D90E6097403F0000000758901A8
:09013300000000788276000876D5
:04013C00E17884766C
:05014000120876E178D1
:0501450086761C08761F
:04014A00E17888765A
:0A014E004A0876E1D2E843D8209079
:0E015800E668E0FA4409F090E65CE0FA443D07
:0E016600F0D2AF90E680E0FA54F7F0538EF836
:080174001201B97898E660075A
:07017C00120195789876004E
:050183007881E6600731
:0701880078817600122BAD17
:05018F0012068580E06E
:010194002248
:0A01950090E680E0FA440AF07A00D8
:02019F00DAFE86
:0E01A10090E65D74FFF090E65F74FFF05391FE
:0901AF00EF90E680E0FA54F7F04D
:0101B8002224
:0501B9007880E6605FA4
:0601BE007890A60B08A6D4
:0601C4000C08A60D08A6C0
:0401CA000E7894A671
:0601CE000F08A61008A6B0
:0501D4001108A6121243
:0601D90002BFE582700880
:0801DF0090E6A0E0FA4401F0F3
:0C01E700789086020886030886040886CB
:0601F300058A0B8B0C8C49
:0401F9000D8D0E78E2
:0C01FD0094860208860308860408860524
:050209008A0F8B108C30
:04020E00118D1290AC
:0B021200E6A0E0FA4480F0788076005F
:01021D0022BE
:0E021E0090E6837401F07421F07411F07431D5
:0E022C00F090E6837402F07422F07416F07401
:02023A0036F09C
:01023C00229F
:0E023D0090E610E4F000000090E611E4F000FE
:0E024B00000090E612E4F000000090E613E4DC
:0D025900F000000090E614E4F000000090BA
:0E026600E615E4F000000090E618E4F0000059
:0E0274000090E619E4F000000090E61AE4F0B5
:0E02820000000090E61BE4F000000090E61083
:0E02900074A0F000000090E61174A0F00000D1
:0E029E000090E61274A0F000000090E61474C8
:0E02AC00E0F000000090E68DE4F0000000128B
:0502BA0008FF0208C767
:0C02BF0090E6B9E0FA24F4500302056E4A
:0702CB00EA2A2A9002D27317
:0702D2000203B9020443021C
:0602D900056E0204ED02B7
:0602DF00056E02056E022F
:0602E50002F602056E02A4
:0602EB0003A402039202CD
:0502F100036B02038015
:0A02F60090E6BBE0FABA0102800FA7
:05030000BA0202803684
:05030500BA0602801B96
:05030A00BA075A804211
:09030F00788290E6B308E6F0786C
:0B0318008286027B0090E6B4EAF0024F
:02032300057162
:09032500788490E6B308E6F07854
:0B032E008486027B0090E6B4EAF00237
:0203390005714C
:09033B00788A90E6B308E6F07838
:0B0344008A86027B0090E6B4EAF0021B
:02034F00057136
:09035100788C90E6B308E6F07820
:0B035A008C86027B0090E6B4EAF00203
:02036500057120
:040367007582002279
:08036B0090E740788FE6F09066
:0B037300E68AE4F090E68B7401F002D3
:02037E00057107
:0A03800090E6BAE0FA788FA60212A8
:06038A00023D12021E02FA
:020390000571F5
:0A03920090E6BAE0FA788EA6021297
:06039C00023D12021E02E8
:0203A2000571E3
:0803A40090E740788EE6F0902E
:0B03AC00E68AE4F090E68B7401F0029A
:0203B7000571CE
:0A03B90090E6B8E0FABA8002800A6C
:0503C300BA8102801B5D
:0503C800BA8274802CD4
:0A03CD0090E740E4F090E741F09063
:0A03D700E68AF090E68B7402F00253
:0203E1000571A4
:0A03E30090E740E4F090E741F0904D
:0A03ED00E68AF090E68B7402F0023D
:0203F70005718E
:0E03F90090E6BCE0FA53027E90E6BCE0FBC347
:0E04070074809BE433FB4A902BF093FA3395FC
:0E041500E0FB74A12AFA74E63BFB8A828B831B
:0E042300E0FA53020190E740EAF090E741E46E
:0C043100F090E68AF090E68B7402F00276
:02043D00057147
:04043F0075820022A0
:0704430090E6B8E0FA600842
:05044A00BA020280125D
:03044F0002057132
:0B04520090E6BAE0FABA01030205715F
:04045D007582002282
:0904610090E6BAE060030204E930
:0E046A0090E6BCE0FA53027E90E6BCE0FBC3D5
:0E04780074809BE433FB4A902BF093FA33958B
:0E048600E0FB74A12AFA74E63BFB90E6BCE0B2
:0E049400FC53047E90E6BCE0FDC374809DE442
:0E04A20033FD4C902BF093FC3395E0FD74A1DC
:0E04B0002CFC74E63DFD8C828D83E0FC530431
:0E04BE00FE8A828B83ECF090E6BCE05480FA5C
:0E04CC00C423541FFA90E6BCE0FB740F5B9053
:0D04DA00E6832AF090E683E0FA4420F00269
:0204E70005719D
:0404E90075820022F6
:0704ED0090E6B8E0FA60059B
:0504F400BA027A801835
:0A04F90090E6BAE0FABA0102806E44
:0A05030090E6BAE0FABA0202806442
:04050D0075820022D1
:0E05110090E6BCE0FA53027E90E6BCE0FBC32D
:0E051F0074809BE433FB4A902BF093FA3395E3
:0E052D00E0FB74A12AFA74E63BFB90E6BCE00A
:0E053B00FC53047E90E6BCE0FDC374809DE49A
:0E05490033FD4C902BF093FC3395E0FD74A134
:0E0557002CFC74E63DFD8C828D83E0FC430499
:09056500018A828B83ECF0800313
:03056E00020AA1DD
:030571007582018F
:010574002264
:0C057500C0E0C082C083C0007880760126
:090581005391EF90E65D7401F066
:09058A00D000D083D082D0E03211
:0E059300C0E0C082C0835391EF90E65D740417
:0105A100F069
:0705A200D083D082D0E032CB
:0E05A900C0E0C082C0835391EF90E65D740203
:0105B700F053
:0705B800D083D082D0E032B5
:0D05BF00C0E0C082C083C002C003C000784D
:0A05CC00888602088603788AA602DA
:0C05D60008A6038A828B83A37402F078CD
:0A05E200868602088603788CA602C4
:0E05EC0008A6038A828B83A37407F05391EF55
:0605FA0090E65D7410F0B4
:0D060000D000D003D002D083D082D0E032F1
:0C060D00C0E0C082C083C000788176018C
:090619005391EF90E65D7408F0C6
:09062200D000D083D082D0E03278
:0D062B00C0E0C082C083C002C003C00090C8
:07063800E680E0FA30E72C38
:0A063F0078868602088603788AA6F2
:0D0649000208A6038A828B83A37402F07856
:0A065600888602088603788CA6024D
:0B06600008A6038A828B83A37407F0B6
:09066B005391EF90E65D7420F05C
:0D067400D000D003D002D083D082D0E0327D
:0306810053D8EF5C
:010684003243
:052BE1000102000000EC
:052BE6000100000000E9
:052BEB000100000000E4
:0A2BF00000010202030304040505BE
:0A00C600789876007899E4F608F6C1
:0C00D00008F608F6789DE4F608F608F63D
:0800DC0008F678A1E4F608F62D
:070685001206D7E5826014A4
:07068C001206A1E582700DCA
:0B0693001207CB78A6760175820002EA
:02069E0007D47F
:0106A0002237
:0706A10078A3E624FA402BC8
:0A06A80078A3E625E0269006B27361
:0706B2000206C40206C702A4
:0606B90006CA0206D3028E
:0506BF0006CD0206D08B
:0306C40002095FC9
:0306C7000209C362
:0306CA00021128F2
:0306CD00021D808B
:0306D0000225EE12
:0306D3007582002D
:0106D6002201
:0506D700E5BA30E1046A
:0406DC007582002201
:0706E00078A676007A807B0A
:0606E700E78B9A7A807B8C
:0C06ED00E77B008A9B90E67BE0FA7B0034
:0506F9000ABA00010B2C
:0E06FE0090E68DE0FC7D00EAB50406EBB50544
:03070C0002801157
:0B070F001207CB78A67601758200125D
:06071A0007D475820022E5
:0A07200090E67BE0FA78A3A60290B1
:09072A00E67BE0FA78A4A6029037
:0B073300E67BE0FA78A5A602758201C3
:01073E002298
:08073F001201B9E5BA30E10432
:04074700750A00220D
:0C074B0090E780E0FA7B000ABA00010B86
:0E07570090E68DE0FC7D00EAB50406EBB505EA
:03076500028011FE
:0B0768001207CB78A676017582001204
:0607730007D4750AFF2205
:0B07790090E781E0FA78A3E6B50213D8
:0C07840090E782E0FA78A4748046FBEA5B
:03079000B50304AA
:04079300750A0122C0
:0607970090E781E0700C08
:08079D0090E782E0FABA0204C1
:0407A500750A0222AD
:0307A900750AFFCF
:0107AC00222A
:0807AD00AA827B0B7C007D4059
:0E07B50090E67BE0FE8B828C838DF0122B266B
:0707C300A3AB82AC83DAEB6B
:0107CA00220C
:0807CB0090E68DE4F00000004F
:0107D3002203
:0707D400AA82E5BA30E20140
:0107DB0022FB
:0707DC007BC07CE78C9D7BD4
:0807E300C07CE77C008B9E90B6
:0807EB00E67CEA04F078A69018
:0707F300E67CE6F07B0B7CC5
:0507FA00007D408A06AD
:0307FF00EE601792
:0E0802008B828C838DF0122BC1FFA3AB82ACD6
:090810008390E67CEFF01E80E607
:0A08190090E68F74022AF000000040
:0108230022B2
:07082400AA82E5BA30E201EF
:01082B0022AA
:07082C007BC07CE78C9D7B83
:08083300C07CE77C008B9E9065
:08083B00E67CEA04F078A690C7
:04084300E67CE6F079
:01084700228E
:05084800E5BA30E201F9
:01084D002288
:08084E0090E7C178A6E6F090E6
:0C085600E7C0E0FA90E68F04F00000001C
:010862002273
:0E086300AA82AB83ACF090E67BE0FDC002C041
:0E08710003C004C0051207CBD005D004D0038D
:07087F00D002E5BA30E201EE
:01088600224F
:070887007EC07FE78F9D7E1C
:08088E00C07FE77F008E9E9001
:0C089600E67CED04F090E67CE4F08D06BA
:0308A200EE6017EE
:0E08A5008A828B838CF0122BC1FFA3AA82AB38
:0908B3008390E67CEFF01E80E664
:0A08BC0090E68F74022DF00000009A
:0108C600220F
:0E08C70090E618E4F000000090E6047480F063
:0E08D50000000090E6047402F00000007A04B7
:0B08E30090E6497482F0000000DAF596
:0E08EE0090E604E4F000000090E6A3E4F000C1
:0208FC000000FA
:0108FE0022D7
:0E08FF0090E61AE4F000000090E6047480F029
:0D090D0000000090E6047406F00000009069
:0E091A00E604E4F000000090E6A5E4F0000022
:0109280000CE
:0109290022AB
:08092A0090E680E0FA30E706D8
:060932007A007B02800444
:040938007A407B0086
:0E093C0090E624EBF000000090E680E0FA3038
:02094A00E706BE
:06094C007A007B0280042A
:040952007A407B006C
:0809560090E625EAF000000024
:01095E002276
:07095F0078A4B60202800734
:0709660078A4B603508005E0
:05096D001207CB804DD4
:0A0972007582041207AD1207CBE5F1
:08097C000BF4FAE50CF4FBE5B5
:0A0984000DF4FCE50EF4FD747B2A6F
:0C098E00FAE43BFBE43CFCE43DFD8A0B7A
:05099A008B0C8C0D8D9B
:05099F000E1212957814
:0C09A40099E4F608F608F608F61208FFC1
:0B09B0001208C77582041207D48004EF
:0409BB00758200221F
:0309BF007582013D
:0109C2002212
:0709C30078A4B60202800EC9
:0709CA0078A4B60302801EB1
:0709D10078A4B60454803540
:0709D8001207CB750B01753E
:0609DF000C00750D00750F
:0A09E5000E007582041207D4803F53
:0E09EF001207CB75B28190E601E0FA4420F0C9
:0E09FD0090E6C274FFF0D2B77582001207D4E4
:020A0B00802148
:0E0A0D001207CBC2B775B20090E601E0FA54B2
:0E0A1B00DFF090E6C2E4F07582001207D4808E
:010A290004C8
:040A2A0075820022AF
:030A2E00758201CD
:010A310022A2
:0A0A3200AA82AB83E50845097001B4
:010A3C002297
:070A3D00AC14BCE6028005C9
:050A44008B05BDE63149
:080A49008A068B07AC13AD1403
:0E0A51008E028F038C828D83E0F88A828B8365
:060A5F00F00EBE00010FC5
:050A65000CBC00010DB6
:080A6A00150874FFB508021520
:010A7200097A
:060A7300E508450970D8FA
:010A7900225A
:0C0A7A008C9AAC137E008C9B8D9D7B0041
:050A86008A9E020A8CAB
:010A8B002248
:080A8C00A90890E67B058690A5
:040A9400E67C058671
:080A9800E00586F00586D9F89F
:010AA0002233
:0A0AA10090E6B9E0FABAA202804A1A
:050AAB00BAA302804522
:060AB000BAE103020D761D
:060AB600BAE203020D5636
:060ABC00BAE303020D562F
:060AC200BAE403020D3648
:060AC800BAE503020D3641
:060ACE00BAE603020C4130
:060AD400BAE703020C6EFC
:060ADA00BAE803020CB6AD
:060AE000BAE903020D1645
:060AE600BAEA03020CE570
:060AEC00BAEB03020D96B7
:030AF200020DB63C
:0B0AF50090E6BAE0FAA3E0FB8A0B8B4E
:0A0B00000C90E6BEE0FAA3E0FB90C3
:090B0A00E6B8E0FCBCC002800367
:030B1300020BA62C
:070B1600EA4B7003020DBA67
:080B1D0090E6A0E0FC20E1F8E5
:080B250090E6B9E0FCBCA2114E
:0A0B2D00750D00750E00C002C00334
:070B3700121054D003D0029C
:090B3E00C3EA9440EB9400500658
:060B47008A0D8B0E8006F2
:060B4D00750D40750E005D
:080B530090E6B9E0FCBCA20D24
:0D0B5B00C002C003120FA7D003D002801A01
:040B6800850D08856A
:030B6C000E0990DF
:040B6F00E740850BCB
:030B730013850CDB
:0C0B760014C002C003120A32D003D002E7
:080B820090E68AE4F0AC0DAD31
:080B8A000E90E68BECF0EC2567
:070B92000BFEED350CFF8E98
:0A0B99000B8F0CEAC39CFAEB9DFBE6
:030BA300020B162C
:0A0BA60078A1E608467003020C3D3A
:0C0BB00090E6BCE0FCA3E0FD78A1E6B5F7
:090BBC00040708E6B505028002F9
:020BC500807638
:080BC70090E6B8E0FCBC406EB2
:070BCF00EA4B7003020DBAAE
:090BD60090E68AE4F090E68BF051
:080BDF0090E6A0E0FC20E1F823
:0A0BE70090E68BE0FC7D008C0D8D84
:090BF1000E90E6B9E0FCBCA31F64
:040BFA00850D0885D8
:030BFE000E098558
:060C01000B82850C8375D7
:030C070013407522
:070C0A0014E7C002C0031251
:080C11000A32D003D002800B6F
:0B0C1900C002C003121054D003D00230
:060C2400AC0DAD0EEC2545
:070C2A000BFEED350CFF8EFF
:0A0C31000B8F0CEAC39CFAEB9DFB4D
:020C3B008092A5
:040C3D00758200229A
:0A0C410090E6B8E0FABAC0028003A2
:030C4B00020DBADD
:080C4E0090E6A0E0FA20E1F8B5
:0E0C560090E7407405F0A37403F090E68AE482
:0A0C6400F090E68B7402F0020DBA66
:0A0C6E0090E6B8E0FABAC002800375
:030C7800020DBAB0
:080C7B0090E6A0E0FA20E1F888
:0E0C830090E740740DF0A3E4F0A3F0A3F0900E
:0B0C9100E744E4F5F0122B26A3E41268
:0A0C9C002B26A3E4122B26A3E4127A
:080CA6002B2690E68AE4F09091
:080CAE00E68B7408F0020DBA98
:080CB60090E6B8E0FABA402311
:090CBE0090E68AE4F090E68BF068
:080CC70090E6A0E0FA20E1F83C
:0C0CCF0090E740E0FAA3E0FB78A1A60249
:060CDB0008A603020DBA99
:040CE10075820022F6
:080CE50090E6B8E0FABA4025E0
:070CED0078A1E60846601E35
:0C0CF40090E6BCE0FAA3E0FB78A1E6B5B6
:090D0000020708E6B503028002B7
:020D0900800761
:070D0B0078987601020DBA91
:040D120075820022C4
:070D1600750BF0750C3F7531
:060D1D000D04750E0075C7
:060D23000FCD7510AB902E
:070D2900E6B8E0FABAC003CE
:030D3000020DBEF3
:030D3300020ED7D6
:070D3600750BE0750C3F7521
:060D3D000D0C750E00759F
:060D43000F7875105690B8
:070D4900E6B9E0FABAE40389
:030D5000020DBED3
:030D5300020ED7B6
:070D5600750BC0750C3F7521
:060D5D000D10750E00757B
:060D63000FCD7510AB90EE
:070D6900E6B9E0FABAE2036B
:030D7000020DBEB3
:030D7300020ED796
:070D7600750BA0750C3F7521
:060D7D000D1C750E00754F
:060D83000FCD7510AB90CE
:070D8900E6B8E0FABAC0036E
:030D9000020DBE93
:030D9300020ED776
:070D9600750BF8750C3F75A9
:060D9D000D02750E007549
:060DA3000FCD7510AB90AE
:070DA900E6B8E0FABAC0034E
:030DB000020DBE73
:030DB300020ED756
:040DB6007582002220
:030DBA007582013E
:010DBD002213
:0C0DBE007AFF90E6B8E0FBBBC0028004A6
:040DCA00758200220C
:050DCE00AB0DAC0E7539
:0A0DD3000D00750E00C002C003C041
:0E0DDD0004121054D004D003D00274032BFB78
:0A0DEB00E43CFC8B0D8C0EC00212DC
:0A0DF5000FA7D002E50D24FDFBE579
:070DFF000E34FFFC8B0D8C8C
:0B0E06000E90E740E0FBA3E0FCEBB522
:060E11000F48ECB510448F
:040E17007A007B00E2
:0A0E1B007403250DFCE4350EFD8B79
:0A0E2500067F00C3EE9CEF9D502CE9
:0A0E2F00EB2440F582E434E7F5837C
:0A0E3900E0FC2AFAEB2440FCE4344C
:0A0E4300E7FD74022B2440F582E461
:0C0E4D0034E7F583E0FE8C828D83F00B0F
:020E590080C057
:030E5B00EA6064E6
:040E5E00850D088571
:030E62000E0990E6
:090E6500E6B9E0FABAE1028034BA
:050E6E00BAE202803D24
:050E7300BAE402800555
:050E7800BAE9438017F8
:020E7D007A00F9
:030E7F00BA0C00AA
:020E8200503EE0
:0A0E8400EA2440F582E434E7F58328
:060E8E007430F00A80EB55
:050E940090E74075131A
:030E9900097514C4
:060E9C002C120A32802036
:050EA20090E74075130C
:030EA7000D7514B2
:060EAA002C120A32801236
:050EB00090E7407513FE
:030EB50029751488
:060EB8002C120A32800436
:040EBE007582002217
:0C0EC20090E68AE4F000000090E68BE56A
:080ECE000DF000000075820127
:010ED60022F9
:080ED70090E6B8E0FABA401CF5
:070EDF0078A1E6084660154A
:0C0EE60090E6BCE0FAA3E0FB78A1E6B5C2
:090EF200020708E6B503028004C2
:040EFB0075820022DA
:090EFF0090E68AE4F090E68BF025
:080F080090E6A0E0FA20E1F8F8
:070F100090E68AE0FA70147C
:050F1700AA0DAB0E90D5
:0E0F1C00E68BE0FC7D00B50206EDB503028019
:010F2A0004C2
:040F2B0075820022A9
:060F2F008A15AD158D06C8
:060F35008E071EEF60258F
:0C0F3B00C002C00374022E2440FFE43406
:090F4700E7FCEE2440F582E434DD
:0C0F5000E7F583E0FA8F828C83F0D00379
:040F5C00D00280D56A
:080F600090E740E50FF0A3E566
:050F680010F07C407E4A
:0A0F6D00E78E9A759B407C00740229
:030F77002515FD40
:090F7A0090E67BE0FE2CFCDDF7A3
:0A0F8300740225152440F582E434C1
:0C0F8D00E7F583C3E49CFCF074032AFA2F
:080F9900E43BFB8A0D8B0E12F4
:050FA1001054758201EF
:010FA6002228
:050FA700E50DFA7004E5
:040FAC007582012227
:080FB00090E678E0FB20E6F872
:0C0FB80090E6787480F090E67974A3F065
:080FC40090E678E0FB30E0F854
:080FCC0090E678E0FB20E274DE
:080FD40090E678E0FB30E16CCF
:030FDC00BA01084F
:080FDF0090E678E0FB4420F0ED
:070FE70090E679E07B407CFD
:060FEE00E78C9A7B407CB9
:050FF400E77C008B9B6F
:040FF900DA02802672
:080FFD0090E678E0FB30E0F81B
:0810050090E678E0FB20E23BDD
:03100D00BA01081D
:0810100090E678E0FB4420F0BB
:0B10180090E679E0FB90E67BF080D6CC
:0810230090E678E0FA30E0F8F5
:08102B0090E678E0FA20E215DE
:0E10330090E678E0FA4440F090E679E0FA901A
:07104100E67BF0758201223D
:0B10480090E678E0FA4440F07582006A
:01105300227A
:02105400AA0DE3
:0810560090E678E0FB20E6F8CB
:0C105E0090E6787480F090E67974A2F0BF
:08106A0090E678E0FB30E0F8AD
:0810720090E678E0FB20E26B40
:08107A0090E678E0FB30E16331
:03108200EA600E13
:071085007B407CE78C9A7BA5
:07108C00407CE77C008B9B18
:021093007B02DE
:03109500EA7003FB
:03109800EB603BCF
:03109B00EB6014F3
:03109E00BB02088A
:0810A10090E679E50CF08006F1
:0610A90090E679E50BF072
:0310AF001B800A99
:0A10B20090E67BE0FC90E679F01A6E
:0810BC0090E678E0FC30E0F85A
:0810C40090E678E0FC20E2193F
:0810CC0090E678E0FC20E1C190
:0210D400800F8B
:0E10D60090E678E0FA4440F01210F1758201C5
:0110E40022E9
:0B10E50090E678E0FA4440F0758200CD
:0110F00022DD
:0810F10090E678E0FA20E6F831
:0E10F90090E678E0FA4480F090E67974A2F078
:0811070090E678E0FA30E0F810
:08110F0090E678E0FA4440F09C
:0811170090E678E0FA20E6F80A
:08111F0090E678E0FA30E1D21D
:0111270022A5
:052BFA000102000000D3
:052BFF000100000000D0
:052C04000100000000CA
:042C090005001000B2
:0E2C0D004F6E626F61726420555342000000EA
:0E2C1B00FDFDFDFD000000000000550CD36F14
:0E2C2900444F6E62557362000000FDFDFDFD1C
:022C370000009B
:0711280078A4B6020280600A
:07112F0078A5B60002801153
:0B1136001207CB78A6760C7582001221
:0611410007D475820122B3
:0511470078A4E6701F12
:06114C007899E630E01185
:0B1152001207CB78A67603758200120E
:06115D0007D47582012297
:081163007899E64401F68024AE
:05116B0078A4B60108A4
:081170007899E654FEF68017A1
:061178007899E620E01169
:0B117E001207CB78A6760475820012E1
:0611890007D4758201226B
:0A118F0078A4E624F4500302127F56
:0A11990078A4E625E0269011A37368
:0711A3000211C70211D7027F
:0611AA0011E702127F02B2
:0611B00011F402120D0211
:0611B60012410212780252
:0611BC00126A02126A0231
:0511C200127102126A27
:0A11C7001212831207CB758200128A
:0611D10007D47582012223
:0A11D7001212951207CB7582001268
:0611E10007D47582012213
:0D11E700902C3975F080120863758201228A
:0711F4001207CB750B00751B
:0611FB000C6A750D187569
:0C1201000E007582041207D475820122D1
:07120D0090E67BE0FA6004AB
:04121400D2B38002CF
:02121800C2B35F
:07121A0090E67BE0FA60049E
:04122100D2B28002C3
:02122500C2B253
:0712270090E67BE0FA600491
:04122E00D2B48002B4
:02123200C2B444
:0D1234001207CB7582001207D475820122CB
:0C1241001207CBA2B3E433FA8A0BA2B26E
:0B124D00E433FA8A0CA2B0E433FA8A02
:0A1258000DA2B4E433FA8A0E758289
:08126200041207D47582012279
:07126A0012161C758201221F
:07127100121A23758201220D
:071278001212A17582012290
:03127F0075820075
:011282002249
:0E12830043B50443B50843B510D2B5C2B2D28C
:03129100B3C2B431
:011294002237
:0B129500C2B553B5E3C2B2D2B3C2B47D
:0112A000222B
:052C3900010200000093
:052C3E00010000000090
:052C430001000000008B
:0B12A1007A007B0090E67BE0FC60041C
:0412AC00D2B3800237
:0212B000C2B3C7
:0712B20090E67BE0FC600404
:0412B900D2B280022B
:0212BD00C2B2BB
:0E12BF00C2B4758204C002C0031207ADD00392
:0E12CD0000C0031207CB7582001207D4D003B5
:0712DB00D002AC0BAD0CAE1C
:0412E2000DAF0E8CB2
:0412E6000F8D108ECA
:0912EA00118F12EC4D4E4F700201
:0212F3007B017D
:0312F500EB6006A5
:0612F800EA60030213A8E6
:0D12FE00C002C00312073FD003D002E4B5C8
:04130B000A02803022
:05130F007401B50A0F96
:0E1314007A01C002C0031207CBD003D00280C2
:011322001CAE
:051323007402B50A137D
:0B1328007B0178A67602C002C0031211
:0813330007CBD003D0028004B7
:04133B007A0080694B
:03133F00EB70B39D
:05134200AC0BAD0CAE88
:0A1347000DAF0EC3ED9404EE940008
:05135100EF94005006BE
:061356008C088D098006E1
:06135C007508007509048C
:08136200AC08AD09E4FEFFE553
:09136A000BC39CFCE50C9DFDE5A4
:081373000D9EFEE50E9FFF8CAC
:04137B000B8D0C8E3C
:03137F000D8F0EC1
:0A138200D2B400C2B4150874FFB520
:04138C000802150935
:06139000E508450970ECC0
:05139600E50B450C45CC
:06139B000D450E60030287
:0213A10012F543
:0513A3007B010212F5C0
:0313A800EA6029CF
:0713AB00E50FC3950BFAE505
:0513B20010950CFBE5A5
:0513B70011950DFCE59D
:0513BC0012950EFD8AF0
:0413C1000B8B0C8CFA
:0413C5000D8D0E7804
:0B13C900A6E64480F67582040207D4FB
:0113D40022F6
:0813D500A908AA09E960010A58
:0313DD0090E67B1C
:0E13E000E01392B2D2B4C2B41392B2D2B4C22D
:0E13EE00B41392B2D2B4C2B41392B2D2B4C24B
:0E13FC00B41392B2D2B4C2B41392B2D2B4C23D
:0E140A00B41392B2D2B4C2B41392B2D2B4C22E
:05141800B4D9C5DAC3E0
:01141D0022AC
:08141E00A908AA09E960010A0E
:0A14260090E67B058690E67C0586C3
:0E143000E01392B2A2B013D2B4C2B492B2A230
:0E143E00B013D2B4C2B492B2A2B013D2B4C2F0
:0E144C00B492B2A2B013D2B4C2B492B2A2B0A3
:0E145A0013D2B4C2B492B2A2B013D2B4C2B4D0
:0E14680092B2A2B013D2B4C2B492B2A2B01328
:0D147600D2B4C2B40586F00586D9AFDAAD58
:011483002246
:08148400A908AA09E960010AA8
:03148C0090E67C6B
:0E148F00A2B0D2B4C2B413A2B0D2B4C2B4138D
:0E149D00A2B0D2B4C2B413A2B0D2B4C2B4137F
:0E14AB00A2B0D2B4C2B413A2B0D2B4C2B41371
:0E14B900A2B0D2B4C2B413A2B0D2B4C2B41363
:0514C700F0D9C2DAC0FB
:0114CC0022FD
:0814CD00A908AA09E960010A5F
:0314D50090E67B23
:0E14D800E01392B3D2B4C2B41392B3D2B4C232
:0E14E600B41392B3D2B4C2B41392B3D2B4C250
:0E14F400B41392B3D2B4C2B41392B3D2B4C242
:0E150200B41392B3D2B4C2B41392B3D2B4C233
:05151000B4D9C5DAC3E7
:0115150022B3
:08151600A908AA09E960010A15
:0A151E0090E67B058690E67C0586CA
:0E152800E01392B3A2B013D2B4C2B492B3A235
:0E153600B013D2B4C2B492B3A2B013D2B4C2F6
:0E154400B492B3A2B013D2B4C2B492B3A2B0A8
:0E15520013D2B4C2B492B3A2B013D2B4C2B4D6
:0E15600092B3A2B013D2B4C2B492B3A2B0132D
:0D156E00D2B4C2B40586F00586D9AFDAAD5F
:01157B00224D
:08157C00A908AA09E960010AAF
:0315840090E67B73
:0E158700E01392B21392B3D2B4C2B41392B274
:0E1595001392B3D2B4C2B41392B21392B3D273
:0E15A300B4C2B41392B21392B3D2B4C2B4D98C
:0315B100D5DAD3B5
:0115B4002214
:0815B500A908AA09E960010A76
:0A15BD0090E67B058690E67C05862B
:0215C7007C02A4
:0E15C900E01392B21392B3FBE8A2B013F8EB5A
:0E15D700D2B4C2B41392B21392B3FBE8A2B026
:0E15E50013F8EBD2B4C2B41392B21392B3FB5C
:0E15F300E8A2B013F8EBD2B4C2B41392B21354
:0E16010092B3FBE8A2B013F8EBD2B4C2B4DC93
:0C160F00B9E80586F0058619D9AEDAAC02
:01161B0022AC
:07161C007517007519007538
:071623001A0078A4B6082AA2
:08162A0075170190E67BE0F565
:081632001690E67BE0FE600467
:04163A00D2B38002A5
:02163E00C2B335
:04164000E516600843
:04164400751B1E757F
:041648001C14805A94
:04164C00751BD575C0
:041650001C13805295
:0516540078A4B6092591
:0A16590075160190E67BE0FC6004CA
:04166300D2B380027C
:02166700C2B30C
:0716690090E67BE0FC600449
:04167000D2B2800270
:02167400C2B200
:04167600751B8475E7
:04167A001C14802894
:08167E0075170190E67BE0F511
:081686001690E67BE0FC600415
:04168E00D2B2800252
:02169200C2B2E2
:04169400E5166008EF
:04169800751B167533
:04169C001C15800693
:0416A000751BCD7574
:0216A4001C1414
:0D16A6007582041207AD1207CB7582001289
:0416B30007D4850BC8
:0316B7001D850C82
:0316BA001E850D7D
:0316BD001F850E78
:0316C00020851D65
:0316C3000F851E72
:0316C60010851F6D
:0316C90011852068
:0A16CC00127407551DFD7A007B0023
:0716D6007C008D18AA1DE540
:0C16DD001EC423CAC423541F6ACA541F31
:0C16E900CA6ACAFBE51FC42354E04BFB97
:0A16F500AC1FE520C423CCC423542D
:0C16FF001F6CCC541FCC6CCCFE8A0B8BF3
:04170B000C8C0D8EA7
:05170F000EE518601D4D
:05171400AA0BAB0CACB8
:0A1719000DAE0E0ABA00090BBB006A
:06172300050CBC00010EE4
:051729008A0B8B0C8C03
:03172E000D8E0E0F
:05173100E50F45104525
:051736001145127003D3
:03173B007519011C
:02173E00C2B433
:04174000E519600740
:07174400E51A6003021936EB
:07174B0012073FE50A602CC4
:051752007401B50A0C52
:04175700E51A700817
:08175B00751A011207CB801B77
:051763007402B50A103C
:071768001207CBE519700F19
:09176F0078A676027519018006C6
:06177800751A000219368B
:04177E00E517600506
:05178200E5AA20E0B91A
:04178700E5166005FE
:05178B00E5AA20E5B015
:04179000E51970AC3B
:04179400E517600EE7
:071798007A007BF08B9A7AC6
:07179F00007BF07B008A9B38
:0417A600E516600ED6
:0717AA007A007BF88B9D7AA9
:0717B100007BF87B008A9E1B
:0417B800E5176019B8
:0E17BC0090E690E0FA8A037A0090E691E0FC55
:0A17CA007E004AF508EE4BF5098099
:0117D40054C0
:0417D500850B2185DA
:0317D9000C22855A
:0317DC000D238555
:0317DF000E249045
:0717E200E680E0FF30E7069E
:0617E9007A007B0280047F
:0417EF007A407B00C1
:0C17F3008A07EBFD3395E0FAFBC3EF958D
:0617FF0021ED9522EA95A0
:0618050023EB95245018AE
:08180B0090E680E0FA30E706E8
:061813007A007B02800454
:041819007A407B0096
:06181D008A088B09800619
:04182300852108858E
:02182700220994
:08182900AA08AB09E4FCFDE58F
:091831000BC39AFAE50C9BFBE5E0
:08183A000D9CFCE50E9DFD8AEA
:041842000B8B0C8C74
:041846000D8D0EE511
:03184A0018601310
:05184D00E50B450C4510
:051852000D450E7009B8
:08185700150874FFB508021525
:01185F00097F
:06186000E50845096009DE
:07186600851B82851C831223
:02186D00006B0E
:07186F00E5187003021900E7
:05187600E50B450C45E7
:06187B000D450E600302A2
:0218810019004C
:06188300AA18E517700B26
:0318890030B20476
:04188C007BFF80025C
:021890007B00DB
:021892008005CF
:0518940090E67BE0FB83
:0518990078A4B60B1D50
:02189E008A04BA
:0B18A000EBA2E092B3C313FB30B005D5
:0518AB004303808003EF
:0318B00053037F60
:0618B300D2B4C2B4DCE770
:0218B900801994
:0B18BB00EBA2E092B2C313FB30B005BB
:0518C6004303808003D4
:0318CB0053037F45
:0618CE00D2B4C2B4DAE757
:0418D400E516601D98
:0C18D800AD187A007408C39DFDE49AFA74
:0718E4008DF005F0EB80021E
:0218EB00C31325
:0818ED00D5F0FBFB90E67CF056
:0718F5007518000508E4B5B9
:0418FC0008020509D0
:04190000E51760097E
:0919040090E6497482F000000035
:04190D00E516601269
:0A19110090E698E509F00000009050
:08191B00E699E508F000000068
:05192300E50B450C4539
:061928000D450E600302F4
:02192E00174060
:06193000751901021740C9
:071936001208C71208FFE5CB
:04193D001A700122F9
:04194100E518601D28
:05194500AA0BAB0CAC85
:0A194A000DAD0E1ABAFF091BBBFF1A
:06195400051CBCFF011D93
:05195A008A0B8B0C8CD0
:03195F000D8D0EDD
:04196200850D23E5E7
:0A1966000EC40354F8C523C403C5E2
:04197000236523C503
:061974002354F8C52365B1
:04197A0023F524E548
:08197E000CC40354074523F5D6
:0319860023850BAB
:0819890021E50CC40354F8C56C
:0619910021C403C521651D
:0619970021C52154F8C532
:04199D00216521F5AA
:0319A1002285217B
:0319A4000B85228E
:0319A7000C852389
:0319AA000D852484
:0919AD000EAE18E4FFFAFBEE2572
:0819B60021FEEF3522FFEA35A6
:0719BE0023FAEB3524FB8E38
:0419C5000B8F0C8AEE
:0419C9000D8B0EE58F
:0919CD000FC39EFEE5109FFFE52B
:0819D600119AFAE5129BFB8E49
:0419DE000F8F108ACD
:0419E200118B128EC5
:0419E6000B8F0C8ACD
:0419EA000D8B0EE56E
:0319EE001760047B
:0419F1007A80800276
:0219F5007A0076
:0419F700E51660048D
:0419FB007B408002AB
:0219FF007B006B
:0A1A0100EB4A78A646F6E5176004EC
:041A0B007A048002D7
:021A0F007A005B
:041A1100E516600472
:041A15007B048002CC
:021A19007B0050
:071A1B00EB2AF5820207D45B
:011A220022A1
:071A23007526007527007510
:071A2A00280090E67BE0F5C7
:081A3100257582041207AD12B5
:091A390007CB7582001207D48569
:031A42000B2B85E6
:031A45000C2C85E1
:031A48000D2D85DC
:031A4B000E2E85D7
:031A4E002B0F85D6
:031A51002C1085D1
:031A54002D1185CC
:031A57002E12E567
:041A5A002B452C45A7
:051A5E002D452E700370
:031A6300752701E3
:0C1A66007407552BFAE4FDFBFC7403250B
:081A72002BFBE4352CFCE435EC
:071A7A002DFDE4352EFE8B6B
:041A81000B8C0C8D31
:0A1A85000DEEF50EC313FEED13FD88
:0E1A8F00EC13FCEB13FBEEC313FEED13FDECAA
:0A1A9D0013FCEB13FB8B0B8C0C8D7C
:041AA7000D8E0EE5AD
:031AAB00256008AB
:041AAE007529B5756C
:041AB2002A1580066B
:041AB60075297C759D
:021ABA002A15EB
:021ABC00C2B4B2
:041ABE00E5276007B1
:071AC200E5286003021CBFD0
:0B1AC900C00212073FD002E50A6034A3
:051AD4007401B50A10C9
:041AD900E528700C80
:0C1ADD00752801C0021207CBD002801F48
:051AE9007402B50A14AF
:0B1AEE00C0021207CBD002E527700FEA
:091AF90078A6760275270180062B
:061B0200752800021CBF63
:051B0800E5AA20E0B198
:041B0D00E525600565
:051B1100E5AA20E5A893
:041B1600E52770A4AB
:071B1A007D007EF08E9A7D34
:081B2100007EF07E008D9BE5C3
:031B290025601222
:041B2C00E526700E2C
:071B30007D007EF88E9D7D13
:071B3700007EF87E008D9E88
:0E1B3E0090E690E0FD8D067D0090E691E0FFC0
:0A1B4C007B002DF508EB3EF509AB18
:071B560008AC09E4FDFEE507
:091B5D000BC39BFBE50C9CFCE5AD
:081B66000D9DFDE50E9EFE8BB6
:041B6E000B8C0C8D43
:061B72000D8E0EEA602C4E
:051B7800E50B450C45E2
:051B7D000D450E702271
:0E1B82008A03FC74032BFBE43CFCA2E713CBAC
:0C1B900013CBA2E713CB13CBFCE508C37A
:071B9C009BF508E5099CF52B
:011BA3000938
:061BA400E5084509600D93
:091BAA00C002852982852A8312FC
:041BB300006BD002F1
:061BB700EA7003021C3C71
:051BBD00E50B450C459D
:051BC2000D450E7075D9
:091BC7007B0090E67BE0FC7D0050
:051BD000C3ED9A502353
:031BD500BD040547
:051BD80090E67BE0FC3B
:0E1BDD00ECA2E092B2C313FCA2E092B3C313D9
:061BEB00FCEBA2B013FBAD
:071BF100D2B4C2B40D80D88C
:041BF800E525601C63
:0E1BFC008A047D007408C39CFCE49DFD8CF0FF
:051C0A0005F0EB800273
:021C0F00C313FD
:071C1100D5F0FB90E67CF02A
:0E1C18008A037C0074032BFBE43CFCA2E71360
:0C1C2600CB13CBA2E713CB13CBFCEB25B8
:051C320008F508EC3587
:051C370009F5097A0027
:041C3C00E5256063D7
:051C4000E50B450C4519
:051C45000D450E6004D6
:041C4A00E5266052D9
:071C4E000508E4B5080205DA
:011C55000985
:081C5600E509C313C50813C51D
:041C5E0008F509E597
:031C6200266024D5
:081C650090E680E0FB30E70689
:061C6D007B007C028004F4
:041C73007B407C0036
:0C1C7700ECA2E713CB13CBFCEB2508F527
:051C830008EC3509F535
:011C88000952
:0A1C890090E698E509F000000090D5
:091C9300E699E508F00000007577
:041C9C00260080039B
:031CA000752601A5
:0C1CA30090E6497482F0000000E50B455B
:041CAF000C450D458E
:061CB3000E6003021ABEE0
:061CB900752701021ABEAE
:0C1CBF00C0021208C7001208FFD002E5A6
:041CCB00287001225A
:0A1CCF00E50B25E0FBE50C33FCE516
:0A1CD9000D33FDE50E33FEEB2BFB8F
:0C1CE300EC33FCED33FDEE33FE8B0B8C7C
:041CEF000C8D0D8EBD
:041CF3000EEA603D58
:041CF700EA30E21DD0
:051CFB00AB0BAC0CADC9
:0A1D00000DAE0E1BBBFF091CBCFF5B
:061D0A00051DBDFF011ED6
:051D10008B0B8C0C8D13
:031D15000D8E0E22
:0A1D1800E4FBFCFDEA250BFAEB35B5
:081D22000CFBEC350DFCED3566
:051D2A000EFD8A0B8B89
:041D2F000C8C0D8D7E
:011D33000EA1
:071D3400E50FC3950BFAE572
:051D3B0010950CFBE512
:051D400011950DFCE50A
:051D450012950EFD8A5D
:041D4A000F8B108C5F
:041D4E00118D128A57
:041D52000B8B0C8C5F
:041D56000D8D0EE5FC
:031D5A00257008E9
:051D5D00F50FF510F583
:031D620011F51266
:0C1D650078A6E644C0F67582080207D498
:011D7100224F
:052C4800010200000084
:052C4D00010000000081
:052C520001000000007C
:0A1D7200C28CC28D78A7868A78A77C
:031D7C0008868C4A
:011D7F002241
:071D800078A4B602028060A6
:071D870078A5B600028011EF
:0B1D8E001207CB78A6760C75820012BD
:061D990007D4758201224F
:051D9F0078A4E6701FAE
:061DA4007899E630E2111F
:0B1DAA001207CB78A6760375820012AA
:061DB50007D47582012233
:081DBB007899E64404F6802447
:051DC30078A4B6010840
:081DC8007899E654FBF6801740
:061DD0007899E620E21103
:0B1DD6001207CB78A67604758200127D
:061DE10007D47582012207
:0A1DE70078A4E624F85003021ED190
:0A1DF10078A4E625E026901DFB73A0
:071DFB00021E13021E130279
:061E02001E25021E320243
:061E08001EB7021EBF021E
:051E0E001EC7021ECCFE
:0C1E13001207CB78A7E4F608F6758200F1
:061E1F001207D4021ED5DB
:0D1E2500902C5C75F080120863758201221C
:0A1E32007582041207AD1207CB758C
:061E3C0041FAE4F542F555
:041E420043F544859B
:061E46000B82850C838570
:051E4C000DF0E50E128F
:0C1E51002AC1AA82AB83ACF0FD8A0B8B87
:041E5D000C8C0D8D4F
:071E61000EEC7003ED600CB4
:071E6800750BFF750CFF75FF
:051E6F000D00750E00DE
:091E7400E50BF4FAE50CF4FBE5C2
:081E7D000DF4FCE50EF4FD7804
:081E8500A7A60208A603850BC5
:031E8D0041850C80
:031E900042850D7B
:031E930043850E76
:0C1E9600449000FAE4F5F0122B3FAA8201
:0A1EA200AB83ACF0FD8A0B8B0C8CB7
:071EAC000D8D0E758204127A
:041EB30007D4801EB2
:081EB70075820112228D8016D4
:081EBF0075820012228D800ED5
:051EC700121F49800913
:051ECC001220C8800493
:041ED10075820022F4
:031ED50075820112
:011ED80022E7
:0E1ED90090E6F3E0FA4480F000000090E67B13
:0C1EE700E0FA90E6F1F0000000021F2974
:0E1EF30090E6F3E0FA547FF000000090E67BEA
:0C1F0100E0FA90E6F1F0000000021F2959
:0B1F0D0090E6F1E0121F29E582600D54
:0D1F180090E6F2E0FA90E67CF0758201227E
:031F2500758200C2
:011F28002296
:051F2900121D72D28CB4
:051F2E00E5BB20E70304
:031F3300308DF8F6
:051F3600E5BB30E704EB
:041F3B007582012288
:091F3F0090E6F574FFF0758200D4
:011F48002276
:0A1F4900E4FAFBF508F509758204BF
:0D1F5300C002C0031207ADD00300C003128E
:0D1F600007CB7582001207D4D003D002AC6D
:041F6D000BAD0CAEFE
:041F71000DAF0E8C16
:041F75000F8D108E2E
:091F7900118F12EC4D4E4F700265
:021F82007B01E1
:031F8400EB600609
:061F8700EA600302209451
:0D1F8D00C002C00312073FD003D002E4B52C
:041F9A000A02804077
:051F9E007401B50A12F8
:031FA300EA700FD2
:0E1FA6007A01C002C0031207CBD003D0028024
:011FB4002903
:051FB5007402B50A1FD3
:0E1FBA00C002C0031207CBD003D002EB70169A
:0C1FC80090E6A37401F00000007B01789B
:051FD400A67602800565
:051FD9007A00022094D3
:031FDE00EB70A302
:061FE100E5084509702A25
:051FE700E5AA20E02541
:071FEC007C007DF08D9A7C62
:081FF300007DF07D008C9B9045
:0E1FFB00E690E0FC8C057C0090E691E0FE7F15
:08200900002CF508EF3DF5097C
:07201100E508450970030218
:022018001F8423
:0E201A00C002C003121ED9E582D003D00270AE
:0120280006B1
:0620290078A67605805246
:0E202F00C002C003121EF3E582D003D002707F
:01203D00069C
:06203E0078A67606803D45
:07204400E50824FEF508E5A4
:06204B000934FFF509ACA9
:042051000BAD0CAE19
:0A2055000DAF0E1CBCFF091DBDFFFE
:06205F00051EBEFF011F7B
:052065008C0B8D0C8EB8
:09206A000D8F0EEC4D4E4F70027B
:022073007B01EF
:06207500E50845097006B4
:06207B0090E6497482F0BA
:0820810078A6B60003021F84DB
:0B2089007B0190E6A37401F0021F84AD
:0A209400C0021208C7D002EA60295A
:07209E00E50FC3950BFAE505
:0520A50010950CFBE5A5
:0520AA0011950DFCE59D
:0520AF0012950EFD8AF0
:0420B4000B8B0C8CFA
:0420B8000D8D0E7804
:0B20BC00A6E64480F67582040207D4FB
:0120C70022F6
:0A20C800E4FAFBF508F5097582043F
:0D20D200C002C0031207ADD00300C003120E
:0D20DF0007CB7582001207D4D003D002ACED
:0420EC000BAD0CAE7E
:0420F0000DAF0E8C96
:0420F4000F8D108EAE
:0920F800118F12EC4D4E4F7002E5
:022101007B0160
:03210300EB600688
:06210600EA600302224D15
:0D210C00C002C00312073FD003D002E4B5AB
:042119000A028046F0
:05211D007401B50A1277
:03212200EA700F51
:0E2125007A01C002C0031207CBD003D00280A3
:012133002F7C
:052134007402B50A254C
:0E213900C002C0031207CBD003D002EB701C13
:0E21470090E6A37401F000000090E6A574017C
:09215500F07B0178A676028005FA
:05215E007A0002224D91
:03216300EB709D81
:06216600E5084509703D8B
:05216C00E5AA20E038A7
:05217100E5AA20E533A2
:072176007C007DF08D9A7CD6
:08217D00007DF07D008C9B7CCD
:06218500007DF88D9D7C39
:08218B00007DF87D008C9E90A0
:0E219300E690E0FC8C057C0090E691E0FE7F7B
:0821A100002CF508EF3DF509E3
:0721A900E50845097003027F
:0221B000210309
:0E21B200C002C003121ED9E582D003D0027015
:0121C0000618
:0621C10078A67605806A95
:0E21C700C002C003121F0DE582D003D00270CB
:0121D5000603
:0621D60078A67606805594
:0821DC00150874FFB508021597
:0121E40009F1
:0521E500AC0BAD0CAED7
:0A21EA000DAF0E1CBCFF091DBDFF68
:0621F400051EBEFF011FE5
:0521FA008C0B8D0C8E22
:0921FF000D8F0EEC4D4E4F7002E5
:022208007B0158
:06220A00E5084509702102
:0D22100090E690E0FC90E698F00000009051
:0C221D00E691E0FC90E699F000000090D3
:08222900E6497482F000000098
:0822310078A6B60003022103A8
:0E22390090E6A37401F000000090E6A5740189
:06224700F07B01022103FF
:0E224D00C0021208C7001208FFD002EA60317A
:07225B00E50FC3950BFAE546
:0522620010950CFBE5E6
:0522670011950DFCE5DE
:05226C0012950EFD8A31
:042271000F8B108C33
:04227500118D128A2B
:042279000B8B0C8C33
:04227D000D8D0E783D
:0B228100A6E644C0F67582080207D4F0
:01228C00222F
:0C228D0085822F7B007C00C003C004127F
:0A2299001ED9E582D004D003700DB9
:0B22A3001207CB78A6760575820002BA
:0222AE0007D453
:0E22B000758204C003C0041207ADD00400C044
:0B22BE00041207CBD004D003E50B4551
:0422C9000C450D456E
:0322CD000E70028E
:0222D0007C018F
:0A22D20090E6F574FFF090E6CEE50B
:0922DC000EF000000090E6CFE5D1
:0922E5000DF000000090E6D0E5C8
:0922EE000CF000000090E6D1E5BF
:0C22F7000BF0C003C004121D72D004D014
:0A2303000390E6D1E0FDE52F601C19
:0E230D0090E6187410F000000090E6D2740103
:07231B00F0000000EC70313E
:07232200F5BB000000802A5A
:0E232900C003C004C00512092AD005D004D09C
:0E2337000390E61A7408F000000090E6E274CD
:0823450002F0000000EC70063C
:06234D0075BB0600000054
:0E235300758200C003C004C0051207D4D00577
:04236100D004D003D1
:03236500EC600623
:06236800EB600302246398
:0E236E00C003C004C00512073FD005D004D044
:07237C0003E4B50A028066CC
:052383007401B50A160B
:03238800EB7013E4
:0E238B007B01C003C004C0051207CBD005D0F3
:0523990004D003804B9D
:05239E007402B50A42C3
:0E23A300C003C004C0051207CBD005D004D083
:0423B10003EC703495
:0523B50078A6E67004AB
:0423BA0078A6760289
:0423BE00E52F60089F
:0823C20090E6A37401F080060F
:0623CA0090E6A57401F08D
:0823D000000000E5BB20E70955
:0923D80000000090E6F574FFF02E
:0423E1007C018004F7
:0423E5007B00807A7F
:0523E900E5BB20E75DEB
:0A23EE0090E6D1E0FEB50502801272
:0E23F800C003C004121D72D004D00390E6D1C1
:04240600E0FD802451
:03240A00308D21F1
:08240D0078A67606E52F6008B1
:0824150090E6A37401F08006BB
:06241D0090E6A57401F039
:0B2423007C0100000090E6F574FFF063
:04242E00E52F600531
:05243200E5AA30E00FF7
:07243700E52F60030223659D
:08243E00E5AA30E50302236565
:05244600D28C022365A9
:06244B00EC6003022365B2
:04245100E52F7009FA
:0924550090E6487406F000000056
:05245E007C0102236572
:0E246300C0031208C7001208FFD003EB70017F
:012471002248
:0C24720090E6CEE0FB7C007D007E008B3D
:05247E0033753000750C
:06248300310075320090EB
:0E248900E6CFE0FF7A007B008A048F03E4FABE
:08249700FF4230EA4231EB4242
:05249F0032EC42339015
:0E24A400E6D0E0FD7E007A008A038E028D06EF
:0924B200E4FD4230EE4231EA4241
:0524BB0032EB423390FA
:0C24C000E6D1E0FCE4FFFAFBE53042044A
:0924CC00E5314207E5324202E568
:0924D500334203E50BC39CFCE556
:0824DE000C9FFFE50D9AFAE5E1
:0624E6000E9BFB8C0B8F26
:0424EC000C8A0D8BBE
:0524F0000EE52F600461
:0424F5007A80800267
:0224F9007A4027
:0B24FB0078A6EA46F67582040207D4BA
:0125060022B2
:052C5700010200000075
:052C5C00010000000072
:052C610001000000006D
:0D25070090E60174FAF090E6F574FFF09094
:0A2514002D0AE493FA90E6F3F0902C
:0A251E002D0BE493FA90E6C3F09051
:0A2528002D0CE493FA90E6C1F09048
:0A2532002D0DE493FA90E6C2F0903C
:0A253C002D0FE493FA90E6C0F09032
:0D2546002D10E493FA90E6F4F075AF077ADB
:06255300667B2C8B9A7AD6
:0A255900667B2C7B008A9B759DE4D5
:05256300759E007A00E6
:03256800BA800036
:02256B00500C12
:0C256D0090E67BE0FB90E67CF00A80EF3B
:0E25790090E67174FFF075B4FF90E672E0FA20
:0E2587004480F043B68000000090E6C4E4F00B
:0E25950000000090E6C5E4F0902CE6E493FA16
:0B25A30090E6C6F0902CE7E493FA905D
:0A25AE00E6C7F0902CE8E493FA90E1
:0A25B800E6C8F0902CE9E493FA90D5
:0A25C200E6C9F0902CEAE493FA90C9
:0A25CC00E6CAF0902CEBE493FA90BD
:0A25D600E6CBF0902CECE493FA90B1
:0A25E000E6CCF0902CEDE493FA90A5
:0325EA00E6CDF04B
:0125ED0022CB
:0E2C660081B9010101010107230302020202EC
:0E2C74000200F7F5F5F5F5F5F5F700000000A4
:0E2C82000000003F0C8A9A3FA5B53F072103D2
:0E2C9000030103030500F3F3F2F3F3F1F3F78E
:0E2C9E003F0000000000003F8191380101015D
:0E2CAC0001070101070202020200F7F5F7F727
:0E2CBA00F7F7F7F7000075000000003F81916A
:0E2CC8003801010101070303050000000000B0
:0E2CD600F3F1F3F3F3F3F3F700006E000000E8
:022CE400003FAF
:0E2CE6000000000000000000000000000000E0
:0E2CF4000000000000000000000000000000D2
:082D02000000000000000000C9
:072D0A00E08000F7FA4E0023
:0725EE0078A4B60202806030
:0725F50078A5B60002801179
:0B25FC001207CB78A6760C7582001247
:0626070007D475820122D8
:05260D0078A4E6701F37
:062612007899E630E311A7
:0B2618001207CB78A676037582001233
:0626230007D475820122BC
:082629007899E64408F68024CC
:0526310078A4B60108C9
:082636007899E654F7F68017CD
:06263E007899E620E3118B
:0B2644001207CB78A676047582001206
:06264F0007D47582012290
:0726550078A4E624FB403BE2
:0A265C0078A4E625E02690266673B8
:072666000226750226750231
:06266D00268002268D020A
:022673002692AD
:0B2675001207CB7582001207D4801BF7
:0D268000902D1B75F08012086375820122F9
:05268D0012269F8009E8
:052692001229B88004CC
:042697007582002226
:03269B0075820144
:01269E002219
:07269F00753400753500756C
:0926A60036007582081207AD121E
:0B26AF0007CB7582001207D4C2809098
:0E26BA00E618E4F000000090E61AE4F00000DC
:0E26C8000090E6027468F000000090E630E436
:0E26D600F000000090E631E4F090E680E0FDB8
:0326E40030E706D6
:0626E7007D007E0280046C
:0426ED007D407E00AE
:0526F1008D378E38AFAB
:0426F6000FAB10AA6C
:0426FA0011AC128588
:0326FE00373985E4
:03270100383A75EE
:082704003B00753C00C3EF959A
:06270C0039EB953AEA9555
:062712003BEC953C502C4D
:052718008F378B38AD86
:0C271D003890E63474C04DF000000090CD
:07272900E635E537F0E4F5A9
:0427300008F509752A
:062734003501750F007570
:06273A001000751100758E
:042740001200807291
:0827440090E680E0FD30E71390
:0E274C0090E63474C8F000000090E635E4F02A
:05275A000000008012E8
:0E275F0090E63474C0F000000090E63574403F
:04276D00F000000078
:0A277100EFC39539FFEB953AFBEA40
:08277B00953BFAEC953CFC8F44
:042783000F8B108A1E
:04278700118C12851A
:03278B000F3D857A
:03278E00103E8575
:03279100113F8570
:052794001240C3EF95A7
:0627990039EB953AEA95C8
:06279F003BEC953C500BE1
:0427A500853D0885E1
:0327A9003E097571
:0427AC00350180066D
:0427B00085370885DC
:0227B4003809E2
:0A27B60090E601E0FA4403F0D28738
:0427C000E536600793
:0727C400E534600302293631
:0727CB0012073FE50A602E32
:0527D2007401B50A0CC2
:0427D700E53470086D
:0827DB001207CB753401801DCB
:0527E3007402B50A12AA
:0727E8001207CBE53670116A
:0A27EF00C28778A6760275360180D5
:0127F90006D9
:0627FA00753400022936CF
:04280000E53670BC8D
:05280400E5AA20E058E8
:0E28090090E690E0FA8A037A00EB3395E0FC4B
:08281700FDE50BC39AF53DE558
:05281F000C9BF53EE5F5
:052824000D9CF53FE5ED
:052829000E9DF5408545
:03282E003D0B85DA
:032831003E0C85D5
:032834003F0D85D0
:03283700400E90C0
:0C283A00E691E0FEE4FFFAFBE53DC39EE2
:0A284600FEE53E9FFFE53F9AFAE52C
:06285000409BFB8E0B8F84
:042856000C8A0D8B50
:07285A000E90E6497402F044
:0B28610090E6A9E0FA20E20302290D36
:0E286C0090E6A5E0FA530270BA300302290D7F
:04287A00E5356015CB
:0C287E00AA0990E63474C04AF000000083
:09288A0090E635E508F0000000BD
:0A28930090E698E538F00000009090
:09289D00E699E537F00000008522
:0328A6000837856B
:0328A9000938E506
:0528AC00084509605C15
:0828B100AA08AB09E4FCFDE5F7
:0928B9000FC39AFAE5109BFBE540
:0828C200119CFCE5129DFD8A4A
:0428CA000F8B108CD4
:0428CE00118D1285D1
:0328D2000F3D8532
:0328D500103E852D
:0328D800113F8528
:0328DB0012409018
:0728DE00E680E0FE30E70692
:0628E5007E007F0280046A
:0428EB007E407F00AC
:0B28EF00EF3395E0FAFBC3E53D9EE5EA
:0628FA003E9FE53F9AE558
:04290000409B50099F
:04290400850F0885AE
:032908001009753E
:02290B00350194
:07290D00E5374538600302C5
:0229140027C0DA
:0B29160090E6A7E0FA20E2030227C0D1
:05292100E50B450C452B
:062926000D450E600302E6
:02292C0027C0C2
:08292E00753601C2870227C0C3
:0E293600C28790E601E054FEF0E0FA4402F0A1
:072944001208C71208FFE5AD
:03294B003460678E
:05294E0078A6E6705CB4
:0729530090E6ACE0FA701100
:07295A0090E6ABE0FA700A01
:05296100E50B450C45EB
:052966000D450E602686
:06296B00E5374538600667
:0629710078A6760A80380A
:0729770090E6B0E0FA7007E2
:07297E0090E6AFE0FA6006ED
:0629850078A6760B802409
:06298B0078A67607801E0D
:06299100E5374538600641
:0629970078A6760880120C
:07299D0090E6AFE0FA7007BD
:0729A40090E6B0E0FA6004C8
:0429AB0078A676098B
:0629AF007582001207D43E
:0229B500D280CE
:0129B70022FD
:0D29B8007A007B007C00C002C003C0041246
:0E29C50007CB7582001207D4D004D003D002D5
:0E29D300C28090E6187410F000000090E61A22
:0D29E1007408F0000000C002C003C0041222
:0E29EE00092AD004D003D00290E60274E8F06B
:0E29FC0000000090E601E0FD4403F0D2879059
:0C2A0A00E630E4F000000090E631E4F05B
:032A1600EA600370
:032A1900EB7063FC
:0E2A1C00C002C003C00412073FD004D003D094
:052A2A0002E50A603C1A
:052A2F007401B50A1658
:032A3400EA701332
:0E2A37007A01C002C003C0041207CBD004D045
:052A450003D002802116
:052A4A007402B50A183A
:0E2A4F00C002C003C0041207CBD004D003D0D5
:042A5D0002EB700A0E
:062A61007C017B018004F2
:042A67007A0080145D
:032A6B00EB70A865
:032A6E00EA60A576
:082A710090E6A7E0FD30E29DB4
:062A79007B01C28780977B
:0E2A7F00C28790E601E054FEF0E0FB4402F056
:0D2A8D00C002C0041208C7D00400C004122B
:092A9A0008FFD004D002EA601B21
:032AA300EC7012C2
:072AA60090E6ABE0FA7007B7
:072AAD0090E6ACE0FA6004C2
:042AB40078A6760783
:062AB8007582001207D434
:022ABE00D280C4
:012AC00022F3
:052D11000102000000BA
:052D16000100000000B7
:052D1B000100000000B2
:0EE10000120100020000004043140500000060
:04E10E000102000109
:0AE112000A060002000000400100B0
:0EE11C0009022E0001010080FA09040000042F
:0EE12A00FF000000070501024000000705810C
:0EE138000240000007050202000200070586F3
:04E1460002000200D1
:0EE14A0009022E0001010080FA090400000401
:0EE15800FF00000007050102400000070581DE
:0EE16600024000000705020240000007058687
:04E174000240000065
:093F0000020575000205A900028A
:083F090005930002060D000201
:083F110005BF0002062B0002AF
:083F1900068500020685000286
:083F210006850002068500027E
:083F2900068500020685000276
:083F310006850002068500026E
:083F3900068500020685000266
:083F410006850002068500025E
:083F4900068500020685000256
:083F510006850002068500024E
:083F5900068500020685000246
:083F610006850002068500023E
:083F6900068500020685000236
:083F710006850002068500022E
:083F7900068500020685000226
:083F810006850002068500021E
:083F8900068500020685000216
:083F910006850002068500020E
:083F9900068500020685000206
:083FA1000685000206850002FE
:083FA9000685000206850002F6
:073FB10006850002068500F1
:082AC100FB7A20E4FCFDFEFF9E
:0E2AC900E5822582F582E58333F583E5F0335F
:0B2AD700F5F0EB33FB4017DAE980421A
:0E2AE200E5822582F582E58333F583E5F03346
:052AF000F5F0EB33FBE3
:0E2AF500EC33FCED33FDEE33FEEF33FFEC95DA
:062B030041ED9542EE9544
:082B090043EF95444013EC95E5
:082B110041FCED9542FDEE953B
:092B190043FEEF9544FF438201E5
:022B2200DABE19
:022B2400EB22A2
:06009C00E478FFF6D8FD38
:08007A007900E94400601B7AE3
:0500820000902D207824
:030087000075A061
:0A008A00E0E493F2A308B8000205B9
:08009400A0D9F4DAF275A0FF17
:0E2B260020F71030F6118883A88220F507F6FC
:052B3400A88375830079
:012B39002279
:032B3A00F280F72F
:022B3D00F02284
:0C2B3F00AAF0FBE5828541F0A4FCADF09B
:0C2B4B00E5838541F0A42DFDE435F0FE8B
:0C2B5700E5828542F0A42DFDE5F03EFE75
:0C2B6300E433FFEA8541F0A42EFEE5F00B
:0C2B6F003FFFE5838542F0A42EFEE5F058
:0C2B7B003FFFE5828543F0A42EFEE5F04C
:0B2B87003FFFEB8541F0A42FFFEA8523
:0A2B920042F0A42FFFE5838543F015
:0C2B9C00A42FFFE5828544F0A42F8EF0EA
:052BA8008D838C8222E8
:0400A20075A00078CD
:0700A60000E8440060077947
:0600AD0000E4F309D8FC99
:0800B3007800E84400600C79BC
:0B00BB000090E000E4F0A3D8FCD9FAAC
:02006B00E4733C
:0E2BAD0090E682E044C0F090E681F04387019C
:062BBB00000000000022F2
:03006D0075814456
:0A007000122BDDE58260030200663A
:0E2BC10020F71430F6148883A88220F507E66A
:062BCF00A88375830022BB
:032BD500E280F7A4
:032BD800E4932261
:022BDB00E022F6
:042BDD0075820022DB
:00000001FF
