:0400000002006D325B
:01000B0032C2
:0100130032BA
:01001B0032B2
:0100230032AA
:01002B0032A2
:0300330002063D85
:01003B003292
:03004300023F0079
:01004B003282
:03005300023F0069
:01005B003272
:0300630002064151
:0300E400020066B1
:050066001200E780FE1E
:0900E700788176007880760090A3
:0E00F000E60B7403F000000000000090E60034
:0E00FE007410F075800075B20675900075B331
:0E010C00FF75B03E75B53F90E67AE0FA44010B
:0B011A00F012247190E60174E2F01274
:0E01250001F990E6097403F0000000758901ED
:09013300000000788276000876D5
:04013C00E17884766C
:05014000120876E178D1
:0501450086761C08761F
:04014A00E17888765A
:0A014E004A0876E1D2E843D8209079
:0E015800E668E0FA4409F090E65CE0FA443D07
:0E016600F0D2AF90E680E0FA54F7F0538EF836
:080174001201B97890E6600762
:07017C001201957890760056
:050183007881E6600731
:070188007881760012264485
:05018F0012064180E0B2
:010194002248
:0A01950090E680E0FA440AF07A00D8
:02019F00DAFE86
:0E01A10090E65D74FFF090E65F74FFF05391FE
:0901AF00EF90E680E0FA54F7F04D
:0101B8002224
:0501B9007880E6601BE8
:0701BE0012027BE5827008CC
:0801C50090E6A0E0FA4401F00D
:0C01CD0090E6A0E0FA4480F07880760014
:0101D9002203
:0E01DA0090E6837401F07421F07411F074311A
:0E01E800F090E6837402F07422F07416F07446
:0201F60036F0E1
:0101F80022E4
:0E01F90090E610E4F000000090E611E4F00043
:0E020700000090E612E4F000000090E613E420
:0D021500F000000090E614E4F000000090FE
:0E022200E615E4F000000090E618E4F000009D
:0E0230000090E619E4F000000090E61AE4F0F9
:0E023E0000000090E61BE4F000000090E610C7
:0E024C0074A0F000000090E61174A0F0000015
:0E025A000090E61274A0F000000090E614740C
:0E026800E0F000000090E68DE4F000000012CF
:0502760008B602087E3D
:0C027B0090E6B9E0FA24F4500302052AD2
:07028700EA2A2A90028E739F
:07028E000203750203FF02E9
:06029500052A0204A90283
:06029B00052A02052A02FB
:0602A10002B202052A0270
:0602A700036002034E0299
:0502AD00032702033CE1
:0A02B20090E6BBE0FABA0102800FEB
:0502BC00BA02028036C9
:0502C100BA0602801BDB
:0502C600BA075A804256
:0902CB00788290E6B308E6F078B1
:0B02D4008286027B0090E6B4EAF00294
:0202DF00052DEB
:0902E100788490E6B308E6F07899
:0B02EA008486027B0090E6B4EAF0027C
:0202F500052DD5
:0902F700788A90E6B308E6F0787D
:0B0300008A86027B0090E6B4EAF0025F
:02030B00052DBE
:09030D00788C90E6B308E6F07864
:0B0316008C86027B0090E6B4EAF00247
:02032100052DA8
:0403230075820022BD
:0803270090E740788FE6F090AA
:0B032F00E68AE4F090E68B7401F00217
:02033A00052D8F
:0A033C0090E6BAE0FA788FA60212EC
:0603460001F91201DA02C8
:02034C00052D7D
:0A034E0090E6BAE0FA788EA60212DB
:0603580001F91201DA02B6
:02035E00052D6B
:0803600090E740788EE6F09072
:0B036800E68AE4F090E68B7401F002DE
:02037300052D56
:0A03750090E6B8E0FABA8002800AB0
:05037F00BA8102801BA1
:05038400BA8274802C18
:0A03890090E740E4F090E741F090A7
:0A039300E68AF090E68B7402F00297
:02039D00052D2C
:0A039F0090E740E4F090E741F09091
:0A03A900E68AF090E68B7402F00281
:0203B300052D16
:0E03B50090E6BCE0FA53027E90E6BCE0FBC38B
:0E03C30074809BE433FB4A90268293FA3395B4
:0E03D100E0FB74A12AFA74E63BFB8A828B8360
:0E03DF00E0FA53020190E740EAF090E741E4B3
:0C03ED00F090E68AF090E68B7402F002BB
:0203F900052DD0
:0403FB0075820022E5
:0703FF0090E6B8E0FA600887
:05040600BA02028012A1
:03040B0002052DBA
:0B040E0090E6BAE0FABA010302052DE7
:0404190075820022C6
:09041D0090E6BAE060030204A5B8
:0E04260090E6BCE0FA53027E90E6BCE0FBC319
:0E04340074809BE433FB4A90268293FA339542
:0E044200E0FB74A12AFA74E63BFB90E6BCE0F6
:0E045000FC53047E90E6BCE0FDC374809DE486
:0E045E0033FD4C90268293FC3395E0FD74A193
:0E046C002CFC74E63DFD8C828D83E0FC530475
:0E047A00FE8A828B83ECF090E6BCE05480FAA0
:0E048800C423541FFA90E6BCE0FB740F5B9097
:0D049600E6832AF090E683E0FA4420F002AD
:0204A300052D25
:0404A500758200223A
:0704A90090E6B8E0FA6005DF
:0504B000BA027A801879
:0A04B50090E6BAE0FABA0102806E88
:0A04BF0090E6BAE0FABA0202806487
:0404C9007582002216
:0E04CD0090E6BCE0FA53027E90E6BCE0FBC372
:0E04DB0074809BE433FB4A90268293FA33959B
:0E04E900E0FB74A12AFA74E63BFB90E6BCE04F
:0E04F700FC53047E90E6BCE0FDC374809DE4DF
:0E05050033FD4C90268293FC3395E0FD74A1EB
:0E0513002CFC74E63DFD8C828D83E0FC4304DD
:09052100018A828B83ECF0800357
:03052A00020A0DB5
:03052D00758201D3
:0105300022A8
:0C053100C0E0C082C083C000788076016A
:09053D005391EF90E65D7401F0AA
:09054600D000D083D082D0E03255
:0E054F00C0E0C082C0835391EF90E65D74045B
:01055D00F0AD
:07055E00D083D082D0E0320F
:0E056500C0E0C082C0835391EF90E65D740247
:01057300F097
:07057400D083D082D0E032F9
:0D057B00C0E0C082C083C002C003C0007891
:0A058800888602088603788AA6021E
:0C05920008A6038A828B83A37402F07811
:0A059E00868602088603788CA60208
:0E05A80008A6038A828B83A37407F05391EF99
:0605B60090E65D7410F0F8
:0D05BC00D000D003D002D083D082D0E03236
:0C05C900C0E0C082C083C00078817601D1
:0905D5005391EF90E65D7408F00B
:0905DE00D000D083D082D0E032BD
:0D05E700C0E0C082C083C002C003C000900D
:0705F400E680E0FA30E72C7D
:0A05FB0078868602088603788AA637
:0D0605000208A6038A828B83A37402F0789A
:0A061200888602088603788CA60291
:0B061C0008A6038A828B83A37407F0FA
:090627005391EF90E65D7420F0A0
:0D063000D000D003D002D083D082D0E032C1
:03063D0053D8EFA0
:010640003287
:0526780001020000005A
:05267D00010000000057
:0A2682000001020203030404050531
:0A00C600789076007891E4F608F6D1
:0C00D00008F608F67895E4F608F608F645
:0800DC0008F67899E4F608F635
:0706410012068DE58260182E
:09064800C2B1120661E582700DD9
:0B065100120782789E7601758200126D
:02065C00078B0A
:02065E00D2B117
:010660002277
:07066100789BB60002801532
:07066800789BB6010280112E
:07066F00789BB60202800D2A
:07067600789BB6040E800919
:03067D0002091659
:0306800002097AF2
:03068300021092D0
:03068600021CEA69
:0306890075820077
:01068C00224B
:05068D00E5BA30E104B4
:04069200758200224B
:07069600789E76007A807B5C
:06069D00E78B9A7A807BD6
:0C06A300E77B008A9B90E67BE0FA7B007E
:0506AF000ABA00010B76
:0E06B40090E68DE0FC7D00EAB50406EBB5058E
:0306C200028011A2
:0B06C500120782789E760175820012F9
:0606D000078B7582002279
:0A06D60090E67BE0FA789BA6029004
:0906E000E67BE0FA789CA602908A
:0B06E900E67BE0FA789DA60275820116
:0106F40022E3
:0506F500E5BA30E1044C
:0406FA00750A00225B
:0C06FE0090E780E0FA7B000ABA00010BD4
:0E070A0090E68DE0FC7D00EAB50406EBB50537
:030718000280114B
:0B071B00120782789E760175820012A2
:06072600078B750AFF229B
:0B072C0090E781E0FA789BE6B5021729
:0A07370090E782E0FAE4BA800104C2
:09074100FA789C8603EB4A60047F
:04074A00750A012209
:06074E0090E781E0700C51
:0807540090E782E0FABA02040A
:04075C00750A0222F6
:03076000750AFF18
:010763002273
:08076400AA827B0B7C007D40A2
:0E076C0090E67BE0FE8B828C838DF01225BD23
:07077A00A3AB82AC83DAEBB4
:010781002255
:0807820090E68DE4F000000098
:01078A00224C
:07078B00AA82E5BA30E20189
:010792002244
:070793007BC07CE78C9D7B1D
:08079A00C07CE77C008B9E90FF
:0807A200E67CEA04F0789E9069
:0707AA00E67CE6F07B0B7C0E
:0507B100007D408A06F6
:0307B600EE6017DB
:0E07B9008B828C838DF0122658FFA3AB82AC8E
:0907C7008390E67CEFF01E80E651
:0A07D00090E68F74022AF00000008A
:0107DA0022FC
:0707DB00AA82E5BA30E20139
:0107E20022F4
:0707E3007BC07CE78C9D7BCD
:0807EA00C07CE77C008B9E90AF
:0807F200E67CEA04F0789E9019
:0407FA00E67CE6F0C3
:0107FE0022D8
:0507FF00E5BA30E20143
:0108040022D1
:0808050090E7C1789EE6F09037
:0C080D00E7C0E0FA90E68F04F000000065
:0108190022BC
:0E081A00AA82AB83ACF090E67BE0FDC002C08A
:0E08280003C004C005120782D005D004D0031F
:07083600D002E5BA30E20137
:01083D002298
:07083E007EC07FE78F9D7E65
:08084500C07FE77F008E9E904A
:0C084D00E67CED04F090E67CE4F08D0603
:03085900EE601737
:0E085C008A828B838CF0122658FFA3AA82ABEF
:09086A008390E67CEFF01E80E6AD
:0A08730090E68F74022DF0000000E3
:01087D002258
:0E087E0090E618E4F000000090E6047480F0AC
:0E088C0000000090E6047402F00000007A0400
:0B089A0090E6497482F0000000DAF5DF
:0E08A50090E604E4F000000090E6A3E4F0000A
:0208B300000043
:0108B5002220
:0E08B60090E61AE4F000000090E6047480F072
:0D08C40000000090E6047406F000000090B3
:0E08D100E604E4F000000090E6A5E4F000006C
:0108DF000018
:0108E00022F5
:0808E10090E680E0FA30E70622
:0608E9007A007B0280048E
:0408EF007A407B00D0
:0E08F30090E624EBF000000090E680E0FA3082
:02090100E70607
:060903007A007B02800473
:040909007A407B00B5
:08090D0090E625EAF00000006D
:0109150022BF
:07091600789CB60202800785
:07091D00789CB60350800531
:05092400120782804D66
:0A092900758204120764120782E5CC
:080933000BF4FAE50CF4FBE5FE
:0A093B000DF4FCE50EF4FD747B2AB8
:0C094500FAE43BFBE43CFCE43DFD8A0BC3
:050951008B0C8C0D8DE4
:050956000E1211FF78F4
:0C095B0091E4F608F608F608F61208B65B
:0B09670012087E75820412078B8004CA
:040972007582002268
:0309760075820186
:01097900225B
:05097A00789CB6021795
:07097F00120782750B0075E1
:060986000C00750D007568
:0A098C000E0075820412078B800430
:040996007582002244
:03099A0075820162
:01099D002237
:0A099E00AA82AB83E5084509700149
:0109A800222C
:0709A900AC14BCE60280055E
:0509B0008B05BDE631DE
:0809B5008A068B07AC13AD1498
:0E09BD008E028F038C828D83E0F88A828B83FA
:0609CB00F00EBE00010F5A
:0509D1000CBC00010D4B
:0809D600150874FFB5080215B5
:0109DE00090F
:0609DF00E508450970D88F
:0109E50022EF
:0C09E6008C9AAC137E008C9B8D9D7B00D6
:0509F2008A9E0209F8D5
:0109F70022DD
:0809F800A90890E67B0586903A
:040A0000E67C058605
:080A0400E00586F00586D9F833
:010A0C0022C7
:0A0A0D0090E6B9E0FABAA202804AAE
:050A1700BAA3028045B6
:060A1C00BAE103020CE048
:060A2200BAE203020CC061
:060A2800BAE303020CC05A
:060A2E00BAE403020CA073
:060A3400BAE503020CA06C
:060A3A00BAE603020BAD59
:060A4000BAE703020BD827
:060A4600BAE803020C20D7
:060A4C00BAE903020C8070
:060A5200BAEA03020C4F9A
:060A5800BAEB03020D00E1
:030A5E00020D2066
:0B0A610090E6BAE0FAA3E0FB8A0B8BE2
:0A0A6C000C90E6BEE0FAA3E0FB9058
:090A7600E6B8E0FCBCC0028003FC
:030A7F00020B1255
:070A8200EA4B7003020D2492
:080A890090E6A0E0FC20E1F87A
:080A910090E6B9E0FCBCA211E3
:0A0A9900750D00750E00C002C003C9
:070AA300120FBED003D002C8
:090AAA00C3EA9440EB94005006ED
:060AB3008A0D8B0E800687
:060AB900750D40750E00F2
:080ABF0090E6B9E0FCBCA20DB9
:0D0AC700C002C003120F11D003D002801A2C
:040AD400850D0885FF
:030AD8000E099074
:040ADB00E740850B60
:030ADF0013850C70
:0C0AE20014C002C00312099ED003D00211
:080AEE0090E68AE4F0AC0DADC6
:080AF6000E90E68BECF0EC25FC
:070AFE000BFEED350CFF8E2D
:0A0B05000B8F0CEAC39CFAEB9DFB7A
:030B0F00020A8255
:0A0B12007899E608467003020BA96B
:0C0B1C0090E6BCE0FCA3E0FD7899E6B593
:090B2800040708E6B5050280028D
:020B31008076CC
:080B330090E6B8E0FCBC406E46
:070B3B00EA4B7003020D24D8
:090B420090E68AE4F090E68BF0E5
:080B4B0090E6A0E0FC20E1F8B7
:0A0B530090E68BE0FC7D008C0D8D18
:090B5D000E90E6B9E0FCBCA31FF8
:040B6600850D08856C
:030B6A000E0985EC
:060B6D000B82850C83756C
:030B7300134075B7
:070B760014E7C002C00312E6
:080B7D00099ED003D002800B99
:0B0B8500C002C003120FBED003D0025C
:060B9000AC0DAD0EEC25DA
:070B96000BFEED350CFF8E94
:0A0B9D000B8F0CEAC39CFAEB9DFBE2
:020BA70080923A
:040BA900758200222F
:0A0BAD0090E6B8E0FABAC002800337
:030BB700020D2408
:080BBA0090E6A0E0FA20E1F84A
:0E0BC20090E7407403F0A3F090E68AE4F09010
:080BD000E68B7402F0020D2413
:0A0BD80090E6B8E0FABAC00280030C
:030BE200020D24DD
:080BE50090E6A0E0FA20E1F81F
:0E0BED0090E7407405F0A3E4F0A3F0A3F090AD
:0B0BFB00E744E4F5F01225BDA3E4126E
:0A0C060025BDA3E41225BDA3E412EE
:080C100025BD90E68AE4F09096
:080C1800E68B7408F0020D24C4
:080C200090E6B8E0FABA4023A7
:090C280090E68AE4F090E68BF0FE
:080C310090E6A0E0FA20E1F8D2
:0C0C390090E740E0FAA3E0FB7899A602E7
:060C450008A603020D24C5
:040C4B00758200228C
:080C4F0090E6B8E0FABA402576
:070C57007899E60846601ED3
:0C0C5E0090E6BCE0FAA3E0FB7899E6B554
:090C6A00020708E6B5030280024E
:020C73008007F8
:070C750078907601020D24C6
:040C7C00758200225B
:070C8000750BF0750C3F75C8
:060C87000D04750E00755E
:060C8D000FCD7510AB90C5
:070C9300E6B8E0FABAC00365
:030C9A00020D2820
:030C9D00020E4103
:070CA000750BE0750C3F75B8
:060CA7000D0C750E007536
:060CAD000F78751056904F
:070CB300E6B9E0FABAE40320
:030CBA00020D2800
:030CBD00020E41E3
:070CC000750BC0750C3F75B8
:060CC7000D10750E007512
:060CCD000FCD7510AB9085
:070CD300E6B9E0FABAE20302
:030CDA00020D28E0
:030CDD00020E41C3
:070CE000750BA0750C3F75B8
:060CE7000D1C750E0075E6
:060CED000FCD7510AB9065
:070CF300E6B8E0FABAC00305
:030CFA00020D28C0
:030CFD00020E41A3
:070D0000750BF8750C3F753F
:060D07000D02750E0075DF
:060D0D000FCD7510AB9044
:070D1300E6B8E0FABAC003E4
:030D1A00020D289F
:030D1D00020E4182
:040D200075820022B6
:030D2400758201D4
:010D270022A9
:0C0D28007AFF90E6B8E0FBBBC00280043C
:040D340075820022A2
:050D3800AB0DAC0E75CF
:0A0D3D000D00750E00C002C003C0D7
:0E0D470004120FBED004D003D00274032BFBA5
:0A0D5500E43CFC8B0D8C0EC0021272
:0A0D5F000F11D002E50D24FDFBE5A5
:070D69000E34FFFC8B0D8C22
:0B0D70000E90E740E0FBA3E0FCEBB5B9
:060D7B000F48ECB5104426
:040D81007A007B0079
:0A0D85007403250DFCE4350EFD8B10
:0A0D8F00067F00C3EE9CEF9D502C80
:0A0D9900EB2440F582E434E7F58313
:0A0DA300E0FC2AFAEB2440FCE434E3
:0A0DAD00E7FD74022B2440F582E4F8
:0C0DB70034E7F583E0FE8C828D83F00BA6
:020DC30080C0EE
:030DC500EA60647D
:040DC800850D088508
:030DCC000E09907D
:090DCF00E6B9E0FABAE102803451
:050DD800BAE202803DBB
:050DDD00BAE4028005EC
:050DE200BAE94380178F
:020DE7007A0090
:030DE900BA0C0041
:020DEC00503E77
:0A0DEE00EA2440F582E434E7F583BF
:060DF8007430F00A80EBEC
:050DFE0090E7407513B1
:030E0300967514CD
:060E06002612099E802067
:050E0C0090E7407513A2
:030E11009A7514BB
:060E14002612099E801267
:050E1A0090E740751394
:030E1F00B6751491
:060E22002612099E800467
:040E280075820022AD
:0C0E2C0090E68AE4F000000090E68BE500
:080E38000DF0000000758201BD
:010E4000228F
:080E410090E6B8E0FABA401C8B
:070E49007899E608466015E8
:0C0E500090E6BCE0FAA3E0FB7899E6B560
:090E5C00020708E6B50302800458
:040E65007582002270
:090E690090E68AE4F090E68BF0BB
:080E720090E6A0E0FA20E1F88F
:070E7A0090E68AE0FA701413
:050E8100AA0DAB0E906C
:0E0E8600E68BE0FC7D00B50206EDB5030280B0
:010E94000459
:040E95007582002240
:060E99008A15AD158D065F
:060E9F008E071EEF602526
:0C0EA500C002C00374022E2440FFE4349D
:090EB100E7FCEE2440F582E43474
:0C0EBA00E7F583E0FA8F828C83F0D00310
:040EC600D00280D501
:080ECA0090E740E50FF0A3E5FD
:050ED20010F07C407EE1
:0A0ED700E78E9A759B407C007402C0
:030EE1002515FDD7
:090EE40090E67BE0FE2CFCDDF73A
:0A0EED00740225152440F582E43458
:0C0EF700E7F583C3E49CFCF074032AFAC6
:080F0300E43BFB8A0D8B0E128A
:050F0B000FBE7582011C
:010F100022BE
:050F1100E50DFA70047B
:040F160075820122BD
:080F1A0090E678E0FB20E6F808
:0C0F220090E6787480F090E67974A3F0FB
:080F2E0090E678E0FB30E0F8EA
:080F360090E678E0FB20E27474
:080F3E0090E678E0FB30E16C65
:030F4600BA0108E5
:080F490090E678E0FB4420F083
:070F510090E679E07B407C93
:060F5800E78C9A7B407C4F
:050F5E00E77C008B9B05
:040F6300DA02802608
:080F670090E678E0FB30E0F8B1
:080F6F0090E678E0FB20E23B74
:030F7700BA0108B4
:080F7A0090E678E0FB4420F052
:0B0F820090E679E0FB90E67BF080D663
:080F8D0090E678E0FA30E0F88C
:080F950090E678E0FA20E21575
:0E0F9D0090E678E0FA4440F090E679E0FA90B1
:070FAB00E67BF075820122D4
:0B0FB20090E678E0FA4440F075820001
:010FBD002211
:020FBE00AA0D7A
:080FC00090E678E0FB20E6F862
:0C0FC80090E6787480F090E67974A2F056
:080FD40090E678E0FB30E0F844
:080FDC0090E678E0FB20E26BD7
:080FE40090E678E0FB30E163C8
:030FEC00EA600EAA
:070FEF007B407CE78C9A7B3C
:070FF600407CE77C008B9BAF
:020FFD007B0275
:030FFF00EA700392
:03100200EB603B65
:03100500EB601489
:03100800BB020820
:08100B0090E679E50CF0800687
:0610130090E679E50BF008
:031019001B800A2F
:0A101C0090E67BE0FC90E679F01A04
:0810260090E678E0FC30E0F8F0
:08102E0090E678E0FC20E219D5
:0810360090E678E0FC20E1C126
:02103E00800F21
:0E10400090E678E0FA4440F012105B758201F1
:01104E00227F
:0B104F0090E678E0FA4440F075820063
:01105A002273
:08105B0090E678E0FA20E6F8C7
:0E10630090E678E0FA4480F090E67974A2F00E
:0810710090E678E0FA30E0F8A7
:0810790090E678E0FA4440F033
:0810810090E678E0FA20E6F8A1
:0810890090E678E0FA30E1D2B4
:01109100223C
:05268C00010200000046
:05269100010000000043
:0426960004022030EA
:0E269A0055534232204D6F64756C6500000090
:0E26A800FDFDFDFD0000000000007E797F04B6
:0E26B600444D6F62557362000000FDFDFDFD96
:0226C400000014
:07109200789CB602028060A9
:07109900789DB600028011F2
:0B10A000120782789E760C7582001209
:0610AB00078B7582012293
:0510B100789CE6701FB1
:0610B6007891E630E01124
:0B10BC00120782789E760375820012F6
:0610C700078B7582012277
:0810CD007891E64401F680244D
:0510D500789CB6010843
:0810DA007891E654FEF6801740
:0610E2007891E620E01108
:0B10E800120782789E760475820012C9
:0610F300078B758201224B
:0A10F900789CE624F450030211E98C
:0A110300789CE625E02690110D739C
:07110D000211310211410241
:0611140011510211E90275
:06111A00115E02117702D4
:0611200011AB0211E20216
:0611260011D40211D402F5
:05112C0011DB0211D4EB
:0A1131001211ED1207827582001200
:06113B00078B7582012202
:0A1141001211FF12078275820012DE
:06114B00078B75820122F2
:0D1151009026C675F08012081A75820122E2
:07115E00120782750B0075FA
:061165000C6A750D1875FF
:0C116B000E0075820412078B75820122B1
:0711770090E67BE0FA600442
:04117E00D285800294
:02118200C28524
:0711840090E67BE0FA600435
:04118B00D283800289
:02118F00C28319
:0711910090E67BE0FA600428
:04119800D286800279
:02119C00C28609
:0D119E0012078275820012078B75820122F4
:0C11AB00120782A285E433FA8A0BA283AB
:0B11B700E433FA8A0CA284E433FA8AC5
:0A11C2000DA286E433FA8A0E75824E
:0811CC000412078B7582012259
:0711D400121586758201224D
:0711DB0012198D758201223B
:0711E20012120B75820122BD
:0311E9007582000C
:0111EC0022E0
:0E11ED0043B20843B22043B240D282C283D242
:0311FB0085C28624
:0111FE0022CE
:0B11FF00C28253B297C283D285C28621
:01120A0022C1
:0526C60001020000000C
:0526CB00010000000009
:0B120B007A007B0090E67BE0FC6004B2
:04121600D2858002FB
:02121A00C2858B
:07121C0090E67BE0FC60049A
:04122300D2838002F0
:02122700C28380
:0E122900C286758204C002C003120764D0039F
:0E12370000C00312078275820012078BD003DD
:07124500D002AC0BAD0CAEB2
:04124C000DAF0E8C48
:041250000F8D108E60
:09125400118F12EC4D4E4F700297
:02125D007B0113
:03125F00EB60063B
:06126200EA600302131212
:0D126800C002C0031206F5D003D002E4B5A9
:041275000A028030B9
:051279007401B50A0F2D
:0E127E007A01C002C003120782D003D00280A2
:01128C001C45
:05128D007402B50A1314
:0B1292007B01789E7602C002C00312B0
:08129D000782D003D002800497
:0412A5007A008069E2
:0312A900EB70B334
:0512AC00AC0BAD0CAE1F
:0A12B1000DAF0EC3ED9404EE94009F
:0512BB00EF9400500655
:0612C0008C088D09800678
:0612C60075080075090423
:0812CC00AC08AD09E4FEFFE5EA
:0912D4000BC39CFCE50C9DFDE53B
:0812DD000D9EFEE50E9FFF8C43
:0412E5000B8D0C8ED3
:0312E9000D8F0E58
:0A12EC00D28600C286150874FFB513
:0412F60008021509CC
:0612FA00E508450970EC57
:05130000E50B450C4562
:061305000D450E6003021D
:02130B00125F6F
:05130D007B0102125FEC
:03131200EA602965
:07131500E50FC3950BFAE59B
:05131C0010950CFBE53B
:0513210011950DFCE533
:0513260012950EFD8A86
:04132B000B8B0C8C90
:04132F000D8D0E789A
:0B1333009EE64480F675820402078BE2
:01133E00228C
:08133F00A908AA09E960010AEE
:0313470090E67BB2
:0E134A00E0139283D286C286139283D286C2AB
:0E13580086139283D286C286139283D286C2F7
:0E13660086139283D286C286139283D286C2E9
:0E13740086139283D286C286139283D286C2DB
:0513820086D9C5DAC3A5
:011387002243
:08138800A908AA09E960010AA5
:0A13900090E67B058690E67C05865A
:0E139A00E0139283A28413D286C2869283A2AD
:0E13A8008413D286C2869283A28413D286C298
:0E13B600869283A28413D286C2869283A2847A
:0E13C40013D286C2869283A28413D286C2867A
:0E13D2009283A28413D286C2869283A28413D1
:0D13E000D286C2860586F00586D9AFDAAD4B
:0113ED0022DD
:0813EE00A908AA09E960010A3F
:0313F60090E67C02
:0E13F900A284D286C28613A284D286C2861334
:0E140700A284D286C28613A284D286C2861325
:0E141500A284D286C28613A284D286C2861317
:0E142300A284D286C28613A284D286C2861309
:05143100F0D9C2DAC091
:011436002293
:08143700A908AA09E960010AF5
:03143F0090E67BB9
:0E144200E0139285D286C286139285D286C2AE
:0E14500086139285D286C286139285D286C2FA
:0E145E0086139285D286C286139285D286C2EC
:0E146C0086139285D286C286139285D286C2DE
:05147A0086D9C5DAC3AC
:01147F00224A
:08148000A908AA09E960010AAC
:0A14880090E67B058690E67C058661
:0E149200E0139285A28413D286C2869285A2B0
:0E14A0008413D286C2869285A28413D286C29D
:0E14AE00869285A28413D286C2869285A2847D
:0E14BC0013D286C2869285A28413D286C2867F
:0E14CA009285A28413D286C2869285A28413D4
:0D14D800D286C2860586F00586D9AFDAAD52
:0114E50022E4
:0814E600A908AA09E960010A46
:0314EE0090E67B0A
:0E14F100E0139283139285D286C286139283F3
:0E14FF00139285D286C286139283139285D2F1
:0E150D0086C286139283139285D286C286D937
:03151B00D5DAD34B
:01151E0022AA
:08151F00A908AA09E960010A0C
:0A15270090E67B058690E67C0586C1
:021531007C023A
:0E153300E0139283139285FBE8A28413F8EB79
:0E154100D286C286139283139285FBE8A284A1
:0E154F0013F8EBD286C286139283139285FBAB
:0E155D00E8A28413F8EBD286C28613928313A1
:0E156B009285FBE8A28413F8EBD286C286DCE0
:0C157900B9E80586F0058619D9AEDAAC99
:011585002243
:0715860075170075190075CF
:07158D001A00789CB6082A41
:0815940075170190E67BE0F5FC
:08159C001690E67BE0FE6004FE
:0415A400D28580026A
:0215A800C285FA
:0415AA00E5166008DA
:0415AE00751B8875AC
:0415B2001C13805A2C
:0415B600751B3F75ED
:0415BA001C1380522C
:0515BE00789CB6092530
:0A15C30075160190E67BE0FC600461
:0415CD00D285800241
:0215D100C285D1
:0715D30090E67BE0FC6004E0
:0415DA00D283800236
:0215DE00C283C6
:0415E000751BEE7514
:0415E4001C1380282C
:0815E80075170190E67BE0F5A8
:0815F0001690E67BE0FC6004AC
:0415F800D283800218
:0215FC00C283A8
:0415FE00E516600886
:04160200751B80755F
:041606001C1480062A
:04160A00751B3775A0
:02160E001C14AA
:0D16100075820412076412078275820012B1
:04161D00078B850BA7
:031621001D850C18
:031624001E850D13
:031627001F850E0E
:03162A0020851DFB
:03162D000F851E08
:0316300010851F03
:03163300118520FE
:0A163600127407551DFD7A007B00B9
:071640007C008D18AA1DE5D6
:0C1647001EC423CAC423541F6ACA541FC7
:0C165300CA6ACAFBE51FC42354E04BFB2D
:0A165F00AC1FE520C423CCC42354C3
:0C1669001F6CCC541FCC6CCCFE8A0B8B89
:041675000C8C0D8E3E
:051679000EE518601DE4
:05167E00AA0BAB0CAC4F
:0A1683000DAE0E0ABA00090BBB0001
:06168D00050CBC00010E7B
:051693008A0B8B0C8C9A
:031698000D8E0EA6
:05169B00E50F451045BC
:0516A00011451270036A
:0316A500751901B3
:0216A800C286F8
:0416AA00E5196007D7
:0716AE00E51A60030218A019
:0716B5001206F5E50A602CA6
:0516BC007401B50A0CE9
:0416C100E51A7008AE
:0816C500751A01120782801B57
:0516CD007402B50A10D3
:0716D200120782E519700FF9
:0916D900789E7602751901800665
:0616E200751A000218A0B9
:0416E800E51760059D
:0516EC00E5AA20E0B9B1
:0416F100E516600595
:0516F500E5AA20E5B0AC
:0416FA00E51970ACD2
:0416FE00E517600E7E
:071702007A007BF08B9A7A5C
:07170900007BF07B008A9BCE
:04171000E516600E6C
:071714007A007BF88B9D7A3F
:07171B00007BF87B008A9EB1
:04172200E51760194E
:0E17260090E690E0FA8A037A0090E691E0FCEB
:0A1734007E004AF508EE4BF509802F
:01173E005456
:04173F00850B218570
:031743000C2285F0
:031746000D2385EB
:031749000E2490DB
:07174C00E680E0FF30E70634
:061753007A007B02800415
:041759007A407B0057
:0C175D008A07EBFD3395E0FAFBC3EF9523
:0617690021ED9522EA9536
:06176F0023EB9524501845
:0817750090E680E0FA30E7067F
:06177D007A007B028004EB
:041783007A407B002D
:061787008A088B098006B0
:04178D008521088525
:0217910022092B
:08179300AA08AB09E4FCFDE526
:09179B000BC39AFAE50C9BFBE577
:0817A4000D9CFCE50E9DFD8A81
:0417AC000B8B0C8C0B
:0417B0000D8D0EE5A8
:0317B400186013A7
:0517B700E50B450C45A7
:0517BC000D450E70094F
:0817C100150874FFB5080215BC
:0117C9000916
:0617CA00E5084509600975
:0717D000851B82851C8312BA
:0217D700006BA5
:0717D900E518700302186A15
:0517E000E50B450C457E
:0617E5000D450E60030239
:0217EB00186A7A
:0617ED00AA18E517700BBD
:0317F3003083043C
:0417F6007BFF8002F3
:0217FA007B0072
:0217FC00800566
:0517FE0090E67BE0FB1A
:05180300789CB60B1DEE
:021808008A0450
:0B180A00EBA2E09285C313FB308405C5
:05181500430380800385
:03181A0053037FF6
:06181D00D286C286DCE762
:0218230080192A
:0B182500EBA2E09283C313FB308405AC
:0518300043038080036A
:0318350053037FDB
:06183800D286C286DAE749
:04183E00E516601D2E
:0C184200AD187A007408C39DFDE49AFA0A
:07184E008DF005F0EB8002B4
:02185500C313BB
:08185700D5F0FBFB90E67CF0EC
:07185F007518000508E4B54F
:041866000802050966
:04186A00E517600915
:09186E0090E6497482F0000000CC
:04187700E516601200
:0A187B0090E698E509F000000090E7
:08188500E699E508F0000000FF
:05188D00E50B450C45D0
:061892000D450E6003028B
:0218980016AA8E
:06189A007519010216AAF7
:0718A00012087E1208B6E5F4
:0418A7001A70012290
:0418AB00E518601DBF
:0518AF00AA0BAB0CAC1C
:0A18B4000DAD0E1ABAFF091BBBFFB1
:0618BE00051CBCFF011D2A
:0518C4008A0B8B0C8C67
:0318C9000D8D0E74
:0418CC00850D23E57E
:0A18D0000EC40354F8C523C403C579
:0418DA00236523C59A
:0618DE002354F8C5236548
:0418E40023F524E5DF
:0818E8000CC40354074523F56D
:0318F00023850B42
:0818F30021E50CC40354F8C503
:0618FB0021C403C52165B4
:0619010021C52154F8C5C8
:04190700216521F540
:03190B0022852111
:03190E000B852224
:031911000C85231F
:031914000D85241A
:091917000EAE18E4FFFAFBEE2508
:0819200021FEEF3522FFEA353C
:0719280023FAEB3524FB8ECE
:04192F000B8F0C8A84
:041933000D8B0EE525
:091937000FC39EFEE5109FFFE5C1
:08194000119AFAE5129BFB8EDF
:041948000F8F108A63
:04194C00118B128E5B
:041950000B8F0C8A63
:041954000D8B0EE504
:0319580017600411
:04195B007A8080020C
:02195F007A000C
:04196100E516600423
:041965007B40800241
:021969007B0001
:0A196B00EB4A789E46F6E51760048B
:041975007A0480026E
:021979007A00F2
:04197B00E516600409
:04197F007B04800263
:021983007B00E7
:07198500EB2AF58202078B3B
:01198C002238
:07198D0075260075270075A7
:07199400280090E67BE0F55E
:08199B00257582041207641295
:0919A300078275820012078B8592
:0319AC000B2B857D
:0319AF000C2C8578
:0319B2000D2D8573
:0319B5000E2E856E
:0319B8002B0F856D
:0319BB002C108568
:0319BE002D118563
:0319C1002E12E5FE
:0419C4002B452C453E
:0519C8002D452E700307
:0319CD007527017A
:0C19D0007407552BFAE4FDFBFC740325A2
:0819DC002BFBE4352CFCE43583
:0719E4002DFDE4352EFE8B02
:0419EB000B8C0C8DC8
:0A19EF000DEEF50EC313FEED13FD1F
:0E19F900EC13FCEB13FBEEC313FEED13FDEC41
:0A1A070013FCEB13FB8B0B8C0C8D12
:041A11000D8E0EE543
:031A150025600841
:041A180075291F7598
:041A1C002A15800601
:041A20007529E675C9
:021A24002A1482
:021A2600C28676
:041A2800E527600747
:071A2C00E5286003021C29FC
:0B1A3300C0021206F5D002E50A603484
:051A3E007401B50A105F
:041A4300E528700C16
:0C1A4700752801C002120782D002801F27
:051A53007402B50A1445
:0B1A5800C002120782D002E527700FC9
:091A6300789E76027527018006C9
:061A6C00752800021C2990
:051A7200E5AA20E0B12F
:041A7700E5256005FC
:051A7B00E5AA20E5A82A
:041A8000E52770A442
:071A84007D007EF08E9A7DCB
:081A8B00007EF07E008D9BE55A
:031A9300256012B9
:041A9600E526700EC3
:071A9A007D007EF88E9D7DAA
:071AA100007EF87E008D9E1F
:0E1AA80090E690E0FD8D067D0090E691E0FF57
:0A1AB6007B002DF508EB3EF509ABAF
:071AC00008AC09E4FDFEE59E
:091AC7000BC39BFBE50C9CFCE544
:081AD0000D9DFDE50E9EFE8B4D
:041AD8000B8C0C8DDA
:061ADC000D8E0EEA602CE5
:051AE200E50B450C4579
:051AE7000D450E702208
:0E1AEC008A03FC74032BFBE43CFCA2E713CB43
:0C1AFA0013CBA2E713CB13CBFCE508C311
:071B06009BF508E5099CF5C1
:011B0D0009CE
:061B0E00E5084509600D29
:091B1400C002852982852A831292
:041B1D00006BD00287
:061B2100EA7003021BA69E
:051B2700E50B450C4533
:051B2C000D450E70756F
:091B31007B0090E67BE0FC7D00E6
:051B3A00C3ED9A5023E9
:031B3F00BD0405DD
:051B420090E67BE0FCD1
:0E1B4700ECA2E09283C313FCA2E09285C313CC
:061B5500FCEBA28413FB6F
:071B5B00D286C2860D80D87E
:041B6200E525601CF9
:0E1B66008A047D007408C39CFCE49DFD8CF095
:051B740005F0EB80020A
:021B7900C31394
:071B7B00D5F0FB90E67CF0C1
:0E1B82008A037C0074032BFBE43CFCA2E713F7
:0C1B9000CB13CBA2E713CB13CBFCEB254F
:051B9C0008F508EC351E
:051BA10009F5097A00BE
:041BA600E52560636E
:051BAA00E50B450C45B0
:051BAF000D450E60046D
:041BB400E526605270
:071BB8000508E4B508020571
:011BBF00091C
:081BC000E509C313C50813C5B4
:041BC80008F509E52E
:031BCC002660246C
:081BCF0090E680E0FB30E70620
:061BD7007B007C0280048B
:041BDD007B407C00CD
:0C1BE100ECA2E713CB13CBFCEB2508F5BE
:051BED0008EC3509F5CC
:011BF20009E9
:0A1BF30090E698E509F0000000906C
:091BFD00E699E508F0000000750E
:041C06002600800331
:031C0A007526013B
:0C1C0D0090E6497482F0000000E50B45F1
:041C19000C450D4524
:061C1D000E6003021A280C
:061C2300752701021A28DA
:0C1C2900C00212087E001208B6D002E5CE
:041C350028700122F0
:0A1C3900E50B25E0FBE50C33FCE5AC
:0A1C43000D33FDE50E33FEEB2BFB25
:0C1C4D00EC33FCED33FDEE33FE8B0B8C12
:041C59000C8D0D8E53
:041C5D000EEA603DEE
:041C6100EA30E21D66
:051C6500AB0BAC0CAD5F
:0A1C6A000DAE0E1BBBFF091CBCFFF2
:061C7400051DBDFF011E6D
:051C7A008B0B8C0C8DAA
:031C7F000D8E0EB9
:0A1C8200E4FBFCFDEA250BFAEB354C
:081C8C000CFBEC350DFCED35FD
:051C94000EFD8A0B8B20
:041C99000C8C0D8D15
:011C9D000E38
:071C9E00E50FC3950BFAE509
:051CA50010950CFBE5A9
:051CAA0011950DFCE5A1
:051CAF0012950EFD8AF4
:041CB4000F8B108CF6
:041CB800118D128AEE
:041CBC000B8B0C8CF6
:041CC0000D8D0EE593
:031CC40025700880
:051CC700F50FF510F51A
:031CCC0011F512FD
:0C1CCF00789EE644C0F675820802078B80
:011CDB0022E6
:0526D000010200000002
:0526D5000100000000FF
:0A1CDC00C28CC28D789F868A789F23
:031CE60008868CE1
:011CE90022D8
:071CEA00789CB60202806045
:071CF100789DB6000280118E
:0B1CF800120782789E760C75820012A5
:061D0300078B758201222E
:051D0900789CE6701F4C
:061D0E007891E630E211BD
:0B1D1400120782789E76037582001291
:061D1F00078B7582012212
:081D25007891E64404F68024E5
:051D2D00789CB60108DE
:081D32007891E654FBF68017DE
:061D3A007891E620E211A1
:0B1D4000120782789E76047582001264
:061D4B00078B75820122E6
:0A1D5100789CE624F85003021E3BC4
:0A1D5B00789CE625E026901D6573D4
:071D6500021D7D021D7D023D
:061D6C001D8F021D9C0208
:061D72001E21021E2902E1
:051D78001E31021E36C1
:0C1D7D00120782789FE4F608F6758200D9
:061D890012078B021E3F51
:0D1D8F009026DF75F08012081A758201227F
:0A1D9C0075820412076412078275B5
:061DA60034FAE4F535F506
:041DAC0036F537854C
:061DB0000B82850C838507
:051DB6000DF0E50E1226
:0C1DBB002558AA82AB83ACF0FD8A0B8B8C
:041DC7000C8C0D8DE6
:071DCB000EEC7003ED600C4B
:071DD200750BFF750CFF7596
:051DD9000D00750E0075
:091DDE00E50BF4FAE50CF4FBE559
:081DE7000DF4FCE50EF4FD789B
:081DEF009FA60208A603850B64
:031DF70034850C24
:031DFA0035850D1F
:031DFD0036850E1A
:0C1E0000379000FAE4F5F01225D6AA8213
:0A1E0C00AB83ACF0FD8A0B8B0C8C4D
:071E16000D8D0E7582041210
:041E1D00078B801E91
:081E21007582011221F7801601
:081E29007582001221F7800E02
:051E3100121EB3800940
:051E36001220328004BF
:041E3B00758200228A
:031E3F00758201A8
:011E4200227D
:0E1E430090E6F3E0FA4480F000000090E67BA9
:0C1E5100E0FA90E6F1F0000000021E93A1
:0E1E5D0090E6F3E0FA547FF000000090E67B80
:0C1E6B00E0FA90E6F1F0000000021E9387
:0B1E770090E6F1E0121E93E582600D82
:0D1E820090E6F2E0FA90E67CF07582012215
:031E8F0075820059
:011E9200222D
:051E9300121CDCD28CE2
:051E9800E5BB20E7039B
:031E9D00308DF88D
:051EA000E5BB30E70482
:041EA500758201221F
:091EA90090E6F574FFF07582006B
:011EB200220D
:0A1EB300E4FAFBF508F50975820456
:0D1EBD00C002C003120764D00300C003126E
:0D1ECA00078275820012078BD003D002AC96
:041ED7000BAD0CAE95
:041EDB000DAF0E8CAD
:041EDF000F8D108EC5
:091EE300118F12EC4D4E4F7002FC
:021EEC007B0178
:031EEE00EB6006A0
:061EF100EA6003021FFE7F
:0D1EF700C002C0031206F5D003D002E4B50E
:041F04000A0280400D
:051F08007401B50A128E
:031F0D00EA700F68
:0E1F10007A01C002C003120782D003D0028003
:011F1E002999
:051F1F007402B50A1F69
:0E1F2400C002C003120782D003D002EB701679
:0C1F320090E6A37401F00000007B017831
:051F3E009E7602800503
:051F43007A00021FFE00
:031F4800EB70A398
:061F4B00E5084509702ABB
:051F5100E5AA20E025D7
:071F56007C007DF08D9A7CF8
:081F5D00007DF07D008C9B90DB
:0E1F6500E690E0FC8C057C0090E691E0FE7FAB
:081F7300002CF508EF3DF50913
:071F7B00E5084509700302AF
:021F82001EEE51
:0E1F8400C002C003121E43E582D003D00270DB
:011F92000648
:061F9300789E76058052E5
:0E1F9900C002C003121E5DE582D003D00270AC
:011FA7000633
:061FA800789E7606803DE4
:071FAE00E50824FEF508E53B
:061FB5000934FFF509AC40
:041FBB000BAD0CAEB0
:0A1FBF000DAF0E1CBCFF091DBDFF95
:061FC900051EBEFF011F12
:051FCF008C0B8D0C8E4F
:091FD4000D8F0EEC4D4E4F700212
:021FDD007B0186
:061FDF00E508450970064B
:061FE50090E6497482F051
:081FEB00789EB60003021EEE11
:0B1FF3007B0190E6A37401F0021EEEDB
:0A1FFE00C00212087ED002EA60293A
:07200800E50FC3950BFAE59B
:05200F0010950CFBE53B
:0520140011950DFCE533
:0520190012950EFD8A86
:04201E000B8B0C8C90
:042022000D8D0E789A
:0B2026009EE64480F675820402078BE2
:01203100228C
:0A203200E4FAFBF508F509758204D5
:0D203C00C002C003120764D00300C00312ED
:0D204900078275820012078BD003D002AC15
:042056000BAD0CAE14
:04205A000DAF0E8C2C
:04205E000F8D108E44
:09206200118F12EC4D4E4F70027B
:02206B007B01F7
:03206D00EB60061F
:06207000EA60030221B743
:0D207600C002C0031206F5D003D002E4B58D
:042083000A02804687
:052087007401B50A120E
:03208C00EA700FE8
:0E208F007A01C002C003120782D003D0028083
:01209D002F13
:05209E007402B50A25E3
:0E20A300C002C003120782D003D002EB701CF3
:0E20B10090E6A37401F000000090E6A5740113
:0920BF00F07B01789E7602800599
:0520C8007A000221B7BF
:0320CD00EB709D18
:0620D000E5084509703D22
:0520D600E5AA20E0383E
:0520DB00E5AA20E53339
:0720E0007C007DF08D9A7C6D
:0820E700007DF07D008C9B7C64
:0620EF00007DF88D9D7CD0
:0820F500007DF87D008C9E9037
:0E20FD00E690E0FC8C057C0090E691E0FE7F12
:08210B00002CF508EF3DF50979
:07211300E508450970030215
:02211A00206D36
:0E211C00C002C003121E43E582D003D0027041
:01212A0006AE
:06212B00789E7605806A33
:0E213100C002C003121E77E582D003D00270F8
:01213F000699
:06214000789E7606805532
:08214600150874FFB50802152D
:01214E000987
:05214F00AC0BAD0CAE6D
:0A2154000DAF0E1CBCFF091DBDFFFE
:06215E00051EBEFF011F7B
:052164008C0B8D0C8EB8
:092169000D8F0EEC4D4E4F70027B
:022172007B01EF
:06217400E5084509702199
:0D217A0090E690E0FC90E698F000000090E8
:0C218700E691E0FC90E699F0000000906A
:08219300E6497482F00000002F
:08219B00789EB6000302206DDE
:0E21A30090E6A37401F000000090E6A5740120
:0621B100F07B0102206D2D
:0E21B700C00212087E001208B6D002EA6031A3
:0721C500E50FC3950BFAE5DD
:0521CC0010950CFBE57D
:0521D10011950DFCE575
:0521D60012950EFD8AC8
:0421DB000F8B108CCA
:0421DF00118D128AC2
:0421E3000B8B0C8CCA
:0421E7000D8D0E78D4
:0B21EB009EE644C0F675820802078BD8
:0121F60022C6
:0C21F70085822F7B007C00C003C0041216
:0A2203001E43E582D004D003700DE5
:0B220D00120782789E760575820002A1
:02221800078B32
:0E221A00758204C003C004120764D00400C023
:0B22280004120782D004D003E50B4530
:042233000C450D4504
:032237000E700224
:02223A007C0125
:0A223C0090E6F574FFF090E6CEE5A1
:092246000EF000000090E6CFE567
:09224F000DF000000090E6D0E55E
:092258000CF000000090E6D1E555
:0C2261000BF0C003C004121CDCD004D041
:0A226D000390E6D1E0FDE52F601CB0
:0E22770090E6187410F000000090E6D274019A
:07228500F0000000EC7031D5
:07228C00F5BB000000802AF1
:0E229300C003C004C0051208E1D005D004D07D
:0E22A1000390E61A7408F000000090E6E27464
:0822AF0002F0000000EC7006D3
:0622B70075BB06000000EB
:0E22BD00758200C003C004C00512078BD00557
:0422CB00D004D00368
:0322CF00EC6006BA
:0622D200EB60030223CDC6
:0E22D800C003C004C0051206F5D005D004D026
:0722E60003E4B50A02806663
:0522ED007401B50A16A2
:0322F200EB70137B
:0E22F5007B01C003C004C005120782D005D0D3
:0523030004D003804B33
:052308007402B50A4259
:0E230D00C003C004C005120782D005D004D062
:04231B0003EC70342B
:05231F00789EE6700449
:04232400789E760227
:04232800E52F600835
:08232C0090E6A37401F08006A5
:0623340090E6A57401F023
:08233A00000000E5BB20E709EB
:0923420000000090E6F574FFF0C4
:04234B007C0180048D
:04234F007B00807A15
:05235300E5BB20E75D81
:0A23580090E6D1E0FEB50502801208
:0E236200C003C004121CDCD004D00390E6D1EE
:04237000E0FD8024E8
:03237400308D2188
:08237700789E7606E52F600850
:08237F0090E6A37401F0800652
:0623870090E6A57401F0D0
:0B238D007C0100000090E6F574FFF0FA
:04239800E52F6005C8
:05239C00E5AA30E00F8E
:0723A100E52F60030222CFCB
:0823A800E5AA30E5030222CF93
:0523B000D28C0222CFD7
:0623B500EC60030222CFE0
:0423BB00E52F700991
:0923BF0090E6487406F0000000ED
:0523C8007C010222CFA0
:0E23CD00C00312087E001208B6D003EB7001A8
:0123DB0022DF
:0C23DC0090E6CEE0FB7C007D007E008BD4
:0523E8003375300075A3
:0623ED0031007532009082
:0E23F300E6CFE0FF7A007B008A048F03E4FA55
:08240100FF4230EA4231EB42D8
:0524090032EC423390AB
:0E240E00E6D0E0FD7E007A008A038E028D0685
:09241C00E4FD4230EE4231EA42D7
:0524250032EB42339090
:0C242A00E6D1E0FCE4FFFAFBE5304204E0
:09243600E5314207E5324202E5FE
:09243F00334203E50BC39CFCE5EC
:082448000C9FFFE50D9AFAE577
:062450000E9BFB8C0B8FBC
:042456000C8A0D8B54
:05245A000EE52F6004F7
:04245F007A808002FD
:022463007A40BD
:0B246500789EEA46F675820402078BA1
:012470002249
:0526DA000102000000F8
:0526DF000100000000F5
:0D24710090E60174FAF090E6F574FFF0902B
:0A247E002788E493FA90E6F3F0904B
:0A2488002789E493FA90E6C3F09070
:0A249200278AE493FA90E6C1F09067
:0A249C00278BE493FA90E6C2F0905B
:0A24A600278DE493FA90E6C0F09051
:0D24B000278EE493FA90E6F4F075AF077AFA
:0624BD00E47B268B9A7AF5
:0A24C300E47B267B008A9B759DE4F4
:0524CD00759E007A007D
:0324D200BA8000CD
:0224D500500CA9
:0C24D70090E67BE0FB90E67CF00A80EFD2
:0E24E30090E67174FFF075B4FF90E672E0FAB7
:0E24F1004480F043B68000000090E6C4E4F0A2
:0E24FF0000000090E6C5E4F0902764E493FA34
:0B250D0090E6C6F0902765E493FA907A
:0A251800E6C7F0902766E493FA90FE
:0A252200E6C8F0902767E493FA90F2
:0A252C00E6C9F0902768E493FA90E6
:0A253600E6CAF0902769E493FA90DA
:0A254000E6CBF090276AE493FA90CE
:0A254A00E6CCF090276BE493FA90C2
:03255400E6CDF0E1
:012557002261
:0E26E40081B901010101010723030202020274
:0E26F2000200F7F5F5F5F5F5F5F7000000002C
:0E2700000000003F0C8A9A3FA5B53F07210359
:0E270E00030103030500F3F3F2F3F3F1F3F715
:0E271C003F0000000000003F819138010101E4
:0E272A0001070101070202020200F7F5F7F7AE
:0E273800F7F7F7F7000075000000003F8191F1
:0E274600380101010107030305000000000037
:0E275400F3F1F3F3F3F3F3F700006E0000006F
:02276200003F36
:0E276400000000000000000000000000000067
:0E277200000000000000000000000000000059
:08278000000000000000000051
:07278800E08000F7FA4E00AB
:0EE10000120100020000004043140300000062
:04E10E000102000109
:0AE112000A060002000000400100B0
:0EE11C0009022E0001010080FA09040000042F
:0EE12A00FF000000070501024000000705810C
:0EE138000240000007050202000200070586F3
:04E1460002000200D1
:0EE14A0009022E0001010080FA090400000401
:0EE15800FF00000007050102400000070581DE
:0EE16600024000000705020240000007058687
:04E174000240000065
:093F000002053100020565000212
:083F0900054F000205C900028A
:083F1100057B000205E7000238
:083F190006410002064100020E
:083F2100064100020641000206
:083F29000641000206410002FE
:083F31000641000206410002F6
:083F39000641000206410002EE
:083F41000641000206410002E6
:083F49000641000206410002DE
:083F51000641000206410002D6
:083F59000641000206410002CE
:083F61000641000206410002C6
:083F69000641000206410002BE
:083F71000641000206410002B6
:083F79000641000206410002AE
:083F81000641000206410002A6
:083F890006410002064100029E
:083F9100064100020641000296
:083F990006410002064100028E
:083FA100064100020641000286
:083FA90006410002064100027E
:073FB1000641000206410079
:08255800FB7A20E4FCFDFEFF0C
:0E256000E5822582F582E58333F583E5F033CD
:0B256E00F5F0EB33FB4017DAE9804288
:0E257900E5822582F582E58333F583E5F033B4
:05258700F5F0EB33FB51
:0E258C00EC33FCED33FDEE33FEEF33FFEC9548
:06259A0034ED9535EE95CD
:0825A00036EF95374013EC956E
:0825A80034FCED9535FDEE95C4
:0925B00036FEEF9537FF4382016E
:0225B900DABE88
:0225BB00EB2211
:06009C00E478FFF6D8FD38
:08007A007900E94400601B7AE3
:050082000090278F78BB
:030087000075A061
:0A008A00E0E493F2A308B8000205B9
:08009400A0D9F4DAF275A0FF17
:0E25BD0020F71030F6118883A88220F507F66B
:0525CB00A883758300E8
:0125D00022E8
:0325D100F280F79E
:0225D400F022F3
:0C25D600AAF0FBE5828534F0A4FCADF017
:0C25E200E5838534F0A42DFDE435F0FE07
:0C25EE00E5828535F0A42DFDE5F03EFEF1
:0C25FA00E433FFEA8534F0A42EFEE5F087
:0C2606003FFFE5838535F0A42EFEE5F0D3
:0C2612003FFFE5828536F0A42EFEE5F0C7
:0B261E003FFFEB8534F0A42FFFEA859E
:0A26290035F0A42FFFE5838536F09D
:0C263300A42FFFE5828537F0A42F8EF065
:05263F008D838C822256
:0400A20075A00078CD
:0700A60000E8440060077947
:0600AD0000E4F309D8FC99
:0800B3007800E84400600C79BC
:0B00BB000090E000E4F0A3D8FCD9FAAC
:02006B00E4733C
:0E26440090E682E044C0F090E681F04387010A
:0626520000000000002260
:03006D0075813763
:0A007000122674E5826003020066A8
:0E26580020F71430F6148883A88220F507E6D8
:06266600A8837583002229
:03266C00E280F712
:03266F00E49322CF
:02267200E02264
:042674007582002249
:00000001FF
