:0400000002006B325D
:01000B0032C2
:0100130032BA
:01001B0032B2
:0100230032AA
:01002B0032A2
:0300330002063B87
:01003B003292
:03004300021F0099
:01004B003282
:03005300021F0089
:01005B003272
:0300630002063F53
:0300E200020066B3
:050066001200E580FE20
:0900E500788176007880760090A5
:0E00EE00E60B7403F000000000000090E60036
:0E00FC007410F075800075B20675900075B333
:0E010A00FF75B03E75B53F90E67AE0FA44010D
:0B011800F012181490E60174E2F012DF
:0E01230001F790E6097403F0000000758901F1
:09013100000000788276000876D7
:04013A00E17884766E
:05013E00120876E178D3
:0501430086761C087621
:04014800E17888765C
:0A014C004A0876E1D2E843D820907B
:0E015600E668E0FA4409F090E65CE0FA443D09
:0E016400F0D2AF90E680E0FA54F7F0538EF838
:080172001201B77890E6600766
:07017A00120193789076005A
:050181007881E6600733
:07018600788176001219E7F1
:05018D0012063F80E0B6
:01019200224A
:0A01930090E680E0FA440AF07A00DA
:02019D00DAFE88
:0E019F0090E65D74FFF090E65F74FFF0539100
:0901AD00EF90E680E0FA54F7F04F
:0101B6002226
:0501B7007880E6601BEA
:0701BC00120279E5827008D0
:0801C30090E6A0E0FA4401F00F
:0C01CB0090E6A0E0FA4480F07880760016
:0101D7002205
:0E01D80090E6837401F07421F07411F074311C
:0E01E600F090E6837402F07422F07416F07448
:0201F40036F0E3
:0101F60022E6
:0E01F70090E610E4F000000090E611E4F00045
:0E020500000090E612E4F000000090E613E422
:0D021300F000000090E614E4F00000009000
:0E022000E615E4F000000090E618E4F000009F
:0E022E000090E619E4F000000090E61AE4F0FB
:0E023C0000000090E61BE4F000000090E610C9
:0E024A0074A0F000000090E61174A0F0000017
:0E0258000090E61274A0F000000090E614740E
:0E026600E0F000000090E68DE4F000000012D1
:0502740008A602086E5F
:0C02790090E6B9E0FA24F45003020528D6
:07028500EA2A2A90028C73A3
:07028C000203730203FD02EF
:0602930005280204A70289
:0602990005280205280201
:06029F0002B00205280276
:0602A500035E02034C029F
:0502AB00032502033AE7
:0A02B00090E6BBE0FABA0102800FED
:0502BA00BA02028036CB
:0502BF00BA0602801BDD
:0502C400BA075A804258
:0902C900788290E6B308E6F078B3
:0B02D2008286027B0090E6B4EAF00296
:0202DD00052BEF
:0902DF00788490E6B308E6F0789B
:0B02E8008486027B0090E6B4EAF0027E
:0202F300052BD9
:0902F500788A90E6B308E6F0787F
:0B02FE008A86027B0090E6B4EAF00262
:02030900052BC2
:09030B00788C90E6B308E6F07866
:0B0314008C86027B0090E6B4EAF00249
:02031F00052BAC
:0403210075820022BF
:0803250090E740788FE6F090AC
:0B032D00E68AE4F090E68B7401F00219
:02033800052B93
:0A033A0090E6BAE0FA788FA60212EE
:0603440001F71201D802CE
:02034A00052B81
:0A034C0090E6BAE0FA788EA60212DD
:0603560001F71201D802BC
:02035C00052B6F
:08035E0090E740788EE6F09074
:0B036600E68AE4F090E68B7401F002E0
:02037100052B5A
:0A03730090E6B8E0FABA8002800AB2
:05037D00BA8102801BA3
:05038200BA8274802C1A
:0A03870090E740E4F090E741F090A9
:0A039100E68AF090E68B7402F00299
:02039B00052B30
:0A039D0090E740E4F090E741F09093
:0A03A700E68AF090E68B7402F00283
:0203B100052B1A
:0E03B30090E6BCE0FA53027E90E6BCE0FBC38D
:0E03C10074809BE433FB4A901A2093FA339524
:0E03CF00E0FB74A12AFA74E63BFB8A828B8362
:0E03DD00E0FA53020190E740EAF090E741E4B5
:0C03EB00F090E68AF090E68B7402F002BD
:0203F700052BD4
:0403F90075820022E7
:0703FD0090E6B8E0FA600889
:05040400BA02028012A3
:0304090002052BBE
:0B040C0090E6BAE0FABA010302052BEB
:0404170075820022C8
:09041B0090E6BAE060030204A3BC
:0E04240090E6BCE0FA53027E90E6BCE0FBC31B
:0E04320074809BE433FB4A901A2093FA3395B2
:0E044000E0FB74A12AFA74E63BFB90E6BCE0F8
:0E044E00FC53047E90E6BCE0FDC374809DE488
:0E045C0033FD4C901A2093FC3395E0FD74A103
:0E046A002CFC74E63DFD8C828D83E0FC530477
:0E047800FE8A828B83ECF090E6BCE05480FAA2
:0E048600C423541FFA90E6BCE0FB740F5B9099
:0D049400E6832AF090E683E0FA4420F002AF
:0204A100052B29
:0404A300758200223C
:0704A70090E6B8E0FA6005E1
:0504AE00BA027A80187B
:0A04B30090E6BAE0FABA0102806E8A
:0A04BD0090E6BAE0FABA0202806489
:0404C7007582002218
:0E04CB0090E6BCE0FA53027E90E6BCE0FBC374
:0E04D90074809BE433FB4A901A2093FA33950B
:0E04E700E0FB74A12AFA74E63BFB90E6BCE051
:0E04F500FC53047E90E6BCE0FDC374809DE4E1
:0E05030033FD4C901A2093FC3395E0FD74A15B
:0E0511002CFC74E63DFD8C828D83E0FC4304DF
:09051F00018A828B83ECF0800359
:030528000209FACB
:03052B00758201D5
:01052E0022AA
:0C052F00C0E0C082C083C000788076016C
:09053B005391EF90E65D7401F0AC
:09054400D000D083D082D0E03257
:0E054D00C0E0C082C0835391EF90E65D74045D
:01055B00F0AF
:07055C00D083D082D0E03211
:0E056300C0E0C082C0835391EF90E65D740249
:01057100F099
:07057200D083D082D0E032FB
:0D057900C0E0C082C083C002C003C0007893
:0A058600888602088603788AA60220
:0C05900008A6038A828B83A37402F07813
:0A059C00868602088603788CA6020A
:0E05A60008A6038A828B83A37407F05391EF9B
:0605B40090E65D7410F0FA
:0D05BA00D000D003D002D083D082D0E03238
:0C05C700C0E0C082C083C00078817601D3
:0905D3005391EF90E65D7408F00D
:0905DC00D000D083D082D0E032BF
:0D05E500C0E0C082C083C002C003C000900F
:0705F200E680E0FA30E72C7F
:0A05F90078868602088603788AA639
:0D0603000208A6038A828B83A37402F0789C
:0A061000888602088603788CA60293
:0B061A0008A6038A828B83A37407F0FC
:090625005391EF90E65D7420F0A2
:0D062E00D000D003D002D083D082D0E032C3
:03063B0053D8EFA2
:01063E003289
:051A1B000100000000C5
:0A1A2000000102020303040405059F
:0A00C400789076007891E4F608F6D3
:0C00CE0008F608F67895E4F608F608F647
:0800DA0008F67899E4F608F637
:07063F0012067DE582601444
:0706460012065BE582700D56
:0B064D00120772789E76017582000291
:02065800077B1E
:01065A00227D
:07065B00789BB60002800E3F
:07066200789BB60102800A3B
:07066900789BB6040B80062C
:0306700002090676
:0306730002096712
:0306760002108DE2
:0306790075820087
:01067C00225B
:05067D00E5BA30E104C4
:04068200758200225B
:07068600789E76007A807B6C
:06068D00E78B9A7A807BE6
:0C069300E77B008A9B90E67BE0FA7B008E
:05069F000ABA00010B86
:0E06A40090E68DE0FC7D00EAB50406EBB5059E
:0306B200028011B2
:0B06B500120772789E76017582001219
:0606C000077B7582002299
:0A06C60090E67BE0FA789BA6029014
:0906D000E67BE0FA789CA602909A
:0B06D900E67BE0FA789DA60275820126
:0106E40022F3
:0506E500E5BA30E1045C
:0406EA00750A00226B
:0C06EE0090E780E0FA7B000ABA00010BE4
:0E06FA0090E68DE0FC7D00EAB50406EBB50548
:030708000280115B
:0B070B00120772789E760175820012C2
:06071600077B750AFF22BB
:0B071C0090E781E0FA789BE6B5021739
:0A07270090E782E0FAE4BA800104D2
:09073100FA789C8603EB4A60048F
:04073A00750A012219
:06073E0090E781E0700C61
:0807440090E782E0FABA02041A
:04074C00750A022206
:03075000750AFF28
:010753002283
:08075400AA827B0B7C007D40B2
:0E075C0090E67BE0FE8B828C838DF01219609C
:07076A00A3AB82AC83DAEBC4
:010771002265
:0807720090E68DE4F0000000A8
:01077A00225C
:07077B00AA82E5BA30E20199
:010782002254
:070783007BC07CE78C9D7B2D
:08078A00C07CE77C008B9E900F
:08079200E67CEA04F0789E9079
:07079A00E67CE6F07B0B7C1E
:0507A100007D408A0606
:0307A600EE6017EB
:0E07A9008B828C838DF01219FBFFA3AB82AC08
:0907B7008390E67CEFF01E80E661
:0A07C00090E68F74022AF00000009A
:0107CA00220C
:0707CB00AA82E5BA30E20149
:0107D2002204
:0707D3007BC07CE78C9D7BDD
:0807DA00C07CE77C008B9E90BF
:0807E200E67CEA04F0789E9029
:0407EA00E67CE6F0D3
:0107EE0022E8
:0507EF00E5BA30E20153
:0107F40022E2
:0807F50090E7C1789EE6F09048
:0C07FD00E7C0E0FA90E68F04F000000076
:0108090022CC
:0E080A00AA82AB83ACF090E67BE0FDC002C09A
:0E08180003C004C005120772D005D004D0033F
:07082600D002E5BA30E20147
:01082D0022A8
:07082E007EC07FE78F9D7E75
:08083500C07FE77F008E9E905A
:0C083D00E67CED04F090E67CE4F08D0613
:03084900EE601747
:0E084C008A828B838CF01219FBFFA3AA82AB69
:09085A008390E67CEFF01E80E6BD
:0A08630090E68F74022DF0000000F3
:01086D002268
:0E086E0090E618E4F000000090E6047480F0BC
:0E087C0000000090E6047402F00000007A0410
:0B088A0090E6497482F0000000DAF5EF
:0E08950090E604E4F000000090E6A3E4F0001A
:0208A300000053
:0108A5002230
:0E08A60090E61AE4F000000090E6047480F082
:0D08B40000000090E6047406F000000090C3
:0E08C100E604E4F000000090E6A5E4F000007C
:0108CF000028
:0108D0002205
:0808D10090E680E0FA30E70632
:0608D9007A007B0280049E
:0408DF007A407B00E0
:0E08E30090E624EBF000000090E680E0FA3092
:0208F100E70618
:0608F3007A007B02800484
:0408F9007A407B00C6
:0808FD0090E625EAF00000007E
:0109050022CF
:07090600789CB60202800795
:07090D00789CB6034D800544
:05091400120772804A89
:0A091900758204120754120772E5FC
:080923000BF4FAE50CF4FBE50E
:0A092B000DF4FCE50EF4FD747B2AC8
:0C093500FAE43BFBE43CFCE43DFD8A0BD3
:050941008B0C8C0D8DF4
:0A0946000E7891E4F608F608F608B2
:0B095000F61208A612086E7582041251
:04095B00077B800492
:04095F00758200227B
:0309630075820199
:01096600226E
:05096700789CB60217A8
:07096C00120772750B007504
:060973000C00750D00757B
:0A0979000E0075820412077B800453
:040983007582002257
:0309870075820175
:01098A00224A
:0A098B00AA82AB83E508450970015C
:01099500223F
:07099600AC14BCE602800571
:05099D008B05BDE631F1
:0809A2008A068B07AC13AD14AB
:0E09AA008E028F038C828D83E0F88A828B830D
:0609B800F00EBE00010F6D
:0509BE000CBC00010D5E
:0809C300150874FFB5080215C8
:0109CB000922
:0609CC00E508450970D8A2
:0109D2002202
:0C09D3008C9AAC137E008C9B8D9D7B00E9
:0509DF008A9E0209E5FB
:0109E40022F0
:0809E500A90890E67B0586904D
:0409ED00E67C058619
:0809F100E00586F00586D9F847
:0109F90022DB
:0A09FA0090E6B9E0FABAA202804AC2
:050A0400BAA3028045C9
:060A0900BAE103020CCD6E
:060A0F00BAE203020CAD87
:060A1500BAE303020CAD80
:060A1B00BAE403020C8D99
:060A2100BAE503020C8D92
:060A2700BAE603020B9A7F
:060A2D00BAE703020BC54D
:060A3300BAE803020C0DFD
:060A3900BAE903020C6D96
:060A3F00BAEA03020C3CC0
:060A4500BAEB03020CED08
:030A4B00020D0D8C
:0B0A4E0090E6BAE0FAA3E0FB8A0B8BF5
:0A0A59000C90E6BEE0FAA3E0FB906B
:090A6300E6B8E0FCBCC00280030F
:030A6C00020AFF7C
:070A6F00EA4B7003020D11B8
:080A760090E6A0E0FC20E1F88D
:080A7E0090E6B9E0FCBCA211F6
:0A0A8600750D00750E00C002C003DC
:070A9000120FABD003D002EE
:090A9700C3EA9440EB9400500600
:060AA0008A0D8B0E80069A
:060AA600750D40750E0005
:080AAC0090E6B9E0FCBCA20DCC
:0D0AB400C002C003120EFED003D002801A53
:040AC100850D088512
:030AC5000E099087
:040AC800E740850B73
:030ACC0013850C83
:0C0ACF0014C002C00312098BD003D00237
:080ADB0090E68AE4F0AC0DADD9
:080AE3000E90E68BECF0EC250F
:070AEB000BFEED350CFF8E40
:0A0AF2000B8F0CEAC39CFAEB9DFB8E
:030AFC00020A6F7C
:0A0AFF007899E608467003020B9692
:0C0B090090E6BCE0FCA3E0FD7899E6B5A6
:090B1500040708E6B505028002A0
:020B1E008076DF
:080B200090E6B8E0FCBC406E59
:070B2800EA4B7003020D11FE
:090B2F0090E68AE4F090E68BF0F8
:080B380090E6A0E0FC20E1F8CA
:0A0B400090E68BE0FC7D008C0D8D2B
:090B4A000E90E6B9E0FCBCA31F0B
:040B5300850D08857F
:030B57000E0985FF
:060B5A000B82850C83757F
:030B6000134075CA
:070B630014E7C002C00312F9
:080B6A00098BD003D002800BBF
:0B0B7200C002C003120FABD003D00282
:060B7D00AC0DAD0EEC25ED
:070B83000BFEED350CFF8EA7
:0A0B8A000B8F0CEAC39CFAEB9DFBF5
:020B940080924D
:040B96007582002242
:0A0B9A0090E6B8E0FABAC00280034A
:030BA400020D112E
:080BA70090E6A0E0FA20E1F85D
:0E0BAF0090E7407403F0A3F090E68AE4F09023
:080BBD00E68B7402F0020D1139
:0A0BC50090E6B8E0FABAC00280031F
:030BCF00020D1103
:080BD20090E6A0E0FA20E1F832
:0E0BDA0090E7407404F0A3E4F0A3F0A3F090C1
:0B0BE800E744E4F5F0121960A3E412EA
:0A0BF3001960A3E4121960A3E412D4
:080BFD00196090E68AE4F09013
:080C0500E68B7408F0020D11EA
:080C0D0090E6B8E0FABA4023BA
:090C150090E68AE4F090E68BF011
:080C1E0090E6A0E0FA20E1F8E5
:0C0C260090E740E0FAA3E0FB7899A602FA
:060C320008A603020D11EB
:040C3800758200229F
:080C3C0090E6B8E0FABA402589
:070C44007899E60846601EE6
:0C0C4B0090E6BCE0FAA3E0FB7899E6B567
:090C5700020708E6B50302800261
:020C600080070B
:070C620078907601020D11EC
:040C6900758200226E
:070C6D00750BF0750C3F75DB
:060C74000D04750E007571
:060C7A000FCD7510AB90D8
:070C8000E6B8E0FABAC00378
:030C8700020D1546
:030C8A00020E2E29
:070C8D00750BE0750C3F75CB
:060C94000D0C750E007549
:060C9A000F787510569062
:070CA000E6B9E0FABAE40333
:030CA700020D1526
:030CAA00020E2E09
:070CAD00750BC0750C3F75CB
:060CB4000D10750E007525
:060CBA000FCD7510AB9098
:070CC000E6B9E0FABAE20315
:030CC700020D1506
:030CCA00020E2EE9
:070CCD00750BA0750C3F75CB
:060CD4000D1C750E0075F9
:060CDA000FCD7510AB9078
:070CE000E6B8E0FABAC00318
:030CE700020D15E6
:030CEA00020E2EC9
:070CED00750BF8750C3F7553
:060CF4000D02750E0075F3
:060CFA000FCD7510AB9058
:070D0000E6B8E0FABAC003F7
:030D0700020D15C5
:030D0A00020E2EA8
:040D0D0075820022C9
:030D1100758201E7
:010D140022BC
:0C0D15007AFF90E6B8E0FBBBC00280044F
:040D210075820022B5
:050D2500AB0DAC0E75E2
:0A0D2A000D00750E00C002C003C0EA
:0E0D340004120FABD004D003D00274032BFBCB
:0A0D4200E43CFC8B0D8C0EC0021285
:0A0D4C000EFED002E50D24FDFBE5CC
:070D56000E34FFFC8B0D8C35
:0B0D5D000E90E740E0FBA3E0FCEBB5CC
:060D68000F48ECB5104439
:040D6E007A007B008C
:0A0D72007403250DFCE4350EFD8B23
:0A0D7C00067F00C3EE9CEF9D502C93
:0A0D8600EB2440F582E434E7F58326
:0A0D9000E0FC2AFAEB2440FCE434F6
:0A0D9A00E7FD74022B2440F582E40B
:0C0DA40034E7F583E0FE8C828D83F00BB9
:020DB00080C001
:030DB200EA606490
:040DB500850D08851B
:030DB9000E099090
:090DBC00E6B9E0FABAE102803464
:050DC500BAE202803DCE
:050DCA00BAE4028005FF
:050DCF00BAE9438017A2
:020DD4007A00A3
:030DD600BA0C0054
:020DD900503E8A
:0A0DDB00EA2440F582E434E7F583D2
:060DE5007430F00A80EBFF
:050DEB0090E7407513C4
:030DF0002F751448
:060DF3001A12098B80209A
:050DF90090E7407513B6
:030DFE0033751436
:060E01001A12098B801299
:050E070090E7407513A7
:030E0C004F75140B
:060E0F001A12098B800499
:040E150075820022C0
:0C0E190090E68AE4F000000090E68BE513
:080E25000DF0000000758201D0
:010E2D0022A2
:080E2E0090E6B8E0FABA401C9E
:070E36007899E608466015FB
:0C0E3D0090E6BCE0FAA3E0FB7899E6B573
:090E4900020708E6B5030280046B
:040E52007582002283
:090E560090E68AE4F090E68BF0CE
:080E5F0090E6A0E0FA20E1F8A2
:070E670090E68AE0FA701426
:050E6E00AA0DAB0E907F
:0E0E7300E68BE0FC7D00B50206EDB5030280C3
:010E8100046C
:040E82007582002253
:060E86008A15AD158D0672
:060E8C008E071EEF602539
:0C0E9200C002C00374022E2440FFE434B0
:090E9E00E7FCEE2440F582E43487
:0C0EA700E7F583E0FA8F828C83F0D00323
:040EB300D00280D514
:080EB70090E740E50FF0A3E510
:050EBF0010F07C407EF4
:0A0EC400E78E9A759B407C007402D3
:030ECE002515FDEA
:090ED10090E67BE0FE2CFCDDF74D
:0A0EDA00740225152440F582E4346B
:0C0EE400E7F583C3E49CFCF074032AFAD9
:080EF000E43BFB8A0D8B0E129E
:050EF8000FAB75820143
:010EFD0022D2
:050EFE00E50DFA70048F
:040F030075820122D0
:080F070090E678E0FB20E6F81B
:0C0F0F0090E6787480F090E67974A3F00E
:080F1B0090E678E0FB30E0F8FD
:080F230090E678E0FB20E27487
:080F2B0090E678E0FB30E16C78
:030F3300BA0108F8
:080F360090E678E0FB4420F096
:070F3E0090E679E07B407CA6
:060F4500E78C9A7B407C62
:050F4B00E77C008B9B18
:040F5000DA0280261B
:080F540090E678E0FB30E0F8C4
:080F5C0090E678E0FB20E23B87
:030F6400BA0108C7
:080F670090E678E0FB4420F065
:0B0F6F0090E679E0FB90E67BF080D676
:080F7A0090E678E0FA30E0F89F
:080F820090E678E0FA20E21588
:0E0F8A0090E678E0FA4440F090E679E0FA90C4
:070F9800E67BF075820122E7
:0B0F9F0090E678E0FA4440F075820014
:010FAA002224
:020FAB00AA0D8D
:080FAD0090E678E0FB20E6F875
:0C0FB50090E6787480F090E67974A2F069
:080FC10090E678E0FB30E0F857
:080FC90090E678E0FB20E26BEA
:080FD10090E678E0FB30E163DB
:030FD900EA600EBD
:070FDC007B407CE78C9A7B4F
:070FE300407CE77C008B9BC2
:020FEA007B0288
:030FEC00EA7003A5
:030FEF00EB603B79
:030FF200EB60149D
:030FF500BB020834
:080FF80090E679E50CF080069B
:0610000090E679E50BF01B
:031006001B800A42
:0A10090090E67BE0FC90E679F01A17
:0810130090E678E0FC30E0F803
:08101B0090E678E0FC20E219E8
:0810230090E678E0FC20E1C139
:02102B00800F34
:0E102D0090E678E0FA4440F012104875820117
:01103B002292
:0B103C0090E678E0FA4440F075820076
:011047002286
:0810480090E678E0FA20E6F8DA
:0E10500090E678E0FA4480F090E67974A2F021
:08105E0090E678E0FA30E0F8BA
:0810660090E678E0FA4440F046
:08106E0090E678E0FA20E6F8B4
:0810760090E678E0FA30E1D2C7
:01107E00224F
:051A2A000100000000B6
:041A2F000201203060
:0E1A330055534232204D6F64756C6500000003
:0E1A4100FDFDFDFD000000000000B669B83F8D
:0E1A4F00444D6F62557362000000FDFDFDFD09
:021A5D00000087
:0A107F00C28CC28D789F868A789F8C
:0310890008868C4A
:01108C002241
:07108D00789CB602028060AE
:07109400789DB600028011F7
:0B109B00120772789E760C758200121E
:0610A600077B75820122A8
:0510AC00789CE6701FB6
:0610B1007891E630E21127
:0B10B700120772789E7603758200120B
:0610C200077B758201228C
:0810C8007891E64404F680244F
:0510D000789CB6010848
:0810D5007891E654FBF6801748
:0610DD007891E620E2110B
:0B10E300120772789E760475820012DE
:0610EE00077B7582012260
:0A10F400789CE624F850030211DE98
:0A10FE00789CE625E02690110873A7
:071108000211200211200278
:06110F00113202113F0243
:0611150011C40211CC021E
:05111B0011D40211D9FE
:0C112000120772789FE4F608F675820052
:06112C0012077B0211E234
:0D113200901A5F75F08012080A7582012284
:0A113F00758204120754120772753E
:061149001BFAE4F51CF5A1
:04114F001DF51E85E7
:061153000B82850C838570
:051159000DF0E50E128F
:0C115E0018FBAA82AB83ACF0FD8A0B8B5F
:04116A000C8C0D8D4F
:07116E000EEC7003ED600CB4
:07117500750BFF750CFF75FF
:05117C000D00750E00DE
:09118100E50BF4FAE50CF4FBE5C2
:08118A000DF4FCE50EF4FD7804
:081192009FA60208A603850BCD
:03119A001B850CA6
:03119D001C850DA1
:0311A0001D850E9C
:0C11A3001E9000FAE4F5F0121979AA82FF
:0A11AF00AB83ACF0FD8A0B8B0C8CB7
:0711B9000D8D0E758204127A
:0411C000077B801E0B
:0811C40075820112159A8016D4
:0811CC0075820012159A800ED5
:0511D400121256800913
:0511D9001213D5800493
:0411DE0075820022F4
:0311E20075820112
:0111E50022E7
:0E11E60090E6F3E0FA4480F000000090E67B13
:0C11F400E0FA90E6F1F000000002123674
:0E12000090E6F3E0FA547FF000000090E67BE9
:0C120E00E0FA90E6F1F000000002123659
:0B121A0090E6F1E0121236E582600D54
:0D12250090E6F2E0FA90E67CF0758201227E
:03123200758200C2
:011235002296
:0512360012107FD28CB4
:05123B00E5BB20E70304
:03124000308DF8F6
:05124300E5BB30E704EB
:041248007582012288
:09124C0090E6F574FFF0758200D4
:011255002276
:0A125600E4FAFBF508F509758204BF
:0D126000C002C003120754D00300C00312E7
:0D126D00077275820012077BD003D002AC1F
:04127A000BAD0CAEFE
:04127E000DAF0E8C16
:041282000F8D108E2E
:09128600118F12EC4D4E4F700265
:02128F007B01E1
:03129100EB600609
:06129400EA60030213A151
:0D129A00C002C0031206E5D003D002E4B587
:0412A7000A02804077
:0512AB007401B50A12F8
:0312B000EA700FD2
:0E12B3007A01C002C003120772D003D002807D
:0112C1002903
:0512C2007402B50A1FD3
:0E12C700C002C003120772D003D002EB7016F3
:0C12D50090E6A37401F00000007B01789B
:0512E1009E760280056D
:0512E6007A000213A1D3
:0312EB00EB70A302
:0612EE00E5084509702A25
:0512F400E5AA20E02541
:0712F9007C007DF08D9A7C62
:08130000007DF07D008C9B9044
:0E130800E690E0FC8C057C0090E691E0FE7F14
:08131600002CF508EF3DF5097C
:07131E00E508450970030218
:02132500129123
:0E132700C002C0031211E6E582D003D00270AE
:0113350006B1
:06133600789E760580524E
:0E133C00C002C003121200E582D003D002707E
:01134A00069C
:06134B00789E7606803D4D
:07135100E50824FEF508E5A4
:061358000934FFF509ACA9
:04135E000BAD0CAE19
:0A1362000DAF0E1CBCFF091DBDFFFE
:06136C00051EBEFF011F7B
:051372008C0B8D0C8EB8
:091377000D8F0EEC4D4E4F70027B
:021380007B01EF
:06138200E50845097006B4
:0613880090E6497482F0BA
:08138E00789EB60003021291E3
:0B1396007B0190E6A37401F0021291AD
:0A13A100C00212086ED002EA6029B3
:0713AB00E50FC3950BFAE505
:0513B20010950CFBE5A5
:0513B70011950DFCE59D
:0513BC0012950EFD8AF0
:0413C1000B8B0C8CFA
:0413C5000D8D0E7804
:0B13C9009EE64480F675820402077B5C
:0113D40022F6
:0A13D500E4FAFBF508F5097582043F
:0D13DF00C002C003120754D00300C0031267
:0D13EC00077275820012077BD003D002AC9F
:0413F9000BAD0CAE7E
:0413FD000DAF0E8C96
:041401000F8D108EAD
:09140500118F12EC4D4E4F7002E4
:02140E007B0160
:03141000EB600688
:06141300EA600302155A15
:0D141900C002C0031206E5D003D002E4B506
:041426000A028046F0
:05142A007401B50A1277
:03142F00EA700F51
:0E1432007A01C002C003120772D003D00280FC
:011440002F7C
:051441007402B50A254C
:0E144600C002C003120772D003D002EB701C6C
:0E14540090E6A37401F000000090E6A574017C
:09146200F07B01789E7602800502
:05146B007A0002155A91
:03147000EB709D81
:06147300E5084509703D8B
:05147900E5AA20E038A7
:05147E00E5AA20E533A2
:071483007C007DF08D9A7CD6
:08148A00007DF07D008C9B7CCD
:06149200007DF88D9D7C39
:08149800007DF87D008C9E90A0
:0E14A000E690E0FC8C057C0090E691E0FE7F7B
:0814AE00002CF508EF3DF509E3
:0714B600E50845097003027F
:0214BD00141009
:0E14BF00C002C0031211E6E582D003D0027015
:0114CD000618
:0614CE00789E7605806A9D
:0E14D400C002C00312121AE582D003D00270CB
:0114E2000603
:0614E300789E760680559C
:0814E900150874FFB508021597
:0114F10009F1
:0514F200AC0BAD0CAED7
:0A14F7000DAF0E1CBCFF091DBDFF68
:06150100051EBEFF011FE4
:051507008C0B8D0C8E21
:09150C000D8F0EEC4D4E4F7002E4
:021515007B0158
:06151700E5084509702102
:0D151D0090E690E0FC90E698F00000009051
:0C152A00E691E0FC90E699F000000090D3
:08153600E6497482F000000098
:08153E00789EB60003021410B0
:0E15460090E6A37401F000000090E6A5740189
:06155400F07B01021410FF
:0E155A00C00212086E001208A6D002EA60312C
:07156800E50FC3950BFAE546
:05156F0010950CFBE5E6
:0515740011950DFCE5DE
:0515790012950EFD8A31
:04157E000F8B108C33
:04158200118D128A2B
:041586000B8B0C8C33
:04158A000D8D0E783D
:0B158E009EE644C0F675820802077B51
:01159900222F
:0C159A008582167B007C00C003C0041298
:0A15A60011E6E582D004D003700DB9
:0B15B000120772789E7605758200021B
:0215BB00077BAC
:0E15BD00758204C003C004120754D00400C09D
:0B15CB0004120772D004D003E50B45AA
:0415D6000C450D456E
:0315DA000E70028E
:0215DD007C018F
:0A15DF0090E6F574FFF090E6CEE50B
:0915E9000EF000000090E6CFE5D1
:0915F2000DF000000090E6D0E5C8
:0915FB000CF000000090E6D1E5BF
:0C1604000BF0C003C00412107FD004D013
:0A1610000390E6D1E0FDE516601C32
:0E161A0090E6187410F000000090E6D2740103
:07162800F0000000EC70313E
:07162F00F5BB000000802A5A
:0E163600C003C004C0051208D1D005D004D0F6
:0E1644000390E61A7408F000000090E6E274CD
:0816520002F0000000EC70063C
:06165A0075BB0600000054
:0E166000758200C003C004C00512077BD005D0
:04166E00D004D003D1
:03167200EC600623
:06167500EB600302177098
:0E167B00C003C004C0051206E5D005D004D09F
:0716890003E4B50A028066CC
:051690007401B50A160B
:03169500EB7013E4
:0E1698007B01C003C004C005120772D005D04C
:0516A60004D003804B9D
:0516AB007402B50A42C3
:0E16B000C003C004C005120772D005D004D0DC
:0416BE0003EC703495
:0516C200789EE67004B3
:0416C700789E760291
:0416CB00E5166008B8
:0816CF0090E6A37401F080060F
:0616D70090E6A57401F08D
:0816DD00000000E5BB20E70955
:0916E50000000090E6F574FFF02E
:0416EE007C018004F7
:0416F2007B00807A7F
:0516F600E5BB20E75DEB
:0A16FB0090E6D1E0FEB50502801272
:0E170500C003C00412107FD004D00390E6D1C0
:04171300E0FD802451
:03171700308D21F1
:08171A00789E7606E5166008D2
:0817220090E6A37401F08006BB
:06172A0090E6A57401F039
:0B1730007C0100000090E6F574FFF063
:04173B00E51660054A
:05173F00E5AA30E00FF7
:07174400E5166003021672B6
:08174B00E5AA30E50302167265
:05175300D28C021672A9
:06175800EC6003021672B2
:04175E00E516700913
:0917620090E6487406F000000056
:05176B007C0102167272
:0E177000C00312086E001208A6D003EB700131
:01177E002248
:0C177F0090E6CEE0FB7C007D007E008B3D
:05178B001A751700753E
:061790001800751900901D
:0E179600E6CFE0FF7A007B008A048F03E4FABE
:0817A400FF4217EA4218EB4274
:0517AC0019EC421A9047
:0E17B100E6D0E0FD7E007A008A038E028D06EF
:0917BF00E4FD4217EE4218EA4273
:0517C80019EB421A902C
:0C17CD00E6D1E0FCE4FFFAFBE517420463
:0917D900E5184207E5194202E59A
:0917E2001A4203E50BC39CFCE56F
:0817EB000C9FFFE50D9AFAE5E1
:0617F3000E9BFB8C0B8F26
:0417F9000C8A0D8BBE
:0517FD000EE51660047A
:041802007A80800266
:021806007A4026
:0B180800789EEA46F675820402077B1A
:0118130022B2
:051A5F00010000000081
:0D18140090E60174FAF090E6F574FFF09094
:0A1821001B08E493FA90E6F3F09040
:0A182B001B09E493FA90E6C3F09065
:0A1835001B0AE493FA90E6C1F0905C
:0A183F001B0BE493FA90E6C2F09050
:0A1849001B0DE493FA90E6C0F09046
:0D1853001B0EE493FA90E6F4F075AF077AEF
:06186000647B1A8B9A7AEA
:0A186600647B1A7B008A9B759DE4E9
:05187000759E007A00E6
:03187500BA800036
:02187800500C12
:0C187A0090E67BE0FB90E67CF00A80EF3B
:0E18860090E67174FFF075B4FF90E672E0FA20
:0E1894004480F043B68000000090E6C4E4F00B
:0E18A20000000090E6C5E4F0901AE4E493FA2A
:0B18B00090E6C6F0901AE5E493FA9071
:0A18BB00E6C7F0901AE6E493FA90F5
:0A18C500E6C8F0901AE7E493FA90E9
:0A18CF00E6C9F0901AE8E493FA90DD
:0A18D900E6CAF0901AE9E493FA90D1
:0A18E300E6CBF0901AEAE493FA90C5
:0A18ED00E6CCF0901AEBE493FA90B9
:0318F700E6CDF04B
:0118FA0022CB
:0E1A640081B901010101010723030202020200
:0E1A72000200F7F5F5F5F5F5F5F700000000B8
:0E1A80000000003F0C8A9A3FA5B53F072103E6
:0E1A8E00030103030500F3F3F2F3F3F1F3F7A2
:0E1A9C003F0000000000003F81913801010171
:0E1AAA0001070101070202020200F7F5F7F73B
:0E1AB800F7F7F7F7000075000000003F81917E
:0E1AC6003801010101070303050000000000C4
:0E1AD400F3F1F3F3F3F3F3F700006E000000FC
:021AE200003FC3
:0E1AE4000000000000000000000000000000F4
:0E1AF2000000000000000000000000000000E6
:081B00000000000000000000DD
:071B0800E08000F7FA4E0037
:0EE10000120100020000004043140300000062
:04E10E000102000109
:0AE112000A060002000000400100B0
:0EE11C0009022E0001010080FA09040000042F
:0EE12A00FF000000070501024000000705810C
:0EE138000240000007050202000200070586F3
:04E1460002000200D1
:0EE14A0009022E0001010080FA090400000401
:0EE15800FF00000007050102400000070581DE
:0EE16600024000000705020240000007058687
:04E174000240000065
:091F000002052F00020563000236
:081F0900054D000205C70002AE
:081F11000579000205E500025C
:081F1900063F0002063F000232
:081F2100063F0002063F00022A
:081F2900063F0002063F000222
:081F3100063F0002063F00021A
:081F3900063F0002063F000212
:081F4100063F0002063F00020A
:081F4900063F0002063F000202
:081F5100063F0002063F0002FA
:081F5900063F0002063F0002F2
:081F6100063F0002063F0002EA
:081F6900063F0002063F0002E2
:081F7100063F0002063F0002DA
:081F7900063F0002063F0002D2
:081F8100063F0002063F0002CA
:081F8900063F0002063F0002C2
:081F9100063F0002063F0002BA
:081F9900063F0002063F0002B2
:081FA100063F0002063F0002AA
:081FA900063F0002063F0002A2
:071FB100063F0002063F009D
:0818FB00FB7A20E4FCFDFEFF76
:0E190300E5822582F582E58333F583E5F03336
:0B191100F5F0EB33FB4017DAE98042F1
:0E191C00E5822582F582E58333F583E5F0331D
:05192A00F5F0EB33FBBA
:0E192F00EC33FCED33FDEE33FEEF33FFEC95B1
:06193D001BED951CEE9568
:081943001DEF951E4013EC9509
:08194B001BFCED951CFDEE955F
:091953001DFEEF951EFF43820109
:02195C00DABEF1
:02195E00EB227A
:06009A00E478FFF6D8FD3A
:080078007900E94400601B7AE5
:0500800000901B0F7849
:030085000075A063
:0A008800E0E493F2A308B8000205BB
:08009200A0D9F4DAF275A0FF19
:0E19600020F71030F6118883A88220F507F6D4
:05196E00A88375830051
:011973002251
:03197400F280F707
:02197700F0225C
:0C197900AAF0FBE582851BF0A4FCADF099
:0C198500E583851BF0A42DFDE435F0FE89
:0C199100E582851CF0A42DFDE5F03EFE73
:0C199D00E433FFEA851BF0A42EFEE5F009
:0C19A9003FFFE583851CF0A42EFEE5F056
:0C19B5003FFFE582851DF0A42EFEE5F04A
:0B19C1003FFFEB851BF0A42FFFEA8521
:0A19CC001CF0A42FFFE583851DF039
:0C19D600A42FFFE582851EF0A42F8EF0E8
:0519E2008D838C8222C0
:0400A00075A00078CF
:0700A40000E8440060077949
:0600AB0000E4F309D8FC9B
:0800B1007800E84400600C79BE
:0B00B9000090E000E4F0A3D8FCD9FAAE
:0E19E70090E682E044C0F090E681F043870174
:0619F500000000000022CA
:03006B0075811E7E
:0A006E00121A17E582600302006613
:0E19FB0020F71430F6148883A88220F507E642
:061A0900A8837583002292
:031A0F00E280F77B
:031A1200E4932238
:021A1500E022CD
:041A170075820022B2
:00000001FF
