:0400000002006D325B
:01000B0032C2
:0100130032BA
:01001B0032B2
:0100230032AA
:01002B0032A2
:030033000206873B
:01003B003292
:03004300023F0079
:01004B003282
:03005300023F0069
:01005B003272
:0300630002068B07
:0300EA00020066AB
:050066001200ED80FE18
:0900ED007881760078807600909D
:0E00F600E60B7403F000000000000090E6002E
:0E0104007410F075800175B28175900075B3AE
:0E011200FF75B08075B5A090E67AE0FA440162
:0B012000F0122FF590E60174E2F012DF
:0E012B00024390E6097403F00000007589019C
:09013900000000788276000876CF
:04014200E178847666
:05014600120876E178CB
:05014B0086761C087619
:04015000E178887654
:0A0154004A0876E1D2E843D8209073
:0E015E00E668E0FA4409F090E65CE0FA443D01
:0E016C00F0D2AF90E680E0FA54F7F0538EF830
:08017A001201BF7898E660074E
:0701820012019B7898760042
:050189007881E660072B
:07018E007881760012369B18
:0501950012068B80E062
:01019A002242
:0A019B0090E680E0FA440AF07A00D2
:0201A500DAFE80
:0E01A70090E65D74FFF090E65F74FFF05391F8
:0901B500EF90E680E0FA54F7F047
:0101BE00221E
:0501BF007880E6605F9E
:0601C4007890A60B08A6CE
:0601CA000C08A60D08A6BA
:0401D0000E7894A66B
:0601D4000F08A61008A6AA
:0501DA001108A612123D
:0601DF0002C5E582700874
:0801E50090E6A0E0FA4401F0ED
:0C01ED00789086020886030886040886C5
:0601F900058A0B8B0C8C43
:0401FF000D8D0E78DC
:0C0203009486020886030886040886051D
:05020F008A0F8B108C2A
:04021400118D1290A6
:0B021800E6A0E0FA4480F07880760059
:0102230022B8
:0E02240090E6837401F07421F07411F07431CF
:0E023200F090E6837402F07422F07416F074FB
:0202400036F096
:010242002299
:0E02430090E610E4F000000090E611E4F000F8
:0E025100000090E612E4F000000090E613E4D6
:0D025F00F000000090E614E4F000000090B4
:0E026C00E615E4F000000090E618E4F0000053
:0E027A000090E619E4F000000090E61AE4F0AF
:0E02880000000090E61BE4F000000090E6107D
:0E02960074A0F000000090E61174A0F00000CB
:0E02A4000090E61274A0F000000090E61474C2
:0E02B200E0F000000090E68DE4F00000001285
:0502C000090B0208D348
:0C02C50090E6B9E0FA24F450030205743E
:0702D100EA2A2A9002D8730B
:0702D8000203BF020449020A
:0602DF0005740204F302A5
:0602E5000574020574021D
:0602EB0002FC0205740292
:0602F10003AA02039802BB
:0502F700037102038603
:0A02FC0090E6BBE0FABA0102800FA1
:05030600BA020280367E
:05030B00BA0602801B90
:05031000BA075A80420B
:09031500788290E6B308E6F07866
:0B031E008286027B0090E6B4EAF00249
:02032900057756
:09032B00788490E6B308E6F0784E
:0B0334008486027B0090E6B4EAF00231
:02033F00057740
:09034100788A90E6B308E6F07832
:0B034A008A86027B0090E6B4EAF00215
:0203550005772A
:09035700788C90E6B308E6F0781A
:0B0360008C86027B0090E6B4EAF002FD
:02036B00057714
:04036D007582002273
:0803710090E740788FE6F09060
:0B037900E68AE4F090E68B7401F002CD
:020384000577FB
:0A03860090E6BAE0FA788FA60212A2
:06039000024312022402E8
:020396000577E9
:0A03980090E6BAE0FA788EA6021291
:0603A200024312022402D6
:0203A8000577D7
:0803AA0090E740788EE6F09028
:0B03B200E68AE4F090E68B7401F00294
:0203BD000577C2
:0A03BF0090E6B8E0FABA8002800A66
:0503C900BA8102801B57
:0503CE00BA8274802CCE
:0A03D30090E740E4F090E741F0905D
:0A03DD00E68AF090E68B7402F0024D
:0203E700057798
:0A03E90090E740E4F090E741F09047
:0A03F300E68AF090E68B7402F00237
:0203FD00057782
:0E03FF0090E6BCE0FA53027E90E6BCE0FBC341
:0E040D0074809BE433FB4A9036E393FA3395F8
:0E041B00E0FB74A12AFA74E63BFB8A828B8315
:0E042900E0FA53020190E740EAF090E741E468
:0C043700F090E68AF090E68B7402F00270
:0204430005773B
:04044500758200229A
:0704490090E6B8E0FA60083C
:05045000BA0202801257
:0304550002057726
:0B04580090E6BAE0FABA010302057753
:04046300758200227C
:0904670090E6BAE060030204EF24
:0E04700090E6BCE0FA53027E90E6BCE0FBC3CF
:0E047E0074809BE433FB4A9036E393FA339587
:0E048C00E0FB74A12AFA74E63BFB90E6BCE0AC
:0E049A00FC53047E90E6BCE0FDC374809DE43C
:0E04A80033FD4C9036E393FC3395E0FD74A1D8
:0E04B6002CFC74E63DFD8C828D83E0FC53042B
:0E04C400FE8A828B83ECF090E6BCE05480FA56
:0E04D200C423541FFA90E6BCE0FB740F5B904D
:0D04E000E6832AF090E683E0FA4420F00263
:0204ED00057791
:0404EF0075820022F0
:0704F30090E6B8E0FA600595
:0504FA00BA027A80182F
:0A04FF0090E6BAE0FABA0102806E3E
:0A05090090E6BAE0FABA020280643C
:0405130075820022CB
:0E05170090E6BCE0FA53027E90E6BCE0FBC327
:0E05250074809BE433FB4A9036E393FA3395DF
:0E053300E0FB74A12AFA74E63BFB90E6BCE004
:0E054100FC53047E90E6BCE0FDC374809DE494
:0E054F0033FD4C9036E393FC3395E0FD74A130
:0E055D002CFC74E63DFD8C828D83E0FC430493
:09056B00018A828B83ECF080030D
:03057400020AADCB
:0305770075820189
:01057A00225E
:0C057B00C0E0C082C083C0007880760120
:090587005391EF90E65D7401F060
:09059000D000D083D082D0E0320B
:0E059900C0E0C082C0835391EF90E65D740411
:0105A700F063
:0705A800D083D082D0E032C5
:0E05AF00C0E0C082C0835391EF90E65D7402FD
:0105BD00F04D
:0705BE00D083D082D0E032AF
:0D05C500C0E0C082C083C002C003C0007847
:0A05D200888602088603788AA602D4
:0C05DC0008A6038A828B83A37402F078C7
:0A05E800868602088603788CA602BE
:0E05F20008A6038A828B83A37407F05391EF4F
:0606000090E65D7410F0AD
:0D060600D000D003D002D083D082D0E032EB
:0C061300C0E0C082C083C0007881760186
:09061F005391EF90E65D7408F0C0
:09062800D000D083D082D0E03272
:0D063100C0E0C082C083C002C003C00090C2
:07063E00E680E0FA30E72C32
:0A06450078868602088603788AA6EC
:0D064F000208A6038A828B83A37402F07850
:0A065C00888602088603788CA60247
:0B06660008A6038A828B83A37407F0B0
:090671005391EF90E65D7420F056
:0D067A00D000D003D002D083D082D0E03277
:0306870053D8EF56
:01068A00323D
:0536CF000102000000F3
:0536D4000100000000F0
:0536D9000100000000EB
:0536DE0001F7000000EF
:0A36E30000010202030304040505C0
:0A00C600789876007899E4F608F6C1
:0C00D00008F608F6789DE4F608F608F63D
:0800DC0008F678A1E4F608F62D
:07068B001206E3E582601492
:070692001206A7E582700DBE
:0B0699001207D778A6760175820002D8
:0206A40007E06D
:0106A6002231
:0706A70078A3E624F94031BD
:0A06AE0078A3E625E0269006B87355
:0706B8000206CD0206D0028C
:0606BF0006D30206DF0273
:0606C50006D60206D90270
:0206CB0006DC4B
:0306CD0002096BB4
:0306D0000209CF4D
:0306D300021134DD
:0306D60002286E89
:0306D9000230DC10
:0306DC00021D9567
:0306DF0075820021
:0106E20022F5
:0506E300E5BA30E1045E
:0406E80075820022F5
:0706EC0078A676007A807BFE
:0606F300E78B9A7A807B80
:0C06F900E77B008A9B90E67BE0FA7B0028
:050705000ABA00010B1F
:0E070A0090E68DE0FC7D00EAB50406EBB50537
:030718000280114B
:0B071B001207D778A676017582001245
:0607260007E075820022CD
:0A072C0090E67BE0FA78A3A60290A5
:09073600E67BE0FA78A4A602902B
:0B073F00E67BE0FA78A5A602758201B7
:01074A00228C
:08074B001201BFE5BA30E10420
:04075300750A002201
:0C07570090E780E0FA7B000ABA00010B7A
:0E07630090E68DE0FC7D00EAB50406EBB505DE
:03077100028011F2
:0B0774001207D778A6760175820012EC
:06077F0007E0750AFF22ED
:0B07850090E781E0FA78A3E6B50213CC
:0C07900090E782E0FA78A4748046FBEA4F
:03079C00B503049E
:04079F00750A0122B4
:0607A30090E781E0700CFC
:0807A90090E782E0FABA0204B5
:0407B100750A0222A1
:0307B500750AFFC3
:0107B800221E
:0807B900AA827B0B7C007D404D
:0E07C10090E67BE0FE8B828C838DF012361466
:0707CF00A3AB82AC83DAEB5F
:0107D6002200
:0807D70090E68DE4F000000043
:0107DF0022F7
:0707E000AA82E5BA30E20134
:0107E70022EF
:0707E8007BC07CE78C9D7BC8
:0807EF00C07CE77C008B9E90AA
:0807F700E67CEA04F078A6900C
:0707FF00E67CE6F07B0B7CB9
:05080600007D408A06A0
:03080B00EE601785
:0E080E008B828C838DF01236AFFFA3AB82ACD1
:09081C008390E67CEFF01E80E6FB
:0A08250090E68F74022AF000000034
:01082F0022A6
:07083000AA82E5BA30E201E3
:01083700229E
:070838007BC07CE78C9D7B77
:08083F00C07CE77C008B9E9059
:08084700E67CEA04F078A690BB
:04084F00E67CE6F06D
:010853002282
:05085400E5BA30E201ED
:01085900227C
:08085A0090E7C178A6E6F090DA
:0C086200E7C0E0FA90E68F04F000000010
:01086E002267
:0E086F00AA82AB83ACF090E67BE0FDC002C035
:0E087D0003C004C0051207D7D005D004D00375
:07088B00D002E5BA30E201E2
:010892002243
:070893007EC07FE78F9D7E10
:08089A00C07FE77F008E9E90F5
:0C08A200E67CED04F090E67CE4F08D06AE
:0308AE00EE6017E2
:0E08B1008A828B838CF01236AFFFA3AA82AB33
:0908BF008390E67CEFF01E80E658
:0A08C80090E68F74022DF00000008E
:0108D2002203
:0E08D30090E618E4F000000090E6047480F057
:0E08E10000000090E6047402F00000007A04AB
:0B08EF0090E6497482F0000000DAF58A
:0E08FA0090E604E4F000000090E6A3E4F000B5
:020908000000ED
:01090A0022CA
:0E090B0090E61AE4F000000090E6047480F01C
:0D09190000000090E6047406F0000000905D
:0E092600E604E4F000000090E6A5E4F0000016
:0109340000C2
:01093500229F
:0809360090E680E0FA30E706CC
:06093E007A007B02800438
:040944007A407B007A
:0E09480090E624EBF000000090E680E0FA302C
:02095600E706B2
:060958007A007B0280041E
:04095E007A407B0060
:0809620090E625EAF000000018
:01096A00226A
:07096B0078A4B60202800728
:0709720078A4B603508005D4
:050979001207D7804DBC
:0A097E007582041207B91207D7E5CD
:080988000BF4FAE50CF4FBE5A9
:0A0990000DF4FCE50EF4FD747B2A63
:0C099A00FAE43BFBE43CFCE43DFD8A0B6E
:0509A6008B0C8C0D8D8F
:0509AB000E1212B878E5
:0C09B00099E4F608F608F608F612090BA8
:0B09BC001208D37582041207E08004CB
:0409C7007582002213
:0309CB0075820131
:0109CE002206
:0709CF0078A4B60202800EBD
:0709D60078A4B60302801EA5
:0709DD0078A4B60454803534
:0709E4001207D7750B017526
:0609EB000C00750D007503
:0A09F1000E007582041207E0803F3B
:0E09FB001207D775B28190E601E0FA4420F0B1
:0E0A090090E6C274FFF0D2B77582001207E0CB
:020A170080213C
:0E0A19001207D7C2B775B20090E601E0FA549A
:0E0A2700DFF090E6C2E4F07582001207E08076
:010A350004BC
:040A360075820022A3
:030A3A00758201C1
:010A3D002296
:0A0A3E00AA82AB83E50845097001A8
:010A4800228B
:070A4900AC14BCE6028005BD
:050A50008B05BDE6313D
:080A55008A068B07AC13AD14F7
:0E0A5D008E028F038C828D83E0F88A828B8359
:060A6B00F00EBE00010FB9
:050A71000CBC00010DAA
:080A7600150874FFB508021514
:010A7E00096E
:060A7F00E508450970D8EE
:010A8500224E
:0C0A86008C9AAC137E008C9B8D9D7B0035
:050A92008A9E020A9893
:010A9700223C
:080A9800A90890E67B05869099
:040AA000E67C058665
:080AA400E00586F00586D9F893
:010AAC002227
:0A0AAD0090E6B9E0FABAA202804A0E
:050AB700BAA302804516
:060ABC00BAE103020D8205
:060AC200BAE203020D621E
:060AC800BAE303020D6217
:060ACE00BAE403020D4230
:060AD400BAE503020D4229
:060ADA00BAE603020C4D18
:060AE000BAE703020C7AE4
:060AE600BAE803020CC295
:060AEC00BAE903020D222D
:060AF200BAEA03020CF158
:060AF800BAEB03020DA29F
:030AFE00020DC224
:0B0B010090E6BAE0FAA3E0FB8A0B8B41
:0A0B0C000C90E6BEE0FAA3E0FB90B7
:090B1600E6B8E0FCBCC00280035B
:030B1F00020BB214
:070B2200EA4B7003020DC64F
:080B290090E6A0E0FC20E1F8D9
:080B310090E6B9E0FCBCA21142
:0A0B3900750D00750E00C002C00328
:070B4300121060D003D00284
:090B4A00C3EA9440EB940050064C
:060B53008A0D8B0E8006E6
:060B5900750D40750E0051
:080B5F0090E6B9E0FCBCA20D18
:0D0B6700C002C003120FB3D003D002801AE9
:040B7400850D08855E
:030B78000E0990D3
:040B7B00E740850BBF
:030B7F0013850CCF
:0C0B820014C002C003120A3ED003D002CF
:080B8E0090E68AE4F0AC0DAD25
:080B96000E90E68BECF0EC255B
:070B9E000BFEED350CFF8E8C
:0A0BA5000B8F0CEAC39CFAEB9DFBDA
:030BAF00020B2214
:0A0BB20078A1E608467003020C4922
:0C0BBC0090E6BCE0FCA3E0FD78A1E6B5EB
:090BC800040708E6B505028002ED
:020BD10080762C
:080BD30090E6B8E0FCBC406EA6
:070BDB00EA4B7003020DC696
:090BE20090E68AE4F090E68BF045
:080BEB0090E6A0E0FC20E1F817
:0A0BF30090E68BE0FC7D008C0D8D78
:090BFD000E90E6B9E0FCBCA31F58
:040C0600850D0885CB
:030C0A000E09854B
:060C0D000B82850C8375CB
:030C130013407516
:070C160014E7C002C0031245
:080C1D000A3ED003D002800B57
:0B0C2500C002C003121060D003D00218
:060C3000AC0DAD0EEC2539
:070C36000BFEED350CFF8EF3
:0A0C3D000B8F0CEAC39CFAEB9DFB41
:020C4700809299
:040C4900758200228E
:0A0C4D0090E6B8E0FABAC002800396
:030C5700020DC6C5
:080C5A0090E6A0E0FA20E1F8A9
:0E0C620090E7407405F0A37403F090E68AE476
:0A0C7000F090E68B7402F0020DC64E
:0A0C7A0090E6B8E0FABAC002800369
:030C8400020DC698
:080C870090E6A0E0FA20E1F87C
:0E0C8F0090E740741DF0A3E4F0A3F0A3F090F2
:0B0C9D00E744E4F5F0123614A3E41263
:0A0CA8003614A3E4123614A3E4127C
:080CB200361490E68AE4F0908C
:080CBA00E68B7408F0020DC680
:080CC20090E6B8E0FABA402305
:090CCA0090E68AE4F090E68BF05C
:080CD30090E6A0E0FA20E1F830
:0C0CDB0090E740E0FAA3E0FB78A1A6023D
:060CE70008A603020DC681
:040CED0075820022EA
:080CF10090E6B8E0FABA4025D4
:070CF90078A1E60846601E29
:0C0D000090E6BCE0FAA3E0FB78A1E6B5A9
:090D0C00020708E6B503028002AB
:020D1500800755
:070D170078987601020DC679
:040D1E0075820022B8
:070D2200750BF0750C3F7525
:060D29000D04750E0075BB
:060D2F000FCD7510AB9022
:070D3500E6B8E0FABAC003C2
:030D3C00020DCADB
:030D3F00020EE3BE
:070D4200750BE0750C3F7515
:060D49000D0C750E007593
:060D4F000F7875105690AC
:070D5500E6B9E0FABAE4037D
:030D5C00020DCABB
:030D5F00020EE39E
:070D6200750BC0750C3F7515
:060D69000D10750E00756F
:060D6F000FCD7510AB90E2
:070D7500E6B9E0FABAE2035F
:030D7C00020DCA9B
:030D7F00020EE37E
:070D8200750BA0750C3F7515
:060D89000D1C750E007543
:060D8F000FCD7510AB90C2
:070D9500E6B8E0FABAC00362
:030D9C00020DCA7B
:030D9F00020EE35E
:070DA200750BF8750C3F759D
:060DA9000D02750E00753D
:060DAF000FCD7510AB90A2
:070DB500E6B8E0FABAC00342
:030DBC00020DCA5B
:030DBF00020EE33E
:040DC2007582002214
:030DC60075820132
:010DC9002207
:0C0DCA007AFF90E6B8E0FBBBC00280049A
:040DD6007582002200
:050DDA00AB0DAC0E752D
:0A0DDF000D00750E00C002C003C035
:0E0DE90004121060D004D003D00274032BFB60
:0A0DF700E43CFC8B0D8C0EC00212D0
:0A0E01000FB3D002E50D24FDFBE560
:070E0B000E34FFFC8B0D8C7F
:0B0E12000E90E740E0FBA3E0FCEBB516
:060E1D000F48ECB5104483
:040E23007A007B00D6
:0A0E27007403250DFCE4350EFD8B6D
:0A0E3100067F00C3EE9CEF9D502CDD
:0A0E3B00EB2440F582E434E7F58370
:0A0E4500E0FC2AFAEB2440FCE43440
:0A0E4F00E7FD74022B2440F582E455
:0C0E590034E7F583E0FE8C828D83F00B03
:020E650080C04B
:030E6700EA6064DA
:040E6A00850D088565
:030E6E000E0990DA
:090E7100E6B9E0FABAE1028034AE
:050E7A00BAE202803D18
:050E7F00BAE402800549
:050E8400BAE9438017EC
:020E89007A00ED
:030E8B00BA0C009E
:020E8E00503ED4
:0A0E9000EA2440F582E434E7F5831C
:060E9A007430F00A80EB49
:050EA00090E74075130E
:030EA500017514C0
:060EA80037120A3E802013
:050EAE0090E740751300
:030EB300057514AE
:060EB60037120A3E801213
:050EBC0090E7407513F2
:030EC10021751484
:060EC40037120A3E800413
:040ECA00758200220B
:0C0ECE0090E68AE4F000000090E68BE55E
:080EDA000DF00000007582011B
:010EE20022ED
:080EE30090E6B8E0FABA401CE9
:070EEB0078A1E6084660153E
:0C0EF20090E6BCE0FAA3E0FB78A1E6B5B6
:090EFE00020708E6B503028004B6
:040F070075820022CD
:090F0B0090E68AE4F090E68BF018
:080F140090E6A0E0FA20E1F8EC
:070F1C0090E68AE0FA701470
:050F2300AA0DAB0E90C9
:0E0F2800E68BE0FC7D00B50206EDB50302800D
:010F360004B6
:040F3700758200229D
:060F3B008A15AD158D06BC
:060F41008E071EEF602583
:0C0F4700C002C00374022E2440FFE434FA
:090F5300E7FCEE2440F582E434D1
:0C0F5C00E7F583E0FA8F828C83F0D0036D
:040F6800D00280D55E
:080F6C0090E740E50FF0A3E55A
:050F740010F07C407E3E
:0A0F7900E78E9A759B407C0074021D
:030F83002515FD34
:090F860090E67BE0FE2CFCDDF797
:0A0F8F00740225152440F582E434B5
:0C0F9900E7F583C3E49CFCF074032AFA23
:080FA500E43BFB8A0D8B0E12E8
:050FAD001060758201D7
:010FB200221C
:050FB300E50DFA7004D9
:040FB800758201221B
:080FBC0090E678E0FB20E6F866
:0C0FC40090E6787480F090E67974A3F059
:080FD00090E678E0FB30E0F848
:080FD80090E678E0FB20E274D2
:080FE00090E678E0FB30E16CC3
:030FE800BA010843
:080FEB0090E678E0FB4420F0E1
:070FF30090E679E07B407CF1
:060FFA00E78C9A7B407CAD
:05100000E77C008B9B62
:04100500DA02802665
:0810090090E678E0FB30E0F80E
:0810110090E678E0FB20E23BD1
:03101900BA010811
:08101C0090E678E0FB4420F0AF
:0B10240090E679E0FB90E67BF080D6C0
:08102F0090E678E0FA30E0F8E9
:0810370090E678E0FA20E215D2
:0E103F0090E678E0FA4440F090E679E0FA900E
:07104D00E67BF07582012231
:0B10540090E678E0FA4440F07582005E
:01105F00226E
:02106000AA0DD7
:0810620090E678E0FB20E6F8BF
:0C106A0090E6787480F090E67974A2F0B3
:0810760090E678E0FB30E0F8A1
:08107E0090E678E0FB20E26B34
:0810860090E678E0FB30E16325
:03108E00EA600E07
:071091007B407CE78C9A7B99
:07109800407CE77C008B9B0C
:02109F007B02D2
:0310A100EA7003EF
:0310A400EB603BC3
:0310A700EB6014E7
:0310AA00BB02087E
:0810AD0090E679E50CF08006E5
:0610B50090E679E50BF066
:0310BB001B800A8D
:0A10BE0090E67BE0FC90E679F01A62
:0810C80090E678E0FC30E0F84E
:0810D00090E678E0FC20E21933
:0810D80090E678E0FC20E1C184
:0210E000800F7F
:0E10E20090E678E0FA4440F01210FD758201AD
:0110F00022DD
:0B10F10090E678E0FA4440F0758200C1
:0110FC0022D1
:0810FD0090E678E0FA20E6F825
:0E11050090E678E0FA4480F090E67974A2F06B
:0811130090E678E0FA30E0F804
:08111B0090E678E0FA4440F090
:0811230090E678E0FA20E6F8FE
:08112B0090E678E0FA30E1D211
:011133002299
:0536ED000102000000D5
:0536F2000100000000D2
:0536F7000100000000CD
:0536FC0001F7000000D1
:04370100060150006D
:0E370500582D426F617264000000FDFDFDFD55
:0E37130000009F66F12F5B511608984ED400FF
:0E372100444F6E62557362000000FDFDFDFD19
:02372F00000098
:0711340078A4B602028077E7
:07113B0078A5B60002801147
:0B1142001207D778A6760C7582001209
:06114D0007E0758201229B
:0511530078A4E67036EF
:061158007899E630E01179
:0B115E001207D778A6760375820012F6
:0611690007E0758201227F
:06116F007899E630E4115E
:0B1175001207D778A6760375820012DF
:0611800007E07582012268
:081186007899E64401F680248B
:05118E0078A4B6010881
:081193007899E654FEF680177E
:06119B007899E620E01146
:0B11A1001207D778A6760475820012B2
:0611AC0007E0758201223C
:0A11B20078A4E624F450030212A210
:0A11BC0078A4E625E0269011C67322
:0711C6000211EA0211FA0216
:0611CD00120A0212A20248
:0611D300121702123002A7
:0611D900126402129B02E9
:0611DF00128D02128D02C8
:0511E500129402128DBE
:0A11EA001212A61207D77582001238
:0611F40007E075820122F4
:0A11FA001212B81207D77582001216
:0612040007E075820122E3
:0D120A0090373175F08012086F7582012257
:071217001207D7750B0075EB
:06121E000C6A750D187545
:0C1224000E007582041207E075820122A2
:0712300090E67BE0FA600488
:04123700D2B38002AC
:02123B00C2B33C
:07123D0090E67BE0FA60047B
:04124400D2B28002A0
:02124800C2B230
:07124A0090E67BE0FA60046E
:04125100D2B4800291
:02125500C2B421
:0D1257001207D77582001207E07582012290
:0C1264001207D7A2B3E433FA8A0BA2B23F
:0B127000E433FA8A0CA2B0E433FA8ADF
:0A127B000DA2B4E433FA8A0E758266
:08128500041207E0758201224A
:07128D0012163F75820122D9
:07129400121A4675820122C7
:07129B001212C4758201224A
:0312A20075820052
:0112A5002226
:0E12A60043B50443B50843B510D2B5C2B2D269
:0312B400B3C2B40E
:0112B7002214
:0B12B800C2B553B5E3C2B2D2B3C2B45A
:0112C3002208
:05373100010200000090
:0537360001000000008D
:05373B00010000000088
:0537400001F70000008C
:0B12C4007A007B0090E67BE0FC6004F9
:0412CF00D2B3800214
:0212D300C2B3A4
:0712D50090E67BE0FC6004E1
:0412DC00D2B2800208
:0212E000C2B298
:0E12E200C2B4758204C002C0031207B9D00363
:0E12F00000C0031207D77582001207E0D0037A
:0712FE00D002AC0BAD0CAEF9
:041305000DAF0E8C8E
:041309000F8D108EA6
:09130D00118F12EC4D4E4F7002DD
:021316007B0159
:03131800EB600681
:06131B00EA60030213CB9F
:0D132100C002C00312074BD003D002E4B598
:04132E000A028030FF
:051332007401B50A0F73
:0E1337007A01C002C0031207D7D003D0028093
:011345001C8B
:051346007402B50A135A
:0B134B007B0178A67602C002C00312EE
:0813560007D7D003D002800488
:04135E007A00806928
:03136200EB70B37A
:05136500AC0BAD0CAE65
:0A136A000DAF0EC3ED9404EE9400E5
:05137400EF940050069B
:061379008C088D098006BE
:06137F0075080075090469
:08138500AC08AD09E4FEFFE530
:09138D000BC39CFCE50C9DFDE581
:081396000D9EFEE50E9FFF8C89
:04139E000B8D0C8E19
:0313A2000D8F0E9E
:0A13A500D2B400C2B4150874FFB5FD
:0413AF000802150912
:0613B300E508450970EC9D
:0513B900E50B450C45A9
:0613BE000D450E60030264
:0213C4001318FC
:0513C6007B0102131879
:0313CB00EA6029AC
:0713CE00E50FC3950BFAE5E2
:0513D50010950CFBE582
:0513DA0011950DFCE57A
:0513DF0012950EFD8ACD
:0413E4000B8B0C8CD7
:0413E8000D8D0E78E1
:0B13EC00A6E64480F67582040207E0CC
:0113F70022D3
:0813F800A908AA09E960010A35
:0314000090E67BF8
:0E140300E01392B2D2B4C2B41392B2D2B4C209
:0E141100B41392B2D2B4C2B41392B2D2B4C227
:0E141F00B41392B2D2B4C2B41392B2D2B4C219
:0E142D00B41392B2D2B4C2B41392B2D2B4C20B
:05143B00B4D9C5DAC3BD
:011440002289
:08144100A908AA09E960010AEB
:0A14490090E67B058690E67C0586A0
:0E145300E01392B2A2B013D2B4C2B492B2A20D
:0E146100B013D2B4C2B492B2A2B013D2B4C2CD
:0E146F00B492B2A2B013D2B4C2B492B2A2B080
:0E147D0013D2B4C2B492B2A2B013D2B4C2B4AD
:0E148B0092B2A2B013D2B4C2B492B2A2B01305
:0D149900D2B4C2B40586F00586D9AFDAAD35
:0114A6002223
:0814A700A908AA09E960010A85
:0314AF0090E67C48
:0E14B200A2B0D2B4C2B413A2B0D2B4C2B4136A
:0E14C000A2B0D2B4C2B413A2B0D2B4C2B4135C
:0E14CE00A2B0D2B4C2B413A2B0D2B4C2B4134E
:0E14DC00A2B0D2B4C2B413A2B0D2B4C2B41340
:0514EA00F0D9C2DAC0D8
:0114EF0022DA
:0814F000A908AA09E960010A3C
:0314F80090E67B00
:0E14FB00E01392B3D2B4C2B41392B3D2B4C20F
:0E150900B41392B3D2B4C2B41392B3D2B4C22C
:0E151700B41392B3D2B4C2B41392B3D2B4C21E
:0E152500B41392B3D2B4C2B41392B3D2B4C210
:05153300B4D9C5DAC3C4
:011538002290
:08153900A908AA09E960010AF2
:0A15410090E67B058690E67C0586A7
:0E154B00E01392B3A2B013D2B4C2B492B3A212
:0E155900B013D2B4C2B492B3A2B013D2B4C2D3
:0E156700B492B3A2B013D2B4C2B492B3A2B085
:0E15750013D2B4C2B492B3A2B013D2B4C2B4B3
:0E15830092B3A2B013D2B4C2B492B3A2B0130A
:0D159100D2B4C2B40586F00586D9AFDAAD3C
:01159E00222A
:08159F00A908AA09E960010A8C
:0315A70090E67B50
:0E15AA00E01392B21392B3D2B4C2B41392B251
:0E15B8001392B3D2B4C2B41392B21392B3D250
:0E15C600B4C2B41392B21392B3D2B4C2B4D969
:0315D400D5DAD392
:0115D70022F1
:0815D800A908AA09E960010A53
:0A15E00090E67B058690E67C058608
:0215EA007C0281
:0E15EC00E01392B21392B3FBE8A2B013F8EB37
:0E15FA00D2B4C2B41392B21392B3FBE8A2B003
:0E16080013F8EBD2B4C2B41392B21392B3FB38
:0E161600E8A2B013F8EBD2B4C2B41392B21330
:0E16240092B3FBE8A2B013F8EBD2B4C2B4DC70
:0C163200B9E80586F0058619D9AEDAACDF
:01163E002289
:07163F007517007519007515
:071646001A0078A4B6082A7F
:08164D0075170190E67BE0F542
:081655001690E67BE0FE600444
:04165D00D2B3800282
:02166100C2B312
:04166300E516600820
:04166700751B417539
:04166B001C14805A71
:04166F00751BF8757A
:041673001C13805272
:0516770078A4B609256E
:0A167C0075160190E67BE0FC6004A7
:04168600D2B3800259
:02168A00C2B3E9
:07168C0090E67BE0FC600426
:04169300D2B280024D
:02169700C2B2DD
:04169900751BA775A1
:04169D001C14802871
:0816A10075170190E67BE0F5EE
:0816A9001690E67BE0FC6004F2
:0416B100D2B280022F
:0216B500C2B2BF
:0416B700E5166008CC
:0416BB00751B3975ED
:0416BF001C15800670
:0416C300751BF0752E
:0216C7001C14F1
:0D16C9007582041207B91207D7758200124E
:0416D60007E0850B99
:0316DA001D850C5F
:0316DD001E850D5A
:0316E0001F850E55
:0316E30020851D42
:0316E6000F851E4F
:0316E90010851F4A
:0316EC0011852045
:0A16EF00127407551DFD7A007B0000
:0716F9007C008D18AA1DE51D
:0C1700001EC423CAC423541F6ACA541F0D
:0C170C00CA6ACAFBE51FC42354E04BFB73
:0A171800AC1FE520C423CCC4235409
:0C1722001F6CCC541FCC6CCCFE8A0B8BCF
:04172E000C8C0D8E84
:051732000EE518601D2A
:05173700AA0BAB0CAC95
:0A173C000DAE0E0ABA00090BBB0047
:06174600050CBC00010EC1
:05174C008A0B8B0C8CE0
:031751000D8E0EEC
:05175400E50F45104502
:051759001145127003B0
:03175E00751901F9
:02176100C2B410
:04176300E51960071D
:07176700E51A6003021959A5
:07176E0012074BE50A602C95
:051775007401B50A0C2F
:04177A00E51A7008F4
:08177E00751A011207D7801B48
:051786007402B50A1019
:07178B001207D7E519700FEA
:0917920078A676027519018006A3
:06179B00751A0002195945
:0417A100E5176005E3
:0517A500E5AA20E0B9F7
:0417AA00E5166005DB
:0517AE00E5AA20E5B0F2
:0417B300E51970AC18
:0417B700E517600EC4
:0717BB007A007BF08B9A7AA3
:0717C200007BF07B008A9B15
:0417C900E516600EB3
:0717CD007A007BF88B9D7A86
:0717D400007BF87B008A9EF8
:0417DB00E517601995
:0E17DF0090E690E0FA8A037A0090E691E0FC32
:0A17ED007E004AF508EE4BF5098076
:0117F700549D
:0417F800850B2185B7
:0317FC000C228537
:0317FF000D238532
:031802000E249021
:07180500E680E0FF30E7067A
:06180C007A007B0280045B
:041812007A407B009D
:0C1816008A07EBFD3395E0FAFBC3EF9569
:0618220021ED9522EA957C
:0618280023EB952450188B
:08182E0090E680E0FA30E706C5
:061836007A007B02800431
:04183C007A407B0073
:061840008A088B098006F6
:04184600852108856B
:02184A00220971
:08184C00AA08AB09E4FCFDE56C
:091854000BC39AFAE50C9BFBE5BD
:08185D000D9CFCE50E9DFD8AC7
:041865000B8B0C8C51
:041869000D8D0EE5EE
:03186D00186013ED
:05187000E50B450C45ED
:051875000D450E700995
:08187A00150874FFB508021502
:01188200095C
:06188300E50845096009BB
:07188900851B82851C831200
:02189000006BEB
:07189200E5187003021923A1
:05189900E50B450C45C4
:06189E000D450E6003027F
:0218A400192306
:0618A600AA18E517700B03
:0318AC0030B20453
:0418AF007BFF800239
:0218B3007B00B8
:0218B5008005AC
:0518B70090E67BE0FB60
:0518BC0078A4B60B1D2D
:0218C1008A0497
:0B18C300EBA2E092B3C313FB30B005B2
:0518CE004303808003CC
:0318D30053037F3D
:0618D600D2B4C2B4DCE74D
:0218DC00801971
:0B18DE00EBA2E092B2C313FB30B00598
:0518E9004303808003B1
:0318EE0053037F22
:0618F100D2B4C2B4DAE734
:0418F700E516601D75
:0C18FB00AD187A007408C39DFDE49AFA51
:071907008DF005F0EB8002FA
:02190E00C31301
:08191000D5F0FBFB90E67CF032
:071918007518000508E4B595
:04191F0008020509AC
:04192300E51760095B
:0919270090E6497482F000000012
:04193000E516601246
:0A19340090E698E509F0000000902D
:08193E00E699E508F000000045
:05194600E50B450C4516
:06194B000D450E600302D1
:0219510017631A
:0619530075190102176383
:071959001208D312090BE58F
:041960001A700122D6
:04196400E518601D05
:05196800AA0BAB0CAC62
:0A196D000DAD0E1ABAFF091BBBFFF7
:06197700051CBCFF011D70
:05197D008A0B8B0C8CAD
:031982000D8D0EBA
:04198500850D23E5C4
:0A1989000EC40354F8C523C403C5BF
:04199300236523C5E0
:061997002354F8C523658E
:04199D0023F524E525
:0819A1000CC40354074523F5B3
:0319A90023850B88
:0819AC0021E50CC40354F8C549
:0619B40021C403C52165FA
:0619BA0021C52154F8C50F
:0419C000216521F587
:0319C40022852158
:0319C7000B85226B
:0319CA000C852366
:0319CD000D852461
:0919D0000EAE18E4FFFAFBEE254F
:0819D90021FEEF3522FFEA3583
:0719E10023FAEB3524FB8E15
:0419E8000B8F0C8ACB
:0419EC000D8B0EE56C
:0919F0000FC39EFEE5109FFFE508
:0819F900119AFAE5129BFB8E26
:041A01000F8F108AA9
:041A0500118B128EA1
:041A09000B8F0C8AA9
:041A0D000D8B0EE54A
:031A110017600457
:041A14007A80800252
:021A18007A0052
:041A1A00E516600469
:041A1E007B40800287
:021A22007B0047
:0A1A2400EB4A78A646F6E5176004C9
:041A2E007A048002B4
:021A32007A0038
:041A3400E51660044F
:041A38007B048002A9
:021A3C007B002D
:071A3E00EB2AF5820207E02C
:011A4500227E
:071A460075260075270075ED
:071A4D00280090E67BE0F5A4
:081A5400257582041207B91286
:091A5C0007D77582001207E0852E
:031A65000B2B85C3
:031A68000C2C85BE
:031A6B000D2D85B9
:031A6E000E2E85B4
:031A71002B0F85B3
:031A74002C1085AE
:031A77002D1185A9
:031A7A002E12E544
:041A7D002B452C4584
:051A81002D452E70034D
:031A8600752701C0
:0C1A89007407552BFAE4FDFBFC740325E8
:081A95002BFBE4352CFCE435C9
:071A9D002DFDE4352EFE8B48
:041AA4000B8C0C8D0E
:0A1AA8000DEEF50EC313FEED13FD65
:0E1AB200EC13FCEB13FBEEC313FEED13FDEC87
:0A1AC00013FCEB13FB8B0B8C0C8D59
:041ACA000D8E0EE58A
:031ACE0025600888
:041AD1007529D87526
:041AD5002A15800648
:041AD90075299F7557
:021ADD002A15C8
:021ADF00C2B48F
:041AE100E52760078E
:071AE500E5286003021CE28A
:0B1AEC00C00212074BD002E50A603474
:051AF7007401B50A10A6
:041AFC00E528700C5D
:0C1B0000752801C0021207D7D002801F18
:051B0C007402B50A148B
:0B1B1100C0021207D7D002E527700FBA
:091B1C0078A67602752701800607
:061B2500752800021CE21D
:051B2B00E5AA20E0B175
:041B3000E525600542
:051B3400E5AA20E5A870
:041B3900E52770A488
:071B3D007D007EF08E9A7D11
:081B4400007EF07E008D9BE5A0
:031B4C00256012FF
:041B4F00E526700E09
:071B53007D007EF88E9D7DF0
:071B5A00007EF87E008D9E65
:0E1B610090E690E0FD8D067D0090E691E0FF9D
:0A1B6F007B002DF508EB3EF509ABF5
:071B790008AC09E4FDFEE5E4
:091B80000BC39BFBE50C9CFCE58A
:081B89000D9DFDE50E9EFE8B93
:041B91000B8C0C8D20
:061B95000D8E0EEA602C2B
:051B9B00E50B450C45BF
:051BA0000D450E70224E
:0E1BA5008A03FC74032BFBE43CFCA2E713CB89
:0C1BB30013CBA2E713CB13CBFCE508C357
:071BBF009BF508E5099CF508
:011BC6000915
:061BC700E5084509600D70
:091BCD00C002852982852A8312D9
:041BD600006BD002CE
:061BDA00EA7003021C5F2B
:051BE000E50B450C457A
:051BE5000D450E7075B6
:091BEA007B0090E67BE0FC7D002D
:051BF300C3ED9A502330
:031BF800BD040524
:051BFB0090E67BE0FC18
:0E1C0000ECA2E092B2C313FCA2E092B3C313B5
:061C0E00FCEBA2B013FB89
:071C1400D2B4C2B40D80D868
:041C1B00E525601C3F
:0E1C1F008A047D007408C39CFCE49DFD8CF0DB
:051C2D0005F0EB800250
:021C3200C313DA
:071C3400D5F0FB90E67CF007
:0E1C3B008A037C0074032BFBE43CFCA2E7133D
:0C1C4900CB13CBA2E713CB13CBFCEB2595
:051C550008F508EC3564
:051C5A0009F5097A0004
:041C5F00E5256063B4
:051C6300E50B450C45F6
:051C68000D450E6004B3
:041C6D00E5266052B6
:071C71000508E4B5080205B7
:011C78000962
:081C7900E509C313C50813C5FA
:041C810008F509E574
:031C8500266024B2
:081C880090E680E0FB30E70666
:061C90007B007C028004D1
:041C96007B407C0013
:0C1C9A00ECA2E713CB13CBFCEB2508F504
:051CA60008EC3509F512
:011CAB00092F
:0A1CAC0090E698E509F000000090B2
:091CB600E699E508F00000007554
:041CBF002600800378
:031CC30075260182
:0C1CC60090E6497482F0000000E50B4538
:041CD2000C450D456B
:061CD6000E6003021AE19A
:061CDC00752701021AE168
:0C1CE200C0021208D30012090BD002E56A
:041CEE002870012237
:0A1CF200E50B25E0FBE50C33FCE5F3
:0A1CFC000D33FDE50E33FEEB2BFB6C
:0C1D0600EC33FCED33FDEE33FE8B0B8C58
:041D12000C8D0D8E99
:041D16000EEA603D34
:041D1A00EA30E21DAC
:051D1E00AB0BAC0CADA5
:0A1D23000DAE0E1BBBFF091CBCFF38
:061D2D00051DBDFF011EB3
:051D33008B0B8C0C8DF0
:031D38000D8E0EFF
:0A1D3B00E4FBFCFDEA250BFAEB3592
:081D45000CFBEC350DFCED3543
:051D4D000EFD8A0B8B66
:041D52000C8C0D8D5B
:011D56000E7E
:071D5700E50FC3950BFAE54F
:051D5E0010950CFBE5EF
:051D630011950DFCE5E7
:051D680012950EFD8A3A
:041D6D000F8B108C3C
:041D7100118D128A34
:041D75000B8B0C8C3C
:041D79000D8D0EE5D9
:031D7D00257008C6
:051D8000F50FF510F560
:031D850011F51243
:0C1D880078A6E644C0F67582080207E069
:011D9400222C
:0537450001020000007C
:05374A00010000000079
:05374F00010000000074
:0537540001F700000078
:0600E400752F00753000CD
:071D950078A4B6020280777A
:071D9C0078A5B600028011DA
:0B1DA3001207D778A6760C758200129C
:061DAE0007E0758201222E
:051DB40078A4E6703682
:061DB9007899E630E41108
:0B1DBF001207D778A676037582001289
:061DCA0007E07582012212
:061DD0007899E630E011F5
:0B1DD6001207D778A676037582001272
:061DE10007E075820122FB
:081DE7007899E64410F680240F
:051DEF0078A4B6010814
:081DF4007899E654EFF6801720
:061DFC007899E620E411D5
:0B1E02001207D778A676047582001244
:061E0D0007E075820122CE
:0A1E130078A4E624F75003021ECB6A
:0A1E1D0078A4E625E026901E277346
:071E2700021E42021E5802D8
:061E2E001E68021E750291
:061E34001E7F021E890260
:061E3A001EA0021EB7020B
:021E40001EC1C1
:071E4200752F00753000123E
:091E49001ECF1207D775820012AA
:061E520007E07582012289
:0A1E5800121EE11207D77582001276
:061E620007E07582012279
:0D1E680090376875F08012086F75820122B6
:0A1E7500121EFE121FBF758201222B
:0A1E7F001207D7121FBF758201225F
:0B1E890090E67BE0FAF58212201512B3
:0C1E940007D77582001207E0758201225A
:0B1EA00090E67BE0FAF582121EF312C0
:0C1EAB0007D77582001207E07582012243
:0A1EB70075820112202575820122B8
:0A1EC10075820012202575820122AF
:031ECB007582001D
:011ECE0022F1
:0E1ECF00C2B243B504D2B343B508C2B443B5A2
:031EDD0010D2B56B
:011EE00022DF
:0E1EE100C2B5C2B253B5FBD2B353B5F7C2B40B
:031EEF0053B5EFF9
:011EF20022CD
:051EF300E582FA600326
:031EF800D2B32240
:021EFB00C2B370
:011EFD0022C2
:0A1EFE007582041207B91207D78598
:031F08000B5385F3
:031F0B000C5485EE
:031F0E000D5585E9
:0A1F11000E56906BFF75F0DC7402B1
:0E1F1B001235AFAA82AB83ACF0FD0ABA000902
:091F29000BBB00050CBC00010D0E
:051F32008A0B8B0C8CF2
:0A1F37000D8D0EC374249AE49BE4A0
:051F41009CE49D40043A
:041F460075300022D0
:051F4A00AA0BAB0CAC7A
:0A1F4F000DAD0EC374579AE49BE435
:051F59009CE49D400422
:041F5E0075300122B7
:0E1F6200EA24C0FAEB34FFFBEC34FFFCED3454
:091F7000FFFD755318E4F554F56A
:0A1F790055F5568A828B838CF0ED3B
:0E1F83001235AFAA82AB83ACF0FD0ABA00099A
:091F91000BBB00050CBC00010DA6
:051F9A008A0B8B0C8C8A
:041F9F000D8D0E8511
:031FA3000B348577
:031FA6000C358572
:031FA9000D36856D
:0A1FAC000E37EB7006EC7003ED60D9
:011FB6000426
:041FB7007530FF2260
:031FBB008534303A
:011FBE002200
:041FBF00E530700D8C
:071FC300750B56750C5875F3
:061FCA000D14F50E803F2E
:0C1FD000E53075F018A4243FFAE435F069
:091FDC00FB8A53F5543395E0F53E
:0A1FE50055F556906BFF75F0DC74A3
:0E1FEF00021235AFAA82AB83ACF0FD0ABA0035
:0A1FFD00090BBB00050CBC00010D30
:052007008A0B8B0C8C1C
:03200C000D8D0E29
:06200F007582040207E0E7
:0A201500AA8274075AF52F30E10388
:03201F00D2B42216
:02202200C2B446
:012024002299
:09202500AA82753900753A009099
:09202E00E67BE0FB90E67BE0F5A7
:0420370038EA600B18
:08203B0075320190E67BE0F52F
:0320430033800CDB
:0720460090E67BE0F5317527
:05204D003301753200B3
:0E205200758204C0031207B9001207D7758209
:09206000001207E0D003AA0BAF47
:042069000CAE0DADFF
:04206D000E8A0F8F39
:04207100108E118D2F
:0420750012EB600406
:04207900D2B380025C
:02207D00C2B3EC
:07207F00E53060030221239C
:04208600E5326037A8
:04208A00E5336033A7
:05208E00E52F30E21710
:05209300E52F30E0091B
:04209800753BC2755D
:03209C003C2302E0
:02209F002150CE
:0420A100753B2075F6
:0320A5003C2402D6
:0220A8002150C5
:0520AA00E52F30E00904
:0420AF00753B067502
:0320B3003C2302C9
:0220B6002150B7
:0420B800753B64759B
:0320BC003C2302C0
:0220BF002150AE
:0420C100E532602F75
:0520C500E52F30E215DB
:0520CA00E52F30E008E5
:0420CF00753B3275B6
:0420D3003C258079AF
:0420D700753B8C7554
:0420DB003C258071AF
:0520DF00E52F30E008D0
:0420E400753B7E7555
:0420E8003C248064B0
:0420EC00753BD875F3
:0420F0003C24805CB0
:0520F400E52F30E215AC
:0520F900E52F30E008B6
:0420FE00753B9C751D
:042102003C26804AAD
:04210600753BF875B8
:04210A003C268042AD
:05210E00E52F30E008A0
:04211300753BE675BD
:042117003C258035AE
:04211B00753B40755B
:04211F003C26802DAD
:05212300E52F30E2157C
:05212800E52F30E00886
:04212D00753B547535
:042131003C27801BAC
:04213500753BDA75A7
:042139003C278013AC
:05213D00E52F30E00871
:04214200753B9775DD
:042146003C278006AC
:04214A00753B1D754F
:02214E003C282B
:04215000E539600706
:07215400E53A600302229747
:07215B0012074BE50A602C9E
:052162007401B50A0C38
:04216700E53A7008DD
:08216B00753A011207D7801B31
:052173007402B50A1022
:072178001207D7E539700FD3
:09217F0078A6760275390180068C
:06218800753A00022297E7
:04218E00E5326005D1
:05219200E5AA20E0B900
:04219700E5336005C7
:05219B00E5AA20E5B0FB
:0421A000E53970AC01
:0421A400E532600EB2
:0721A8007E007FF08F9A7E9C
:0721AF00007FF07F008E9B12
:0421B600E533600E9F
:0721BA007E007FF88F9D7E7F
:0721C100007FF87F008E9EF5
:0421C800E532601983
:0E21CC0090E690E0FE8E077E0090E691E0FA2D
:0A21DA007D004EF508ED4FF5098079
:0121E40053A7
:0421E500850F3D85A0
:0321E900103E8520
:0321EC00113F851B
:0321EF001240900B
:0721F200E680E0FC30E70687
:0621F9007A007B02800465
:0421FF007A407B00A7
:0C2203008A04EB3395E0FAFDC3EC953D36
:08220F00EB953EEA953FED95C9
:032217004050181C
:08221A0090E680E0FA30E706CF
:062222007A007B0280043B
:042228007A407B007D
:06222C008A088B09800600
:04223200853D088559
:022236003E095F
:08223800AA08AB09E4FCFDE576
:092240000FC39AFAE5109BFBE5BF
:08224900119CFCE5129DFD8AC9
:042251000F8B108C53
:04225500118D128550
:062259003B82853C83126C
:06225F00006BE53260098E
:0922650090E6497482F0000000CB
:04226E00E5336012E2
:0A22720090E698E509F000000090E6
:08227C00E699E508F0000000FE
:05228400E50F451045C7
:0622890011451260030282
:02228F002150DC
:0622910075390102215025
:04229700E5386004C2
:04229B00D2B3800238
:02229F00C2B3C8
:0722A1001208D312090BE53E
:0322A8003A605A3F
:0722AB00E50BC3950FFAE5F6
:0522B2000C9510FBE596
:0522B7000D9511FCE58E
:0522BC000E9512FD8AE1
:0422C1000B8B0C8CEB
:0422C5000D8D0E8AE3
:0422C9000F8B108CDB
:0422CD00118D12E578
:0322D10032600474
:0422D4007A8080028A
:0222D8007A008A
:0422DA00E533600484
:0422DE007B408002BF
:0222E2007B007F
:0A22E400EB4A78A646F6E5326004E6
:0422EE007A048002EC
:0222F2007A0070
:0422F400E53360046A
:0422F8007B048002E1
:0222FC007B0065
:0722FE00EB2AF5820207E064
:0123050022B5
:08230600A908AA09E960010A17
:0E230E0090E67BE03392B2B2B4B2B4A2B03328
:0E231C0092B2B2B4B2B4A2B03392B2B2B4B2C2
:0E232A00B4A2B03392B2B2B4B2B4A2B0339245
:0E233800B2B2B4B2B4A2B03392B2B2B4B2B484
:0E234600A2B03392B2B2B4B2B4A2B03392B22B
:0E235400B2B4B2B4A2B03390E67CF0D9ADDAE8
:01236200ABCF
:012363002257
:08236400A908AA09E960010AB9
:0E236C0090E67BE03392B2B2B4A2B033B2B4CA
:0E237A0092B2B2B4A2B033B2B492B2B2B4A274
:0E238800B033B2B492B2B2B4A2B033B2B492D7
:0E239600B2B2B4A2B033B2B492B2B2B4A2B03A
:0E23A40033B2B492B2B2B4A2B033B2B492B2B9
:0E23B200B2B4A2B033B2B490E67CF0D9ADDA8A
:0123C000AB71
:0123C10022F9
:0823C200A908AA09E960010A5B
:0E23CA0090E67BE01392B2B2B4B2B4A2B013AC
:0E23D80092B2B2B4B2B4A2B01392B2B2B4B226
:0E23E600B4A2B01392B2B2B4B2B4A2B01392C9
:0E23F400B2B2B4B2B4A2B01392B2B2B4B2B4E8
:0E240200A2B01392B2B2B4B2B4A2B01392B2AE
:0E241000B2B4B2B4A2B01390E67CF0D9ADDA4B
:01241E00AB12
:01241F00229A
:08242000A908AA09E960010AFC
:0E24280090E67BE01392B2B2B4A2B013B2B44D
:0E24360092B2B2B4A2B013B2B492B2B2B4A2D7
:0E244400B013B2B492B2B2B4A2B013B2B4925A
:0E245200B2B2B4A2B013B2B492B2B2B4A2B09D
:0E24600013B2B492B2B2B4A2B013B2B492B23C
:0E246E00B2B4A2B013B2B490E67CF0D9ADDAED
:01247C00ABB4
:01247D00223C
:08247E00A908AA09E960010A9E
:0324860090E67B62
:0E248900E03392B2B2B4B2B4A2B03392B2B2A7
:0E249700B4B2B4A2B03392B2B2B4B2B4A2B036
:0E24A5003392B2B2B4B2B4A2B03392B2B2B4B7
:0E24B300B2B4A2B03392B2B2B4B2B4A2B0339B
:0E24C10092B2B2B4B2B4A2B03392B2B2B4B21C
:0824CF00B4A2B033D9B4DAB2B3
:0124D70022E2
:0824D800A908AA09E960010A44
:0324E00090E67B08
:0E24E300E03392B2B2B4A2B033B2B492B2B24D
:0E24F100B4A2B033B2B492B2B2B4A2B033B25D
:0E24FF00B492B2B2B4A2B033B2B492B2B2B4DC
:0E250D00A2B033B2B492B2B2B4A2B033B2B440
:0E251B0092B2B2B4A2B033B2B492B2B2B4A2D1
:08252900B033B2B4D9B4DAB248
:012531002287
:08253200A908AA09E960010AE9
:03253A0090E67BAD
:0E253D00E01392B2B2B4B2B4A2B01392B2B232
:0E254B00B4B2B4A2B01392B2B2B4B2B4A2B0A1
:0E2559001392B2B2B4B2B4A2B01392B2B2B442
:0E256700B2B4A2B01392B2B2B4B2B4A2B01326
:0E25750092B2B2B4B2B4A2B01392B2B2B4B287
:08258300B4A2B013D9B4DAB21E
:01258B00222D
:08258C00A908AA09E960010A8F
:0325940090E67B53
:0E259700E01392B2B2B4A2B013B2B492B2B2D8
:0E25A500B4A2B013B2B492B2B2B4A2B013B2E8
:0E25B300B492B2B2B4A2B013B2B492B2B2B447
:0E25C100A2B013B2B492B2B2B4A2B013B2B4CC
:0E25CF0092B2B2B4A2B013B2B492B2B2B4A23D
:0825DD00B013B2B4D9B4DAB2B4
:0125E50022D3
:0825E600A908AA09E960010A35
:0325EE0090E67CF8
:0E25F1003392B2B2B4B2B4A2B03392B2B2B46A
:0E25FF00B2B4A2B03392B2B2B4B2B4A2B0334E
:0E260D0092B2B2B4B2B4A2B03392B2B2B4B2CE
:0E261B00B4A2B03392B2B2B4B2B4A2B0339251
:0E262900B2B2B4B2B4A2B03392B2B2B4B2B490
:08263700A2B033F0D9B4DAB20D
:01263F002278
:08264000A908AA09E960010ADA
:0326480090E67C9D
:0C264B00E5313392B2B2B4A2B033B2B4A5
:0E26570092B2B2B4A2B033B2B492B2B2B4A294
:0E266500B033B2B492B2B2B4A2B033B2B492F7
:0E267300B2B2B4A2B033B2B492B2B2B4A2B05A
:0E26810033B2B492B2B2B4A2B033B2B492B2D9
:0C268F00B2B4A2B033B2B4F0D9B2DAB0E9
:01269B00221C
:08269C00A908AA09E960010A7E
:0326A40090E67C41
:0C26A700E5311392B2B2B4B2B4A2B01389
:0E26B30092B2B2B4B2B4A2B01392B2B2B4B248
:0E26C100B4A2B01392B2B2B4B2B4A2B01392EB
:0E26CF00B2B2B4B2B4A2B01392B2B2B4B2B40A
:0E26DD00A2B01392B2B2B4B2B4A2B01392B2D1
:0C26EB00B2B4B2B4A2B013F0D9B2DAB0AD
:0126F70022C0
:0826F800A908AA09E960010A22
:0327000090E67CE4
:0C270300E5311392B2B2B4A2B013B2B42C
:0E270F0092B2B2B4A2B013B2B492B2B2B4A2FB
:0E271D00B013B2B492B2B2B4A2B013B2B4927E
:0E272B00B2B2B4A2B013B2B492B2B2B4A2B0C1
:0E27390013B2B492B2B2B4A2B013B2B492B260
:0C274700B2B4A2B013B2B4F0D9B2DAB050
:012753002263
:08275400A908AA09E960010AC5
:06275C00E532600274FF8B
:0827620004FBE533600274FF83
:02276A0004FC6D
:09276C00E531BB000490E67BE0BE
:022775007D08DD
:0727770013B2B492B2A830C6
:08277E00D8FEB2B4A2B0A830ED
:0C278600D8FEDDED13BC000490E67CF0F2
:04279200D9D8DAD6E2
:012796002220
:08279700A908AA09E960010A82
:06279F00E532600274FF48
:0827A50004FBE533600274FF40
:0227AD0004FC2A
:0927AF00E531BB000490E67BE07B
:0227B8007D089A
:0727BA0033B2B492B2A83063
:0827C100D8FEB2B4A2B0A830AA
:0C27C900D8FEDDED33BC000490E67CF08F
:0427D500D9D8DAD69F
:0127D90022DD
:0827DA00A908AA09E960010A3F
:0627E200E532600274FF05
:0827E80004FBE533600274FFFD
:0227F00004FCE7
:0927F200E531BB000490E67BE038
:0227FB007D0857
:0527FD001392B2A830A8
:08280200D8FEB2B4A2B0A83068
:0E280A00D8FEB2B4DDED13BC000490E67CF005
:04281800D9D8DAD65B
:01281C002299
:08281D00A908AA09E960010AFB
:06282500E532600274FFC1
:08282B0004FBE533600274FFB9
:0228330004FCA3
:09283500E531BB000490E67BE0F4
:02283E007D0813
:052840003392B2A83044
:08284500D8FEB2B4A2B0A83025
:0E284D00D8FEB2B4DDED33BC000490E67CF0A2
:04285B00D9D8DAD618
:01285F002256
:05375900010200000068
:05375E00010000000065
:05376300010000000060
:0537680001F700000064
:0A286000C28CC28D78A7868A78A783
:03286A0008868C51
:01286D002248
:07286E0078A4B602028060AD
:0728750078A5B600028011F6
:0B287C001207D778A6760C75820012B8
:0628870007E0758201224A
:05288D0078A4E6701FB5
:062892007899E630E21126
:0B2898001207D778A6760375820012A5
:0628A30007E0758201222E
:0828A9007899E64404F680244E
:0528B10078A4B6010847
:0828B6007899E654FBF6801747
:0628BE007899E620E2110A
:0B28C4001207D778A676047582001278
:0628CF0007E07582012202
:0A28D50078A4E624F850030229BF9E
:0A28DF0078A4E625E0269028E973AE
:0728E900022901022901028E
:0628F00029130229200259
:0628F60029A50229AD0234
:0528FC0029B50229BA14
:0C2901001207D778A7E4F608F6758200EC
:06290D001207E00229C3DD
:0D29130090377275F08012086F75820122F6
:0A2920007582041207B91207D7757B
:06292A0053FAE4F554F538
:0429300055F556857E
:062934000B82850C838577
:05293A000DF0E50E1296
:0C293F0035AFAA82AB83ACF0FD8A0B8B95
:04294B000C8C0D8D56
:07294F000EEC7003ED600CBB
:07295600750BFF750CFF7506
:05295D000D00750E00E5
:09296200E50BF4FAE50CF4FBE5C9
:08296B000DF4FCE50EF4FD780B
:08297300A7A60208A603850BCC
:03297B0053850C75
:03297E0054850D70
:0329810055850E6B
:0C298400569000FAE4F5F012362DAA82FD
:0A299000AB83ACF0FD8A0B8B0C8CBE
:07299A000D8D0E7582041281
:0429A10007E0801EAD
:0829A500758201122D7B8016E2
:0829AD00758200122D7B800EE3
:0529B500122A37800921
:0529BA00122BB68004A1
:0429BF0075820022FB
:0329C30075820119
:0129C60022EE
:0E29C70090E6F3E0FA4480F000000090E67B1A
:0C29D500E0FA90E6F1F0000000022A1782
:0E29E10090E6F3E0FA547FF000000090E67BF1
:0C29EF00E0FA90E6F1F0000000022A1768
:0B29FB0090E6F1E0122A17E582600D63
:0D2A060090E6F2E0FA90E67CF07582012285
:032A1300758200C9
:012A1600229D
:052A1700122860D28CC2
:052A1C00E5BB20E7030B
:032A2100308DF8FD
:052A2400E5BB30E704F2
:042A2900758201228F
:092A2D0090E6F574FFF0758200DB
:012A3600227D
:0A2A3700E4FAFBF508F509758204C6
:0D2A4100C002C0031207B9D00300C0031289
:0D2A4E0007D77582001207E0D003D002AC5C
:042A5B000BAD0CAE05
:042A5F000DAF0E8C1D
:042A63000F8D108E35
:092A6700118F12EC4D4E4F70026C
:022A70007B01E8
:032A7200EB600610
:062A7500EA6003022B825F
:0D2A7B00C002C00312074BD003D002E4B527
:042A88000A0280407E
:052A8C007401B50A12FF
:032A9100EA700FD9
:0E2A94007A01C002C0031207D7D003D002801F
:012AA200290A
:052AA3007402B50A1FDA
:0E2AA800C002C0031207D7D003D002EB701695
:0C2AB60090E6A37401F00000007B0178A2
:052AC200A6760280056C
:052AC7007A00022B82E1
:032ACC00EB70A309
:062ACF00E5084509702A2C
:052AD500E5AA20E02548
:072ADA007C007DF08D9A7C69
:082AE100007DF07D008C9B904C
:0E2AE900E690E0FC8C057C0090E691E0FE7F1C
:082AF700002CF508EF3DF50984
:072AFF00E508450970030220
:022B06002A7231
:0E2B0800C002C0031229C7E582D003D00270BC
:012B160006B8
:062B170078A6760580524D
:0E2B1D00C002C0031229E1E582D003D002708D
:012B2B0006A3
:062B2C0078A67606803D4C
:072B3200E50824FEF508E5AB
:062B39000934FFF509ACB0
:042B3F000BAD0CAE20
:0A2B43000DAF0E1CBCFF091DBDFF05
:062B4D00051EBEFF011F82
:052B53008C0B8D0C8EBF
:092B58000D8F0EEC4D4E4F700282
:022B61007B01F6
:062B6300E50845097006BB
:062B690090E6497482F0C1
:082B6F0078A6B60003022A72E9
:0B2B77007B0190E6A37401F0022A72BB
:0A2B8200C0021208D3D002EA602955
:072B8C00E50FC3950BFAE50C
:052B930010950CFBE5AC
:052B980011950DFCE5A4
:052B9D0012950EFD8AF7
:042BA2000B8B0C8C01
:042BA6000D8D0E780B
:0B2BAA00A6E64480F67582040207E0F6
:012BB50022FD
:0A2BB600E4FAFBF508F50975820446
:0D2BC000C002C0031207B9D00300C0031209
:0D2BCD0007D77582001207E0D003D002ACDC
:042BDA000BAD0CAE85
:042BDE000DAF0E8C9D
:042BE2000F8D108EB5
:092BE600118F12EC4D4E4F7002EC
:022BEF007B0168
:032BF100EB600690
:062BF400EA6003022D3B24
:0D2BFA00C002C00312074BD003D002E4B5A7
:042C07000A028046F7
:052C0B007401B50A127E
:032C1000EA700F58
:0E2C13007A01C002C0031207D7D003D002809E
:012C21002F83
:052C22007402B50A2553
:0E2C2700C002C0031207D7D003D002EB701C0E
:0E2C350090E6A37401F000000090E6A5740183
:092C4300F07B0178A67602800501
:052C4C007A00022D3B9F
:032C5100EB709D88
:062C5400E5084509703D92
:052C5A00E5AA20E038AE
:052C5F00E5AA20E533A9
:072C64007C007DF08D9A7CDD
:082C6B00007DF07D008C9B7CD4
:062C7300007DF88D9D7C40
:082C7900007DF87D008C9E90A7
:0E2C8100E690E0FC8C057C0090E691E0FE7F82
:082C8F00002CF508EF3DF509EA
:072C9700E508450970030286
:022C9E002BF118
:0E2CA000C002C0031229C7E582D003D0027023
:012CAE00061F
:062CAF0078A67605806A9C
:0E2CB500C002C0031229FBE582D003D00270DA
:012CC300060A
:062CC40078A6760680559B
:082CCA00150874FFB50802159E
:012CD20009F8
:052CD300AC0BAD0CAEDE
:0A2CD8000DAF0E1CBCFF091DBDFF6F
:062CE200051EBEFF011FEC
:052CE8008C0B8D0C8E29
:092CED000D8F0EEC4D4E4F7002EC
:022CF6007B0160
:062CF800E508450970210A
:0D2CFE0090E690E0FC90E698F00000009059
:0C2D0B00E691E0FC90E699F000000090DA
:082D1700E6497482F00000009F
:082D1F0078A6B60003022BF1B7
:0E2D270090E6A37401F000000090E6A5740190
:062D3500F07B01022BF10E
:0E2D3B00C0021208D30012090BD002EA603168
:072D4900E50FC3950BFAE54D
:052D500010950CFBE5ED
:052D550011950DFCE5E5
:052D5A0012950EFD8A38
:042D5F000F8B108C3A
:042D6300118D128A32
:042D67000B8B0C8C3A
:042D6B000D8D0E7844
:0B2D6F00A6E644C0F67582080207E0EB
:012D7A002236
:0C2D7B008582417B007C00C003C0041274
:0A2D870029C7E582D004D003700DC7
:0B2D91001207D778A6760575820002B5
:022D9C0007E04E
:0E2D9E00758204C003C0041207B9D00400C03F
:0B2DAC00041207D7D004D003E50B454C
:042DB7000C450D4575
:032DBB000E700295
:022DBE007C0196
:0A2DC00090E6F574FFF090E6CEE512
:092DCA000EF000000090E6CFE5D8
:092DD3000DF000000090E6D0E5CF
:092DDC000CF000000090E6D1E5C6
:0C2DE5000BF0C003C004122860D004D022
:0A2DF1000390E6D1E0FDE541601C0F
:0E2DFB0090E6187410F000000090E6D274010B
:072E0900F0000000EC703145
:072E1000F5BB000000802A61
:0E2E1700C003C004C005120936D005D004D097
:0E2E25000390E61A7408F000000090E6E274D4
:082E330002F0000000EC700643
:062E3B0075BB060000005B
:0E2E4100758200C003C004C0051207E0D00572
:042E4F00D004D003D8
:032E5300EC60062A
:062E5600EB6003022F51A6
:0E2E5C00C003C004C00512074BD005D004D03F
:072E6A0003E4B50A028066D3
:052E71007401B50A1612
:032E7600EB7013EB
:0E2E79007B01C003C004C0051207D7D005D0EE
:052E870004D003804BA4
:052E8C007402B50A42CA
:0E2E9100C003C004C0051207D7D005D004D07E
:042E9F0003EC70349C
:052EA30078A6E67004B2
:042EA80078A6760290
:042EAC00E541600894
:082EB00090E6A37401F0800616
:062EB80090E6A57401F094
:082EBE00000000E5BB20E7095C
:092EC60000000090E6F574FFF035
:042ECF007C018004FE
:042ED3007B00807A86
:052ED700E5BB20E75DF2
:0A2EDC0090E6D1E0FEB50502801279
:0E2EE600C003C004122860D004D00390E6D1CF
:042EF400E0FD802459
:032EF800308D21F9
:082EFB0078A67606E5416008A7
:082F030090E6A37401F08006C2
:062F0B0090E6A57401F040
:0B2F11007C0100000090E6F574FFF06A
:042F1C00E541600526
:052F2000E5AA30E00FFE
:072F2500E5416003022E5399
:082F2C00E5AA30E503022E5373
:052F3400D28C022E53B7
:062F3900EC6003022E53C0
:042F3F00E5417009EF
:092F430090E6487406F00000005D
:052F4C007C01022E5380
:0E2F5100C0031208D30012090BD003EB70016D
:012F5F00224F
:0C2F600090E6CEE0FB7C007D007E008B44
:052F6C004575420075EF
:062F7100430075440090CE
:0E2F7700E6CFE0FF7A007B008A048F03E4FAC5
:082F8500FF4242EA4243EB4225
:052F8D0044EC424590F8
:0E2F9200E6D0E0FD7E007A008A038E028D06F6
:092FA000E4FD4242EE4243EA4224
:052FA90044EB424590DD
:0C2FAE00E6D1E0FCE4FFFAFBE54242043F
:092FBA00E5434207E5444202E54B
:092FC300454203E50BC39CFCE54B
:082FCC000C9FFFE50D9AFAE5E8
:062FD4000E9BFB8C0B8F2D
:042FDA000C8A0D8BC5
:052FDE000EE541600456
:042FE3007A8080026E
:022FE7007A402E
:0B2FE90078A6EA46F67582040207E0B5
:012FF40022BA
:05376D00010200000054
:05377200010000000051
:0537770001000000004C
:05377C0001F700000050
:0D2FF50090E60174FAF090E6F574FFF0909C
:0A3002003825E493FA90E6F3F0900D
:0A300C003826E493FA90E6C3F09032
:0A3016003827E493FA90E6C1F09029
:0A3020003828E493FA90E6C2F0901D
:0A302A00382AE493FA90E6C0F09013
:0D303400382BE493FA90E6F4F075AF077ABC
:06304100817B378B9A7AB7
:0A304700817B377B008A9B759DE4B6
:05305100759E007A00ED
:03305600BA80003D
:02305900500C19
:0C305B0090E67BE0FB90E67CF00A80EF42
:0E30670090E67174FFF075B4FF90E672E0FA27
:0E3075004480F043B68000000090E6C4E4F012
:0E30830000000090E6C5E4F0903801E493FAF6
:0B30910090E6C6F0903802E493FA903D
:0A309C00E6C7F0903803E493FA90C1
:0A30A600E6C8F0903804E493FA90B5
:0A30B000E6C9F0903805E493FA90A9
:0A30BA00E6CAF0903806E493FA909D
:0A30C400E6CBF0903807E493FA9091
:0A30CE00E6CCF0903808E493FA9085
:0330D800E6CDF052
:0130DB0022D2
:0E37810081B9010101010107230302020202C6
:0E378F000200F7F5F5F5F5F5F5F7000000007E
:0E379D000000003F0C8A9A3FA5B53F072103AC
:0E37AB00030103030500F3F3F2F3F3F1F3F768
:0E37B9003F0000000000003F81913801010137
:0E37C70001070101070202020200F7F5F7F701
:0E37D500F7F7F7F7000075000000003F819144
:0E37E30038010101010703030500000000008A
:0E37F100F3F1F3F3F3F3F3F700006E000000C2
:0237FF00003F89
:0E3801000000000000000000000000000000B9
:0E380F000000000000000000000000000000AB
:08381D000000000000000000A3
:07382500E08000F7FA4E00FD
:0730DC0078A4B60202806037
:0730E30078A5B60002801180
:0B30EA001207D778A6760C7582001242
:0630F50007E075820122D4
:0530FB0078A4E6701F3F
:063100007899E630E311AE
:0B3106001207D778A67603758200122E
:0631110007E075820122B7
:083117007899E64408F68024D3
:05311F0078A4B60108D0
:083124007899E654F7F68017D4
:06312C007899E620E31192
:0B3132001207D778A676047582001201
:06313D0007E0758201228B
:0731430078A4E624FB403BE9
:0A314A0078A4E625E02690315473C6
:073154000231630231630246
:06315B00316E02317B021F
:023161003180BB
:0B3163001207D77582001207E0801BE6
:0D316E0090383675F08012086F75820122CE
:05317B0012318D8009F6
:053180001234A68004DA
:04318500758200222D
:033189007582014B
:01318C002220
:07318D00754600754700754F
:0931940048007582081207B91207
:0B319D0007D77582001207E0C2809087
:0E31A800E618E4F000000090E61AE4F00000E3
:0E31B6000090E6027468F000000090E630E43D
:0E31C400F000000090E631E4F090E680E0FDBF
:0331D20030E706DD
:0631D5007D007E02800473
:0431DB007D407E00B5
:0531DF008D498E4AAF8E
:0431E4000FAB10AA73
:0431E80011AC12858F
:0331EC00494B85C7
:0331EF004A4C75D2
:0831F2004D00754E00C3EF957E
:0631FA004BEB954CEA9539
:063200004DEC954E502C30
:053206008F498B4AAD69
:0C320B004A90E63474C04DF000000090C2
:07321700E635E549F0E4F59E
:04321E0008F5097531
:063222004701750F007565
:0632280010007511007595
:04322E001200807298
:0832320090E680E0FD30E71397
:0E323A0090E63474C8F000000090E635E4F031
:053248000000008012EF
:0E324D0090E63474C0F000000090E635744046
:04325B00F00000007F
:0A325F00EFC3954BFFEB954CFBEA23
:08326900954DFAEC954EFC8F27
:043271000F8B108A25
:04327500118C128521
:033279000F4F856F
:03327C001050856A
:03327F0011518565
:053282001252C3EF959C
:063287004BEB954CEA95AB
:06328D004DEC954E500BC4
:04329300854F0885D6
:0332970050097566
:04329A004701800662
:04329E0085490885D1
:0232A2004A09D7
:0A32A40090E601E0FA4403F0D2873F
:0432AE00E548600788
:0732B200E54660030234242D
:0732B90012074BE50A602E2D
:0532C0007401B50A0CC9
:0432C500E546700862
:0832C9001207D7754601801DB4
:0532D1007402B50A12B1
:0732D6001207D7E548701153
:0A32DD00C28778A6760275480180CA
:0132E70006E0
:0632E800754600023424CB
:0432EE00E54870BC83
:0532F200E5AA20E058F0
:0E32F70090E690E0FA8A037A00EB3395E0FC53
:08330500FDE50BC39AF54FE54D
:05330D000C9BF550E5EA
:053312000D9CF551E5E2
:053317000E9DF552853A
:03331C004F0B85CF
:03331F00500C85CA
:03332200510D85C5
:03332500520E90B5
:0C332800E691E0FEE4FFFAFBE54FC39ED7
:0A333400FEE5509FFFE5519AFAE50F
:06333E00529BFB8E0B8F79
:043344000C8A0D8B57
:073348000E90E6497402F04B
:0B334F0090E6A9E0FA20E2030233FB45
:0E335A0090E6A5E0FA530270BA30030233FB8E
:04336800E5476015C0
:0C336C00AA0990E63474C04AF00000008A
:0933780090E635E508F0000000C4
:0A33810090E698E54AF00000009085
:09338B00E699E549F00000008517
:0333940008498560
:03339700094AE5FB
:05339A00084509605C1C
:08339F00AA08AB09E4FCFDE5FE
:0933A7000FC39AFAE5109BFBE547
:0833B000119CFCE5129DFD8A51
:0433B8000F8B108CDB
:0433BC00118D1285D8
:0333C0000F4F8527
:0333C30010508522
:0333C6001151851D
:0333C9001252900D
:0733CC00E680E0FE30E70699
:0633D3007E007F02800471
:0433D9007E407F00B3
:0B33DD00EF3395E0FAFBC3E54F9EE5DF
:0633E800509FE5519AE53B
:0433EE00529B500995
:0433F200850F0885B6
:0333F60010097546
:0233F90047018A
:0733FB00E549454A600302A9
:0234020032AEE8
:0B34040090E6A7E0FA20E2030232AEDF
:05340F00E50B450C4532
:063414000D450E600302ED
:02341A0032AED0
:08341C00754801C2870232AEBF
:0E342400C28790E601E054FEF0E0FA4402F0A8
:073432001208D312090BE59B
:0334390046606783
:05343C0078A6E6705CBB
:0734410090E6ACE0FA701107
:0734480090E6ABE0FA700A08
:05344F00E50B450C45F2
:053454000D450E60268D
:06345900E549454A60064A
:06345F0078A6760A803811
:0734650090E6B0E0FA7007E9
:07346C0090E6AFE0FA6006F4
:0634730078A6760B802410
:0634790078A67607801E14
:06347F00E549454A600624
:0634850078A67608801213
:07348B0090E6AFE0FA7007C4
:0734920090E6B0E0FA6004CF
:0434990078A6760992
:06349D007582001207E039
:0234A300D280D5
:0134A5002204
:0D34A6007A007B007C00C002C003C004124D
:0E34B30007D77582001207E0D004D003D002C4
:0E34C100C28090E6187410F000000090E61A29
:0D34CF007408F0000000C002C003C0041229
:0E34DC000936D004D003D00290E60274E8F066
:0E34EA0000000090E601E0FD4403F0D2879060
:0C34F800E630E4F000000090E631E4F063
:03350400EA600377
:03350700EB706303
:0E350A00C002C003C00412074BD004D003D08F
:0535180002E50A603C21
:05351D007401B50A165F
:03352200EA701339
:0E3525007A01C002C003C0041207D7D004D040
:0535330003D00280211D
:053538007402B50A1841
:0E353D00C002C003C0041207D7D004D003D0D0
:04354B0002EB700A15
:06354F007C017B018004F9
:043555007A00801464
:03355900EB70A86C
:03355C00EA60A57D
:08355F0090E6A7E0FD30E29DBB
:063567007B01C287809782
:0E356D00C28790E601E054FEF0E0FB4402F05D
:0D357B00C002C0041208D3D00400C0041226
:09358800090BD004D002EA601B1B
:03359100EC7012C9
:0735940090E6ABE0FA7007BE
:07359B0090E6ACE0FA6004C9
:0435A20078A676078A
:0635A6007582001207E02F
:0235AC00D280CB
:0135AE0022FA
:05382C00010200000094
:05383100010000000091
:0538360001000000008C
:05383B0001F700000090
:0EE10000120100020000004043140500000060
:04E10E000102000109
:0AE112000A060002000000400100B0
:0EE11C0009022E0001010080FA09040000042F
:0EE12A00FF000000070501024000000705810C
:0EE138000240000007050202000200070586F3
:04E1460002000200D1
:0EE14A0009022E0001010080FA090400000401
:0EE15800FF00000007050102400000070581DE
:0EE16600024000000705020240000007058687
:04E174000240000065
:093F000002057B000205AF00027E
:083F09000599000206130002F5
:083F110005C5000206310002A3
:083F1900068B0002068B00027A
:083F2100068B0002068B000272
:083F2900068B0002068B00026A
:083F3100068B0002068B000262
:083F3900068B0002068B00025A
:083F4100068B0002068B000252
:083F4900068B0002068B00024A
:083F5100068B0002068B000242
:083F5900068B0002068B00023A
:083F6100068B0002068B000232
:083F6900068B0002068B00022A
:083F7100068B0002068B000222
:083F7900068B0002068B00021A
:083F8100068B0002068B000212
:083F8900068B0002068B00020A
:083F9100068B0002068B000202
:083F9900068B0002068B0002FA
:083FA100068B0002068B0002F2
:083FA900068B0002068B0002EA
:073FB100068B0002068B00E5
:0835AF00FB7A20E4FCFDFEFFA5
:0E35B700E5822582F582E58333F583E5F03366
:0B35C500F5F0EB33FB4017DAE9804221
:0E35D000E5822582F582E58333F583E5F0334D
:0535DE00F5F0EB33FBEA
:0E35E300EC33FCED33FDEE33FEEF33FFEC95E1
:0635F10053ED9554EE9528
:0835F70055EF95564013EC95C9
:0835FF0053FCED9554FDEE951F
:0936070055FEEF9556FF438201C8
:02361000DABE20
:02361200EB22A9
:06009C00E478FFF6D8FD38
:08007A007900E94400601B7AE3
:050082000090384078F9
:030087000075A061
:0A008A00E0E493F2A308B8000205B9
:08009400A0D9F4DAF275A0FF17
:0E36140020F71030F6118883A88220F507F603
:05362200A88375830080
:013627002280
:03362800F280F736
:02362B00F0228B
:0C362D00AAF0FBE5828553F0A4FCADF090
:0C363900E5838553F0A42DFDE435F0FE80
:0C364500E5828554F0A42DFDE5F03EFE6A
:0C365100E433FFEA8553F0A42EFEE5F000
:0C365D003FFFE5838554F0A42EFEE5F04D
:0C3669003FFFE5828555F0A42EFEE5F041
:0B3675003FFFEB8553F0A42FFFEA8518
:0A36800054F0A42FFFE5838555F0F8
:0C368A00A42FFFE5828556F0A42F8EF0DF
:053696008D838C8222EF
:0400A20075A00078CD
:0700A60000E8440060077947
:0600AD0000E4F309D8FC99
:0800B3007800E84400600C79BC
:0B00BB000090E000E4F0A3D8FCD9FAAC
:02006B00E4733C
:0E369B0090E682E044C0F090E681F0438701A3
:0636A900000000000022F9
:03006D0075815644
:0A0070001236CBE582600302006641
:0E36AF0020F71430F6148883A88220F507E671
:0636BD00A88375830022C2
:0336C300E280F7AB
:0336C600E4932268
:0236C900E022FD
:0436CB0075820022E2
:00000001FF
