:0400000002006D325B
:01000B0032C2
:0100130032BA
:01001B0032B2
:0100230032AA
:01002B0032A2
:0300330002064082
:01003B003292
:03004300021F0099
:01004B003282
:03005300021F0089
:01005B003272
:030063000206444E
:0300EA00020066AB
:050066001200ED80FE18
:0900ED007881760078807600909D
:0E00F600E60B7403F000000000000090E6002E
:0E0104007410F075802075B2EF75900075B321
:0E011200FF75B00075B5FF90E67AE0FA440183
:0B012000F090E60174E0F01201FC908A
:0E012B00E6097403F000000075890100000071
:06013900788276000876D2
:04013F00E178847669
:05014300120876E178CE
:0501480086761C08761C
:04014D00E178887657
:0A0151004A0876E1D2E843D8209076
:0E015B00E668E0FA4409F090E65CE0FA443D04
:0E016900F0D2AF90E680E0FA54F7F0538EF833
:080177001201BC7890E660075C
:07017F001201987890760050
:050186007881E660072E
:07018B0078817600121BAF22
:0501920012064480E0AC
:010197002245
:0A01980090E680E0FA440AF07A00D5
:0201A200DAFE83
:0E01A40090E65D74FFF090E65F74FFF05391FB
:0901B200EF90E680E0FA54F7F04A
:0101BB002221
:0501BC007880E6601BE5
:0701C10012027EE5827008C6
:0801C80090E6A0E0FA4401F00A
:0C01D00090E6A0E0FA4480F07880760011
:0101DC002200
:0E01DD0090E6837401F07421F07411F0743117
:0E01EB00F090E6837402F07422F07416F07443
:0201F90036F0DE
:0101FB0022E1
:0E01FC0090E610E4F000000090E611E4F00040
:0E020A00000090E612E4F000000090E613E41D
:0D021800F000000090E614E4F000000090FB
:0E022500E615E4F000000090E618E4F000009A
:0E0233000090E619E4F000000090E61AE4F0F6
:0E02410000000090E61BE4F000000090E610C4
:0E024F0074A0F000000090E61174A0F0000012
:0E025D000090E61274A0F000000090E6147409
:0E026B00E0F000000090E68DE4F000000012CC
:0502790008AB02087350
:0C027E0090E6B9E0FA24F4500302052DCC
:07028A00EA2A2A9002917399
:0702910002037802040202DF
:06029800052D0204AC027A
:06029E00052D02052D02F2
:0602A40002B502052D0267
:0602AA0003630203510290
:0502B000032A02033FD8
:0A02B50090E6BBE0FABA0102800FE8
:0502BF00BA02028036C6
:0502C400BA0602801BD8
:0502C900BA075A804253
:0902CE00788290E6B308E6F078AE
:0B02D7008286027B0090E6B4EAF00291
:0202E2000530E5
:0902E400788490E6B308E6F07896
:0B02ED008486027B0090E6B4EAF00279
:0202F8000530CF
:0902FA00788A90E6B308E6F0787A
:0B0303008A86027B0090E6B4EAF0025C
:02030E000530B8
:09031000788C90E6B308E6F07861
:0B0319008C86027B0090E6B4EAF00244
:020324000530A2
:0403260075820022BA
:08032A0090E740788FE6F090A7
:0B033200E68AE4F090E68B7401F00214
:02033D00053089
:0A033F0090E6BAE0FA788FA60212E9
:0603490001FC1201DD02BF
:02034F00053077
:0A03510090E6BAE0FA788EA60212D8
:06035B0001FC1201DD02AD
:02036100053065
:0803630090E740788EE6F0906F
:0B036B00E68AE4F090E68B7401F002DB
:02037600053050
:0A03780090E6B8E0FABA8002800AAD
:05038200BA8102801B9E
:05038700BA8274802C15
:0A038C0090E740E4F090E741F090A4
:0A039600E68AF090E68B7402F00294
:0203A000053026
:0A03A20090E740E4F090E741F0908E
:0A03AC00E68AF090E68B7402F0027E
:0203B600053010
:0E03B80090E6BCE0FA53027E90E6BCE0FBC388
:0E03C60074809BE433FB4A901BE893FA339556
:0E03D400E0FB74A12AFA74E63BFB8A828B835D
:0E03E200E0FA53020190E740EAF090E741E4B0
:0C03F000F090E68AF090E68B7402F002B8
:0203FC000530CA
:0403FE0075820022E2
:0704020090E6B8E0FA600883
:05040900BA020280129E
:03040E00020530B4
:0B04110090E6BAE0FABA0103020530E1
:04041C0075820022C3
:0904200090E6BAE060030204A8B2
:0E04290090E6BCE0FA53027E90E6BCE0FBC316
:0E04370074809BE433FB4A901BE893FA3395E4
:0E044500E0FB74A12AFA74E63BFB90E6BCE0F3
:0E045300FC53047E90E6BCE0FDC374809DE483
:0E04610033FD4C901BE893FC3395E0FD74A135
:0E046F002CFC74E63DFD8C828D83E0FC530472
:0E047D00FE8A828B83ECF090E6BCE05480FA9D
:0E048B00C423541FFA90E6BCE0FB740F5B9094
:0D049900E6832AF090E683E0FA4420F002AA
:0204A60005301F
:0404A8007582002237
:0704AC0090E6B8E0FA6005DC
:0504B300BA027A801876
:0A04B80090E6BAE0FABA0102806E85
:0A04C20090E6BAE0FABA0202806484
:0404CC007582002213
:0E04D00090E6BCE0FA53027E90E6BCE0FBC36F
:0E04DE0074809BE433FB4A901BE893FA33953D
:0E04EC00E0FB74A12AFA74E63BFB90E6BCE04C
:0E04FA00FC53047E90E6BCE0FDC374809DE4DC
:0E05080033FD4C901BE893FC3395E0FD74A18D
:0E0516002CFC74E63DFD8C828D83E0FC4304DA
:09052400018A828B83ECF0800354
:03052D00020A02BD
:03053000758201D0
:0105330022A5
:0C053400C0E0C082C083C0007880760167
:090540005391EF90E65D7401F0A7
:09054900D000D083D082D0E03252
:0E055200C0E0C082C0835391EF90E65D740458
:01056000F0AA
:07056100D083D082D0E0320C
:0E056800C0E0C082C0835391EF90E65D740244
:01057600F094
:07057700D083D082D0E032F6
:0D057E00C0E0C082C083C002C003C000788E
:0A058B00888602088603788AA6021B
:0C05950008A6038A828B83A37402F0780E
:0A05A100868602088603788CA60205
:0E05AB0008A6038A828B83A37407F05391EF96
:0605B90090E65D7410F0F5
:0D05BF00D000D003D002D083D082D0E03233
:0C05CC00C0E0C082C083C00078817601CE
:0905D8005391EF90E65D7408F008
:0905E100D000D083D082D0E032BA
:0D05EA00C0E0C082C083C002C003C000900A
:0705F700E680E0FA30E72C7A
:0A05FE0078868602088603788AA634
:0D0608000208A6038A828B83A37402F07897
:0A061500888602088603788CA6028E
:0B061F0008A6038A828B83A37407F0F7
:09062A005391EF90E65D7420F09D
:0D063300D000D003D002D083D082D0E032BE
:0306400053D8EF9D
:010643003284
:051BE30001F700000005
:0A1BE80000010202030304040505D6
:0A00C600789076007891E4F608F6D1
:0C00D00008F608F67895E4F608F608F645
:0800DC0008F67899E4F608F635
:07064400120682E58260143A
:07064B00120660E582700D4C
:0B065200120777789E76017582000287
:02065D00078014
:01065F002278
:07066000789BB60002800E3A
:07066700789BB60102800A36
:07066E00789BB6060B800625
:0306750002090B6C
:0306780002096F05
:03067B00021087E3
:03067E0075820082
:010681002256
:05068200E5BA30E104BF
:040687007582002256
:07068B00789E76007A807B67
:06069200E78B9A7A807BE1
:0C069800E77B008A9B90E67BE0FA7B0089
:0506A4000ABA00010B81
:0E06A90090E68DE0FC7D00EAB50406EBB50599
:0306B700028011AD
:0B06BA00120777789E7601758200120F
:0606C5000780758200228F
:0A06CB0090E67BE0FA789BA602900F
:0906D500E67BE0FA789CA6029095
:0B06DE00E67BE0FA789DA60275820121
:0106E90022EE
:0506EA00E5BA30E10457
:0406EF00750A002266
:0C06F30090E780E0FA7B000ABA00010BDF
:0E06FF0090E68DE0FC7D00EAB50406EBB50543
:03070D0002801156
:0B071000120777789E760175820012B8
:06071B000780750AFF22B1
:0B07210090E781E0FA789BE6B5021734
:0A072C0090E782E0FAE4BA800104CD
:09073600FA789C8603EB4A60048A
:04073F00750A012214
:0607430090E781E0700C5C
:0807490090E782E0FABA020415
:04075100750A022201
:03075500750AFF23
:01075800227E
:08075900AA827B0B7C007D40AD
:0E07610090E67BE0FE8B828C838DF0121B965F
:07076F00A3AB82AC83DAEBBF
:010776002260
:0807770090E68DE4F0000000A3
:01077F002257
:07078000AA82E5BA30E20194
:01078700224F
:070788007BC07CE78C9D7B28
:08078F00C07CE77C008B9E900A
:08079700E67CEA04F0789E9074
:07079F00E67CE6F07B0B7C19
:0507A600007D408A0601
:0307AB00EE6017E6
:0E07AE008B828C838DF0121BC3FFA3AB82AC39
:0907BC008390E67CEFF01E80E65C
:0A07C50090E68F74022AF000000095
:0107CF002207
:0707D000AA82E5BA30E20144
:0107D70022FF
:0707D8007BC07CE78C9D7BD8
:0807DF00C07CE77C008B9E90BA
:0807E700E67CEA04F0789E9024
:0407EF00E67CE6F0CE
:0107F30022E3
:0507F400E5BA30E2014E
:0107F90022DD
:0807FA0090E7C1789EE6F09043
:0C080200E7C0E0FA90E68F04F000000070
:01080E0022C7
:0E080F00AA82AB83ACF090E67BE0FDC002C095
:0E081D0003C004C005120777D005D004D00335
:07082B00D002E5BA30E20142
:0108320022A3
:070833007EC07FE78F9D7E70
:08083A00C07FE77F008E9E9055
:0C084200E67CED04F090E67CE4F08D060E
:03084E00EE601742
:0E0851008A828B838CF0121BC3FFA3AA82AB9A
:09085F008390E67CEFF01E80E6B8
:0A08680090E68F74022DF0000000EE
:010872002263
:0E08730090E618E4F000000090E6047480F0B7
:0E08810000000090E6047402F00000007A040B
:0B088F0090E6497482F0000000DAF5EA
:0E089A0090E604E4F000000090E6A3E4F00015
:0208A80000004E
:0108AA00222B
:0E08AB0090E61AE4F000000090E6047480F07D
:0D08B90000000090E6047406F000000090BE
:0E08C600E604E4F000000090E6A5E4F0000077
:0108D4000023
:0108D5002200
:0808D60090E680E0FA30E7062D
:0608DE007A007B02800499
:0408E4007A407B00DB
:0E08E80090E624EBF000000090E680E0FA308D
:0208F600E70613
:0608F8007A007B0280047F
:0408FE007A407B00C1
:0809020090E625EAF000000078
:01090A0022CA
:07090B00789CB60202800790
:07091200789CB6035080053C
:05091900120777804D7C
:0A091E00758204120759120777E5ED
:080928000BF4FAE50CF4FBE509
:0A0930000DF4FCE50EF4FD747B2AC3
:0C093A00FAE43BFBE43CFCE43DFD8A0BCE
:050946008B0C8C0D8DEF
:05094B000E1211B1784D
:0C09500091E4F608F608F608F61208AB71
:0B095C001208737582041207808004EB
:040967007582002273
:03096B0075820191
:01096E002266
:05096F00789CB60217A0
:07097400120777750B0075F7
:06097B000C00750D007573
:0A0981000E00758204120780800446
:04098B00758200224F
:03098F007582016D
:010992002242
:0A099300AA82AB83E5084509700154
:01099D002237
:07099E00AC14BCE602800569
:0509A5008B05BDE631E9
:0809AA008A068B07AC13AD14A3
:0E09B2008E028F038C828D83E0F88A828B8305
:0609C000F00EBE00010F65
:0509C6000CBC00010D56
:0809CB00150874FFB5080215C0
:0109D300091A
:0609D400E508450970D89A
:0109DA0022FA
:0C09DB008C9AAC137E008C9B8D9D7B00E1
:0509E7008A9E0209EDEB
:0109EC0022E8
:0809ED00A90890E67B05869045
:0409F500E67C058611
:0809F900E00586F00586D9F83F
:010A010022D2
:0A0A020090E6B9E0FABAA202804AB9
:050A0C00BAA3028045C1
:060A1100BAE103020CD55E
:060A1700BAE203020CB577
:060A1D00BAE303020CB570
:060A2300BAE403020C9589
:060A2900BAE503020C9582
:060A2F00BAE603020BA26F
:060A3500BAE703020BCD3D
:060A3B00BAE803020C15ED
:060A4100BAE903020C7586
:060A4700BAEA03020C44B0
:060A4D00BAEB03020CF5F8
:030A5300020D157C
:0B0A560090E6BAE0FAA3E0FB8A0B8BED
:0A0A61000C90E6BEE0FAA3E0FB9063
:090A6B00E6B8E0FCBCC002800307
:030A7400020B076B
:070A7700EA4B7003020D19A8
:080A7E0090E6A0E0FC20E1F885
:080A860090E6B9E0FCBCA211EE
:0A0A8E00750D00750E00C002C003D4
:070A9800120FB3D003D002DE
:090A9F00C3EA9440EB94005006F8
:060AA8008A0D8B0E800692
:060AAE00750D40750E00FD
:080AB40090E6B9E0FCBCA20DC4
:0D0ABC00C002C003120F06D003D002801A42
:040AC900850D08850A
:030ACD000E09907F
:040AD000E740850B6B
:030AD40013850C7B
:0C0AD70014C002C003120993D003D00227
:080AE30090E68AE4F0AC0DADD1
:080AEB000E90E68BECF0EC2507
:070AF3000BFEED350CFF8E38
:0A0AFA000B8F0CEAC39CFAEB9DFB86
:030B0400020A776B
:0A0B07007899E608467003020B9E81
:0C0B110090E6BCE0FCA3E0FD7899E6B59E
:090B1D00040708E6B50502800298
:020B26008076D7
:080B280090E6B8E0FCBC406E51
:070B3000EA4B7003020D19EE
:090B370090E68AE4F090E68BF0F0
:080B400090E6A0E0FC20E1F8C2
:0A0B480090E68BE0FC7D008C0D8D23
:090B52000E90E6B9E0FCBCA31F03
:040B5B00850D088577
:030B5F000E0985F7
:060B62000B82850C837577
:030B6800134075C2
:070B6B0014E7C002C00312F1
:080B72000993D003D002800BAF
:0B0B7A00C002C003120FB3D003D00272
:060B8500AC0DAD0EEC25E5
:070B8B000BFEED350CFF8E9F
:0A0B92000B8F0CEAC39CFAEB9DFBED
:020B9C00809245
:040B9E00758200223A
:0A0BA20090E6B8E0FABAC002800342
:030BAC00020D191E
:080BAF0090E6A0E0FA20E1F855
:0E0BB70090E7407403F0A3F090E68AE4F0901B
:080BC500E68B7402F0020D1929
:0A0BCD0090E6B8E0FABAC002800317
:030BD700020D19F3
:080BDA0090E6A0E0FA20E1F82A
:0E0BE20090E7407410F0A3E4F0A3F0A3F090AD
:0B0BF000E744E4F5F0121B96A3E412AA
:0A0BFB001B96A3E4121B96A3E4125C
:080C05001B9690E68AE4F090D2
:080C0D00E68B7408F0020D19DA
:080C150090E6B8E0FABA4023B2
:090C1D0090E68AE4F090E68BF009
:080C260090E6A0E0FA20E1F8DD
:0C0C2E0090E740E0FAA3E0FB7899A602F2
:060C3A0008A603020D19DB
:040C40007582002297
:080C440090E6B8E0FABA402581
:070C4C007899E60846601EDE
:0C0C530090E6BCE0FAA3E0FB7899E6B55F
:090C5F00020708E6B50302800259
:020C6800800703
:070C6A0078907601020D19DC
:040C71007582002266
:070C7500750BF0750C3F75D3
:060C7C000D04750E007569
:060C82000FCD7510AB90D0
:070C8800E6B8E0FABAC00370
:030C8F00020D1D36
:030C9200020E3619
:070C9500750BE0750C3F75C3
:060C9C000D0C750E007541
:060CA2000F78751056905A
:070CA800E6B9E0FABAE4032B
:030CAF00020D1D16
:030CB200020E36F9
:070CB500750BC0750C3F75C3
:060CBC000D10750E00751D
:060CC2000FCD7510AB9090
:070CC800E6B9E0FABAE2030D
:030CCF00020D1DF6
:030CD200020E36D9
:070CD500750BA0750C3F75C3
:060CDC000D1C750E0075F1
:060CE2000FCD7510AB9070
:070CE800E6B8E0FABAC00310
:030CEF00020D1DD6
:030CF200020E36B9
:070CF500750BF8750C3F754B
:060CFC000D02750E0075EB
:060D02000FCD7510AB904F
:070D0800E6B8E0FABAC003EF
:030D0F00020D1DB5
:030D1200020E3698
:040D150075820022C1
:030D1900758201DF
:010D1C0022B4
:0C0D1D007AFF90E6B8E0FBBBC002800447
:040D290075820022AD
:050D2D00AB0DAC0E75DA
:0A0D32000D00750E00C002C003C0E2
:0E0D3C0004120FB3D004D003D00274032BFBBB
:0A0D4A00E43CFC8B0D8C0EC002127D
:0A0D54000F06D002E50D24FDFBE5BB
:070D5E000E34FFFC8B0D8C2D
:0B0D65000E90E740E0FBA3E0FCEBB5C4
:060D70000F48ECB5104431
:040D76007A007B0084
:0A0D7A007403250DFCE4350EFD8B1B
:0A0D8400067F00C3EE9CEF9D502C8B
:0A0D8E00EB2440F582E434E7F5831E
:0A0D9800E0FC2AFAEB2440FCE434EE
:0A0DA200E7FD74022B2440F582E403
:0C0DAC0034E7F583E0FE8C828D83F00BB1
:020DB80080C0F9
:030DBA00EA606488
:040DBD00850D088513
:030DC1000E099088
:090DC400E6B9E0FABAE10280345C
:050DCD00BAE202803DC6
:050DD200BAE4028005F7
:050DD700BAE94380179A
:020DDC007A009B
:030DDE00BA0C004C
:020DE100503E82
:0A0DE300EA2440F582E434E7F583CA
:060DED007430F00A80EBF7
:050DF30090E7407513BC
:030DF800F7751478
:060DFB001B120993802089
:050E010090E7407513AD
:030E0600FB751465
:060E09001B120993801288
:050E0F0090E74075139F
:030E14001775143B
:060E17001C120993800487
:040E1D0075820022B8
:0C0E210090E68AE4F000000090E68BE50B
:080E2D000DF0000000758201C8
:010E3500229A
:080E360090E6B8E0FABA401C96
:070E3E007899E608466015F3
:0C0E450090E6BCE0FAA3E0FB7899E6B56B
:090E5100020708E6B50302800463
:040E5A00758200227B
:090E5E0090E68AE4F090E68BF0C6
:080E670090E6A0E0FA20E1F89A
:070E6F0090E68AE0FA70141E
:050E7600AA0DAB0E9077
:0E0E7B00E68BE0FC7D00B50206EDB5030280BB
:010E89000464
:040E8A00758200224B
:060E8E008A15AD158D066A
:060E94008E071EEF602531
:0C0E9A00C002C00374022E2440FFE434A8
:090EA600E7FCEE2440F582E4347F
:0C0EAF00E7F583E0FA8F828C83F0D0031B
:040EBB00D00280D50C
:080EBF0090E740E50FF0A3E508
:050EC70010F07C407EEC
:0A0ECC00E78E9A759B407C007402CB
:030ED6002515FDE2
:090ED90090E67BE0FE2CFCDDF745
:0A0EE200740225152440F582E43463
:0C0EEC00E7F583C3E49CFCF074032AFAD1
:080EF800E43BFB8A0D8B0E1296
:050F00000FB375820132
:010F050022C9
:050F0600E50DFA700486
:040F0B0075820122C8
:080F0F0090E678E0FB20E6F813
:0C0F170090E6787480F090E67974A3F006
:080F230090E678E0FB30E0F8F5
:080F2B0090E678E0FB20E2747F
:080F330090E678E0FB30E16C70
:030F3B00BA0108F0
:080F3E0090E678E0FB4420F08E
:070F460090E679E07B407C9E
:060F4D00E78C9A7B407C5A
:050F5300E77C008B9B10
:040F5800DA02802613
:080F5C0090E678E0FB30E0F8BC
:080F640090E678E0FB20E23B7F
:030F6C00BA0108BF
:080F6F0090E678E0FB4420F05D
:0B0F770090E679E0FB90E67BF080D66E
:080F820090E678E0FA30E0F897
:080F8A0090E678E0FA20E21580
:0E0F920090E678E0FA4440F090E679E0FA90BC
:070FA000E67BF075820122DF
:0B0FA70090E678E0FA4440F07582000C
:010FB200221C
:020FB300AA0D85
:080FB50090E678E0FB20E6F86D
:0C0FBD0090E6787480F090E67974A2F061
:080FC90090E678E0FB30E0F84F
:080FD10090E678E0FB20E26BE2
:080FD90090E678E0FB30E163D3
:030FE100EA600EB5
:070FE4007B407CE78C9A7B47
:070FEB00407CE77C008B9BBA
:020FF2007B0280
:030FF400EA70039D
:030FF700EB603B71
:030FFA00EB601495
:030FFD00BB02082C
:0810000090E679E50CF0800692
:0610080090E679E50BF013
:03100E001B800A3A
:0A10110090E67BE0FC90E679F01A0F
:08101B0090E678E0FC30E0F8FB
:0810230090E678E0FC20E219E0
:08102B0090E678E0FC20E1C131
:02103300800F2C
:0E10350090E678E0FA4440F012105075820107
:01104300228A
:0B10440090E678E0FA4440F07582006E
:01104F00227E
:0810500090E678E0FA20E6F8D2
:0E10580090E678E0FA4480F090E67974A2F019
:0810660090E678E0FA30E0F8B2
:08106E0090E678E0FA4440F03E
:0810760090E678E0FA20E6F8AC
:08107E0090E678E0FA30E1D2BF
:011086002247
:051BF20001F7000000F6
:041BF70001011030A8
:0E1BFB004A5441472D555342204361626C65A8
:0E1C0900000000FDFDFDFD000000D0B2982E91
:0E1C170044436162557362000000FDFDFDFD57
:021C25000000BD
:0600E400751600751700FF
:07108700789CB602028060B4
:07108E00789DB600028011FD
:0B109500120777789E760C758200121F
:0610A000078075820122A9
:0510A600789CE6701FBC
:0610AB007891E630E4112B
:0B10B100120777789E7603758200120C
:0610BC000780758201228D
:0810C2007891E64410F6802449
:0510CA00789CB601084E
:0810CF007891E654EFF680175A
:0610D7007891E620E4110F
:0B10DD00120777789E760475820012DF
:0610E80007807582012261
:0A10EE00789CE624F750030211A6D7
:0A10F800789CE625E02690110273B3
:0711020002111D021133026E
:0611090011430211500227
:06110F00115A02116402F6
:06111500117B02119202A1
:02111B00119C25
:07111D0075160075170012A2
:0911240011AA120777758200126E
:06112D000780758201221B
:0A1133001211B11207777582001245
:06113D000780758201220B
:0D114300901C2775F08012080F75820122A4
:0A1150001211C312128475820122ED
:0A115A001207771212847582012239
:0B11640090E67BE0FAF5821212DA122E
:0C116F000777758200120780758201224C
:0B117B0090E67BE0FAF5821211B8123A
:0C11860007777582001207807582012235
:0A1192007582011212EA7582012233
:0A119C007582001212EA758201222A
:0311A6007582004F
:0111A9002223
:0611AA00C283D285C2865B
:0111B000221C
:0611B100C283D285C28654
:0111B7002215
:0511B800E582FA60036E
:0311BD00D28522B6
:0211C000C285E6
:0111C200220A
:0A11C30075820412075912077785A0
:0311CD000B288567
:0311D0000C298562
:0311D3000D2A855D
:0A11D6000E2B906BFF75F0DC740225
:0E11E000121B31AA82AB83ACF0FD0ABA0009E3
:0911EE000BBB00050CBC00010D57
:0511F7008A0B8B0C8C3B
:0A11FC000D8D0EC374249AE49BE4E9
:051206009CE49D400482
:04120B007517002231
:05120F00AA0BAB0CACC2
:0A1214000DAD0EC374579AE49BE47D
:05121E009CE49D40046A
:041223007517012218
:0E122700EA24C0FAEB34FFFBEC34FFFCED349C
:09123500FFFD752818E4F529F508
:0A123E002AF52B8A828B838CF0EDD9
:0E124800121B31AA82AB83ACF0FD0ABA00097A
:091256000BBB00050CBC00010DEE
:05125F008A0B8B0C8CD2
:041264000D8D0E8559
:031268000B1B85D8
:03126B000C1C85D3
:03126E000D1D85CE
:0A1271000E1EEB7006EC7003ED603A
:01127B00046E
:04127C007517FF22C1
:03128000851B17B4
:011283002248
:04128400E517700DED
:07128800750B56750C58753B
:06128F000D14F50E803F76
:0C129500E51775F018A4243FFAE435F0CA
:0912A100FB8A28F5293395E0F5DC
:0A12AA002AF52B906BFF75F0DC7441
:0E12B40002121B31AA82AB83ACF0FD0ABA0015
:0A12C200090BBB00050CBC00010D78
:0512CC008A0B8B0C8C65
:0312D1000D8D0E72
:0612D40075820402078090
:0A12DA00AA8274075AF51630E103EA
:0312E400D286228D
:0212E700C286BD
:0112E90022E2
:0912EA00AA827520007521009014
:0912F300E67BE0FB90E67BE0F5F0
:0412FC001FEA600B7A
:0813000075190190E67BE0F590
:031308001A800C3C
:07130B0090E67BE0F5187588
:051312001A017519002D
:0E131700758204C00312075900120777758211
:0913250000120780D003AA0BAFEF
:04132E000CAE0DAD47
:041332000E8A0F8F81
:04133600108E118D77
:04133A0012EB60044E
:04133E00D2858002D2
:02134200C28562
:07134400E51760030213E846
:04134B00E519603709
:04134F00E51A603308
:05135300E51630E21771
:05135800E51630E0097C
:04135D0075228975F7
:031361002316024E
:0213640014155E
:041366007522E8758F
:03136A0023160245
:02136D00141555
:05136F00E51630E00965
:041374007522CB759E
:0313780023150238
:02137B00141547
:04137D0075222A7536
:031381002316022E
:0213840014153E
:04138600E519602FD6
:05138A00E51630E2153C
:05138F00E51630E00846
:041394007522FB754E
:04139800231780791E
:04139C0075225575EC
:0413A000231880711D
:0513A400E51630E00831
:0413A90075224775ED
:0413AD00231780641E
:0413B1007522A1758B
:0413B5002317805C1E
:0513B900E51630E2150D
:0513BE00E51630E00817
:0413C30075226775B3
:0413C7002319804A1C
:0413CB007522C4754E
:0413CF00231980421C
:0513D300E51630E00802
:0413D8007522AF7556
:0413DC00231880351D
:0413E00075220A75F3
:0413E4002319802D1C
:0513E800E51630E215DE
:0513ED00E51630E008E8
:0413F20075222175CA
:0413F600231A801B1B
:0413FA007522A9753A
:0413FE00231A80131B
:05140200E51630E008D2
:041407007522657570
:04140B00231A80061A
:04140F007522ED75E0
:02141300231A9A
:04141500E520600767
:07141900E521600302155CF0
:071420001206EAE50A602C48
:051427007401B50A0C80
:04142C00E52170083E
:08143000752101120777801BF2
:051438007402B50A106A
:07143D00120777E520700F94
:09144400789E76027520018006F5
:06144D0075210002155C90
:04145300E519600532
:05145700E5AA20E0B948
:04145C00E51A600528
:05146000E5AA20E5B043
:04146500E52070AC62
:04146900E519600E13
:07146D007E007FF08F9A7EE4
:07147400007FF07F008E9B5A
:04147B00E51A600E00
:07147F007E007FF88F9D7EC7
:07148600007FF87F008E9E3D
:04148D00E5196019E4
:0E14910090E690E0FE8E077E0090E691E0FA75
:0A149F007D004EF508ED4FF50980C1
:0114A90053EF
:0414AA00850F248501
:0314AE0010258581
:0314B1001126857C
:0314B4001227906C
:0714B700E680E0FC30E706CF
:0614BE007A007B028004AD
:0414C4007A407B00EF
:0C14C8008A04EB3395E0FAFDC3EC952498
:0814D400EB9525EA9526ED9544
:0314DC002750187E
:0814DF0090E680E0FA30E70618
:0614E7007A007B02800484
:0414ED007A407B00C6
:0614F1008A088B09800649
:0414F70085240885BB
:0214FB002509C1
:0814FD00AA08AB09E4FCFDE5BF
:091505000FC39AFAE5109BFBE507
:08150E00119CFCE5129DFD8A11
:041516000F8B108C9B
:04151A00118D128598
:06151E00228285238312E6
:06152400006BE5196009EF
:09152A0090E6497482F000000013
:04153300E51A601243
:0A15370090E698E509F0000000902E
:08154100E699E508F000000046
:05154900E50F4510450F
:06154E00114512600302CA
:0215540014156C
:06155600752001021415CE
:04155C00E51F600423
:04156000D2858002AE
:02156400C2853E
:071566001208731208ABE547
:03156D0021605AA0
:07157000E50BC3950FFAE53E
:051577000C9510FBE5DE
:05157C000D9511FCE5D6
:051581000E9512FD8A29
:041586000B8B0C8C33
:04158A000D8D0E8A2B
:04158E000F8B108C23
:04159200118D12E5C0
:03159600196004D5
:041599007A808002D2
:02159D007A00D2
:04159F00E51A6004E5
:0415A3007B40800207
:0215A7007B00C7
:0A15A900EB4A789E46F6E51960044F
:0415B3007A04800234
:0215B7007A00B8
:0415B900E51A6004CB
:0415BD007B04800229
:0215C1007B00AD
:0715C300EB2AF5820207800C
:0115CA0022FE
:0815CB00A908AA09E960010A60
:0E15D30090E67BE0339283B286B286A2843328
:0E15E1009283B286B286A284339283B286B21F
:0E15EF0086A284339283B286B286A28433929F
:0E15FD0083B286B286A284339283B286B2860F
:0E160B00A284339283B286B286A28433928385
:0E161900B286B286A28433F490E67CF0D9AC9F
:02162700DAAA3D
:01162900229E
:08162A00A908AA09E960010A00
:0E16320090E67BE0339283B286A28433B286C8
:0E1640009283B286A28433B2869283B286A2CF
:0E164E008433B2869283B286A28433B286922F
:0E165C0083B286A28433B2869283B286A284C1
:0E166A0033B2869283B286A28433B286928314
:0E167800B286A28433B286F490E67CF0D9AC40
:02168600DAAADE
:01168800223F
:08168900A908AA09E960010AA1
:0E16910090E67BE0139283B286B286A28413A9
:0E169F009283B286B286A284139283B286B280
:0E16AD0086A284139283B286B286A284139220
:0E16BB0083B286B286A284139283B286B28670
:0E16C900A284139283B286B286A28413928307
:0E16D700B286B286A28413F490E67CF0D9AC01
:0216E500DAAA7F
:0116E70022E0
:0816E800A908AA09E960010A42
:0E16F00090E67BE0139283B286A28413B2864A
:0E16FE009283B286A28413B2869283B286A231
:0E170C008413B2869283B286A28413B28692B0
:0E171A0083B286A28413B2869283B286A28422
:0E17280013B2869283B286A28413B286928395
:0E173600B286A28413B286F490E67CF0D9ACA1
:02174400DAAA1F
:011746002280
:08174700A908AA09E960010AE2
:03174F0090E67BA6
:0E175200E0339283B286B286A284339283B2D1
:0E17600086B286A284339283B286B286A284B9
:0E176E00339283B286B286A284339283B2860F
:0E177C00B286A284339283B286B286A28433F0
:0E178A009283B286B286A284339283B286B274
:0817980086A28433D9B4DAB251
:0117A0002226
:0817A100A908AA09E960010A88
:0317A90090E67B4C
:0E17AC00E0339283B286A28433B2869283B277
:0E17BA0086A28433B2869283B286A28433B2B2
:0E17C800869283B286A28433B2869283B28662
:0E17D600A28433B2869283B286A28433B28696
:0E17E4009283B286A28433B2869283B286A22A
:0817F2008433B286D9B4DAB2E7
:0117FA0022CC
:0817FB00A908AA09E960010A2E
:0318030090E67BF1
:0E180600E0139283B286B286A284139283B25C
:0E18140086B286A284139283B286B286A28424
:0E182200139283B286B286A284139283B2869A
:0E183000B286A284139283B286B286A284137B
:0E183E009283B286B286A284139283B286B2DF
:08184C0086A28413D9B4DAB2BC
:011854002271
:08185500A908AA09E960010AD3
:03185D0090E67B97
:0E186000E0139283B286A28413B2869283B202
:0E186E0086A28413B2869283B286A28413B23D
:0E187C00869283B286A28413B2869283B286CD
:0E188A00A28413B2869283B286A28413B28621
:0E1898009283B286A28413B2869283B286A295
:0818A6008413B286D9B4DAB252
:0118AE002217
:0818AF00A908AA09E960010A79
:0318B70090E67C3C
:0E18BA00339283B286B286A284339283B286C2
:0E18C800B286A284339283B286B286A28433A3
:0E18D6009283B286B286A284339283B286B227
:0E18E40086A284339283B286B286A2843392A7
:0E18F20083B286B286A284339283B286B28617
:09190000A28433F4F0D9B3DAB18A
:0119090022BB
:08190A00A908AA09E960010A1D
:0319120090E67CE0
:0C191500E518339283B286A28433B286B8
:0E1921009283B286A28433B2869283B286A2EB
:0E192F008433B2869283B286A28433B286924B
:0E193D0083B286A28433B2869283B286A284DD
:0E194B0033B2869283B286A28433B286928330
:0D195900B286A28433B286F4F0D9B1DAAFC1
:01196600225E
:08196700A908AA09E960010AC0
:03196F0090E67C83
:0C197200E518139283B286B286A284139B
:0E197E009283B286B286A284139283B286B29E
:0E198C0086A284139283B286B286A28413923E
:0E199A0083B286B286A284139283B286B2868E
:0E19A800A284139283B286B286A28413928325
:0D19B600B286B286A28413F4F0D9B1DAAF84
:0119C3002201
:0819C400A908AA09E960010A63
:0319CC0090E67C26
:0C19CF00E518139283B286A28413B2863E
:0E19DB009283B286A28413B2869283B286A251
:0E19E9008413B2869283B286A28413B28692D1
:0E19F70083B286A28413B2869283B286A28443
:0E1A050013B2869283B286A28413B2869283B5
:0D1A1300B286A28413B286F4F0D9B1DAAF26
:011A200022A3
:081A2100A908AA09E960010A05
:061A2900E519600274FFE4
:081A2F0004FBE51A600274FFDC
:021A370004FCAD
:091A3900E518BB000490E67BE017
:021A42007D081D
:071A440013B2869283A8177C
:081A4B00D8FEB286A284A817A0
:0D1A5300D8FEDDED13BC0005F490E67CF03C
:041A6000D9D7DAD523
:011A6400225F
:081A6500A908AA09E960010AC1
:061A6D00E519600274FFA0
:081A730004FBE51A600274FF98
:021A7B0004FC69
:091A7D00E518BB000490E67BE0D3
:021A86007D08D9
:071A880033B2869283A81718
:081A8F00D8FEB286A284A8175C
:0D1A9700D8FEDDED33BC0005F490E67CF0D8
:041AA400D9D7DAD5DF
:011AA800221B
:081AA900A908AA09E960010A7D
:061AB100E519600274FF5C
:081AB70004FBE51A600274FF54
:021ABF0004FC25
:091AC100E518BB000490E67BE08F
:021ACA007D0895
:051ACC00139283A8172E
:081AD100D8FEB286A284A8171A
:0E1AD900D8FEB286DDED13BC0005F490E67C6D
:011AE700F00E
:041AE800D9D7DAD59B
:011AEC0022D7
:081AED00A908AA09E960010A39
:061AF500E519600274FF18
:081AFB0004FBE51A600274FF10
:021B030004FCE0
:091B0500E518BB000490E67BE04A
:021B0E007D0850
:051B1000339283A817C9
:081B1500D8FEB286A284A817D5
:0E1B1D00D8FEB286DDED33BC0005F490E67C08
:011B2B00F0C9
:041B2C00D9D7DAD556
:011B30002292
:051C270001F7000000C0
:0EE10000120100020000004043140100000064
:04E10E000102000109
:0AE112000A060002000000400100B0
:0EE11C0009022E0001010080FA09040000042F
:0EE12A00FF000000070501024000000705810C
:0EE138000240000007050202000200070586F3
:04E1460002000200D1
:0EE14A0009022E0001010080FA090400000401
:0EE15800FF00000007050102400000070581DE
:0EE16600024000000705020240000007058687
:04E174000240000065
:091F00000205340002056800022C
:081F09000552000205CC0002A4
:081F1100057E000205EA000252
:081F1900064400020644000228
:081F2100064400020644000220
:081F2900064400020644000218
:081F3100064400020644000210
:081F3900064400020644000208
:081F4100064400020644000200
:081F49000644000206440002F8
:081F51000644000206440002F0
:081F59000644000206440002E8
:081F61000644000206440002E0
:081F69000644000206440002D8
:081F71000644000206440002D0
:081F79000644000206440002C8
:081F81000644000206440002C0
:081F89000644000206440002B8
:081F91000644000206440002B0
:081F99000644000206440002A8
:081FA1000644000206440002A0
:081FA900064400020644000298
:071FB1000644000206440093
:081B3100FB7A20E4FCFDFEFF3D
:0E1B3900E5822582F582E58333F583E5F033FE
:0B1B4700F5F0EB33FB4017DAE98042B9
:0E1B5200E5822582F582E58333F583E5F033E5
:051B6000F5F0EB33FB82
:0E1B6500EC33FCED33FDEE33FEEF33FFEC9579
:061B730028ED9529EE9516
:081B79002AEF952B4013EC95B7
:081B810028FCED9529FDEE950D
:091B89002AFEEF952BFF438201B7
:021B9200DABEB9
:021B9400EB2242
:06009C00E478FFF6D8FD38
:08007A007900E94400601B7AE3
:0500820000901C2C7829
:030087000075A061
:0A008A00E0E493F2A308B8000205B9
:08009400A0D9F4DAF275A0FF17
:0E1B960020F71030F6118883A88220F507F69C
:051BA400A88375830019
:011BA9002219
:031BAA00F280F7CF
:021BAD00F02224
:0400A20075A00078CD
:0700A60000E8440060077947
:0600AD0000E4F309D8FC99
:0800B3007800E84400600C79BC
:0B00BB000090E000E4F0A3D8FCD9FAAC
:02006B00E4733C
:0E1BAF0090E682E044C0F090E681F0438701AA
:061BBD0000000000002200
:03006D0075812B6F
:0A007000121BDFE582600302006648
:0E1BC30020F71430F6148883A88220F507E678
:061BD100A88375830022C9
:031BD700E280F7B2
:031BDA00E493226F
:021BDD00E02204
:041BDF0075820022E9
:00000001FF
