:0400000002006D325B
:01000B0032C2
:0100130032BA
:01001B0032B2
:0100230032AA
:01002B0032A2
:0300330002064082
:01003B003292
:03004300023F0079
:01004B003282
:03005300023F0069
:01005B003272
:030063000206444E
:0300EA00020066AB
:050066001200ED80FE18
:0900ED007881760078807600909D
:0E00F600E60B7403F000000000000090E6002E
:0E0104007410F075802075B2EF75900075B321
:0E011200FF75B00075B5FF90E67AE0FA440183
:0B012000F090E60174E0F01201FC908A
:0E012B00E6097403F000000075890100000071
:06013900788276000876D2
:04013F00E178847669
:05014300120876E178CE
:0501480086761C08761C
:04014D00E178887657
:0A0151004A0876E1D2E843D8209076
:0E015B00E668E0FA4409F090E65CE0FA443D04
:0E016900F0D2AF90E680E0FA54F7F0538EF833
:080177001201BC7890E660075C
:07017F001201987890760050
:050186007881E660072E
:07018B007881760012284C78
:0501920012064480E0AC
:010197002245
:0A01980090E680E0FA440AF07A00D5
:0201A200DAFE83
:0E01A40090E65D74FFF090E65F74FFF05391FB
:0901B200EF90E680E0FA54F7F04A
:0101BB002221
:0501BC007880E6601BE5
:0701C10012027EE5827008C6
:0801C80090E6A0E0FA4401F00A
:0C01D00090E6A0E0FA4480F07880760011
:0101DC002200
:0E01DD0090E6837401F07421F07411F0743117
:0E01EB00F090E6837402F07422F07416F07443
:0201F90036F0DE
:0101FB0022E1
:0E01FC0090E610E4F000000090E611E4F00040
:0E020A00000090E612E4F000000090E613E41D
:0D021800F000000090E614E4F000000090FB
:0E022500E615E4F000000090E618E4F000009A
:0E0233000090E619E4F000000090E61AE4F0F6
:0E02410000000090E61BE4F000000090E610C4
:0E024F0074A0F000000090E61174A0F0000012
:0E025D000090E61274A0F000000090E6147409
:0E026B00E0F000000090E68DE4F000000012CC
:0502790008B502087D3C
:0C027E0090E6B9E0FA24F4500302052DCC
:07028A00EA2A2A9002917399
:0702910002037802040202DF
:06029800052D0204AC027A
:06029E00052D02052D02F2
:0602A40002B502052D0267
:0602AA0003630203510290
:0502B000032A02033FD8
:0A02B50090E6BBE0FABA0102800FE8
:0502BF00BA02028036C6
:0502C400BA0602801BD8
:0502C900BA075A804253
:0902CE00788290E6B308E6F078AE
:0B02D7008286027B0090E6B4EAF00291
:0202E2000530E5
:0902E400788490E6B308E6F07896
:0B02ED008486027B0090E6B4EAF00279
:0202F8000530CF
:0902FA00788A90E6B308E6F0787A
:0B0303008A86027B0090E6B4EAF0025C
:02030E000530B8
:09031000788C90E6B308E6F07861
:0B0319008C86027B0090E6B4EAF00244
:020324000530A2
:0403260075820022BA
:08032A0090E740788FE6F090A7
:0B033200E68AE4F090E68B7401F00214
:02033D00053089
:0A033F0090E6BAE0FA788FA60212E9
:0603490001FC1201DD02BF
:02034F00053077
:0A03510090E6BAE0FA788EA60212D8
:06035B0001FC1201DD02AD
:02036100053065
:0803630090E740788EE6F0906F
:0B036B00E68AE4F090E68B7401F002DB
:02037600053050
:0A03780090E6B8E0FABA8002800AAD
:05038200BA8102801B9E
:05038700BA8274802C15
:0A038C0090E740E4F090E741F090A4
:0A039600E68AF090E68B7402F00294
:0203A000053026
:0A03A20090E740E4F090E741F0908E
:0A03AC00E68AF090E68B7402F0027E
:0203B600053010
:0E03B80090E6BCE0FA53027E90E6BCE0FBC388
:0E03C60074809BE433FB4A90288A93FA3395A7
:0E03D400E0FB74A12AFA74E63BFB8A828B835D
:0E03E200E0FA53020190E740EAF090E741E4B0
:0C03F000F090E68AF090E68B7402F002B8
:0203FC000530CA
:0403FE0075820022E2
:0704020090E6B8E0FA600883
:05040900BA020280129E
:03040E00020530B4
:0B04110090E6BAE0FABA0103020530E1
:04041C0075820022C3
:0904200090E6BAE060030204A8B2
:0E04290090E6BCE0FA53027E90E6BCE0FBC316
:0E04370074809BE433FB4A90288A93FA339535
:0E044500E0FB74A12AFA74E63BFB90E6BCE0F3
:0E045300FC53047E90E6BCE0FDC374809DE483
:0E04610033FD4C90288A93FC3395E0FD74A186
:0E046F002CFC74E63DFD8C828D83E0FC530472
:0E047D00FE8A828B83ECF090E6BCE05480FA9D
:0E048B00C423541FFA90E6BCE0FB740F5B9094
:0D049900E6832AF090E683E0FA4420F002AA
:0204A60005301F
:0404A8007582002237
:0704AC0090E6B8E0FA6005DC
:0504B300BA027A801876
:0A04B80090E6BAE0FABA0102806E85
:0A04C20090E6BAE0FABA0202806484
:0404CC007582002213
:0E04D00090E6BCE0FA53027E90E6BCE0FBC36F
:0E04DE0074809BE433FB4A90288A93FA33958E
:0E04EC00E0FB74A12AFA74E63BFB90E6BCE04C
:0E04FA00FC53047E90E6BCE0FDC374809DE4DC
:0E05080033FD4C90288A93FC3395E0FD74A1DE
:0E0516002CFC74E63DFD8C828D83E0FC4304DA
:09052400018A828B83ECF0800354
:03052D00020A0CB3
:03053000758201D0
:0105330022A5
:0C053400C0E0C082C083C0007880760167
:090540005391EF90E65D7401F0A7
:09054900D000D083D082D0E03252
:0E055200C0E0C082C0835391EF90E65D740458
:01056000F0AA
:07056100D083D082D0E0320C
:0E056800C0E0C082C0835391EF90E65D740244
:01057600F094
:07057700D083D082D0E032F6
:0D057E00C0E0C082C083C002C003C000788E
:0A058B00888602088603788AA6021B
:0C05950008A6038A828B83A37402F0780E
:0A05A100868602088603788CA60205
:0E05AB0008A6038A828B83A37407F05391EF96
:0605B90090E65D7410F0F5
:0D05BF00D000D003D002D083D082D0E03233
:0C05CC00C0E0C082C083C00078817601CE
:0905D8005391EF90E65D7408F008
:0905E100D000D083D082D0E032BA
:0D05EA00C0E0C082C083C002C003C000900A
:0705F700E680E0FA30E72C7A
:0A05FE0078868602088603788AA634
:0D0608000208A6038A828B83A37402F07897
:0A061500888602088603788CA6028E
:0B061F0008A6038A828B83A37407F0F7
:09062A005391EF90E65D7420F09D
:0D063300D000D003D002D083D082D0E032BE
:0306400053D8EF9D
:010643003284
:05288000010200000050
:0528850001F700000056
:0A288A000001020203030404050527
:0A00C600789076007891E4F608F6D1
:0C00D00008F608F67895E4F608F608F645
:0800DC0008F67899E4F608F635
:0706440012068CE582601430
:07064B00120660E582700D4C
:0B065200120781789E7601758200027D
:02065D00078A0A
:01065F002278
:07066000789BB60002801533
:07066700789BB6010280112F
:07066E00789BB60202800D2B
:07067500789BB6060E800918
:03067C000209155B
:03067F00020979F4
:03068200021091D2
:03068500021D0D46
:0306880075820078
:01068B00224C
:05068C00E5BA30E104B5
:04069100758200224C
:07069500789E76007A807B5D
:06069C00E78B9A7A807BD7
:0C06A200E77B008A9B90E67BE0FA7B007F
:0506AE000ABA00010B77
:0E06B30090E68DE0FC7D00EAB50406EBB5058F
:0306C100028011A3
:0B06C400120781789E760175820012FB
:0606CF00078A758200227B
:0A06D50090E67BE0FA789BA6029005
:0906DF00E67BE0FA789CA602908B
:0B06E800E67BE0FA789DA60275820117
:0106F30022E4
:0506F400E5BA30E1044D
:0406F900750A00225C
:0C06FD0090E780E0FA7B000ABA00010BD5
:0E07090090E68DE0FC7D00EAB50406EBB50538
:030717000280114C
:0B071A00120781789E760175820012A4
:06072500078A750AFF229D
:0B072B0090E781E0FA789BE6B502172A
:0A07360090E782E0FAE4BA800104C3
:09074000FA789C8603EB4A600480
:04074900750A01220A
:06074D0090E781E0700C52
:0807530090E782E0FABA02040B
:04075B00750A0222F7
:03075F00750AFF19
:010762002274
:08076300AA827B0B7C007D40A3
:0E076B0090E67BE0FE8B828C838DF0122833AB
:07077900A3AB82AC83DAEBB5
:010780002256
:0807810090E68DE4F000000099
:01078900224D
:07078A00AA82E5BA30E2018A
:010791002245
:070792007BC07CE78C9D7B1E
:08079900C07CE77C008B9E9000
:0807A100E67CEA04F0789E906A
:0707A900E67CE6F07B0B7C0F
:0507B000007D408A06F7
:0307B500EE6017DC
:0E07B8008B828C838DF0122860FFA3AB82AC85
:0907C6008390E67CEFF01E80E652
:0A07CF0090E68F74022AF00000008B
:0107D90022FD
:0707DA00AA82E5BA30E2013A
:0107E10022F5
:0707E2007BC07CE78C9D7BCE
:0807E900C07CE77C008B9E90B0
:0807F100E67CEA04F0789E901A
:0407F900E67CE6F0C4
:0107FD0022D9
:0507FE00E5BA30E20144
:0108030022D2
:0808040090E7C1789EE6F09038
:0C080C00E7C0E0FA90E68F04F000000066
:0108180022BD
:0E081900AA82AB83ACF090E67BE0FDC002C08B
:0E08270003C004C005120781D005D004D00321
:07083500D002E5BA30E20138
:01083C002299
:07083D007EC07FE78F9D7E66
:08084400C07FE77F008E9E904B
:0C084C00E67CED04F090E67CE4F08D0604
:03085800EE601738
:0E085B008A828B838CF0122860FFA3AA82ABE6
:090869008390E67CEFF01E80E6AE
:0A08720090E68F74022DF0000000E4
:01087C002259
:0E087D0090E618E4F000000090E6047480F0AD
:0E088B0000000090E6047402F00000007A0401
:0B08990090E6497482F0000000DAF5E0
:0E08A40090E604E4F000000090E6A3E4F0000B
:0208B200000044
:0108B4002221
:0E08B50090E61AE4F000000090E6047480F073
:0D08C30000000090E6047406F000000090B4
:0E08D000E604E4F000000090E6A5E4F000006D
:0108DE000019
:0108DF0022F6
:0808E00090E680E0FA30E70623
:0608E8007A007B0280048F
:0408EE007A407B00D1
:0E08F20090E624EBF000000090E680E0FA3083
:02090000E70608
:060902007A007B02800474
:040908007A407B00B6
:08090C0090E625EAF00000006E
:0109140022C0
:07091500789CB60202800786
:07091C00789CB60350800532
:05092300120781804D68
:0A092800758204120763120781E5CF
:080932000BF4FAE50CF4FBE5FF
:0A093A000DF4FCE50EF4FD747B2AB9
:0C094400FAE43BFBE43CFCE43DFD8A0BC4
:050950008B0C8C0D8DE5
:050955000E12120E78E5
:0C095A0091E4F608F608F608F61208B55D
:0B09660012087D75820412078A8004CD
:040971007582002269
:0309750075820187
:01097800225C
:05097900789CB6021796
:07097E00120781750B0075E3
:060985000C00750D007569
:0A098B000E0075820412078A800432
:040995007582002245
:0309990075820163
:01099C002238
:0A099D00AA82AB83E508450970014A
:0109A700222D
:0709A800AC14BCE60280055F
:0509AF008B05BDE631DF
:0809B4008A068B07AC13AD1499
:0E09BC008E028F038C828D83E0F88A828B83FB
:0609CA00F00EBE00010F5B
:0509D0000CBC00010D4C
:0809D500150874FFB5080215B6
:0109DD000910
:0609DE00E508450970D890
:0109E40022F0
:0C09E5008C9AAC137E008C9B8D9D7B00D7
:0509F1008A9E0209F7D7
:0109F60022DE
:0809F700A90890E67B0586903B
:0409FF00E67C058607
:080A0300E00586F00586D9F834
:010A0B0022C8
:0A0A0C0090E6B9E0FABAA202804AAF
:050A1600BAA3028045B7
:060A1B00BAE103020CDF4A
:060A2100BAE203020CBF63
:060A2700BAE303020CBF5C
:060A2D00BAE403020C9F75
:060A3300BAE503020C9F6E
:060A3900BAE603020BAC5B
:060A3F00BAE703020BD729
:060A4500BAE803020C1FD9
:060A4B00BAE903020C7F72
:060A5100BAEA03020C4E9C
:060A5700BAEB03020CFFE4
:030A5D00020D1F68
:0B0A600090E6BAE0FAA3E0FB8A0B8BE3
:0A0A6B000C90E6BEE0FAA3E0FB9059
:090A7500E6B8E0FCBCC0028003FD
:030A7E00020B1157
:070A8100EA4B7003020D2394
:080A880090E6A0E0FC20E1F87B
:080A900090E6B9E0FCBCA211E4
:0A0A9800750D00750E00C002C003CA
:070AA200120FBDD003D002CA
:090AA900C3EA9440EB94005006EE
:060AB2008A0D8B0E800688
:060AB800750D40750E00F3
:080ABE0090E6B9E0FCBCA20DBA
:0D0AC600C002C003120F10D003D002801A2E
:040AD300850D088500
:030AD7000E099075
:040ADA00E740850B61
:030ADE0013850C71
:0C0AE10014C002C00312099DD003D00213
:080AED0090E68AE4F0AC0DADC7
:080AF5000E90E68BECF0EC25FD
:070AFD000BFEED350CFF8E2E
:0A0B04000B8F0CEAC39CFAEB9DFB7B
:030B0E00020A8157
:0A0B11007899E608467003020BA86D
:0C0B1B0090E6BCE0FCA3E0FD7899E6B594
:090B2700040708E6B5050280028E
:020B30008076CD
:080B320090E6B8E0FCBC406E47
:070B3A00EA4B7003020D23DA
:090B410090E68AE4F090E68BF0E6
:080B4A0090E6A0E0FC20E1F8B8
:0A0B520090E68BE0FC7D008C0D8D19
:090B5C000E90E6B9E0FCBCA31FF9
:040B6500850D08856D
:030B69000E0985ED
:060B6C000B82850C83756D
:030B7200134075B8
:070B750014E7C002C00312E7
:080B7C00099DD003D002800B9B
:0B0B8400C002C003120FBDD003D0025E
:060B8F00AC0DAD0EEC25DB
:070B95000BFEED350CFF8E95
:0A0B9C000B8F0CEAC39CFAEB9DFBE3
:020BA60080923B
:040BA8007582002230
:0A0BAC0090E6B8E0FABAC002800338
:030BB600020D230A
:080BB90090E6A0E0FA20E1F84B
:0E0BC10090E7407403F0A3F090E68AE4F09011
:080BCF00E68B7402F0020D2315
:0A0BD70090E6B8E0FABAC00280030D
:030BE100020D23DF
:080BE40090E6A0E0FA20E1F820
:0E0BEC0090E7407411F0A3E4F0A3F0A3F090A2
:0B0BFA00E744E4F5F0122833A3E412F6
:0A0C05002833A3E4122833A3E412FD
:080C0F00283390E68AE4F0901E
:080C1700E68B7408F0020D23C6
:080C1F0090E6B8E0FABA4023A8
:090C270090E68AE4F090E68BF0FF
:080C300090E6A0E0FA20E1F8D3
:0C0C380090E740E0FAA3E0FB7899A602E8
:060C440008A603020D23C7
:040C4A00758200228D
:080C4E0090E6B8E0FABA402577
:070C56007899E60846601ED4
:0C0C5D0090E6BCE0FAA3E0FB7899E6B555
:090C6900020708E6B5030280024F
:020C72008007F9
:070C740078907601020D23C8
:040C7B00758200225C
:070C7F00750BF0750C3F75C9
:060C86000D04750E00755F
:060C8C000FCD7510AB90C6
:070C9200E6B8E0FABAC00366
:030C9900020D2722
:030C9C00020E4005
:070C9F00750BE0750C3F75B9
:060CA6000D0C750E007537
:060CAC000F787510569050
:070CB200E6B9E0FABAE40321
:030CB900020D2702
:030CBC00020E40E5
:070CBF00750BC0750C3F75B9
:060CC6000D10750E007513
:060CCC000FCD7510AB9086
:070CD200E6B9E0FABAE20303
:030CD900020D27E2
:030CDC00020E40C5
:070CDF00750BA0750C3F75B9
:060CE6000D1C750E0075E7
:060CEC000FCD7510AB9066
:070CF200E6B8E0FABAC00306
:030CF900020D27C2
:030CFC00020E40A5
:070CFF00750BF8750C3F7541
:060D06000D02750E0075E0
:060D0C000FCD7510AB9045
:070D1200E6B8E0FABAC003E5
:030D1900020D27A1
:030D1C00020E4084
:040D1F0075820022B7
:030D2300758201D5
:010D260022AA
:0C0D27007AFF90E6B8E0FBBBC00280043D
:040D330075820022A3
:050D3700AB0DAC0E75D0
:0A0D3C000D00750E00C002C003C0D8
:0E0D460004120FBDD004D003D00274032BFBA7
:0A0D5400E43CFC8B0D8C0EC0021273
:0A0D5E000F10D002E50D24FDFBE5A7
:070D68000E34FFFC8B0D8C23
:0B0D6F000E90E740E0FBA3E0FCEBB5BA
:060D7A000F48ECB5104427
:040D80007A007B007A
:0A0D84007403250DFCE4350EFD8B11
:0A0D8E00067F00C3EE9CEF9D502C81
:0A0D9800EB2440F582E434E7F58314
:0A0DA200E0FC2AFAEB2440FCE434E4
:0A0DAC00E7FD74022B2440F582E4F9
:0C0DB60034E7F583E0FE8C828D83F00BA7
:020DC20080C0EF
:030DC400EA60647E
:040DC700850D088509
:030DCB000E09907E
:090DCE00E6B9E0FABAE102803452
:050DD700BAE202803DBC
:050DDC00BAE4028005ED
:050DE100BAE943801790
:020DE6007A0091
:030DE800BA0C0042
:020DEB00503E78
:0A0DED00EA2440F582E434E7F583C0
:060DF7007430F00A80EBED
:050DFD0090E7407513B2
:030E02009E7514C6
:060E05002812099D802067
:050E0B0090E7407513A3
:030E1000A27514B4
:060E13002812099D801267
:050E190090E740751395
:030E1E00BE75148A
:060E21002812099D800467
:040E270075820022AE
:0C0E2B0090E68AE4F000000090E68BE501
:080E37000DF0000000758201BE
:010E3F002290
:080E400090E6B8E0FABA401C8C
:070E48007899E608466015E9
:0C0E4F0090E6BCE0FAA3E0FB7899E6B561
:090E5B00020708E6B50302800459
:040E64007582002271
:090E680090E68AE4F090E68BF0BC
:080E710090E6A0E0FA20E1F890
:070E790090E68AE0FA701414
:050E8000AA0DAB0E906D
:0E0E8500E68BE0FC7D00B50206EDB5030280B1
:010E9300045A
:040E94007582002241
:060E98008A15AD158D0660
:060E9E008E071EEF602527
:0C0EA400C002C00374022E2440FFE4349E
:090EB000E7FCEE2440F582E43475
:0C0EB900E7F583E0FA8F828C83F0D00311
:040EC500D00280D502
:080EC90090E740E50FF0A3E5FE
:050ED10010F07C407EE2
:0A0ED600E78E9A759B407C007402C1
:030EE0002515FDD8
:090EE30090E67BE0FE2CFCDDF73B
:0A0EEC00740225152440F582E43459
:0C0EF600E7F583C3E49CFCF074032AFAC7
:080F0200E43BFB8A0D8B0E128B
:050F0A000FBD7582011E
:010F0F0022BF
:050F1000E50DFA70047C
:040F150075820122BE
:080F190090E678E0FB20E6F809
:0C0F210090E6787480F090E67974A3F0FC
:080F2D0090E678E0FB30E0F8EB
:080F350090E678E0FB20E27475
:080F3D0090E678E0FB30E16C66
:030F4500BA0108E6
:080F480090E678E0FB4420F084
:070F500090E679E07B407C94
:060F5700E78C9A7B407C50
:050F5D00E77C008B9B06
:040F6200DA02802609
:080F660090E678E0FB30E0F8B2
:080F6E0090E678E0FB20E23B75
:030F7600BA0108B5
:080F790090E678E0FB4420F053
:0B0F810090E679E0FB90E67BF080D664
:080F8C0090E678E0FA30E0F88D
:080F940090E678E0FA20E21576
:0E0F9C0090E678E0FA4440F090E679E0FA90B2
:070FAA00E67BF075820122D5
:0B0FB10090E678E0FA4440F075820002
:010FBC002212
:020FBD00AA0D7B
:080FBF0090E678E0FB20E6F863
:0C0FC70090E6787480F090E67974A2F057
:080FD30090E678E0FB30E0F845
:080FDB0090E678E0FB20E26BD8
:080FE30090E678E0FB30E163C9
:030FEB00EA600EAB
:070FEE007B407CE78C9A7B3D
:070FF500407CE77C008B9BB0
:020FFC007B0276
:030FFE00EA700393
:03100100EB603B66
:03100400EB60148A
:03100700BB020821
:08100A0090E679E50CF0800688
:0610120090E679E50BF009
:031018001B800A30
:0A101B0090E67BE0FC90E679F01A05
:0810250090E678E0FC30E0F8F1
:08102D0090E678E0FC20E219D6
:0810350090E678E0FC20E1C127
:02103D00800F22
:0E103F0090E678E0FA4440F012105A758201F3
:01104D002280
:0B104E0090E678E0FA4440F075820064
:011059002274
:08105A0090E678E0FA20E6F8C8
:0E10620090E678E0FA4480F090E67974A2F00F
:0810700090E678E0FA30E0F8A8
:0810780090E678E0FA4440F034
:0810800090E678E0FA20E6F8A2
:0810880090E678E0FA30E1D2B5
:01109000223D
:0528940001020000003C
:0528990001F700000042
:04289E0003021030F1
:0E28A2004A5441472D555342204361626C65F4
:0E28B000000000FDFDFDFD00000029A0113B11
:0E28BE0044436162557362000000FDFDFDFDA4
:0228CC0000000A
:07109100789CB60202807793
:07109800789DB600028011F3
:0B109F00120781789E760C758200120B
:0610AA00078A7582012295
:0510B000789CE670369B
:0610B5007891E630E01125
:0B10BB00120781789E760375820012F8
:0610C600078A7582012279
:0610CC007891E630E4110A
:0B10D200120781789E760375820012E1
:0610DD00078A7582012262
:0810E3007891E64401F6802437
:0510EB00789CB601082D
:0810F0007891E654FEF680172A
:0610F8007891E620E011F2
:0B10FE00120781789E760475820012B4
:06110900078A7582012235
:0A110F00789CE624F450030212035A
:0A111900789CE625E0269011237370
:0711230002114702115702FF
:06112A001167021203022E
:06113000117402118D0292
:0611360011C10211FC02D0
:06113C0011EE0211EE02AB
:0511420011F50211EEA1
:0A11470012120712078175820012D0
:06115100078A75820122ED
:0A11570012120E12078175820012B9
:06116100078A75820122DD
:0D1167009028CE75F08012081975820122C3
:07117400120781750B0075E5
:06117B000C6A750D1875E9
:0C1181000E0075820412078A758201229C
:07118D0090E67BE0FA60042C
:04119400D28580027E
:02119800C2850E
:07119A0090E67BE0FA60041F
:0411A100D283800273
:0211A500C28303
:0711A70090E67BE0FA600412
:0411AE00D286800263
:0211B200C286F3
:0D11B40012078175820012078A75820122E0
:0C11C100120781A285E433FA8A0BA28396
:0811CD00E433FA8A0C308404BB
:0411D5007A0080021A
:0211D9007A0199
:0A11DB008A0DA286E433FA8A0E752D
:0911E500820412078A75820122BE
:0711EE001215947582012225
:0711F5001219AD7582012201
:0711FC001212157582012299
:03120300758200F1
:0112060022C5
:06120700C283D285C286FD
:01120D0022BE
:06120E00C283D285C286F6
:0112140022B7
:0528CE00010200000002
:0528D30001F700000008
:0B1215007A007B0090E67BE0FC6004A8
:04122000D2858002F1
:02122400C28581
:0712260090E67BE0FC600490
:04122D00D2838002E6
:02123100C28376
:0E123300C286758204C002C003120763D00396
:0E12410000C00312078175820012078AD003D5
:07124F00D002AC0BAD0CAEA8
:041256000DAF0E8C3E
:04125A000F8D108E56
:09125E00118F12EC4D4E4F70028D
:021267007B0109
:03126900EB600631
:06126C00EA600302131CFE
:0D127200C002C0031206F4D003D002E4B5A0
:04127F000A028030AF
:051283007401B50A0F23
:0E1288007A01C002C003120781D003D0028099
:011296001C3B
:051297007402B50A130A
:0B129C007B01789E7602C002C00312A6
:0812A7000781D003D00280048E
:0412AF007A008069D8
:0312B300EB70B32A
:0512B600AC0BAD0CAE15
:0A12BB000DAF0EC3ED9404EE940095
:0512C500EF940050064B
:0612CA008C088D0980066E
:0612D00075080075090419
:0812D600AC08AD09E4FEFFE5E0
:0912DE000BC39CFCE50C9DFDE531
:0812E7000D9EFEE50E9FFF8C39
:0412EF000B8D0C8EC9
:0312F3000D8F0E4E
:0A12F600D28600C286150874FFB509
:0413000008021509C1
:06130400E508450970EC4C
:05130A00E50B450C4558
:06130F000D450E60030213
:0213150012695B
:051317007B01021269D8
:03131C00EA60295B
:07131F00E50FC3950BFAE591
:0513260010950CFBE531
:05132B0011950DFCE529
:0513300012950EFD8A7C
:041335000B8B0C8C86
:041339000D8D0E7890
:0B133D009EE64480F675820402078AD9
:011348002282
:08134900A908AA09E960010AE4
:0313510090E67BA8
:0E135400E0139283D286C286139283D286C2A1
:0E13620086139283D286C286139283D286C2ED
:0E13700086139283D286C286139283D286C2DF
:0E137E0086139283D286C286139283D286C2D1
:05138C0086D9C5DAC39B
:011391002239
:08139200A908AA09E960010A9B
:0A139A0090E67B058690E67C058650
:0E13A400E0139283A28413D286C2869283A2A3
:0E13B2008413D286C2869283A28413D286C28E
:0E13C000869283A28413D286C2869283A28470
:0E13CE0013D286C2869283A28413D286C28670
:0E13DC009283A28413D286C2869283A28413C7
:0E13EA00D286C286F40586F00586D9AEDAAC4E
:0113F80022D2
:0813F900A908AA09E960010A34
:0314010090E67CF6
:0E140400A284D286C28613A284D286C2861328
:0E141200A284D286C28613A284D286C286131A
:0E142000A284D286C28613A284D286C286130C
:0E142E00A284D286C28613A284D286C28613FE
:06143C00F4F0D9C1DABF93
:011442002287
:08144300A908AA09E960010AE9
:03144B0090E67BAD
:0E144E00E0139285D286C286139285D286C2A2
:0E145C0086139285D286C286139285D286C2EE
:0E146A0086139285D286C286139285D286C2E0
:0E14780086139285D286C286139285D286C2D2
:0514860086D9C5DAC3A0
:01148B00223E
:08148C00A908AA09E960010AA0
:0A14940090E67B058690E67C058655
:0E149E00E0139285A28413D286C2869285A2A4
:0E14AC008413D286C2869285A28413D286C291
:0E14BA00869285A28413D286C2869285A28471
:0E14C80013D286C2869285A28413D286C28673
:0E14D6009285A28413D286C2869285A28413C8
:0E14E400D286C286F40586F00586D9AEDAAC53
:0114F20022D7
:0814F300A908AA09E960010A39
:0314FB0090E67BFD
:0E14FE00E0139283139285D286C286139283E6
:0E150C00139285D286C286139283139285D2E3
:0E151A0086C286139283139285D286C286D92A
:03152800D5DAD33E
:01152B00229D
:08152C00A908AA09E960010AFF
:0A15340090E67B058690E67C0586B4
:02153E007C022D
:0E154000E0139283139285FBE8A28413F8EB6C
:0E154E00D286C286139283139285FBE8A28494
:0E155C0013F8EBD286C286139283139285FB9E
:0E156A00E8A28413F8EBD286C2861392831394
:0E1578009285FBE8A28413F8EBD286C286DCD3
:0D158600B9E8F40586F0058619D9ADDAAB99
:011593002235
:0715940075170075190075C1
:07159B001A00789CB6082A33
:0815A20075170190E67BE0F5EE
:0815AA001690E67BE0FE6004F0
:0415B200D28580025C
:0215B600C285EC
:0415B800E5166008CC
:0415BC00751B927594
:0415C0001C13805A1E
:0415C400751B4975D5
:0415C8001C1380521E
:0515CC00789CB6092522
:0A15D10075160190E67BE0FC600453
:0415DB00D285800233
:0215DF00C285C3
:0715E10090E67BE0FC6004D2
:0415E800D283800228
:0215EC00C283B8
:0415EE00751BF975FB
:0415F2001C1380281E
:0815F60075170190E67BE0F59A
:0815FE001690E67BE0FC60049E
:04160600D283800209
:02160A00C28399
:04160C00E516600877
:04161000751B8C7545
:041614001C1480061C
:04161800751B437586
:02161C001C149C
:0D161E0075820412076312078175820012A5
:04162B00078A850B9A
:03162F001D850C0A
:031632001E850D05
:031635001F850E00
:0316380020851DED
:03163B000F851EFA
:03163E0010851FF5
:03164100118520F0
:0A164400127407551DFD7A007B00AB
:07164E007C008D18AA1DE5C8
:0C1655001EC423CAC423541F6ACA541FB9
:0C166100CA6ACAFBE51FC42354E04BFB1F
:0A166D00AC1FE520C423CCC42354B5
:0C1677001F6CCC541FCC6CCCFE8A0B8B7B
:041683000C8C0D8E30
:051687000EE518601DD6
:05168C00AA0BAB0CAC41
:0A1691000DAE0E0ABA00090BBB00F3
:06169B00050CBC00010E6D
:0516A1008A0B8B0C8C8C
:0316A6000D8E0E98
:0516A900E50F451045AE
:0516AE0011451270035C
:0316B300751901A5
:0216B600C286EA
:0416B800E5196007C9
:0716BC00E51A60030218C0EB
:0716C3001206F4E50A602C99
:0516CA007401B50A0CDB
:0416CF00E51A7008A0
:0816D300751A01120781801B4A
:0516DB007402B50A10C5
:0716E000120781E519700FEC
:0916E700789E7602751901800657
:0616F000751A000218C08B
:0416F600E51760058F
:0516FA00E5AA20E0B9A3
:0416FF00E516600587
:05170300E5AA20E5B09D
:04170800E51970ACC3
:04170C00E517600E6F
:071710007A007BF08B9A7A4E
:07171700007BF07B008A9BC0
:04171E00E516600E5E
:071722007A007BF88B9D7A31
:07172900007BF87B008A9EA3
:04173000E517601940
:0E17340090E690E0FA8A037A0090E691E0FCDD
:0A1742007E004AF508EE4BF5098021
:01174C005448
:04174D00850B218562
:031751000C2285E2
:031754000D2385DD
:031757000E2490CD
:07175A00E680E0FF30E70626
:061761007A007B02800407
:041767007A407B0049
:0C176B008A07EBFD3395E0FAFBC3EF9515
:0617770021ED9522EA9528
:06177D0023EB9524501837
:0817830090E680E0FA30E70671
:06178B007A007B028004DD
:041791007A407B001F
:061795008A088B098006A2
:04179B008521088517
:02179F0022091D
:0817A100AA08AB09E4FCFDE518
:0917A9000BC39AFAE50C9BFBE569
:0817B2000D9CFCE50E9DFD8A73
:0417BA000B8B0C8CFD
:0417BE000D8D0EE59A
:0317C20018601399
:0517C500E50B450C4599
:0517CA000D450E700941
:0817CF00150874FFB5080215AE
:0117D7000908
:0617D800E5084509600967
:0717DE00851B82851C8312AC
:0217E500006B97
:0717E700E518700302188AE7
:0517EE00E50B450C4570
:0617F3000D450E6003022B
:0217F900188A4C
:0617FB00AA18E517700BAF
:031801003083042D
:041804007BFF8002E4
:021808007B0063
:02180A00800557
:05180C0090E67BE0FB0B
:05181100789CB60B26D7
:021816008A0442
:0B181800EBA2E09285C313FB308404B8
:041823007D008002C2
:021827007D0141
:03182900ED60056A
:05182C0043038080036E
:0318310053037FDF
:06183400D286C286DCDE54
:02183A0080220A
:0B183C00EBA2E09283C313FB30840496
:041847007C0080029F
:02184B007C011E
:03184D00EC600547
:0518500043038080034A
:0318550053037FBB
:06185800D286C286DADE32
:04185E00E516601D0E
:0C186200AD187A007408C39DFDE49AFAEA
:07186E008DF005F0EB800294
:02187500C3139B
:08187700D5F0FBFB90E67CF0CC
:07187F007518000508E4B52F
:041886000802050946
:04188A00E5176009F5
:09188E0090E6497482F0000000AC
:04189700E5166012E0
:0A189B0090E698E509F000000090C7
:0818A500E699E508F0000000DF
:0518AD00E50B450C45B0
:0618B2000D450E6003026B
:0218B80016B860
:0618BA007519010216B8C9
:0718C00012087D1208B5E5D6
:0418C7001A70012270
:0418CB00E518601D9F
:0518CF00AA0BAB0CACFC
:0A18D4000DAD0E1ABAFF091BBBFF91
:0618DE00051CBCFF011D0A
:0518E4008A0B8B0C8C47
:0318E9000D8D0E54
:0418EC00850D23E55E
:0A18F0000EC40354F8C523C403C559
:0418FA00236523C57A
:0618FE002354F8C5236528
:0419040023F524E5BE
:081908000CC40354074523F54C
:0319100023850B21
:0819130021E50CC40354F8C5E2
:06191B0021C403C5216593
:0619210021C52154F8C5A8
:04192700216521F520
:03192B00228521F1
:03192E000B852204
:031931000C8523FF
:031934000D8524FA
:091937000EAE18E4FFFAFBEE25E8
:0819400021FEEF3522FFEA351C
:0719480023FAEB3524FB8EAE
:04194F000B8F0C8A64
:041953000D8B0EE505
:091957000FC39EFEE5109FFFE5A1
:08196000119AFAE5129BFB8EBF
:041968000F8F108A43
:04196C00118B128E3B
:041970000B8F0C8A43
:041974000D8B0EE5E4
:03197800176004F1
:04197B007A808002EC
:02197F007A00EC
:04198100E516600403
:041985007B40800221
:021989007B00E1
:0A198B00EB4A789E46F6E51760046B
:041995007A0480024E
:021999007A00D2
:04199B00E5166004E9
:04199F007B04800243
:0219A3007B00C7
:0719A500EB2AF58202078A1C
:0119AC002218
:0719AD007526007527007587
:0719B400280090E67BE0F53E
:0819BB00257582041207631276
:0919C300078175820012078A8574
:0319CC000B2B855D
:0319CF000C2C8558
:0319D2000D2D8553
:0319D5000E2E854E
:0319D8002B0F854D
:0319DB002C108548
:0319DE002D118543
:0319E1002E12E5DE
:0419E4002B452C451E
:0519E8002D452E7003E7
:0319ED007527015A
:0C19F0007407552BFAE4FDFBFC74032582
:0819FC002BFBE4352CFCE43563
:071A04002DFDE4352EFE8BE1
:041A0B000B8C0C8DA7
:0A1A0F000DEEF50EC313FEED13FDFE
:0E1A1900EC13FCEB13FBEEC313FEED13FDEC20
:0A1A270013FCEB13FB8B0B8C0C8DF2
:041A31000D8E0EE523
:031A350025600821
:041A380075292C756B
:041A3C002A158006E1
:041A40007529F3759C
:021A44002A1462
:021A4600C28656
:041A4800E527600727
:071A4C00E5286003021C5AAB
:0B1A5300C0021206F4D002E50A603465
:051A5E007401B50A103F
:041A6300E528700CF6
:0C1A6700752801C002120781D002801F08
:051A73007402B50A1425
:0B1A7800C002120781D002E527700FAA
:091A8300789E76027527018006A9
:061A8C00752800021C5A3F
:051A9200E5AA20E0B10F
:041A9700E5256005DC
:051A9B00E5AA20E5A80A
:041AA000E52770A422
:071AA4007D007EF08E9A7DAB
:081AAB00007EF07E008D9BE53A
:031AB30025601299
:041AB600E526700EA3
:071ABA007D007EF88E9D7D8A
:071AC100007EF87E008D9EFF
:0E1AC80090E690E0FD8D067D0090E691E0FF37
:0A1AD6007B002DF508EB3EF509AB8F
:071AE00008AC09E4FDFEE57E
:091AE7000BC39BFBE50C9CFCE524
:081AF0000D9DFDE50E9EFE8B2D
:041AF8000B8C0C8DBA
:061AFC000D8E0EEA602CC5
:051B0200E50B450C4558
:051B07000D450E7022E7
:0E1B0C008A03FC74032BFBE43CFCA2E713CB22
:0C1B1A0013CBA2E713CB13CBFCE508C3F0
:071B26009BF508E5099CF5A1
:011B2D0009AE
:061B2E00E5084509600D09
:091B3400C002852982852A831272
:041B3D00006BD00267
:061B4100EA7003021BD74D
:051B4700E50B450C4513
:061B4C000D450E600302CE
:021B52001BD79F
:091B54007B0090E67BE0FC7D00C3
:051B5D00C3ED9A5031B8
:031B6200BD0405BA
:051B650090E67BE0FCAE
:0E1B6A00ECA2E09283C313FCA2E09285C313A9
:081B7800FCEBC313FB308404F5
:041B80007E00800261
:021B84007E01E0
:031B8600EE60030B
:031B890043038093
:071B8C00D286C2860D80CA5B
:041B9300E525601CC8
:0E1B97008A047D007408C39CFCE49DFD8CF064
:051BA50005F0EB8002D9
:021BAA00C31363
:071BAC00D5F0FB90E67CF090
:0E1BB3008A037C0074032BFBE43CFCA2E713C6
:0C1BC100CB13CBA2E713CB13CBFCEB251E
:051BCD0008F508EC35ED
:051BD20009F5097A008D
:041BD700E52560633D
:051BDB00E50B450C457F
:051BE0000D450E60043C
:041BE500E52660523F
:071BE9000508E4B508020540
:011BF00009EB
:081BF100E509C313C50813C583
:041BF90008F509E5FD
:031BFD002660243B
:081C000090E680E0FB30E706EE
:061C08007B007C02800459
:041C0E007B407C009B
:0C1C1200ECA2E713CB13CBFCEB2508F58C
:051C1E0008EC3509F59A
:011C230009B7
:0A1C240090E698E509F0000000903A
:091C2E00E699E508F000000075DC
:041C37002600800300
:031C3B007526010A
:0C1C3E0090E6497482F0000000E50B45C0
:041C4A000C450D45F3
:061C4E000E6003021A48BB
:061C5400752701021A4889
:0C1C5A00C00212087D001208B5D002E59F
:041C660028700122BF
:0A1C6A00E50B25E0FBE50C33FCE57B
:0A1C74000D33FDE50E33FEEB2BFBF4
:0C1C7E00EC33FCED33FDEE33FE8B0B8CE1
:041C8A000C8D0D8E22
:041C8E000EEA603DBD
:041C9200EA30E21D35
:051C9600AB0BAC0CAD2E
:0A1C9B000DAE0E1BBBFF091CBCFFC1
:061CA500051DBDFF011E3C
:051CAB008B0B8C0C8D79
:031CB0000D8E0E88
:0A1CB300E4FBFCFDEA250BFAEB351B
:081CBD000CFBEC350DFCED35CC
:051CC5000EFD8A0B8BEF
:041CCA000C8C0D8DE4
:011CCE000E07
:071CCF00E50FC3950BFAE5D8
:051CD60010950CFBE578
:051CDB0011950DFCE570
:051CE00012950EFD8AC3
:041CE5000F8B108CC5
:041CE900118D128ABD
:041CED000B8B0C8CC5
:041CF1000D8D0EE562
:031CF5002570084F
:051CF800F50FF510F5E9
:031CFD0011F512CC
:0C1D0000789EE644C0F675820802078A4F
:011D0C0022B4
:0528D8000102000000F8
:0528DD0001F7000000FE
:0600E400752F00753000CD
:071D0D00789CB6020280770A
:071D1400789DB6000280116A
:0B1D1B00120781789E760C7582001282
:061D2600078A758201220C
:051D2C00789CE6703612
:061D31007891E630E41198
:0B1D3700120781789E7603758200126F
:061D4200078A75820122F0
:061D48007891E630E01185
:0B1D4E00120781789E76037582001258
:061D5900078A75820122D9
:081D5F007891E64410F680249F
:051D6700789CB60108A4
:081D6C007891E654EFF68017B0
:061D74007891E620E41165
:0B1D7A00120781789E7604758200122B
:061D8500078A75820122AD
:0A1D8B00789CE624F75003021E4383
:0A1D9500789CE625E026901D9F7360
:071D9F00021DBA021DD00273
:061DA6001DE0021DED022C
:061DAC001DF7021E0102FA
:061DB2001E18021E2F02A4
:021DB8001E39D2
:071DBA00752F0075300012C7
:091DC1001E471207817582001211
:061DCA00078A7582012268
:0A1DD000121E4E12078175820012E8
:061DDA00078A7582012258
:0D1DE0009028E775F0801208197582012225
:0A1DED00121E60121F2175820122F0
:0A1DF700120781121F2175820122DC
:0B1E010090E67BE0FAF582121F7712DA
:0C1E0C00078175820012078A758201228E
:0B1E180090E67BE0FAF582121E5512E6
:0C1E2300078175820012078A7582012277
:0A1E2F00758201121F8775820122DF
:0A1E3900758200121F8775820122D6
:031E4300758200A5
:011E46002279
:061E4700C283D285C286B1
:011E4D002272
:061E4E00C283D285C286AA
:011E5400226B
:051E5500E582FA6003C4
:031E5A00D285220C
:021E5D00C2853C
:011E5F002260
:0A1E600075820412076312078185E2
:031E6A000B4185A4
:031E6D000C42859F
:031E70000D43859A
:0A1E73000E44906BFF75F0DC740262
:0E1E7D001227CEAA82AB83ACF0FD0ABA000990
:091E8B000BBB00050CBC00010DAD
:051E94008A0B8B0C8C91
:0A1E99000D8D0EC374249AE49BE43F
:051EA3009CE49D4004D9
:041EA800753000226F
:051EAC00AA0BAB0CAC19
:0A1EB1000DAD0EC374579AE49BE4D4
:051EBB009CE49D4004C1
:041EC0007530012256
:0E1EC400EA24C0FAEB34FFFBEC34FFFCED34F3
:091ED200FFFD754118E4F542F52D
:0A1EDB0043F5448A828B838CF0EDFE
:0E1EE5001227CEAA82AB83ACF0FD0ABA000928
:091EF3000BBB00050CBC00010D45
:051EFC008A0B8B0C8C29
:041F01000D8D0E85AF
:031F05000B348515
:031F08000C358510
:031F0B000D36850B
:0A1F0E000E37EB7006EC7003ED6077
:011F180004C4
:041F19007530FF22FE
:031F1D00853430D8
:011F2000229E
:041F2100E530700D2A
:071F2500750B56750C587591
:061F2C000D14F50E803FCC
:0C1F3200E53075F018A4243FFAE435F007
:091F3E00FB8A41F5423395E0F500
:0A1F470043F544906BFF75F0DC7465
:0E1F5100021227CEAA82AB83ACF0FD0ABA00C2
:0A1F5F00090BBB00050CBC00010DCE
:051F69008A0B8B0C8CBB
:031F6E000D8D0EC8
:061F710075820402078ADC
:0A1F7700AA8274075AF52F30E10327
:031F8100D28622E3
:021F8400C28613
:011F86002238
:091F8700AA82753900753A009038
:091F9000E67BE0FB90E67BE0F546
:041F990038EA600BB7
:081F9D0075320190E67BE0F5CE
:031FA50033800C7A
:071FA80090E67BE0F53175C6
:051FAF00330175320052
:0E1FB400758204C00312076300120781758254
:091FC2000012078AD003AA0BAF3C
:041FCB000CAE0DAD9E
:041FCF000E8A0F8FD8
:041FD300108E118DCE
:041FD70012EB6004A5
:041FDB00D285800229
:021FDF00C285B9
:071FE100E5306003022085DA
:041FE800E532603747
:041FEC00E533603346
:051FF000E52F30E217AF
:051FF500E52F30E009BA
:041FFA00753B267598
:031FFE003C23027F
:0220010020B20B
:04200300753B85752F
:032007003C230275
:02200A0020B202
:05200C00E52F30E009A2
:04201100753B68753E
:032015003C220268
:0220180020B2F4
:04201A00753BC775D6
:03201E003C22025F
:0220210020B2EB
:04202300E532602F13
:05202700E52F30E21579
:05202C00E52F30E00883
:04203100753B9875EE
:042035003C2480794E
:04203900753BF2758C
:04203D003C2480714E
:05204100E52F30E0086E
:04204600753BE4758D
:04204A003C2380644F
:04204E00753B3E752B
:042052003C24805C4E
:05205600E52F30E2154A
:05205B00E52F30E00854
:04206000753B047553
:042064003C26804A4C
:04206800753B6175EE
:04206C003C2680424C
:05207000E52F30E0083F
:04207500753B4C75F6
:042079003C2580354D
:04207D00753BA77593
:042081003C25802D4D
:05208500E52F30E2151B
:05208A00E52F30E00825
:04208F00753BBE756A
:042093003C26801B4C
:04209700753B4675DA
:04209B003C2780134B
:05209F00E52F30E00810
:0420A400753B027511
:0420A8003C2780064B
:0420AC00753B8A7581
:0220B0003C27CB
:0420B200E5396007A5
:0720B600E53A60030221F985
:0720BD001206F4E50A602C95
:0520C4007401B50A0CD7
:0420C900E53A70087C
:0820CD00753A01120781801B26
:0520D5007402B50A10C1
:0720DA00120781E539700FC8
:0920E100789E7602753901800633
:0620EA00753A000221F925
:0420F000E532600570
:0520F400E5AA20E0B99F
:0420F900E533600566
:0520FD00E5AA20E5B09A
:04210200E53970AC9F
:04210600E532600E50
:07210A007E007FF08F9A7E3A
:07211100007FF07F008E9BB0
:04211800E533600E3D
:07211C007E007FF88F9D7E1D
:07212300007FF87F008E9E93
:04212A00E532601921
:0E212E0090E690E0FE8E077E0090E691E0FACB
:0A213C007D004EF508ED4FF5098017
:012146005345
:04214700850F3D853E
:03214B00103E85BE
:03214E00113F85B9
:03215100124090A9
:07215400E680E0FC30E70625
:06215B007A007B02800403
:042161007A407B0045
:0C2165008A04EB3395E0FAFDC3EC953DD5
:08217100EB953EEA953FED9568
:03217900405018BB
:08217C0090E680E0FA30E7066E
:062184007A007B028004DA
:04218A007A407B001C
:06218E008A088B0980069F
:04219400853D0885F8
:022198003E09FE
:08219A00AA08AB09E4FCFDE515
:0921A2000FC39AFAE5109BFBE55E
:0821AB00119CFCE5129DFD8A68
:0421B3000F8B108CF2
:0421B700118D1285EF
:0621BB003B82853C83120B
:0621C100006BE53260092D
:0921C70090E6497482F00000006A
:0421D000E533601281
:0A21D40090E698E509F00000009085
:0821DE00E699E508F00000009D
:0521E600E50F45104566
:0621EB0011451260030221
:0221F10020B21A
:0621F3007539010220B263
:0421F900E538600461
:0421FD00D285800205
:02220100C28594
:0722030012087D1208B5E589
:03220A003A605ADD
:07220D00E50BC3950FFAE594
:052214000C9510FBE534
:052219000D9511FCE52C
:05221E000E9512FD8A7F
:042223000B8B0C8C89
:042227000D8D0E8A81
:04222B000F8B108C79
:04222F00118D12E516
:0322330032600412
:042236007A80800228
:02223A007A0028
:04223C00E533600422
:042240007B4080025D
:022244007B001D
:0A224600EB4A789E46F6E53260048C
:042250007A0480028A
:022254007A000E
:04225600E533600408
:04225A007B0480027F
:02225E007B0003
:07226000EB2AF58202078A58
:012267002254
:08226800A908AA09E960010AB6
:0E22700090E67BE0339283B286B286A284337E
:0E227E009283B286B286A284339283B286B275
:0E228C0086A284339283B286B286A2843392F5
:0E229A0083B286B286A284339283B286B28665
:0E22A800A284339283B286B286A284339283DC
:0E22B600B286B286A28433F490E67CF0D9ACF6
:0222C400DAAA94
:0122C60022F5
:0822C700A908AA09E960010A57
:0E22CF0090E67BE0339283B286A28433B2861F
:0E22DD009283B286A28433B2869283B286A226
:0E22EB008433B2869283B286A28433B2869286
:0E22F90083B286A28433B2869283B286A28418
:0E23070033B2869283B286A28433B28692836A
:0E231500B286A28433B286F490E67CF0D9AC96
:02232300DAAA34
:012325002295
:08232600A908AA09E960010AF7
:0E232E0090E67BE0139283B286B286A28413FF
:0E233C009283B286B286A284139283B286B2D6
:0E234A0086A284139283B286B286A284139276
:0E23580083B286B286A284139283B286B286C6
:0E236600A284139283B286B286A2841392835D
:0E237400B286B286A28413F490E67CF0D9AC57
:02238200DAAAD5
:012384002236
:08238500A908AA09E960010A98
:0E238D0090E67BE0139283B286A28413B286A0
:0E239B009283B286A28413B2869283B286A287
:0E23A9008413B2869283B286A28413B2869207
:0E23B70083B286A28413B2869283B286A28479
:0E23C50013B2869283B286A28413B2869283EC
:0E23D300B286A28413B286F490E67CF0D9ACF8
:0223E100DAAA76
:0123E30022D7
:0823E400A908AA09E960010A39
:0323EC0090E67BFD
:0E23EF00E0339283B286B286A284339283B228
:0E23FD0086B286A284339283B286B286A28410
:0E240B00339283B286B286A284339283B28665
:0E241900B286A284339283B286B286A2843346
:0E2427009283B286B286A284339283B286B2CA
:0824350086A28433D9B4DAB2A7
:01243D00227C
:08243E00A908AA09E960010ADE
:0324460090E67BA2
:0E244900E0339283B286A28433B2869283B2CD
:0E24570086A28433B2869283B286A28433B208
:0E246500869283B286A28433B2869283B286B8
:0E247300A28433B2869283B286A28433B286EC
:0E2481009283B286A28433B2869283B286A280
:08248F008433B286D9B4DAB23D
:012497002222
:08249800A908AA09E960010A84
:0324A00090E67B48
:0E24A300E0139283B286B286A284139283B2B3
:0E24B10086B286A284139283B286B286A2847B
:0E24BF00139283B286B286A284139283B286F1
:0E24CD00B286A284139283B286B286A28413D2
:0E24DB009283B286B286A284139283B286B236
:0824E90086A28413D9B4DAB213
:0124F10022C8
:0824F200A908AA09E960010A2A
:0324FA0090E67BEE
:0E24FD00E0139283B286A28413B2869283B259
:0E250B0086A28413B2869283B286A28413B293
:0E251900869283B286A28413B2869283B28623
:0E252700A28413B2869283B286A28413B28677
:0E2535009283B286A28413B2869283B286A2EB
:082543008413B286D9B4DAB2A8
:01254B00226D
:08254C00A908AA09E960010ACF
:0325540090E67C92
:0E255700339283B286B286A284339283B28618
:0E256500B286A284339283B286B286A28433F9
:0E2573009283B286B286A284339283B286B27D
:0E25810086A284339283B286B286A2843392FD
:0E258F0083B286B286A284339283B286B2866D
:09259D00A28433F4F0D9B3DAB1E1
:0125A6002212
:0825A700A908AA09E960010A74
:0325AF0090E67C37
:0C25B200E531339283B286A28433B286F6
:0E25BE009283B286A28433B2869283B286A242
:0E25CC008433B2869283B286A28433B28692A2
:0E25DA0083B286A28433B2869283B286A28434
:0E25E80033B2869283B286A28433B286928387
:0D25F600B286A28433B286F4F0D9B1DAAF18
:0126030022B4
:08260400A908AA09E960010A16
:03260C0090E67CD9
:0C260F00E531139283B286B286A28413D8
:0E261B009283B286B286A284139283B286B2F4
:0E26290086A284139283B286B286A284139294
:0E26370083B286B286A284139283B286B286E4
:0E264500A284139283B286B286A2841392837B
:0D265300B286B286A28413F4F0D9B1DAAFDA
:012660002257
:08266100A908AA09E960010AB9
:0326690090E67C7C
:0C266C00E531139283B286A28413B2867B
:0E2678009283B286A28413B2869283B286A2A7
:0E2686008413B2869283B286A28413B2869227
:0E26940083B286A28413B2869283B286A28499
:0E26A20013B2869283B286A28413B28692830C
:0D26B000B286A28413B286F4F0D9B1DAAF7D
:0126BD0022FA
:0826BE00A908AA09E960010A5C
:0626C600E532600274FF22
:0826CC0004FBE533600274FF1A
:0226D40004FC04
:0926D600E531BB000490E67BE055
:0226DF007D0874
:0726E10013B2869283A830BA
:0826E800D8FEB286A284A830DE
:0D26F000D8FEDDED13BC0005F490E67CF093
:0426FD00D9D7DAD57A
:0127010022B5
:08270200A908AA09E960010A17
:06270A00E532600274FFDD
:0827100004FBE533600274FFD5
:0227180004FCBF
:09271A00E531BB000490E67BE010
:022723007D082F
:0727250033B2869283A83055
:08272C00D8FEB286A284A83099
:0D273400D8FEDDED33BC0005F490E67CF02E
:04274100D9D7DAD535
:012745002271
:08274600A908AA09E960010AD3
:06274E00E532600274FF99
:0827540004FBE533600274FF91
:02275C0004FC7B
:09275E00E531BB000490E67BE0CC
:022767007D08EB
:05276900139283A8306B
:08276E00D8FEB286A284A83057
:0E277600D8FEB286DDED13BC0005F490E67CC3
:01278400F064
:04278500D9D7DAD5F1
:01278900222D
:08278A00A908AA09E960010A8F
:06279200E532600274FF55
:0827980004FBE533600274FF4D
:0227A00004FC37
:0927A200E531BB000490E67BE088
:0227AB007D08A7
:0527AD00339283A83007
:0827B200D8FEB286A284A83013
:0E27BA00D8FEB286DDED33BC0005F490E67C5F
:0127C800F020
:0427C900D9D7DAD5AD
:0127CD0022E9
:0528E2000102000000EE
:0528E70001F7000000F4
:0EE10000120100020000004043140100000064
:04E10E000102000109
:0AE112000A060002000000400100B0
:0EE11C0009022E0001010080FA09040000042F
:0EE12A00FF000000070501024000000705810C
:0EE138000240000007050202000200070586F3
:04E1460002000200D1
:0EE14A0009022E0001010080FA090400000401
:0EE15800FF00000007050102400000070581DE
:0EE16600024000000705020240000007058687
:04E174000240000065
:093F00000205340002056800020C
:083F09000552000205CC000284
:083F1100057E000205EA000232
:083F1900064400020644000208
:083F2100064400020644000200
:083F29000644000206440002F8
:083F31000644000206440002F0
:083F39000644000206440002E8
:083F41000644000206440002E0
:083F49000644000206440002D8
:083F51000644000206440002D0
:083F59000644000206440002C8
:083F61000644000206440002C0
:083F69000644000206440002B8
:083F71000644000206440002B0
:083F79000644000206440002A8
:083F81000644000206440002A0
:083F8900064400020644000298
:083F9100064400020644000290
:083F9900064400020644000288
:083FA100064400020644000280
:083FA900064400020644000278
:073FB1000644000206440073
:0827CE00FB7A20E4FCFDFEFF94
:0E27D600E5822582F582E58333F583E5F03355
:0B27E400F5F0EB33FB4017DAE9804210
:0E27EF00E5822582F582E58333F583E5F0333C
:0527FD00F5F0EB33FBD9
:0E280200EC33FCED33FDEE33FEEF33FFEC95CF
:0628100041ED9542EE953A
:0828160043EF95444013EC95DB
:08281E0041FCED9542FDEE9531
:0928260043FEEF9544FF438201DB
:02282F00DABE0F
:02283100EB2298
:06009C00E478FFF6D8FD38
:08007A007900E94400601B7AE3
:05008200009028EC785D
:030087000075A061
:0A008A00E0E493F2A308B8000205B9
:08009400A0D9F4DAF275A0FF17
:0E28330020F71030F6118883A88220F507F6F2
:05284100A8837583006F
:01284600226F
:03284700F280F725
:02284A00F0227A
:0400A20075A00078CD
:0700A60000E8440060077947
:0600AD0000E4F309D8FC99
:0800B3007800E84400600C79BC
:0B00BB000090E000E4F0A3D8FCD9FAAC
:02006B00E4733C
:0E284C0090E682E044C0F090E681F043870100
:06285A0000000000002256
:03006D0075814456
:0A00700012287CE58260030200669E
:0E28600020F71430F6148883A88220F507E6CE
:06286E00A883758300221F
:03287400E280F708
:03287700E49322C5
:02287A00E0225A
:04287C00758200223F
:00000001FF
