:0400000002006D325B
:01000B0032C2
:0100130032BA
:01001B0032B2
:0100230032AA
:01002B0032A2
:0300330002063A88
:01003B003292
:03004300021F0099
:01004B003282
:03005300021F0089
:01005B003272
:0300630002063E54
:0300E400020066B1
:050066001200E780FE1E
:0900E700788176007880760090A3
:0E00F000E60B7403F000000000000090E60034
:0E00FE007410F075802075B2EF75900075B328
:0E010C00FF75B00075B5FF90E67AE0FA440189
:0B011A00F090E60174E0F01201F69096
:0E012500E6097403F000000075890100000077
:06013300788276000876D8
:04013900E17884766F
:05013D00120876E178D4
:0501420086761C087622
:04014700E17888765D
:0A014B004A0876E1D2E843D820907C
:0E015500E668E0FA4409F090E65CE0FA443D0A
:0E016300F0D2AF90E680E0FA54F7F0538EF839
:080171001201B67890E6600768
:07017900120192789076005C
:050180007881E6600734
:0701850078817600121CFFD7
:05018C0012063E80E0B8
:01019100224B
:0A01920090E680E0FA440AF07A00DB
:02019C00DAFE89
:0E019E0090E65D74FFF090E65F74FFF0539101
:0901AC00EF90E680E0FA54F7F050
:0101B5002227
:0501B6007880E6601BEB
:0701BB00120278E5827008D2
:0801C20090E6A0E0FA4401F010
:0C01CA0090E6A0E0FA4480F07880760017
:0101D6002206
:0E01D70090E6837401F07421F07411F074311D
:0E01E500F090E6837402F07422F07416F07449
:0201F30036F0E4
:0101F50022E7
:0E01F60090E610E4F000000090E611E4F00046
:0E020400000090E612E4F000000090E613E423
:0D021200F000000090E614E4F00000009001
:0E021F00E615E4F000000090E618E4F00000A0
:0E022D000090E619E4F000000090E61AE4F0FC
:0E023B0000000090E61BE4F000000090E610CA
:0E02490074A0F000000090E61174A0F0000018
:0E0257000090E61274A0F000000090E614740F
:0E026500E0F000000090E68DE4F000000012D2
:0502730008A502086D62
:0C02780090E6B9E0FA24F45003020527D8
:07028400EA2A2A90028B73A5
:07028B000203720203FC02F2
:0602920005270204A6028C
:0602980005270205270204
:06029E0002AF0205270279
:0602A400035D02034B02A2
:0502AA000324020339EA
:0A02AF0090E6BBE0FABA0102800FEE
:0502B900BA02028036CC
:0502BE00BA0602801BDE
:0502C300BA075A804259
:0902C800788290E6B308E6F078B4
:0B02D1008286027B0090E6B4EAF00297
:0202DC00052AF1
:0902DE00788490E6B308E6F0789C
:0B02E7008486027B0090E6B4EAF0027F
:0202F200052ADB
:0902F400788A90E6B308E6F07880
:0B02FD008A86027B0090E6B4EAF00263
:02030800052AC4
:09030A00788C90E6B308E6F07867
:0B0313008C86027B0090E6B4EAF0024A
:02031E00052AAE
:0403200075820022C0
:0803240090E740788FE6F090AD
:0B032C00E68AE4F090E68B7401F0021A
:02033700052A95
:0A03390090E6BAE0FA788FA60212EF
:0603430001F61201D702D1
:02034900052A83
:0A034B0090E6BAE0FA788EA60212DE
:0603550001F61201D702BF
:02035B00052A71
:08035D0090E740788EE6F09075
:0B036500E68AE4F090E68B7401F002E1
:02037000052A5C
:0A03720090E6B8E0FABA8002800AB3
:05037C00BA8102801BA4
:05038100BA8274802C1B
:0A03860090E740E4F090E741F090AA
:0A039000E68AF090E68B7402F0029A
:02039A00052A32
:0A039C0090E740E4F090E741F09094
:0A03A600E68AF090E68B7402F00284
:0203B000052A1C
:0E03B20090E6BCE0FA53027E90E6BCE0FBC38E
:0E03C00074809BE433FB4A901D3893FA33950A
:0E03CE00E0FB74A12AFA74E63BFB8A828B8363
:0E03DC00E0FA53020190E740EAF090E741E4B6
:0C03EA00F090E68AF090E68B7402F002BE
:0203F600052AD6
:0403F80075820022E8
:0703FC0090E6B8E0FA60088A
:05040300BA02028012A4
:0304080002052AC0
:0B040B0090E6BAE0FABA010302052AED
:0404160075820022C9
:09041A0090E6BAE060030204A2BE
:0E04230090E6BCE0FA53027E90E6BCE0FBC31C
:0E04310074809BE433FB4A901D3893FA339598
:0E043F00E0FB74A12AFA74E63BFB90E6BCE0F9
:0E044D00FC53047E90E6BCE0FDC374809DE489
:0E045B0033FD4C901D3893FC3395E0FD74A1E9
:0E0469002CFC74E63DFD8C828D83E0FC530478
:0E047700FE8A828B83ECF090E6BCE05480FAA3
:0E048500C423541FFA90E6BCE0FB740F5B909A
:0D049300E6832AF090E683E0FA4420F002B0
:0204A000052A2B
:0404A200758200223D
:0704A60090E6B8E0FA6005E2
:0504AD00BA027A80187C
:0A04B20090E6BAE0FABA0102806E8B
:0A04BC0090E6BAE0FABA020280648A
:0404C6007582002219
:0E04CA0090E6BCE0FA53027E90E6BCE0FBC375
:0E04D80074809BE433FB4A901D3893FA3395F1
:0E04E600E0FB74A12AFA74E63BFB90E6BCE052
:0E04F400FC53047E90E6BCE0FDC374809DE4E2
:0E05020033FD4C901D3893FC3395E0FD74A141
:0E0510002CFC74E63DFD8C828D83E0FC4304E0
:09051E00018A828B83ECF080035A
:030527000209FCCA
:03052A00758201D6
:01052D0022AB
:0C052E00C0E0C082C083C000788076016D
:09053A005391EF90E65D7401F0AD
:09054300D000D083D082D0E03258
:0E054C00C0E0C082C0835391EF90E65D74045E
:01055A00F0B0
:07055B00D083D082D0E03212
:0E056200C0E0C082C0835391EF90E65D74024A
:01057000F09A
:07057100D083D082D0E032FC
:0D057800C0E0C082C083C002C003C0007894
:0A058500888602088603788AA60221
:0C058F0008A6038A828B83A37402F07814
:0A059B00868602088603788CA6020B
:0E05A50008A6038A828B83A37407F05391EF9C
:0605B30090E65D7410F0FB
:0D05B900D000D003D002D083D082D0E03239
:0C05C600C0E0C082C083C00078817601D4
:0905D2005391EF90E65D7408F00E
:0905DB00D000D083D082D0E032C0
:0D05E400C0E0C082C083C002C003C0009010
:0705F100E680E0FA30E72C80
:0A05F80078868602088603788AA63A
:0D0602000208A6038A828B83A37402F0789D
:0A060F00888602088603788CA60294
:0B06190008A6038A828B83A37407F0FD
:090624005391EF90E65D7420F0A3
:0D062D00D000D003D002D083D082D0E032C4
:03063A0053D8EFA3
:01063D00328A
:051D33000102000000A8
:0A1D38000001020203030404050584
:0A00C600789076007891E4F608F6D1
:0C00D00008F608F67895E4F608F608F645
:0800DC0008F67899E4F608F635
:07063E0012067CE582601446
:0706450012065AE582700D58
:0B064C00120771789E76017582000293
:02065700077A20
:01065900227E
:07065A00789BB60002800E40
:07066100789BB60102800A3C
:07066800789BB6020B80062F
:03066F0002090578
:0306720002096911
:03067500021081EF
:0306780075820088
:01067B00225C
:05067C00E5BA30E104C5
:04068100758200225C
:07068500789E76007A807B6D
:06068C00E78B9A7A807BE7
:0C069200E77B008A9B90E67BE0FA7B008F
:05069E000ABA00010B87
:0E06A30090E68DE0FC7D00EAB50406EBB5059F
:0306B100028011B3
:0B06B400120771789E7601758200121B
:0606BF00077A758200229B
:0A06C50090E67BE0FA789BA6029015
:0906CF00E67BE0FA789CA602909B
:0B06D800E67BE0FA789DA60275820127
:0106E30022F4
:0506E400E5BA30E1045D
:0406E900750A00226C
:0C06ED0090E780E0FA7B000ABA00010BE5
:0E06F90090E68DE0FC7D00EAB50406EBB50549
:030707000280115C
:0B070A00120771789E760175820012C4
:06071500077A750AFF22BD
:0B071B0090E781E0FA789BE6B502173A
:0A07260090E782E0FAE4BA800104D3
:09073000FA789C8603EB4A600490
:04073900750A01221A
:06073D0090E781E0700C62
:0807430090E782E0FABA02041B
:04074B00750A022207
:03074F00750AFF29
:010752002284
:08075300AA827B0B7C007D40B3
:0E075B0090E67BE0FE8B828C838DF0121CE614
:07076900A3AB82AC83DAEBC5
:010770002266
:0807710090E68DE4F0000000A9
:01077900225D
:07077A00AA82E5BA30E2019A
:010781002255
:070782007BC07CE78C9D7B2E
:08078900C07CE77C008B9E9010
:08079100E67CEA04F0789E907A
:07079900E67CE6F07B0B7C1F
:0507A000007D408A0607
:0307A500EE6017EC
:0E07A8008B828C838DF0121D13FFA3AB82ACED
:0907B6008390E67CEFF01E80E662
:0A07BF0090E68F74022AF00000009B
:0107C900220D
:0707CA00AA82E5BA30E2014A
:0107D1002205
:0707D2007BC07CE78C9D7BDE
:0807D900C07CE77C008B9E90C0
:0807E100E67CEA04F0789E902A
:0407E900E67CE6F0D4
:0107ED0022E9
:0507EE00E5BA30E20154
:0107F30022E3
:0807F40090E7C1789EE6F09049
:0C07FC00E7C0E0FA90E68F04F000000077
:0108080022CD
:0E080900AA82AB83ACF090E67BE0FDC002C09B
:0E08170003C004C005120771D005D004D00341
:07082500D002E5BA30E20148
:01082C0022A9
:07082D007EC07FE78F9D7E76
:08083400C07FE77F008E9E905B
:0C083C00E67CED04F090E67CE4F08D0614
:03084800EE601748
:0E084B008A828B838CF0121D13FFA3AA82AB4E
:090859008390E67CEFF01E80E6BE
:0A08620090E68F74022DF0000000F4
:01086C002269
:0E086D0090E618E4F000000090E6047480F0BD
:0E087B0000000090E6047402F00000007A0411
:0B08890090E6497482F0000000DAF5F0
:0E08940090E604E4F000000090E6A3E4F0001B
:0208A200000054
:0108A4002231
:0E08A50090E61AE4F000000090E6047480F083
:0D08B30000000090E6047406F000000090C4
:0E08C000E604E4F000000090E6A5E4F000007D
:0108CE000029
:0108CF002206
:0808D00090E680E0FA30E70633
:0608D8007A007B0280049F
:0408DE007A407B00E1
:0E08E20090E624EBF000000090E680E0FA3093
:0208F000E70619
:0608F2007A007B02800485
:0408F8007A407B00C7
:0808FC0090E625EAF00000007F
:0109040022D0
:07090500789CB60202800796
:07090C00789CB60350800542
:05091300120771804D88
:0A091800758204120753120771E5FF
:080922000BF4FAE50CF4FBE50F
:0A092A000DF4FCE50EF4FD747B2AC9
:0C093400FAE43BFBE43CFCE43DFD8A0BD4
:050940008B0C8C0D8DF5
:050945000E1211E7781D
:0C094A0091E4F608F608F608F61208A57D
:0B09560012086D75820412077A8004FD
:040961007582002279
:0309650075820197
:01096800226C
:05096900789CB60217A6
:07096E00120771750B007503
:060975000C00750D007579
:0A097B000E0075820412077A800452
:040985007582002255
:0309890075820173
:01098C002248
:0A098D00AA82AB83E508450970015A
:01099700223D
:07099800AC14BCE60280056F
:05099F008B05BDE631EF
:0809A4008A068B07AC13AD14A9
:0E09AC008E028F038C828D83E0F88A828B830B
:0609BA00F00EBE00010F6B
:0509C0000CBC00010D5C
:0809C500150874FFB5080215C6
:0109CD000920
:0609CE00E508450970D8A0
:0109D4002200
:0C09D5008C9AAC137E008C9B8D9D7B00E7
:0509E1008A9E0209E7F7
:0109E60022EE
:0809E700A90890E67B0586904B
:0409EF00E67C058617
:0809F300E00586F00586D9F845
:0109FB0022D9
:0A09FC0090E6B9E0FABAA202804AC0
:050A0600BAA3028045C7
:060A0B00BAE103020CCF6A
:060A1100BAE203020CAF83
:060A1700BAE303020CAF7C
:060A1D00BAE403020C8F95
:060A2300BAE503020C8F8E
:060A2900BAE603020B9C7B
:060A2F00BAE703020BC749
:060A3500BAE803020C0FF9
:060A3B00BAE903020C6F92
:060A4100BAEA03020C3EBC
:060A4700BAEB03020CEF04
:030A4D00020D0F88
:0B0A500090E6BAE0FAA3E0FB8A0B8BF3
:0A0A5B000C90E6BEE0FAA3E0FB9069
:090A6500E6B8E0FCBCC00280030D
:030A6E00020B0177
:070A7100EA4B7003020D13B4
:080A780090E6A0E0FC20E1F88B
:080A800090E6B9E0FCBCA211F4
:0A0A8800750D00750E00C002C003DA
:070A9200120FADD003D002EA
:090A9900C3EA9440EB94005006FE
:060AA2008A0D8B0E800698
:060AA800750D40750E0003
:080AAE0090E6B9E0FCBCA20DCA
:0D0AB600C002C003120F00D003D002801A4E
:040AC300850D088510
:030AC7000E099085
:040ACA00E740850B71
:030ACE0013850C81
:0C0AD10014C002C00312098DD003D00233
:080ADD0090E68AE4F0AC0DADD7
:080AE5000E90E68BECF0EC250D
:070AED000BFEED350CFF8E3E
:0A0AF4000B8F0CEAC39CFAEB9DFB8C
:030AFE00020A7178
:0A0B01007899E608467003020B988D
:0C0B0B0090E6BCE0FCA3E0FD7899E6B5A4
:090B1700040708E6B5050280029E
:020B20008076DD
:080B220090E6B8E0FCBC406E57
:070B2A00EA4B7003020D13FA
:090B310090E68AE4F090E68BF0F6
:080B3A0090E6A0E0FC20E1F8C8
:0A0B420090E68BE0FC7D008C0D8D29
:090B4C000E90E6B9E0FCBCA31F09
:040B5500850D08857D
:030B59000E0985FD
:060B5C000B82850C83757D
:030B6200134075C8
:070B650014E7C002C00312F7
:080B6C00098DD003D002800BBB
:0B0B7400C002C003120FADD003D0027E
:060B7F00AC0DAD0EEC25EB
:070B85000BFEED350CFF8EA5
:0A0B8C000B8F0CEAC39CFAEB9DFBF3
:020B960080924B
:040B98007582002240
:0A0B9C0090E6B8E0FABAC002800348
:030BA600020D132A
:080BA90090E6A0E0FA20E1F85B
:0E0BB10090E7407403F0A3F090E68AE4F09021
:080BBF00E68B7402F0020D1335
:0A0BC70090E6B8E0FABAC00280031D
:030BD100020D13FF
:080BD40090E6A0E0FA20E1F830
:0E0BDC0090E7407401F0A3E4F0A3F0A3F090C2
:0B0BEA00E744E4F5F0121CE6A3E4125F
:0A0BF5001CE6A3E4121CE6A3E412C0
:080BFF001CE690E68AE4F09088
:080C0700E68B7408F0020D13E6
:080C0F0090E6B8E0FABA4023B8
:090C170090E68AE4F090E68BF00F
:080C200090E6A0E0FA20E1F8E3
:0C0C280090E740E0FAA3E0FB7899A602F8
:060C340008A603020D13E7
:040C3A00758200229D
:080C3E0090E6B8E0FABA402587
:070C46007899E60846601EE4
:0C0C4D0090E6BCE0FAA3E0FB7899E6B565
:090C5900020708E6B5030280025F
:020C6200800709
:070C640078907601020D13E8
:040C6B00758200226C
:070C6F00750BF0750C3F75D9
:060C76000D04750E00756F
:060C7C000FCD7510AB90D6
:070C8200E6B8E0FABAC00376
:030C8900020D1742
:030C8C00020E3025
:070C8F00750BE0750C3F75C9
:060C96000D0C750E007547
:060C9C000F787510569060
:070CA200E6B9E0FABAE40331
:030CA900020D1722
:030CAC00020E3005
:070CAF00750BC0750C3F75C9
:060CB6000D10750E007523
:060CBC000FCD7510AB9096
:070CC200E6B9E0FABAE20313
:030CC900020D1702
:030CCC00020E30E5
:070CCF00750BA0750C3F75C9
:060CD6000D1C750E0075F7
:060CDC000FCD7510AB9076
:070CE200E6B8E0FABAC00316
:030CE900020D17E2
:030CEC00020E30C5
:070CEF00750BF8750C3F7551
:060CF6000D02750E0075F1
:060CFC000FCD7510AB9056
:070D0200E6B8E0FABAC003F5
:030D0900020D17C1
:030D0C00020E30A4
:040D0F0075820022C7
:030D1300758201E5
:010D160022BA
:0C0D17007AFF90E6B8E0FBBBC00280044D
:040D230075820022B3
:050D2700AB0DAC0E75E0
:0A0D2C000D00750E00C002C003C0E8
:0E0D360004120FADD004D003D00274032BFBC7
:0A0D4400E43CFC8B0D8C0EC0021283
:0A0D4E000F00D002E50D24FDFBE5C7
:070D58000E34FFFC8B0D8C33
:0B0D5F000E90E740E0FBA3E0FCEBB5CA
:060D6A000F48ECB5104437
:040D70007A007B008A
:0A0D74007403250DFCE4350EFD8B21
:0A0D7E00067F00C3EE9CEF9D502C91
:0A0D8800EB2440F582E434E7F58324
:0A0D9200E0FC2AFAEB2440FCE434F4
:0A0D9C00E7FD74022B2440F582E409
:0C0DA60034E7F583E0FE8C828D83F00BB7
:020DB20080C0FF
:030DB400EA60648E
:040DB700850D088519
:030DBB000E09908E
:090DBE00E6B9E0FABAE102803462
:050DC700BAE202803DCC
:050DCC00BAE4028005FD
:050DD100BAE9438017A0
:020DD6007A00A1
:030DD800BA0C0052
:020DDB00503E88
:0A0DDD00EA2440F582E434E7F583D0
:060DE7007430F00A80EBFD
:050DED0090E7407513C2
:030DF2004775142E
:060DF5001D12098D802093
:050DFB0090E7407513B4
:030E00004B75141B
:060E03001D12098D801292
:050E090090E7407513A5
:030E0E00677514F1
:060E11001D12098D800492
:040E170075820022BE
:0C0E1B0090E68AE4F000000090E68BE511
:080E27000DF0000000758201CE
:010E2F0022A0
:080E300090E6B8E0FABA401C9C
:070E38007899E608466015F9
:0C0E3F0090E6BCE0FAA3E0FB7899E6B571
:090E4B00020708E6B50302800469
:040E54007582002281
:090E580090E68AE4F090E68BF0CC
:080E610090E6A0E0FA20E1F8A0
:070E690090E68AE0FA701424
:050E7000AA0DAB0E907D
:0E0E7500E68BE0FC7D00B50206EDB5030280C1
:010E8300046A
:040E84007582002251
:060E88008A15AD158D0670
:060E8E008E071EEF602537
:0C0E9400C002C00374022E2440FFE434AE
:090EA000E7FCEE2440F582E43485
:0C0EA900E7F583E0FA8F828C83F0D00321
:040EB500D00280D512
:080EB90090E740E50FF0A3E50E
:050EC10010F07C407EF2
:0A0EC600E78E9A759B407C007402D1
:030ED0002515FDE8
:090ED30090E67BE0FE2CFCDDF74B
:0A0EDC00740225152440F582E43469
:0C0EE600E7F583C3E49CFCF074032AFAD7
:080EF200E43BFB8A0D8B0E129C
:050EFA000FAD7582013F
:010EFF0022D0
:050F0000E50DFA70048C
:040F050075820122CE
:080F090090E678E0FB20E6F819
:0C0F110090E6787480F090E67974A3F00C
:080F1D0090E678E0FB30E0F8FB
:080F250090E678E0FB20E27485
:080F2D0090E678E0FB30E16C76
:030F3500BA0108F6
:080F380090E678E0FB4420F094
:070F400090E679E07B407CA4
:060F4700E78C9A7B407C60
:050F4D00E77C008B9B16
:040F5200DA02802619
:080F560090E678E0FB30E0F8C2
:080F5E0090E678E0FB20E23B85
:030F6600BA0108C5
:080F690090E678E0FB4420F063
:0B0F710090E679E0FB90E67BF080D674
:080F7C0090E678E0FA30E0F89D
:080F840090E678E0FA20E21586
:0E0F8C0090E678E0FA4440F090E679E0FA90C2
:070F9A00E67BF075820122E5
:0B0FA10090E678E0FA4440F075820012
:010FAC002222
:020FAD00AA0D8B
:080FAF0090E678E0FB20E6F873
:0C0FB70090E6787480F090E67974A2F067
:080FC30090E678E0FB30E0F855
:080FCB0090E678E0FB20E26BE8
:080FD30090E678E0FB30E163D9
:030FDB00EA600EBB
:070FDE007B407CE78C9A7B4D
:070FE500407CE77C008B9BC0
:020FEC007B0286
:030FEE00EA7003A3
:030FF100EB603B77
:030FF400EB60149B
:030FF700BB020832
:080FFA0090E679E50CF0800699
:0610020090E679E50BF019
:031008001B800A40
:0A100B0090E67BE0FC90E679F01A15
:0810150090E678E0FC30E0F801
:08101D0090E678E0FC20E219E6
:0810250090E678E0FC20E1C137
:02102D00800F32
:0E102F0090E678E0FA4440F012104A75820113
:01103D002290
:0B103E0090E678E0FA4440F075820074
:011049002284
:08104A0090E678E0FA20E6F8D8
:0E10520090E678E0FA4480F090E67974A2F01F
:0810600090E678E0FA30E0F8B8
:0810680090E678E0FA4440F044
:0810700090E678E0FA20E6F8B2
:0810780090E678E0FA30E1D2C5
:01108000224D
:051D4200010200000099
:041D47000101103056
:0E1D4B004A5441472D555342204361626C6556
:0E1D5900000000FDFDFDFD0000004031F534EE
:0E1D670044436162557362000000FDFDFDFD06
:021D750000006C
:07108100789CB602028060BA
:07108800789DB60002801103
:0B108F00120771789E760C758200122B
:06109A00077A75820122B5
:0510A000789CE6701FC2
:0610A5007891E630E01135
:0B10AB00120771789E76037582001218
:0610B600077A7582012299
:0810BC007891E64401F680245E
:0510C400789CB6010854
:0810C9007891E654FEF6801751
:0610D1007891E620E01119
:0B10D700120771789E760475820012EB
:0610E200077A758201226D
:0A10E800789CE624F450030211DCAA
:0A10F200789CE625E0269010FC73C0
:0710FC000211200211300275
:0611030011400211DC02A4
:06110900114D0211660207
:06110F00119A0211D50245
:0611150011C70211C70220
:05111B0011CE0211C716
:0A1120001211E0120771758200122F
:06112A00077A7582012224
:0A1130001211E71207717582001218
:06113A00077A7582012214
:0D114000901D7775F080120809758201225C
:07114D00120771750B00751C
:061154000C6A750D187510
:0C115A000E0075820412077A75820122D3
:0711660090E67BE0FA600453
:04116D00D2858002A5
:02117100C28535
:0711730090E67BE0FA600446
:04117A00D28380029A
:02117E00C2832A
:0711800090E67BE0FA600439
:04118700D28680028A
:02118B00C2861A
:0D118D0012077175820012077A7582012227
:0C119A00120771A285E433FA8A0BA283CD
:0811A600E433FA8A0C308404E2
:0411AE007A00800241
:0211B2007A01C0
:0A11B4008A0DA286E433FA8A0E7554
:0911BE00820412077A75820122F5
:0711C70012156D7582012273
:0711CE00121986758201224F
:0711D5001211EE75820122E8
:0311DC0075820019
:0111DF0022ED
:0611E000C283D285C28625
:0111E60022E6
:0611E700C283D285C2861E
:0111ED0022DF
:051D7700010200000064
:0B11EE007A007B0090E67BE0FC6004D0
:0411F900D285800219
:0211FD00C285A9
:0711FF0090E67BE0FC6004B8
:04120600D28380020D
:02120A00C2839D
:0E120C00C286758204C002C003120753D003CD
:0E121A0000C00312077175820012077AD0031C
:07122800D002AC0BAD0CAECF
:04122F000DAF0E8C65
:041233000F8D108E7D
:09123700118F12EC4D4E4F7002B4
:021240007B0130
:03124200EB600658
:06124500EA60030212F54D
:0D124B00C002C0031206E4D003D002E4B5D7
:041258000A028030D6
:05125C007401B50A0F4A
:0E1261007A01C002C003120771D003D00280D0
:01126F001C62
:051270007402B50A1331
:0B1275007B01789E7602C002C00312CD
:081280000771D003D0028004C5
:041288007A008069FF
:03128C00EB70B351
:05128F00AC0BAD0CAE3C
:0A1294000DAF0EC3ED9404EE9400BC
:05129E00EF9400500672
:0612A3008C088D09800695
:0612A90075080075090440
:0812AF00AC08AD09E4FEFFE507
:0912B7000BC39CFCE50C9DFDE558
:0812C0000D9EFEE50E9FFF8C60
:0412C8000B8D0C8EF0
:0312CC000D8F0E75
:0A12CF00D28600C286150874FFB530
:0412D90008021509E9
:0612DD00E508450970EC74
:0512E300E50B450C4580
:0612E8000D450E6003023B
:0212EE001242AA
:0512F0007B0102124227
:0312F500EA602983
:0712F800E50FC3950BFAE5B9
:0512FF0010950CFBE559
:0513040011950DFCE550
:0513090012950EFD8AA3
:04130E000B8B0C8CAD
:041312000D8D0E78B7
:0B1316009EE64480F675820402077A10
:0113210022A9
:08132200A908AA09E960010A0B
:03132A0090E67BCF
:0E132D00E0139283D286C286139283D286C2C8
:0E133B0086139283D286C286139283D286C214
:0E13490086139283D286C286139283D286C206
:0E13570086139283D286C286139283D286C2F8
:0513650086D9C5DAC3C2
:01136A002260
:08136B00A908AA09E960010AC2
:0A13730090E67B058690E67C058677
:0E137D00E0139283A28413D286C2869283A2CA
:0E138B008413D286C2869283A28413D286C2B5
:0E139900869283A28413D286C2869283A28497
:0E13A70013D286C2869283A28413D286C28697
:0E13B5009283A28413D286C2869283A28413EE
:0E13C300D286C286F40586F00586D9AEDAAC75
:0113D10022F9
:0813D200A908AA09E960010A5B
:0313DA0090E67C1E
:0E13DD00A284D286C28613A284D286C2861350
:0E13EB00A284D286C28613A284D286C2861342
:0E13F900A284D286C28613A284D286C2861334
:0E140700A284D286C28613A284D286C2861325
:06141500F4F0D9C1DABFBA
:01141B0022AE
:08141C00A908AA09E960010A10
:0314240090E67BD4
:0E142700E0139285D286C286139285D286C2C9
:0E14350086139285D286C286139285D286C215
:0E14430086139285D286C286139285D286C207
:0E14510086139285D286C286139285D286C2F9
:05145F0086D9C5DAC3C7
:011464002265
:08146500A908AA09E960010AC7
:0A146D0090E67B058690E67C05867C
:0E147700E0139285A28413D286C2869285A2CB
:0E1485008413D286C2869285A28413D286C2B8
:0E149300869285A28413D286C2869285A28498
:0E14A10013D286C2869285A28413D286C2869A
:0E14AF009285A28413D286C2869285A28413EF
:0E14BD00D286C286F40586F00586D9AEDAAC7A
:0114CB0022FE
:0814CC00A908AA09E960010A60
:0314D40090E67B24
:0E14D700E0139283139285D286C2861392830D
:0E14E500139285D286C286139283139285D20B
:0E14F30086C286139283139285D286C286D952
:03150100D5DAD365
:0115040022C4
:08150500A908AA09E960010A26
:0A150D0090E67B058690E67C0586DB
:021517007C0254
:0E151900E0139283139285FBE8A28413F8EB93
:0E152700D286C286139283139285FBE8A284BB
:0E15350013F8EBD286C286139283139285FBC5
:0E154300E8A28413F8EBD286C28613928313BB
:0E1551009285FBE8A28413F8EBD286C286DCFA
:0D155F00B9E8F40586F0058619D9ADDAABC0
:01156C00225C
:07156D0075170075190075E8
:071574001A00789CB6082A5A
:08157B0075170190E67BE0F515
:081583001690E67BE0FE600417
:04158B00D285800283
:02158F00C28513
:04159100E5166008F3
:04159500751B6B75E2
:041599001C13805A45
:04159D00751B227523
:0415A1001C13805245
:0515A500789CB6092549
:0A15AA0075160190E67BE0FC60047A
:0415B400D28580025A
:0215B800C285EA
:0715BA0090E67BE0FC6004F9
:0415C100D28380024F
:0215C500C283DF
:0415C700751BD27549
:0415CB001C13802845
:0815CF0075170190E67BE0F5C1
:0815D7001690E67BE0FC6004C5
:0415DF00D283800231
:0215E300C283C1
:0415E500E51660089F
:0415E900751B657594
:0415ED001C14800644
:0415F100751B1C75D5
:0215F5001C14C4
:0D15F70075820412075312077175820012ED
:04160400077A850BD1
:031608001D850C31
:03160B001E850D2C
:03160E001F850E27
:0316110020851D14
:031614000F851E21
:0316170010851F1C
:03161A0011852017
:0A161D00127407551DFD7A007B00D2
:071627007C008D18AA1DE5EF
:0C162E001EC423CAC423541F6ACA541FE0
:0C163A00CA6ACAFBE51FC42354E04BFB46
:0A164600AC1FE520C423CCC42354DC
:0C1650001F6CCC541FCC6CCCFE8A0B8BA2
:04165C000C8C0D8E57
:051660000EE518601DFD
:05166500AA0BAB0CAC68
:0A166A000DAE0E0ABA00090BBB001A
:06167400050CBC00010E94
:05167A008A0B8B0C8CB3
:03167F000D8E0EBF
:05168200E50F451045D5
:05168700114512700383
:03168C00751901CC
:02168F00C28611
:04169100E5196007F0
:07169500E51A600302189939
:07169C001206E4E50A602CD0
:0516A3007401B50A0C02
:0416A800E51A7008C7
:0816AC00751A01120771801B81
:0516B4007402B50A10EC
:0716B900120771E519700F23
:0916C000789E760275190180067E
:0616C900751A00021899D9
:0416CF00E5176005B6
:0516D300E5AA20E0B9CA
:0416D800E5166005AE
:0516DC00E5AA20E5B0C5
:0416E100E51970ACEB
:0416E500E517600E97
:0716E9007A007BF08B9A7A76
:0716F000007BF07B008A9BE8
:0416F700E516600E86
:0716FB007A007BF88B9D7A59
:07170200007BF87B008A9ECA
:04170900E517601967
:0E170D0090E690E0FA8A037A0090E691E0FC04
:0A171B007E004AF508EE4BF5098048
:01172500546F
:04172600850B218589
:03172A000C228509
:03172D000D238504
:031730000E2490F4
:07173300E680E0FF30E7064D
:06173A007A007B0280042E
:041740007A407B0070
:0C1744008A07EBFD3395E0FAFBC3EF953C
:0617500021ED9522EA954F
:0617560023EB952450185E
:08175C0090E680E0FA30E70698
:061764007A007B02800404
:04176A007A407B0046
:06176E008A088B098006C9
:04177400852108853E
:02177800220944
:08177A00AA08AB09E4FCFDE53F
:091782000BC39AFAE50C9BFBE590
:08178B000D9CFCE50E9DFD8A9A
:041793000B8B0C8C24
:041797000D8D0EE5C1
:03179B00186013C0
:05179E00E50B450C45C0
:0517A3000D450E700968
:0817A800150874FFB5080215D5
:0117B000092F
:0617B100E508450960098E
:0717B700851B82851C8312D3
:0217BE00006BBE
:0717C000E518700302186335
:0517C700E50B450C4597
:0617CC000D450E60030252
:0217D20018639A
:0617D400AA18E517700BD6
:0317DA0030830455
:0417DD007BFF80020C
:0217E1007B008B
:0217E30080057F
:0517E50090E67BE0FB33
:0517EA00789CB60B26FF
:0217EF008A046A
:0B17F100EBA2E09285C313FB308404E0
:0417FC007D008002EA
:021800007D0168
:03180200ED600591
:05180500430380800395
:03180A0053037F06
:06180D00D286C286DCDE7B
:02181300802231
:0B181500EBA2E09283C313FB308404BD
:041820007C008002C6
:021824007C0145
:03182600EC60056E
:05182900430380800371
:03182E0053037FE2
:06183100D286C286DADE59
:04183700E516601D35
:0C183B00AD187A007408C39DFDE49AFA11
:071847008DF005F0EB8002BB
:02184E00C313C2
:08185000D5F0FBFB90E67CF0F3
:071858007518000508E4B556
:04185F00080205096D
:04186300E51760091C
:0918670090E6497482F0000000D3
:04187000E516601207
:0A18740090E698E509F000000090EE
:08187E00E699E508F000000006
:05188600E50B450C45D7
:06188B000D450E60030292
:021891001691AE
:0618930075190102169117
:0718990012086D1208A5E51D
:0418A0001A70012297
:0418A400E518601DC6
:0518A800AA0BAB0CAC23
:0A18AD000DAD0E1ABAFF091BBBFFB8
:0618B700051CBCFF011D31
:0518BD008A0B8B0C8C6E
:0318C2000D8D0E7B
:0418C500850D23E585
:0A18C9000EC40354F8C523C403C580
:0418D300236523C5A1
:0618D7002354F8C523654F
:0418DD0023F524E5E6
:0818E1000CC40354074523F574
:0318E90023850B49
:0818EC0021E50CC40354F8C50A
:0618F40021C403C52165BB
:0618FA0021C52154F8C5D0
:04190000216521F547
:0319040022852118
:031907000B85222B
:03190A000C852326
:03190D000D852421
:091910000EAE18E4FFFAFBEE250F
:0819190021FEEF3522FFEA3543
:0719210023FAEB3524FB8ED5
:041928000B8F0C8A8B
:04192C000D8B0EE52C
:091930000FC39EFEE5109FFFE5C8
:08193900119AFAE5129BFB8EE6
:041941000F8F108A6A
:04194500118B128E62
:041949000B8F0C8A6A
:04194D000D8B0EE50B
:0319510017600418
:041954007A80800213
:021958007A0013
:04195A00E51660042A
:04195E007B40800248
:021962007B0008
:0A196400EB4A789E46F6E517600492
:04196E007A04800275
:021972007A00F9
:04197400E516600410
:041978007B0480026A
:02197C007B00EE
:07197E00EB2AF58202077A53
:01198500223F
:0719860075260075270075AE
:07198D00280090E67BE0F565
:081994002575820412075312AD
:09199C00077175820012077A85BB
:0319A5000B2B8584
:0319A8000C2C857F
:0319AB000D2D857A
:0319AE000E2E8575
:0319B1002B0F8574
:0319B4002C10856F
:0319B7002D11856A
:0319BA002E12E505
:0419BD002B452C4545
:0519C1002D452E70030E
:0319C60075270181
:0C19C9007407552BFAE4FDFBFC740325A9
:0819D5002BFBE4352CFCE4358A
:0719DD002DFDE4352EFE8B09
:0419E4000B8C0C8DCF
:0A19E8000DEEF50EC313FEED13FD26
:0E19F200EC13FCEB13FBEEC313FEED13FDEC48
:0A1A000013FCEB13FB8B0B8C0C8D19
:041A0A000D8E0EE54A
:031A0E0025600848
:041A110075290575B9
:041A15002A15800608
:041A19007529CC75EA
:021A1D002A1489
:021A1F00C2867D
:041A2100E52760074E
:071A2500E5286003021C33F9
:0B1A2C00C0021206E4D002E50A60349C
:051A37007401B50A1066
:041A3C00E528700C1D
:0C1A4000752801C002120771D002801F3F
:051A4C007402B50A144C
:0B1A5100C002120771D002E527700FE1
:091A5C00789E76027527018006D0
:061A6500752800021C338D
:051A6B00E5AA20E0B136
:041A7000E525600503
:051A7400E5AA20E5A831
:041A7900E52770A449
:071A7D007D007EF08E9A7DD2
:081A8400007EF07E008D9BE561
:031A8C00256012C0
:041A8F00E526700ECA
:071A93007D007EF88E9D7DB1
:071A9A00007EF87E008D9E26
:0E1AA10090E690E0FD8D067D0090E691E0FF5E
:0A1AAF007B002DF508EB3EF509ABB6
:071AB90008AC09E4FDFEE5A5
:091AC0000BC39BFBE50C9CFCE54B
:081AC9000D9DFDE50E9EFE8B54
:041AD1000B8C0C8DE1
:061AD5000D8E0EEA602CEC
:051ADB00E50B450C4580
:051AE0000D450E70220F
:0E1AE5008A03FC74032BFBE43CFCA2E713CB4A
:0C1AF30013CBA2E713CB13CBFCE508C318
:071AFF009BF508E5099CF5C9
:011B060009D5
:061B0700E5084509600D30
:091B0D00C002852982852A831299
:041B1600006BD0028E
:061B1A00EA7003021BB09B
:051B2000E50B450C453A
:061B25000D450E600302F5
:021B2B001BB0ED
:091B2D007B0090E67BE0FC7D00EA
:051B3600C3ED9A5031DF
:031B3B00BD0405E1
:051B3E0090E67BE0FCD5
:0E1B4300ECA2E09283C313FCA2E09285C313D0
:081B5100FCEBC313FB3084041C
:041B59007E00800288
:021B5D007E0107
:031B5F00EE600332
:031B6200430380BA
:071B6500D286C2860D80CA82
:041B6C00E525601CEF
:0E1B70008A047D007408C39CFCE49DFD8CF08B
:051B7E0005F0EB800200
:021B8300C3138A
:071B8500D5F0FB90E67CF0B7
:0E1B8C008A037C0074032BFBE43CFCA2E713ED
:0C1B9A00CB13CBA2E713CB13CBFCEB2545
:051BA60008F508EC3514
:051BAB0009F5097A00B4
:041BB000E525606364
:051BB400E50B450C45A6
:051BB9000D450E600463
:041BBE00E526605266
:071BC2000508E4B508020567
:011BC9000912
:081BCA00E509C313C50813C5AA
:041BD20008F509E524
:031BD60026602462
:081BD90090E680E0FB30E70616
:061BE1007B007C02800481
:041BE7007B407C00C3
:0C1BEB00ECA2E713CB13CBFCEB2508F5B4
:051BF70008EC3509F5C2
:011BFC0009DF
:0A1BFD0090E698E509F00000009062
:091C0700E699E508F00000007503
:041C10002600800327
:031C140075260131
:0C1C170090E6497482F0000000E50B45E7
:041C23000C450D451A
:061C27000E6003021A2109
:061C2D00752701021A21D7
:0C1C3300C00212086D001208A5D002E5E6
:041C3F0028700122E6
:0A1C4300E50B25E0FBE50C33FCE5A2
:0A1C4D000D33FDE50E33FEEB2BFB1B
:0C1C5700EC33FCED33FDEE33FE8B0B8C08
:041C63000C8D0D8E49
:041C67000EEA603DE4
:041C6B00EA30E21D5C
:051C6F00AB0BAC0CAD55
:0A1C74000DAE0E1BBBFF091CBCFFE8
:061C7E00051DBDFF011E63
:051C84008B0B8C0C8DA0
:031C89000D8E0EAF
:0A1C8C00E4FBFCFDEA250BFAEB3542
:081C96000CFBEC350DFCED35F3
:051C9E000EFD8A0B8B16
:041CA3000C8C0D8D0B
:011CA7000E2E
:071CA800E50FC3950BFAE5FF
:051CAF0010950CFBE59F
:051CB40011950DFCE597
:051CB90012950EFD8AEA
:041CBE000F8B108CEC
:041CC200118D128AE4
:041CC6000B8B0C8CEC
:041CCA000D8D0EE589
:031CCE0025700876
:051CD100F50FF510F510
:031CD60011F512F3
:0C1CD900789EE644C0F675820802077A87
:011CE50022DC
:051D7C0001020000005F
:0EE10000120100020000004043140100000064
:04E10E000102000109
:0AE112000A060002000000400100B0
:0EE11C0009022E0001010080FA09040000042F
:0EE12A00FF000000070501024000000705810C
:0EE138000240000007050202000200070586F3
:04E1460002000200D1
:0EE14A0009022E0001010080FA090400000401
:0EE15800FF00000007050102400000070581DE
:0EE16600024000000705020240000007058687
:04E174000240000065
:091F000002052E00020562000238
:081F0900054C000205C60002B0
:081F11000578000205E400025E
:081F1900063E0002063E000234
:081F2100063E0002063E00022C
:081F2900063E0002063E000224
:081F3100063E0002063E00021C
:081F3900063E0002063E000214
:081F4100063E0002063E00020C
:081F4900063E0002063E000204
:081F5100063E0002063E0002FC
:081F5900063E0002063E0002F4
:081F6100063E0002063E0002EC
:081F6900063E0002063E0002E4
:081F7100063E0002063E0002DC
:081F7900063E0002063E0002D4
:081F8100063E0002063E0002CC
:081F8900063E0002063E0002C4
:081F9100063E0002063E0002BC
:081F9900063E0002063E0002B4
:081FA100063E0002063E0002AC
:081FA900063E0002063E0002A4
:071FB100063E0002063E009F
:06009C00E478FFF6D8FD38
:08007A007900E94400601B7AE3
:0500820000901D8178D3
:030087000075A061
:0A008A00E0E493F2A308B8000205B9
:08009400A0D9F4DAF275A0FF17
:0E1CE60020F71030F6118883A88220F507F64B
:051CF400A883758300C8
:011CF90022C8
:031CFA00F280F77E
:021CFD00F022D3
:0400A20075A00078CD
:0700A60000E8440060077947
:0600AD0000E4F309D8FC99
:0800B3007800E84400600C79BC
:0B00BB000090E000E4F0A3D8FCD9FAAC
:02006B00E4733C
:0E1CFF0090E682E044C0F090E681F043870159
:061D0D00000000000022AE
:03006D0075812F6B
:0A007000121D2FE5826003020066F6
:0E1D130020F71430F6148883A88220F507E626
:061D2100A8837583002277
:031D2700E280F760
:031D2A00E493221D
:021D2D00E022B2
:041D2F007582002297
:00000001FF
